{
	"farming/eZKaliburProxy.sol": {
		"eZKaliburProxy": {
			"abi": [
				{
					"anonymous": false,
					"inputs": [],
					"name": "DisableWhitelist",
					"type": "event"
				},
				{
					"anonymous": false,
					"inputs": [],
					"name": "EnableWhitelist",
					"type": "event"
				},
				{
					"anonymous": false,
					"inputs": [
						{
							"indexed": true,
							"internalType": "address",
							"name": "previousOwner",
							"type": "address"
						},
						{
							"indexed": true,
							"internalType": "address",
							"name": "newOwner",
							"type": "address"
						}
					],
					"name": "OwnershipTransferred",
					"type": "event"
				},
				{
					"anonymous": false,
					"inputs": [
						{
							"indexed": true,
							"internalType": "address",
							"name": "_address",
							"type": "address"
						},
						{
							"indexed": false,
							"internalType": "bool",
							"name": "whitelist",
							"type": "bool"
						}
					],
					"name": "Whitelisted",
					"type": "event"
				},
				{
					"inputs": [
						{
							"internalType": "bool",
							"name": "disable",
							"type": "bool"
						}
					],
					"name": "disableWhitelist",
					"outputs": [],
					"stateMutability": "nonpayable",
					"type": "function"
				},
				{
					"inputs": [
						{
							"internalType": "contract IBEP20",
							"name": "_token",
							"type": "address"
						}
					],
					"name": "initialize",
					"outputs": [],
					"stateMutability": "nonpayable",
					"type": "function"
				},
				{
					"inputs": [
						{
							"internalType": "address",
							"name": "_address",
							"type": "address"
						}
					],
					"name": "isWhitelist",
					"outputs": [
						{
							"internalType": "bool",
							"name": "",
							"type": "bool"
						}
					],
					"stateMutability": "view",
					"type": "function"
				},
				{
					"inputs": [],
					"name": "owner",
					"outputs": [
						{
							"internalType": "address",
							"name": "",
							"type": "address"
						}
					],
					"stateMutability": "view",
					"type": "function"
				},
				{
					"inputs": [
						{
							"internalType": "contract IBEP20",
							"name": "_token",
							"type": "address"
						},
						{
							"internalType": "uint256",
							"name": "_amount",
							"type": "uint256"
						},
						{
							"internalType": "address",
							"name": "_to",
							"type": "address"
						}
					],
					"name": "recoverToken",
					"outputs": [],
					"stateMutability": "nonpayable",
					"type": "function"
				},
				{
					"inputs": [],
					"name": "renounceOwnership",
					"outputs": [],
					"stateMutability": "nonpayable",
					"type": "function"
				},
				{
					"inputs": [
						{
							"internalType": "address",
							"name": "to",
							"type": "address"
						},
						{
							"internalType": "uint256",
							"name": "amount",
							"type": "uint256"
						}
					],
					"name": "safeMeerkatTransfer",
					"outputs": [
						{
							"internalType": "uint256",
							"name": "",
							"type": "uint256"
						}
					],
					"stateMutability": "nonpayable",
					"type": "function"
				},
				{
					"inputs": [
						{
							"internalType": "address",
							"name": "_address",
							"type": "address"
						},
						{
							"internalType": "bool",
							"name": "_on",
							"type": "bool"
						}
					],
					"name": "setWhitelist",
					"outputs": [],
					"stateMutability": "nonpayable",
					"type": "function"
				},
				{
					"inputs": [
						{
							"internalType": "address",
							"name": "newOwner",
							"type": "address"
						}
					],
					"name": "transferOwnership",
					"outputs": [],
					"stateMutability": "nonpayable",
					"type": "function"
				}
			],
			"devdoc": {
				"kind": "dev",
				"methods": {
					"owner()": {
						"details": "Returns the address of the current owner."
					},
					"renounceOwnership()": {
						"details": "Leaves the contract without owner. It will not be possible to call `onlyOwner` functions anymore. Can only be called by the current owner. NOTE: Renouncing ownership will leave the contract without an owner, thereby removing any functionality that is only available to the owner."
					},
					"transferOwnership(address)": {
						"details": "Transfers ownership of the contract to a new account (`newOwner`). Can only be called by the current owner."
					}
				},
				"version": 1
			},
			"evm": {
				"assembly": "    /* \"farming/eZKaliburProxy.sol\":186:1032  contract eZKaliburProxy is OwnableUpgradeable, WhitelistUpgradeable {\r... */\n  mstore(0x40, 0x80)\n  callvalue\n  dup1\n  iszero\n  tag_1\n  jumpi\n  0x00\n  dup1\n  revert\ntag_1:\n  pop\n  dataSize(sub_0)\n  dup1\n  dataOffset(sub_0)\n  0x00\n  codecopy\n  0x00\n  return\nstop\n\nsub_0: assembly {\n        /* \"farming/eZKaliburProxy.sol\":186:1032  contract eZKaliburProxy is OwnableUpgradeable, WhitelistUpgradeable {\r... */\n      mstore(0x40, 0x80)\n      callvalue\n      dup1\n      iszero\n      tag_1\n      jumpi\n      0x00\n      dup1\n      revert\n    tag_1:\n      pop\n      jumpi(tag_2, lt(calldatasize, 0x04))\n      shr(0xe0, calldataload(0x00))\n      dup1\n      0x8da5cb5b\n      gt\n      tag_12\n      jumpi\n      dup1\n      0x8da5cb5b\n      eq\n      tag_7\n      jumpi\n      dup1\n      0xc4d66de8\n      eq\n      tag_8\n      jumpi\n      dup1\n      0xc683630d\n      eq\n      tag_9\n      jumpi\n      dup1\n      0xd04323c5\n      eq\n      tag_10\n      jumpi\n      dup1\n      0xf2fde38b\n      eq\n      tag_11\n      jumpi\n      jump(tag_2)\n    tag_12:\n      dup1\n      0x3158079c\n      eq\n      tag_3\n      jumpi\n      dup1\n      0x49ba1b49\n      eq\n      tag_4\n      jumpi\n      dup1\n      0x53d6fd59\n      eq\n      tag_5\n      jumpi\n      dup1\n      0x715018a6\n      eq\n      tag_6\n      jumpi\n    tag_2:\n      0x00\n      dup1\n      revert\n        /* \"farming/eZKaliburProxy.sol\":449:830  function safeMeerkatTransfer(address to, uint256 amount) external onlyWhitelisted returns (uint256) {\r... */\n    tag_3:\n      tag_13\n      0x04\n      dup1\n      calldatasize\n      sub\n      0x40\n      dup2\n      lt\n      iszero\n      tag_14\n      jumpi\n      0x00\n      dup1\n      revert\n    tag_14:\n      dup2\n      add\n      swap1\n      dup1\n      dup1\n      calldataload\n      0xffffffffffffffffffffffffffffffffffffffff\n      and\n      swap1\n      0x20\n      add\n      swap1\n      swap3\n      swap2\n      swap1\n      dup1\n      calldataload\n      swap1\n      0x20\n      add\n      swap1\n      swap3\n      swap2\n      swap1\n      pop\n      pop\n      pop\n      tag_15\n      jump\t// in\n    tag_13:\n      mload(0x40)\n      dup1\n      dup3\n      dup2\n      mstore\n      0x20\n      add\n      swap2\n      pop\n      pop\n      mload(0x40)\n      dup1\n      swap2\n      sub\n      swap1\n      return\n        /* \"farming/library/WhitelistUpgradeable.sol\":1029:1253  function disableWhitelist(bool disable) external onlyOwner {\r... */\n    tag_4:\n      tag_16\n      0x04\n      dup1\n      calldatasize\n      sub\n      0x20\n      dup2\n      lt\n      iszero\n      tag_17\n      jumpi\n      0x00\n      dup1\n      revert\n    tag_17:\n      dup2\n      add\n      swap1\n      dup1\n      dup1\n      calldataload\n      iszero\n      iszero\n      swap1\n      0x20\n      add\n      swap1\n      swap3\n      swap2\n      swap1\n      pop\n      pop\n      pop\n      tag_18\n      jump\t// in\n    tag_16:\n      stop\n        /* \"farming/library/WhitelistUpgradeable.sol\":863:1021  function setWhitelist(address _address, bool _on) external onlyOwner {\r... */\n    tag_5:\n      tag_19\n      0x04\n      dup1\n      calldatasize\n      sub\n      0x40\n      dup2\n      lt\n      iszero\n      tag_20\n      jumpi\n      0x00\n      dup1\n      revert\n    tag_20:\n      dup2\n      add\n      swap1\n      dup1\n      dup1\n      calldataload\n      0xffffffffffffffffffffffffffffffffffffffff\n      and\n      swap1\n      0x20\n      add\n      swap1\n      swap3\n      swap2\n      swap1\n      dup1\n      calldataload\n      iszero\n      iszero\n      swap1\n      0x20\n      add\n      swap1\n      swap3\n      swap2\n      swap1\n      pop\n      pop\n      pop\n      tag_21\n      jump\t// in\n    tag_19:\n      stop\n        /* \"farming/access/OwnableUpgradeable.sol\":2020:2168  function renounceOwnership() public virtual onlyOwner {\r... */\n    tag_6:\n      tag_22\n      tag_23\n      jump\t// in\n    tag_22:\n      stop\n        /* \"farming/access/OwnableUpgradeable.sol\":1369:1456  function owner() public view virtual returns (address) {\r... */\n    tag_7:\n      tag_24\n      tag_25\n      jump\t// in\n    tag_24:\n      mload(0x40)\n      dup1\n      dup3\n      0xffffffffffffffffffffffffffffffffffffffff\n      and\n      dup2\n      mstore\n      0x20\n      add\n      swap2\n      pop\n      pop\n      mload(0x40)\n      dup1\n      swap2\n      sub\n      swap1\n      return\n        /* \"farming/eZKaliburProxy.sol\":325:441  function initialize(IBEP20 _token) external initializer {\r... */\n    tag_8:\n      tag_26\n      0x04\n      dup1\n      calldatasize\n      sub\n      0x20\n      dup2\n      lt\n      iszero\n      tag_27\n      jumpi\n      0x00\n      dup1\n      revert\n    tag_27:\n      dup2\n      add\n      swap1\n      dup1\n      dup1\n      calldataload\n      0xffffffffffffffffffffffffffffffffffffffff\n      and\n      swap1\n      0x20\n      add\n      swap1\n      swap3\n      swap2\n      swap1\n      pop\n      pop\n      pop\n      tag_28\n      jump\t// in\n    tag_26:\n      stop\n        /* \"farming/library/WhitelistUpgradeable.sol\":744:855  function isWhitelist(address _address) public view returns(bool) {\r... */\n    tag_9:\n      tag_29\n      0x04\n      dup1\n      calldatasize\n      sub\n      0x20\n      dup2\n      lt\n      iszero\n      tag_30\n      jumpi\n      0x00\n      dup1\n      revert\n    tag_30:\n      dup2\n      add\n      swap1\n      dup1\n      dup1\n      calldataload\n      0xffffffffffffffffffffffffffffffffffffffff\n      and\n      swap1\n      0x20\n      add\n      swap1\n      swap3\n      swap2\n      swap1\n      pop\n      pop\n      pop\n      tag_31\n      jump\t// in\n    tag_29:\n      mload(0x40)\n      dup1\n      dup3\n      iszero\n      iszero\n      dup2\n      mstore\n      0x20\n      add\n      swap2\n      pop\n      pop\n      mload(0x40)\n      dup1\n      swap2\n      sub\n      swap1\n      return\n        /* \"farming/eZKaliburProxy.sol\":838:1029  function recoverToken(IBEP20 _token, uint256 _amount, address _to) external onlyOwner {\r... */\n    tag_10:\n      tag_32\n      0x04\n      dup1\n      calldatasize\n      sub\n      0x60\n      dup2\n      lt\n      iszero\n      tag_33\n      jumpi\n      0x00\n      dup1\n      revert\n    tag_33:\n      dup2\n      add\n      swap1\n      dup1\n      dup1\n      calldataload\n      0xffffffffffffffffffffffffffffffffffffffff\n      and\n      swap1\n      0x20\n      add\n      swap1\n      swap3\n      swap2\n      swap1\n      dup1\n      calldataload\n      swap1\n      0x20\n      add\n      swap1\n      swap3\n      swap2\n      swap1\n      dup1\n      calldataload\n      0xffffffffffffffffffffffffffffffffffffffff\n      and\n      swap1\n      0x20\n      add\n      swap1\n      swap3\n      swap2\n      swap1\n      pop\n      pop\n      pop\n      tag_34\n      jump\t// in\n    tag_32:\n      stop\n        /* \"farming/access/OwnableUpgradeable.sol\":2323:2567  function transferOwnership(address newOwner) public virtual onlyOwner {\r... */\n    tag_11:\n      tag_35\n      0x04\n      dup1\n      calldatasize\n      sub\n      0x20\n      dup2\n      lt\n      iszero\n      tag_36\n      jumpi\n      0x00\n      dup1\n      revert\n    tag_36:\n      dup2\n      add\n      swap1\n      dup1\n      dup1\n      calldataload\n      0xffffffffffffffffffffffffffffffffffffffff\n      and\n      swap1\n      0x20\n      add\n      swap1\n      swap3\n      swap2\n      swap1\n      pop\n      pop\n      pop\n      tag_37\n      jump\t// in\n    tag_35:\n      stop\n        /* \"farming/eZKaliburProxy.sol\":449:830  function safeMeerkatTransfer(address to, uint256 amount) external onlyWhitelisted returns (uint256) {\r... */\n    tag_15:\n        /* \"farming/eZKaliburProxy.sol\":540:547  uint256 */\n      0x00\n        /* \"farming/library/WhitelistUpgradeable.sol\":533:541  _disable */\n      0x66\n      0x00\n      swap1\n      sload\n      swap1\n      0x0100\n      exp\n      swap1\n      div\n      0xff\n      and\n        /* \"farming/library/WhitelistUpgradeable.sol\":533:567  _disable || _whitelist[msg.sender] */\n      dup1\n      tag_39\n      jumpi\n      pop\n        /* \"farming/library/WhitelistUpgradeable.sol\":545:555  _whitelist */\n      0x65\n        /* \"farming/library/WhitelistUpgradeable.sol\":545:567  _whitelist[msg.sender] */\n      0x00\n        /* \"farming/library/WhitelistUpgradeable.sol\":556:566  msg.sender */\n      caller\n        /* \"farming/library/WhitelistUpgradeable.sol\":545:567  _whitelist[msg.sender] */\n      0xffffffffffffffffffffffffffffffffffffffff\n      and\n      0xffffffffffffffffffffffffffffffffffffffff\n      and\n      dup2\n      mstore\n      0x20\n      add\n      swap1\n      dup2\n      mstore\n      0x20\n      add\n      0x00\n      keccak256\n      0x00\n      swap1\n      sload\n      swap1\n      0x0100\n      exp\n      swap1\n      div\n      0xff\n      and\n        /* \"farming/library/WhitelistUpgradeable.sol\":533:567  _disable || _whitelist[msg.sender] */\n    tag_39:\n        /* \"farming/library/WhitelistUpgradeable.sol\":525:613  require(_disable || _whitelist[msg.sender], \"Whitelist: caller is not on the whitelist\") */\n      tag_40\n      jumpi\n      mload(0x40)\n      0x08c379a000000000000000000000000000000000000000000000000000000000\n      dup2\n      mstore\n      0x04\n      add\n      dup1\n      dup1\n      0x20\n      add\n      dup3\n      dup2\n      sub\n      dup3\n      mstore\n      0x29\n      dup2\n      mstore\n      0x20\n      add\n      dup1\n      data_8193a60c6207ee93eb48bebd42af33b356dd6e6ca52ad6aab6a8892e28cd7323\n      0x29\n      swap2\n      codecopy\n      0x40\n      add\n      swap2\n      pop\n      pop\n      mload(0x40)\n      dup1\n      swap2\n      sub\n      swap1\n      revert\n    tag_40:\n        /* \"farming/eZKaliburProxy.sol\":560:578  uint256 meerkatBal */\n      0x00\n        /* \"farming/eZKaliburProxy.sol\":581:586  token */\n      0x98\n      0x00\n      swap1\n      sload\n      swap1\n      0x0100\n      exp\n      swap1\n      div\n      0xffffffffffffffffffffffffffffffffffffffff\n      and\n        /* \"farming/eZKaliburProxy.sol\":581:596  token.balanceOf */\n      0xffffffffffffffffffffffffffffffffffffffff\n      and\n      0x70a08231\n        /* \"farming/eZKaliburProxy.sol\":605:609  this */\n      address\n        /* \"farming/eZKaliburProxy.sol\":581:611  token.balanceOf(address(this)) */\n      mload(0x40)\n      dup3\n      0xffffffff\n      and\n      0xe0\n      shl\n      dup2\n      mstore\n      0x04\n      add\n      dup1\n      dup3\n      0xffffffffffffffffffffffffffffffffffffffff\n      and\n      dup2\n      mstore\n      0x20\n      add\n      swap2\n      pop\n      pop\n      0x20\n      mload(0x40)\n      dup1\n      dup4\n      sub\n      dup2\n      dup7\n      dup1\n      extcodesize\n      iszero\n      dup1\n      iszero\n      tag_42\n      jumpi\n      0x00\n      dup1\n      revert\n    tag_42:\n      pop\n      gas\n      staticcall\n      iszero\n      dup1\n      iszero\n      tag_44\n      jumpi\n      returndatasize\n      0x00\n      dup1\n      returndatacopy\n      revert(0x00, returndatasize)\n    tag_44:\n      pop\n      pop\n      pop\n      pop\n      mload(0x40)\n      returndatasize\n      0x20\n      dup2\n      lt\n      iszero\n      tag_45\n      jumpi\n      0x00\n      dup1\n      revert\n    tag_45:\n      dup2\n      add\n      swap1\n      dup1\n      dup1\n      mload\n      swap1\n      0x20\n      add\n      swap1\n      swap3\n      swap2\n      swap1\n      pop\n      pop\n      pop\n        /* \"farming/eZKaliburProxy.sol\":560:611  uint256 meerkatBal = token.balanceOf(address(this)) */\n      swap1\n      pop\n        /* \"farming/eZKaliburProxy.sol\":635:645  meerkatBal */\n      dup1\n        /* \"farming/eZKaliburProxy.sol\":626:632  amount */\n      dup4\n        /* \"farming/eZKaliburProxy.sol\":626:645  amount > meerkatBal */\n      gt\n        /* \"farming/eZKaliburProxy.sol\":622:823  if (amount > meerkatBal) {\r... */\n      iszero\n      tag_46\n      jumpi\n        /* \"farming/eZKaliburProxy.sol\":662:667  token */\n      0x98\n      0x00\n      swap1\n      sload\n      swap1\n      0x0100\n      exp\n      swap1\n      div\n      0xffffffffffffffffffffffffffffffffffffffff\n      and\n        /* \"farming/eZKaliburProxy.sol\":662:676  token.transfer */\n      0xffffffffffffffffffffffffffffffffffffffff\n      and\n      0xa9059cbb\n        /* \"farming/eZKaliburProxy.sol\":677:679  to */\n      dup6\n        /* \"farming/eZKaliburProxy.sol\":681:691  meerkatBal */\n      dup4\n        /* \"farming/eZKaliburProxy.sol\":662:692  token.transfer(to, meerkatBal) */\n      mload(0x40)\n      dup4\n      0xffffffff\n      and\n      0xe0\n      shl\n      dup2\n      mstore\n      0x04\n      add\n      dup1\n      dup4\n      0xffffffffffffffffffffffffffffffffffffffff\n      and\n      dup2\n      mstore\n      0x20\n      add\n      dup3\n      dup2\n      mstore\n      0x20\n      add\n      swap3\n      pop\n      pop\n      pop\n      0x20\n      mload(0x40)\n      dup1\n      dup4\n      sub\n      dup2\n      0x00\n      dup8\n      dup1\n      extcodesize\n      iszero\n      dup1\n      iszero\n      tag_47\n      jumpi\n      0x00\n      dup1\n      revert\n    tag_47:\n      pop\n      gas\n      call\n      iszero\n      dup1\n      iszero\n      tag_49\n      jumpi\n      returndatasize\n      0x00\n      dup1\n      returndatacopy\n      revert(0x00, returndatasize)\n    tag_49:\n      pop\n      pop\n      pop\n      pop\n      mload(0x40)\n      returndatasize\n      0x20\n      dup2\n      lt\n      iszero\n      tag_50\n      jumpi\n      0x00\n      dup1\n      revert\n    tag_50:\n      dup2\n      add\n      swap1\n      dup1\n      dup1\n      mload\n      swap1\n      0x20\n      add\n      swap1\n      swap3\n      swap2\n      swap1\n      pop\n      pop\n      pop\n      pop\n        /* \"farming/eZKaliburProxy.sol\":714:724  meerkatBal */\n      dup1\n        /* \"farming/eZKaliburProxy.sol\":707:724  return meerkatBal */\n      swap2\n      pop\n      pop\n      jump(tag_41)\n        /* \"farming/eZKaliburProxy.sol\":622:823  if (amount > meerkatBal) {\r... */\n    tag_46:\n        /* \"farming/eZKaliburProxy.sol\":757:762  token */\n      0x98\n      0x00\n      swap1\n      sload\n      swap1\n      0x0100\n      exp\n      swap1\n      div\n      0xffffffffffffffffffffffffffffffffffffffff\n      and\n        /* \"farming/eZKaliburProxy.sol\":757:771  token.transfer */\n      0xffffffffffffffffffffffffffffffffffffffff\n      and\n      0xa9059cbb\n        /* \"farming/eZKaliburProxy.sol\":772:774  to */\n      dup6\n        /* \"farming/eZKaliburProxy.sol\":776:782  amount */\n      dup6\n        /* \"farming/eZKaliburProxy.sol\":757:783  token.transfer(to, amount) */\n      mload(0x40)\n      dup4\n      0xffffffff\n      and\n      0xe0\n      shl\n      dup2\n      mstore\n      0x04\n      add\n      dup1\n      dup4\n      0xffffffffffffffffffffffffffffffffffffffff\n      and\n      dup2\n      mstore\n      0x20\n      add\n      dup3\n      dup2\n      mstore\n      0x20\n      add\n      swap3\n      pop\n      pop\n      pop\n      0x20\n      mload(0x40)\n      dup1\n      dup4\n      sub\n      dup2\n      0x00\n      dup8\n      dup1\n      extcodesize\n      iszero\n      dup1\n      iszero\n      tag_52\n      jumpi\n      0x00\n      dup1\n      revert\n    tag_52:\n      pop\n      gas\n      call\n      iszero\n      dup1\n      iszero\n      tag_54\n      jumpi\n      returndatasize\n      0x00\n      dup1\n      returndatacopy\n      revert(0x00, returndatasize)\n    tag_54:\n      pop\n      pop\n      pop\n      pop\n      mload(0x40)\n      returndatasize\n      0x20\n      dup2\n      lt\n      iszero\n      tag_55\n      jumpi\n      0x00\n      dup1\n      revert\n    tag_55:\n      dup2\n      add\n      swap1\n      dup1\n      dup1\n      mload\n      swap1\n      0x20\n      add\n      swap1\n      swap3\n      swap2\n      swap1\n      pop\n      pop\n      pop\n      pop\n        /* \"farming/eZKaliburProxy.sol\":805:811  amount */\n      dup3\n        /* \"farming/eZKaliburProxy.sol\":798:811  return amount */\n      swap2\n      pop\n      pop\n        /* \"farming/library/WhitelistUpgradeable.sol\":624:625  _ */\n    tag_41:\n        /* \"farming/eZKaliburProxy.sol\":449:830  function safeMeerkatTransfer(address to, uint256 amount) external onlyWhitelisted returns (uint256) {\r... */\n      swap3\n      swap2\n      pop\n      pop\n      jump\t// out\n        /* \"farming/library/WhitelistUpgradeable.sol\":1029:1253  function disableWhitelist(bool disable) external onlyOwner {\r... */\n    tag_18:\n        /* \"farming/access/OwnableUpgradeable.sol\":1600:1612  _msgSender() */\n      tag_57\n        /* \"farming/access/OwnableUpgradeable.sol\":1600:1610  _msgSender */\n      tag_58\n        /* \"farming/access/OwnableUpgradeable.sol\":1600:1612  _msgSender() */\n      jump\t// in\n    tag_57:\n        /* \"farming/access/OwnableUpgradeable.sol\":1589:1612  owner() == _msgSender() */\n      0xffffffffffffffffffffffffffffffffffffffff\n      and\n        /* \"farming/access/OwnableUpgradeable.sol\":1589:1596  owner() */\n      tag_59\n        /* \"farming/access/OwnableUpgradeable.sol\":1589:1594  owner */\n      tag_25\n        /* \"farming/access/OwnableUpgradeable.sol\":1589:1596  owner() */\n      jump\t// in\n    tag_59:\n        /* \"farming/access/OwnableUpgradeable.sol\":1589:1612  owner() == _msgSender() */\n      0xffffffffffffffffffffffffffffffffffffffff\n      and\n      eq\n        /* \"farming/access/OwnableUpgradeable.sol\":1581:1649  require(owner() == _msgSender(), \"Ownable: caller is not the owner\") */\n      tag_60\n      jumpi\n      mload(0x40)\n      0x08c379a000000000000000000000000000000000000000000000000000000000\n      dup2\n      mstore\n      0x04\n      add\n      dup1\n      dup1\n      0x20\n      add\n      dup3\n      dup2\n      sub\n      dup3\n      mstore\n      0x20\n      dup2\n      mstore\n      0x20\n      add\n      dup1\n      0x4f776e61626c653a2063616c6c6572206973206e6f7420746865206f776e6572\n      dup2\n      mstore\n      pop\n      0x20\n      add\n      swap2\n      pop\n      pop\n      mload(0x40)\n      dup1\n      swap2\n      sub\n      swap1\n      revert\n    tag_60:\n        /* \"farming/library/WhitelistUpgradeable.sol\":1110:1117  disable */\n      dup1\n        /* \"farming/library/WhitelistUpgradeable.sol\":1099:1107  _disable */\n      0x66\n      0x00\n        /* \"farming/library/WhitelistUpgradeable.sol\":1099:1117  _disable = disable */\n      0x0100\n      exp\n      dup2\n      sload\n      dup2\n      0xff\n      mul\n      not\n      and\n      swap1\n      dup4\n      iszero\n      iszero\n      mul\n      or\n      swap1\n      sstore\n      pop\n        /* \"farming/library/WhitelistUpgradeable.sol\":1132:1139  disable */\n      dup1\n        /* \"farming/library/WhitelistUpgradeable.sol\":1128:1246  if (disable) {\r... */\n      iszero\n      tag_62\n      jumpi\n        /* \"farming/library/WhitelistUpgradeable.sol\":1161:1179  DisableWhitelist() */\n      0x508560e15717a4e9058b9a19d806cb679004a1bd953376f71fda71c141e5dc53\n      mload(0x40)\n      mload(0x40)\n      dup1\n      swap2\n      sub\n      swap1\n      log1\n        /* \"farming/library/WhitelistUpgradeable.sol\":1128:1246  if (disable) {\r... */\n      jump(tag_63)\n    tag_62:\n        /* \"farming/library/WhitelistUpgradeable.sol\":1217:1234  EnableWhitelist() */\n      0xa2927d972f7cfc5ff8b7ad79f9adf0bdb885d0e569f40d0037df2e1299616ae0\n      mload(0x40)\n      mload(0x40)\n      dup1\n      swap2\n      sub\n      swap1\n      log1\n        /* \"farming/library/WhitelistUpgradeable.sol\":1128:1246  if (disable) {\r... */\n    tag_63:\n        /* \"farming/library/WhitelistUpgradeable.sol\":1029:1253  function disableWhitelist(bool disable) external onlyOwner {\r... */\n      pop\n      jump\t// out\n        /* \"farming/library/WhitelistUpgradeable.sol\":863:1021  function setWhitelist(address _address, bool _on) external onlyOwner {\r... */\n    tag_21:\n        /* \"farming/access/OwnableUpgradeable.sol\":1600:1612  _msgSender() */\n      tag_65\n        /* \"farming/access/OwnableUpgradeable.sol\":1600:1610  _msgSender */\n      tag_58\n        /* \"farming/access/OwnableUpgradeable.sol\":1600:1612  _msgSender() */\n      jump\t// in\n    tag_65:\n        /* \"farming/access/OwnableUpgradeable.sol\":1589:1612  owner() == _msgSender() */\n      0xffffffffffffffffffffffffffffffffffffffff\n      and\n        /* \"farming/access/OwnableUpgradeable.sol\":1589:1596  owner() */\n      tag_66\n        /* \"farming/access/OwnableUpgradeable.sol\":1589:1594  owner */\n      tag_25\n        /* \"farming/access/OwnableUpgradeable.sol\":1589:1596  owner() */\n      jump\t// in\n    tag_66:\n        /* \"farming/access/OwnableUpgradeable.sol\":1589:1612  owner() == _msgSender() */\n      0xffffffffffffffffffffffffffffffffffffffff\n      and\n      eq\n        /* \"farming/access/OwnableUpgradeable.sol\":1581:1649  require(owner() == _msgSender(), \"Ownable: caller is not the owner\") */\n      tag_67\n      jumpi\n      mload(0x40)\n      0x08c379a000000000000000000000000000000000000000000000000000000000\n      dup2\n      mstore\n      0x04\n      add\n      dup1\n      dup1\n      0x20\n      add\n      dup3\n      dup2\n      sub\n      dup3\n      mstore\n      0x20\n      dup2\n      mstore\n      0x20\n      add\n      dup1\n      0x4f776e61626c653a2063616c6c6572206973206e6f7420746865206f776e6572\n      dup2\n      mstore\n      pop\n      0x20\n      add\n      swap2\n      pop\n      pop\n      mload(0x40)\n      dup1\n      swap2\n      sub\n      swap1\n      revert\n    tag_67:\n        /* \"farming/library/WhitelistUpgradeable.sol\":966:969  _on */\n      dup1\n        /* \"farming/library/WhitelistUpgradeable.sol\":943:953  _whitelist */\n      0x65\n        /* \"farming/library/WhitelistUpgradeable.sol\":943:963  _whitelist[_address] */\n      0x00\n        /* \"farming/library/WhitelistUpgradeable.sol\":954:962  _address */\n      dup5\n        /* \"farming/library/WhitelistUpgradeable.sol\":943:963  _whitelist[_address] */\n      0xffffffffffffffffffffffffffffffffffffffff\n      and\n      0xffffffffffffffffffffffffffffffffffffffff\n      and\n      dup2\n      mstore\n      0x20\n      add\n      swap1\n      dup2\n      mstore\n      0x20\n      add\n      0x00\n      keccak256\n      0x00\n        /* \"farming/library/WhitelistUpgradeable.sol\":943:969  _whitelist[_address] = _on */\n      0x0100\n      exp\n      dup2\n      sload\n      dup2\n      0xff\n      mul\n      not\n      and\n      swap1\n      dup4\n      iszero\n      iszero\n      mul\n      or\n      swap1\n      sstore\n      pop\n        /* \"farming/library/WhitelistUpgradeable.sol\":999:1007  _address */\n      dup2\n        /* \"farming/library/WhitelistUpgradeable.sol\":987:1013  Whitelisted(_address, _on) */\n      0xffffffffffffffffffffffffffffffffffffffff\n      and\n      0xa54714518c5d275fdcd3d2a461e4858e4e8cb04fb93cd0bca9d6d34115f26440\n        /* \"farming/library/WhitelistUpgradeable.sol\":1009:1012  _on */\n      dup3\n        /* \"farming/library/WhitelistUpgradeable.sol\":987:1013  Whitelisted(_address, _on) */\n      mload(0x40)\n      dup1\n      dup3\n      iszero\n      iszero\n      dup2\n      mstore\n      0x20\n      add\n      swap2\n      pop\n      pop\n      mload(0x40)\n      dup1\n      swap2\n      sub\n      swap1\n      log2\n        /* \"farming/library/WhitelistUpgradeable.sol\":863:1021  function setWhitelist(address _address, bool _on) external onlyOwner {\r... */\n      pop\n      pop\n      jump\t// out\n        /* \"farming/access/OwnableUpgradeable.sol\":2020:2168  function renounceOwnership() public virtual onlyOwner {\r... */\n    tag_23:\n        /* \"farming/access/OwnableUpgradeable.sol\":1600:1612  _msgSender() */\n      tag_70\n        /* \"farming/access/OwnableUpgradeable.sol\":1600:1610  _msgSender */\n      tag_58\n        /* \"farming/access/OwnableUpgradeable.sol\":1600:1612  _msgSender() */\n      jump\t// in\n    tag_70:\n        /* \"farming/access/OwnableUpgradeable.sol\":1589:1612  owner() == _msgSender() */\n      0xffffffffffffffffffffffffffffffffffffffff\n      and\n        /* \"farming/access/OwnableUpgradeable.sol\":1589:1596  owner() */\n      tag_71\n        /* \"farming/access/OwnableUpgradeable.sol\":1589:1594  owner */\n      tag_25\n        /* \"farming/access/OwnableUpgradeable.sol\":1589:1596  owner() */\n      jump\t// in\n    tag_71:\n        /* \"farming/access/OwnableUpgradeable.sol\":1589:1612  owner() == _msgSender() */\n      0xffffffffffffffffffffffffffffffffffffffff\n      and\n      eq\n        /* \"farming/access/OwnableUpgradeable.sol\":1581:1649  require(owner() == _msgSender(), \"Ownable: caller is not the owner\") */\n      tag_72\n      jumpi\n      mload(0x40)\n      0x08c379a000000000000000000000000000000000000000000000000000000000\n      dup2\n      mstore\n      0x04\n      add\n      dup1\n      dup1\n      0x20\n      add\n      dup3\n      dup2\n      sub\n      dup3\n      mstore\n      0x20\n      dup2\n      mstore\n      0x20\n      add\n      dup1\n      0x4f776e61626c653a2063616c6c6572206973206e6f7420746865206f776e6572\n      dup2\n      mstore\n      pop\n      0x20\n      add\n      swap2\n      pop\n      pop\n      mload(0x40)\n      dup1\n      swap2\n      sub\n      swap1\n      revert\n    tag_72:\n        /* \"farming/access/OwnableUpgradeable.sol\":2127:2128  0 */\n      0x00\n        /* \"farming/access/OwnableUpgradeable.sol\":2090:2130  OwnershipTransferred(_owner, address(0)) */\n      0xffffffffffffffffffffffffffffffffffffffff\n      and\n        /* \"farming/access/OwnableUpgradeable.sol\":2111:2117  _owner */\n      0x33\n      0x00\n      swap1\n      sload\n      swap1\n      0x0100\n      exp\n      swap1\n      div\n      0xffffffffffffffffffffffffffffffffffffffff\n      and\n        /* \"farming/access/OwnableUpgradeable.sol\":2090:2130  OwnershipTransferred(_owner, address(0)) */\n      0xffffffffffffffffffffffffffffffffffffffff\n      and\n      0x8be0079c531659141344cd1fd0a4f28419497f9722a3daafe3b4186f6b6457e0\n      mload(0x40)\n      mload(0x40)\n      dup1\n      swap2\n      sub\n      swap1\n      log3\n        /* \"farming/access/OwnableUpgradeable.sol\":2158:2159  0 */\n      0x00\n        /* \"farming/access/OwnableUpgradeable.sol\":2141:2147  _owner */\n      0x33\n      0x00\n        /* \"farming/access/OwnableUpgradeable.sol\":2141:2160  _owner = address(0) */\n      0x0100\n      exp\n      dup2\n      sload\n      dup2\n      0xffffffffffffffffffffffffffffffffffffffff\n      mul\n      not\n      and\n      swap1\n      dup4\n      0xffffffffffffffffffffffffffffffffffffffff\n      and\n      mul\n      or\n      swap1\n      sstore\n      pop\n        /* \"farming/access/OwnableUpgradeable.sol\":2020:2168  function renounceOwnership() public virtual onlyOwner {\r... */\n      jump\t// out\n        /* \"farming/access/OwnableUpgradeable.sol\":1369:1456  function owner() public view virtual returns (address) {\r... */\n    tag_25:\n        /* \"farming/access/OwnableUpgradeable.sol\":1415:1422  address */\n      0x00\n        /* \"farming/access/OwnableUpgradeable.sol\":1442:1448  _owner */\n      0x33\n      0x00\n      swap1\n      sload\n      swap1\n      0x0100\n      exp\n      swap1\n      div\n      0xffffffffffffffffffffffffffffffffffffffff\n      and\n        /* \"farming/access/OwnableUpgradeable.sol\":1435:1448  return _owner */\n      swap1\n      pop\n        /* \"farming/access/OwnableUpgradeable.sol\":1369:1456  function owner() public view virtual returns (address) {\r... */\n      swap1\n      jump\t// out\n        /* \"farming/eZKaliburProxy.sol\":325:441  function initialize(IBEP20 _token) external initializer {\r... */\n    tag_28:\n        /* \"farming/proxy/Initializable.sol\":1547:1560  _initializing */\n      0x00\n      0x01\n      swap1\n      sload\n      swap1\n      0x0100\n      exp\n      swap1\n      div\n      0xff\n      and\n        /* \"farming/proxy/Initializable.sol\":1547:1580  _initializing || _isConstructor() */\n      dup1\n      tag_76\n      jumpi\n      pop\n        /* \"farming/proxy/Initializable.sol\":1564:1580  _isConstructor() */\n      tag_77\n        /* \"farming/proxy/Initializable.sol\":1564:1578  _isConstructor */\n      tag_78\n        /* \"farming/proxy/Initializable.sol\":1564:1580  _isConstructor() */\n      jump\t// in\n    tag_77:\n        /* \"farming/proxy/Initializable.sol\":1547:1580  _initializing || _isConstructor() */\n    tag_76:\n        /* \"farming/proxy/Initializable.sol\":1547:1597  _initializing || _isConstructor() || !_initialized */\n      dup1\n      tag_79\n      jumpi\n      pop\n        /* \"farming/proxy/Initializable.sol\":1585:1597  _initialized */\n      0x00\n      dup1\n      sload\n      swap1\n      0x0100\n      exp\n      swap1\n      div\n      0xff\n      and\n        /* \"farming/proxy/Initializable.sol\":1584:1597  !_initialized */\n      iszero\n        /* \"farming/proxy/Initializable.sol\":1547:1597  _initializing || _isConstructor() || !_initialized */\n    tag_79:\n        /* \"farming/proxy/Initializable.sol\":1539:1648  require(_initializing || _isConstructor() || !_initialized, \"Initializable: contract is already initialized\") */\n      tag_80\n      jumpi\n      mload(0x40)\n      0x08c379a000000000000000000000000000000000000000000000000000000000\n      dup2\n      mstore\n      0x04\n      add\n      dup1\n      dup1\n      0x20\n      add\n      dup3\n      dup2\n      sub\n      dup3\n      mstore\n      0x2e\n      dup2\n      mstore\n      0x20\n      add\n      dup1\n      data_7a2a4e26842155ea933fe6eb6e3137eb5a296dcdf55721c552be7b4c3cc23759\n      0x2e\n      swap2\n      codecopy\n      0x40\n      add\n      swap2\n      pop\n      pop\n      mload(0x40)\n      dup1\n      swap2\n      sub\n      swap1\n      revert\n    tag_80:\n        /* \"farming/proxy/Initializable.sol\":1661:1680  bool isTopLevelCall */\n      0x00\n        /* \"farming/proxy/Initializable.sol\":1684:1697  _initializing */\n      dup1\n      0x01\n      swap1\n      sload\n      swap1\n      0x0100\n      exp\n      swap1\n      div\n      0xff\n      and\n        /* \"farming/proxy/Initializable.sol\":1683:1697  !_initializing */\n      iszero\n        /* \"farming/proxy/Initializable.sol\":1661:1697  bool isTopLevelCall = !_initializing */\n      swap1\n      pop\n        /* \"farming/proxy/Initializable.sol\":1712:1726  isTopLevelCall */\n      dup1\n        /* \"farming/proxy/Initializable.sol\":1708:1809  if (isTopLevelCall) {\r... */\n      iszero\n      tag_81\n      jumpi\n        /* \"farming/proxy/Initializable.sol\":1759:1763  true */\n      0x01\n        /* \"farming/proxy/Initializable.sol\":1743:1756  _initializing */\n      0x00\n      0x01\n        /* \"farming/proxy/Initializable.sol\":1743:1763  _initializing = true */\n      0x0100\n      exp\n      dup2\n      sload\n      dup2\n      0xff\n      mul\n      not\n      and\n      swap1\n      dup4\n      iszero\n      iszero\n      mul\n      or\n      swap1\n      sstore\n      pop\n        /* \"farming/proxy/Initializable.sol\":1793:1797  true */\n      0x01\n        /* \"farming/proxy/Initializable.sol\":1778:1790  _initialized */\n      0x00\n      dup1\n        /* \"farming/proxy/Initializable.sol\":1778:1797  _initialized = true */\n      0x0100\n      exp\n      dup2\n      sload\n      dup2\n      0xff\n      mul\n      not\n      and\n      swap1\n      dup4\n      iszero\n      iszero\n      mul\n      or\n      swap1\n      sstore\n      pop\n        /* \"farming/proxy/Initializable.sol\":1708:1809  if (isTopLevelCall) {\r... */\n    tag_81:\n        /* \"farming/eZKaliburProxy.sol\":392:408  __Ownable_init() */\n      tag_83\n        /* \"farming/eZKaliburProxy.sol\":392:406  __Ownable_init */\n      tag_84\n        /* \"farming/eZKaliburProxy.sol\":392:408  __Ownable_init() */\n      jump\t// in\n    tag_83:\n        /* \"farming/eZKaliburProxy.sol\":427:433  _token */\n      dup2\n        /* \"farming/eZKaliburProxy.sol\":419:424  token */\n      0x98\n      0x00\n        /* \"farming/eZKaliburProxy.sol\":419:433  token = _token */\n      0x0100\n      exp\n      dup2\n      sload\n      dup2\n      0xffffffffffffffffffffffffffffffffffffffff\n      mul\n      not\n      and\n      swap1\n      dup4\n      0xffffffffffffffffffffffffffffffffffffffff\n      and\n      mul\n      or\n      swap1\n      sstore\n      pop\n        /* \"farming/proxy/Initializable.sol\":1839:1853  isTopLevelCall */\n      dup1\n        /* \"farming/proxy/Initializable.sol\":1835:1903  if (isTopLevelCall) {\r... */\n      iszero\n      tag_85\n      jumpi\n        /* \"farming/proxy/Initializable.sol\":1886:1891  false */\n      0x00\n        /* \"farming/proxy/Initializable.sol\":1870:1883  _initializing */\n      dup1\n      0x01\n        /* \"farming/proxy/Initializable.sol\":1870:1891  _initializing = false */\n      0x0100\n      exp\n      dup2\n      sload\n      dup2\n      0xff\n      mul\n      not\n      and\n      swap1\n      dup4\n      iszero\n      iszero\n      mul\n      or\n      swap1\n      sstore\n      pop\n        /* \"farming/proxy/Initializable.sol\":1835:1903  if (isTopLevelCall) {\r... */\n    tag_85:\n        /* \"farming/eZKaliburProxy.sol\":325:441  function initialize(IBEP20 _token) external initializer {\r... */\n      pop\n      pop\n      jump\t// out\n        /* \"farming/library/WhitelistUpgradeable.sol\":744:855  function isWhitelist(address _address) public view returns(bool) {\r... */\n    tag_31:\n        /* \"farming/library/WhitelistUpgradeable.sol\":803:807  bool */\n      0x00\n        /* \"farming/library/WhitelistUpgradeable.sol\":827:837  _whitelist */\n      0x65\n        /* \"farming/library/WhitelistUpgradeable.sol\":827:847  _whitelist[_address] */\n      0x00\n        /* \"farming/library/WhitelistUpgradeable.sol\":838:846  _address */\n      dup4\n        /* \"farming/library/WhitelistUpgradeable.sol\":827:847  _whitelist[_address] */\n      0xffffffffffffffffffffffffffffffffffffffff\n      and\n      0xffffffffffffffffffffffffffffffffffffffff\n      and\n      dup2\n      mstore\n      0x20\n      add\n      swap1\n      dup2\n      mstore\n      0x20\n      add\n      0x00\n      keccak256\n      0x00\n      swap1\n      sload\n      swap1\n      0x0100\n      exp\n      swap1\n      div\n      0xff\n      and\n        /* \"farming/library/WhitelistUpgradeable.sol\":820:847  return _whitelist[_address] */\n      swap1\n      pop\n        /* \"farming/library/WhitelistUpgradeable.sol\":744:855  function isWhitelist(address _address) public view returns(bool) {\r... */\n      swap2\n      swap1\n      pop\n      jump\t// out\n        /* \"farming/eZKaliburProxy.sol\":838:1029  function recoverToken(IBEP20 _token, uint256 _amount, address _to) external onlyOwner {\r... */\n    tag_34:\n        /* \"farming/access/OwnableUpgradeable.sol\":1600:1612  _msgSender() */\n      tag_88\n        /* \"farming/access/OwnableUpgradeable.sol\":1600:1610  _msgSender */\n      tag_58\n        /* \"farming/access/OwnableUpgradeable.sol\":1600:1612  _msgSender() */\n      jump\t// in\n    tag_88:\n        /* \"farming/access/OwnableUpgradeable.sol\":1589:1612  owner() == _msgSender() */\n      0xffffffffffffffffffffffffffffffffffffffff\n      and\n        /* \"farming/access/OwnableUpgradeable.sol\":1589:1596  owner() */\n      tag_89\n        /* \"farming/access/OwnableUpgradeable.sol\":1589:1594  owner */\n      tag_25\n        /* \"farming/access/OwnableUpgradeable.sol\":1589:1596  owner() */\n      jump\t// in\n    tag_89:\n        /* \"farming/access/OwnableUpgradeable.sol\":1589:1612  owner() == _msgSender() */\n      0xffffffffffffffffffffffffffffffffffffffff\n      and\n      eq\n        /* \"farming/access/OwnableUpgradeable.sol\":1581:1649  require(owner() == _msgSender(), \"Ownable: caller is not the owner\") */\n      tag_90\n      jumpi\n      mload(0x40)\n      0x08c379a000000000000000000000000000000000000000000000000000000000\n      dup2\n      mstore\n      0x04\n      add\n      dup1\n      dup1\n      0x20\n      add\n      dup3\n      dup2\n      sub\n      dup3\n      mstore\n      0x20\n      dup2\n      mstore\n      0x20\n      add\n      dup1\n      0x4f776e61626c653a2063616c6c6572206973206e6f7420746865206f776e6572\n      dup2\n      mstore\n      pop\n      0x20\n      add\n      swap2\n      pop\n      pop\n      mload(0x40)\n      dup1\n      swap2\n      sub\n      swap1\n      revert\n    tag_90:\n        /* \"farming/eZKaliburProxy.sol\":970:975  token */\n      0x98\n      0x00\n      swap1\n      sload\n      swap1\n      0x0100\n      exp\n      swap1\n      div\n      0xffffffffffffffffffffffffffffffffffffffff\n      and\n        /* \"farming/eZKaliburProxy.sol\":943:976  address(_token) != address(token) */\n      0xffffffffffffffffffffffffffffffffffffffff\n      and\n        /* \"farming/eZKaliburProxy.sol\":951:957  _token */\n      dup4\n        /* \"farming/eZKaliburProxy.sol\":943:976  address(_token) != address(token) */\n      0xffffffffffffffffffffffffffffffffffffffff\n      and\n      eq\n      iszero\n        /* \"farming/eZKaliburProxy.sol\":935:977  require(address(_token) != address(token)) */\n      tag_92\n      jumpi\n      0x00\n      dup1\n      revert\n    tag_92:\n        /* \"farming/eZKaliburProxy.sol\":988:1021  _token.safeTransfer(_to, _amount) */\n      tag_93\n        /* \"farming/eZKaliburProxy.sol\":1008:1011  _to */\n      dup2\n        /* \"farming/eZKaliburProxy.sol\":1013:1020  _amount */\n      dup4\n        /* \"farming/eZKaliburProxy.sol\":988:994  _token */\n      dup6\n        /* \"farming/eZKaliburProxy.sol\":988:1007  _token.safeTransfer */\n      0xffffffffffffffffffffffffffffffffffffffff\n      and\n      tag_94\n      swap1\n        /* \"farming/eZKaliburProxy.sol\":988:1021  _token.safeTransfer(_to, _amount) */\n      swap3\n      swap2\n      swap1\n      0xffffffff\n      and\n      jump\t// in\n    tag_93:\n        /* \"farming/eZKaliburProxy.sol\":838:1029  function recoverToken(IBEP20 _token, uint256 _amount, address _to) external onlyOwner {\r... */\n      pop\n      pop\n      pop\n      jump\t// out\n        /* \"farming/access/OwnableUpgradeable.sol\":2323:2567  function transferOwnership(address newOwner) public virtual onlyOwner {\r... */\n    tag_37:\n        /* \"farming/access/OwnableUpgradeable.sol\":1600:1612  _msgSender() */\n      tag_96\n        /* \"farming/access/OwnableUpgradeable.sol\":1600:1610  _msgSender */\n      tag_58\n        /* \"farming/access/OwnableUpgradeable.sol\":1600:1612  _msgSender() */\n      jump\t// in\n    tag_96:\n        /* \"farming/access/OwnableUpgradeable.sol\":1589:1612  owner() == _msgSender() */\n      0xffffffffffffffffffffffffffffffffffffffff\n      and\n        /* \"farming/access/OwnableUpgradeable.sol\":1589:1596  owner() */\n      tag_97\n        /* \"farming/access/OwnableUpgradeable.sol\":1589:1594  owner */\n      tag_25\n        /* \"farming/access/OwnableUpgradeable.sol\":1589:1596  owner() */\n      jump\t// in\n    tag_97:\n        /* \"farming/access/OwnableUpgradeable.sol\":1589:1612  owner() == _msgSender() */\n      0xffffffffffffffffffffffffffffffffffffffff\n      and\n      eq\n        /* \"farming/access/OwnableUpgradeable.sol\":1581:1649  require(owner() == _msgSender(), \"Ownable: caller is not the owner\") */\n      tag_98\n      jumpi\n      mload(0x40)\n      0x08c379a000000000000000000000000000000000000000000000000000000000\n      dup2\n      mstore\n      0x04\n      add\n      dup1\n      dup1\n      0x20\n      add\n      dup3\n      dup2\n      sub\n      dup3\n      mstore\n      0x20\n      dup2\n      mstore\n      0x20\n      add\n      dup1\n      0x4f776e61626c653a2063616c6c6572206973206e6f7420746865206f776e6572\n      dup2\n      mstore\n      pop\n      0x20\n      add\n      swap2\n      pop\n      pop\n      mload(0x40)\n      dup1\n      swap2\n      sub\n      swap1\n      revert\n    tag_98:\n        /* \"farming/access/OwnableUpgradeable.sol\":2432:2433  0 */\n      0x00\n        /* \"farming/access/OwnableUpgradeable.sol\":2412:2434  newOwner != address(0) */\n      0xffffffffffffffffffffffffffffffffffffffff\n      and\n        /* \"farming/access/OwnableUpgradeable.sol\":2412:2420  newOwner */\n      dup2\n        /* \"farming/access/OwnableUpgradeable.sol\":2412:2434  newOwner != address(0) */\n      0xffffffffffffffffffffffffffffffffffffffff\n      and\n      eq\n      iszero\n        /* \"farming/access/OwnableUpgradeable.sol\":2404:2477  require(newOwner != address(0), \"Ownable: new owner is the zero address\") */\n      tag_100\n      jumpi\n      mload(0x40)\n      0x08c379a000000000000000000000000000000000000000000000000000000000\n      dup2\n      mstore\n      0x04\n      add\n      dup1\n      dup1\n      0x20\n      add\n      dup3\n      dup2\n      sub\n      dup3\n      mstore\n      0x26\n      dup2\n      mstore\n      0x20\n      add\n      dup1\n      data_245f15ff17f551913a7a18385165551503906a406f905ac1c2437281a7cd0cfe\n      0x26\n      swap2\n      codecopy\n      0x40\n      add\n      swap2\n      pop\n      pop\n      mload(0x40)\n      dup1\n      swap2\n      sub\n      swap1\n      revert\n    tag_100:\n        /* \"farming/access/OwnableUpgradeable.sol\":2522:2530  newOwner */\n      dup1\n        /* \"farming/access/OwnableUpgradeable.sol\":2493:2531  OwnershipTransferred(_owner, newOwner) */\n      0xffffffffffffffffffffffffffffffffffffffff\n      and\n        /* \"farming/access/OwnableUpgradeable.sol\":2514:2520  _owner */\n      0x33\n      0x00\n      swap1\n      sload\n      swap1\n      0x0100\n      exp\n      swap1\n      div\n      0xffffffffffffffffffffffffffffffffffffffff\n      and\n        /* \"farming/access/OwnableUpgradeable.sol\":2493:2531  OwnershipTransferred(_owner, newOwner) */\n      0xffffffffffffffffffffffffffffffffffffffff\n      and\n      0x8be0079c531659141344cd1fd0a4f28419497f9722a3daafe3b4186f6b6457e0\n      mload(0x40)\n      mload(0x40)\n      dup1\n      swap2\n      sub\n      swap1\n      log3\n        /* \"farming/access/OwnableUpgradeable.sol\":2551:2559  newOwner */\n      dup1\n        /* \"farming/access/OwnableUpgradeable.sol\":2542:2548  _owner */\n      0x33\n      0x00\n        /* \"farming/access/OwnableUpgradeable.sol\":2542:2559  _owner = newOwner */\n      0x0100\n      exp\n      dup2\n      sload\n      dup2\n      0xffffffffffffffffffffffffffffffffffffffff\n      mul\n      not\n      and\n      swap1\n      dup4\n      0xffffffffffffffffffffffffffffffffffffffff\n      and\n      mul\n      or\n      swap1\n      sstore\n      pop\n        /* \"farming/access/OwnableUpgradeable.sol\":2323:2567  function transferOwnership(address newOwner) public virtual onlyOwner {\r... */\n      pop\n      jump\t// out\n        /* \"farming/utils/ContextUpgradeable.sol\":850:956  function _msgSender() internal view virtual returns (address payable) {\r... */\n    tag_58:\n        /* \"farming/utils/ContextUpgradeable.sol\":903:918  address payable */\n      0x00\n        /* \"farming/utils/ContextUpgradeable.sol\":938:948  msg.sender */\n      caller\n        /* \"farming/utils/ContextUpgradeable.sol\":931:948  return msg.sender */\n      swap1\n      pop\n        /* \"farming/utils/ContextUpgradeable.sol\":850:956  function _msgSender() internal view virtual returns (address payable) {\r... */\n      swap1\n      jump\t// out\n        /* \"farming/proxy/Initializable.sol\":2003:2128  function _isConstructor() private view returns (bool) {\r... */\n    tag_78:\n        /* \"farming/proxy/Initializable.sol\":2051:2055  bool */\n      0x00\n        /* \"farming/proxy/Initializable.sol\":2076:2120  AddressUpgradeable.isContract(address(this)) */\n      tag_103\n        /* \"farming/proxy/Initializable.sol\":2114:2118  this */\n      address\n        /* \"farming/proxy/Initializable.sol\":2076:2105  AddressUpgradeable.isContract */\n      tag_104\n        /* \"farming/proxy/Initializable.sol\":2076:2120  AddressUpgradeable.isContract(address(this)) */\n      jump\t// in\n    tag_103:\n        /* \"farming/proxy/Initializable.sol\":2075:2120  !AddressUpgradeable.isContract(address(this)) */\n      iszero\n        /* \"farming/proxy/Initializable.sol\":2068:2120  return !AddressUpgradeable.isContract(address(this)) */\n      swap1\n      pop\n        /* \"farming/proxy/Initializable.sol\":2003:2128  function _isConstructor() private view returns (bool) {\r... */\n      swap1\n      jump\t// out\n        /* \"farming/access/OwnableUpgradeable.sol\":955:1084  function __Ownable_init() internal initializer {\r... */\n    tag_84:\n        /* \"farming/proxy/Initializable.sol\":1547:1560  _initializing */\n      0x00\n      0x01\n      swap1\n      sload\n      swap1\n      0x0100\n      exp\n      swap1\n      div\n      0xff\n      and\n        /* \"farming/proxy/Initializable.sol\":1547:1580  _initializing || _isConstructor() */\n      dup1\n      tag_106\n      jumpi\n      pop\n        /* \"farming/proxy/Initializable.sol\":1564:1580  _isConstructor() */\n      tag_107\n        /* \"farming/proxy/Initializable.sol\":1564:1578  _isConstructor */\n      tag_78\n        /* \"farming/proxy/Initializable.sol\":1564:1580  _isConstructor() */\n      jump\t// in\n    tag_107:\n        /* \"farming/proxy/Initializable.sol\":1547:1580  _initializing || _isConstructor() */\n    tag_106:\n        /* \"farming/proxy/Initializable.sol\":1547:1597  _initializing || _isConstructor() || !_initialized */\n      dup1\n      tag_108\n      jumpi\n      pop\n        /* \"farming/proxy/Initializable.sol\":1585:1597  _initialized */\n      0x00\n      dup1\n      sload\n      swap1\n      0x0100\n      exp\n      swap1\n      div\n      0xff\n      and\n        /* \"farming/proxy/Initializable.sol\":1584:1597  !_initialized */\n      iszero\n        /* \"farming/proxy/Initializable.sol\":1547:1597  _initializing || _isConstructor() || !_initialized */\n    tag_108:\n        /* \"farming/proxy/Initializable.sol\":1539:1648  require(_initializing || _isConstructor() || !_initialized, \"Initializable: contract is already initialized\") */\n      tag_109\n      jumpi\n      mload(0x40)\n      0x08c379a000000000000000000000000000000000000000000000000000000000\n      dup2\n      mstore\n      0x04\n      add\n      dup1\n      dup1\n      0x20\n      add\n      dup3\n      dup2\n      sub\n      dup3\n      mstore\n      0x2e\n      dup2\n      mstore\n      0x20\n      add\n      dup1\n      data_7a2a4e26842155ea933fe6eb6e3137eb5a296dcdf55721c552be7b4c3cc23759\n      0x2e\n      swap2\n      codecopy\n      0x40\n      add\n      swap2\n      pop\n      pop\n      mload(0x40)\n      dup1\n      swap2\n      sub\n      swap1\n      revert\n    tag_109:\n        /* \"farming/proxy/Initializable.sol\":1661:1680  bool isTopLevelCall */\n      0x00\n        /* \"farming/proxy/Initializable.sol\":1684:1697  _initializing */\n      dup1\n      0x01\n      swap1\n      sload\n      swap1\n      0x0100\n      exp\n      swap1\n      div\n      0xff\n      and\n        /* \"farming/proxy/Initializable.sol\":1683:1697  !_initializing */\n      iszero\n        /* \"farming/proxy/Initializable.sol\":1661:1697  bool isTopLevelCall = !_initializing */\n      swap1\n      pop\n        /* \"farming/proxy/Initializable.sol\":1712:1726  isTopLevelCall */\n      dup1\n        /* \"farming/proxy/Initializable.sol\":1708:1809  if (isTopLevelCall) {\r... */\n      iszero\n      tag_110\n      jumpi\n        /* \"farming/proxy/Initializable.sol\":1759:1763  true */\n      0x01\n        /* \"farming/proxy/Initializable.sol\":1743:1756  _initializing */\n      0x00\n      0x01\n        /* \"farming/proxy/Initializable.sol\":1743:1763  _initializing = true */\n      0x0100\n      exp\n      dup2\n      sload\n      dup2\n      0xff\n      mul\n      not\n      and\n      swap1\n      dup4\n      iszero\n      iszero\n      mul\n      or\n      swap1\n      sstore\n      pop\n        /* \"farming/proxy/Initializable.sol\":1793:1797  true */\n      0x01\n        /* \"farming/proxy/Initializable.sol\":1778:1790  _initialized */\n      0x00\n      dup1\n        /* \"farming/proxy/Initializable.sol\":1778:1797  _initialized = true */\n      0x0100\n      exp\n      dup2\n      sload\n      dup2\n      0xff\n      mul\n      not\n      and\n      swap1\n      dup4\n      iszero\n      iszero\n      mul\n      or\n      swap1\n      sstore\n      pop\n        /* \"farming/proxy/Initializable.sol\":1708:1809  if (isTopLevelCall) {\r... */\n    tag_110:\n        /* \"farming/access/OwnableUpgradeable.sol\":1013:1039  __Context_init_unchained() */\n      tag_112\n        /* \"farming/access/OwnableUpgradeable.sol\":1013:1037  __Context_init_unchained */\n      tag_113\n        /* \"farming/access/OwnableUpgradeable.sol\":1013:1039  __Context_init_unchained() */\n      jump\t// in\n    tag_112:\n        /* \"farming/access/OwnableUpgradeable.sol\":1050:1076  __Ownable_init_unchained() */\n      tag_114\n        /* \"farming/access/OwnableUpgradeable.sol\":1050:1074  __Ownable_init_unchained */\n      tag_115\n        /* \"farming/access/OwnableUpgradeable.sol\":1050:1076  __Ownable_init_unchained() */\n      jump\t// in\n    tag_114:\n        /* \"farming/proxy/Initializable.sol\":1839:1853  isTopLevelCall */\n      dup1\n        /* \"farming/proxy/Initializable.sol\":1835:1903  if (isTopLevelCall) {\r... */\n      iszero\n      tag_116\n      jumpi\n        /* \"farming/proxy/Initializable.sol\":1886:1891  false */\n      0x00\n        /* \"farming/proxy/Initializable.sol\":1870:1883  _initializing */\n      dup1\n      0x01\n        /* \"farming/proxy/Initializable.sol\":1870:1891  _initializing = false */\n      0x0100\n      exp\n      dup2\n      sload\n      dup2\n      0xff\n      mul\n      not\n      and\n      swap1\n      dup4\n      iszero\n      iszero\n      mul\n      or\n      swap1\n      sstore\n      pop\n        /* \"farming/proxy/Initializable.sol\":1835:1903  if (isTopLevelCall) {\r... */\n    tag_116:\n        /* \"farming/access/OwnableUpgradeable.sol\":955:1084  function __Ownable_init() internal initializer {\r... */\n      pop\n      jump\t// out\n        /* \"farming/utils/SafeBEP20.sol\":719:930  function safeTransfer(\r... */\n    tag_94:\n        /* \"farming/utils/SafeBEP20.sol\":836:922  _callOptionalReturn(token, abi.encodeWithSelector(token.transfer.selector, to, value)) */\n      tag_118\n        /* \"farming/utils/SafeBEP20.sol\":856:861  token */\n      dup4\n        /* \"farming/utils/SafeBEP20.sol\":886:909  token.transfer.selector */\n      shl(0xe0, 0xa9059cbb)\n        /* \"farming/utils/SafeBEP20.sol\":911:913  to */\n      dup5\n        /* \"farming/utils/SafeBEP20.sol\":915:920  value */\n      dup5\n        /* \"farming/utils/SafeBEP20.sol\":863:921  abi.encodeWithSelector(token.transfer.selector, to, value) */\n      add(0x24, mload(0x40))\n      dup1\n      dup4\n      0xffffffffffffffffffffffffffffffffffffffff\n      and\n      dup2\n      mstore\n      0x20\n      add\n      dup3\n      dup2\n      mstore\n      0x20\n      add\n      swap3\n      pop\n      pop\n      pop\n      mload(0x40)\n      0x20\n      dup2\n      dup4\n      sub\n      sub\n      dup2\n      mstore\n      swap1\n      0x40\n      mstore\n      swap1\n      not(0xffffffffffffffffffffffffffffffffffffffffffffffffffffffff)\n      and\n      0x20\n      dup3\n      add\n      dup1\n      mload\n      0xffffffffffffffffffffffffffffffffffffffffffffffffffffffff\n      dup4\n      dup2\n      dup4\n      and\n      or\n      dup4\n      mstore\n      pop\n      pop\n      pop\n      pop\n        /* \"farming/utils/SafeBEP20.sol\":836:855  _callOptionalReturn */\n      tag_119\n        /* \"farming/utils/SafeBEP20.sol\":836:922  _callOptionalReturn(token, abi.encodeWithSelector(token.transfer.selector, to, value)) */\n      jump\t// in\n    tag_118:\n        /* \"farming/utils/SafeBEP20.sol\":719:930  function safeTransfer(\r... */\n      pop\n      pop\n      pop\n      jump\t// out\n        /* \"farming/utils/AddressUpgradeable.sol\":756:1178  function isContract(address account) internal view returns (bool) {\r... */\n    tag_104:\n        /* \"farming/utils/AddressUpgradeable.sol\":816:820  bool */\n      0x00\n        /* \"farming/utils/AddressUpgradeable.sol\":1024:1036  uint256 size */\n      dup1\n        /* \"farming/utils/AddressUpgradeable.sol\":1135:1142  account */\n      dup3\n        /* \"farming/utils/AddressUpgradeable.sol\":1123:1143  extcodesize(account) */\n      extcodesize\n        /* \"farming/utils/AddressUpgradeable.sol\":1115:1143  size := extcodesize(account) */\n      swap1\n      pop\n        /* \"farming/utils/AddressUpgradeable.sol\":1169:1170  0 */\n      0x00\n        /* \"farming/utils/AddressUpgradeable.sol\":1162:1166  size */\n      dup2\n        /* \"farming/utils/AddressUpgradeable.sol\":1162:1170  size > 0 */\n      gt\n        /* \"farming/utils/AddressUpgradeable.sol\":1155:1170  return size > 0 */\n      swap2\n      pop\n      pop\n        /* \"farming/utils/AddressUpgradeable.sol\":756:1178  function isContract(address account) internal view returns (bool) {\r... */\n      swap2\n      swap1\n      pop\n      jump\t// out\n        /* \"farming/utils/ContextUpgradeable.sol\":779:844  function __Context_init_unchained() internal initializer {\r... */\n    tag_113:\n        /* \"farming/proxy/Initializable.sol\":1547:1560  _initializing */\n      0x00\n      0x01\n      swap1\n      sload\n      swap1\n      0x0100\n      exp\n      swap1\n      div\n      0xff\n      and\n        /* \"farming/proxy/Initializable.sol\":1547:1580  _initializing || _isConstructor() */\n      dup1\n      tag_122\n      jumpi\n      pop\n        /* \"farming/proxy/Initializable.sol\":1564:1580  _isConstructor() */\n      tag_123\n        /* \"farming/proxy/Initializable.sol\":1564:1578  _isConstructor */\n      tag_78\n        /* \"farming/proxy/Initializable.sol\":1564:1580  _isConstructor() */\n      jump\t// in\n    tag_123:\n        /* \"farming/proxy/Initializable.sol\":1547:1580  _initializing || _isConstructor() */\n    tag_122:\n        /* \"farming/proxy/Initializable.sol\":1547:1597  _initializing || _isConstructor() || !_initialized */\n      dup1\n      tag_124\n      jumpi\n      pop\n        /* \"farming/proxy/Initializable.sol\":1585:1597  _initialized */\n      0x00\n      dup1\n      sload\n      swap1\n      0x0100\n      exp\n      swap1\n      div\n      0xff\n      and\n        /* \"farming/proxy/Initializable.sol\":1584:1597  !_initialized */\n      iszero\n        /* \"farming/proxy/Initializable.sol\":1547:1597  _initializing || _isConstructor() || !_initialized */\n    tag_124:\n        /* \"farming/proxy/Initializable.sol\":1539:1648  require(_initializing || _isConstructor() || !_initialized, \"Initializable: contract is already initialized\") */\n      tag_125\n      jumpi\n      mload(0x40)\n      0x08c379a000000000000000000000000000000000000000000000000000000000\n      dup2\n      mstore\n      0x04\n      add\n      dup1\n      dup1\n      0x20\n      add\n      dup3\n      dup2\n      sub\n      dup3\n      mstore\n      0x2e\n      dup2\n      mstore\n      0x20\n      add\n      dup1\n      data_7a2a4e26842155ea933fe6eb6e3137eb5a296dcdf55721c552be7b4c3cc23759\n      0x2e\n      swap2\n      codecopy\n      0x40\n      add\n      swap2\n      pop\n      pop\n      mload(0x40)\n      dup1\n      swap2\n      sub\n      swap1\n      revert\n    tag_125:\n        /* \"farming/proxy/Initializable.sol\":1661:1680  bool isTopLevelCall */\n      0x00\n        /* \"farming/proxy/Initializable.sol\":1684:1697  _initializing */\n      dup1\n      0x01\n      swap1\n      sload\n      swap1\n      0x0100\n      exp\n      swap1\n      div\n      0xff\n      and\n        /* \"farming/proxy/Initializable.sol\":1683:1697  !_initializing */\n      iszero\n        /* \"farming/proxy/Initializable.sol\":1661:1697  bool isTopLevelCall = !_initializing */\n      swap1\n      pop\n        /* \"farming/proxy/Initializable.sol\":1712:1726  isTopLevelCall */\n      dup1\n        /* \"farming/proxy/Initializable.sol\":1708:1809  if (isTopLevelCall) {\r... */\n      iszero\n      tag_126\n      jumpi\n        /* \"farming/proxy/Initializable.sol\":1759:1763  true */\n      0x01\n        /* \"farming/proxy/Initializable.sol\":1743:1756  _initializing */\n      0x00\n      0x01\n        /* \"farming/proxy/Initializable.sol\":1743:1763  _initializing = true */\n      0x0100\n      exp\n      dup2\n      sload\n      dup2\n      0xff\n      mul\n      not\n      and\n      swap1\n      dup4\n      iszero\n      iszero\n      mul\n      or\n      swap1\n      sstore\n      pop\n        /* \"farming/proxy/Initializable.sol\":1793:1797  true */\n      0x01\n        /* \"farming/proxy/Initializable.sol\":1778:1790  _initialized */\n      0x00\n      dup1\n        /* \"farming/proxy/Initializable.sol\":1778:1797  _initialized = true */\n      0x0100\n      exp\n      dup2\n      sload\n      dup2\n      0xff\n      mul\n      not\n      and\n      swap1\n      dup4\n      iszero\n      iszero\n      mul\n      or\n      swap1\n      sstore\n      pop\n        /* \"farming/proxy/Initializable.sol\":1708:1809  if (isTopLevelCall) {\r... */\n    tag_126:\n        /* \"farming/proxy/Initializable.sol\":1839:1853  isTopLevelCall */\n      dup1\n        /* \"farming/proxy/Initializable.sol\":1835:1903  if (isTopLevelCall) {\r... */\n      iszero\n      tag_128\n      jumpi\n        /* \"farming/proxy/Initializable.sol\":1886:1891  false */\n      0x00\n        /* \"farming/proxy/Initializable.sol\":1870:1883  _initializing */\n      dup1\n      0x01\n        /* \"farming/proxy/Initializable.sol\":1870:1891  _initializing = false */\n      0x0100\n      exp\n      dup2\n      sload\n      dup2\n      0xff\n      mul\n      not\n      and\n      swap1\n      dup4\n      iszero\n      iszero\n      mul\n      or\n      swap1\n      sstore\n      pop\n        /* \"farming/proxy/Initializable.sol\":1835:1903  if (isTopLevelCall) {\r... */\n    tag_128:\n        /* \"farming/utils/ContextUpgradeable.sol\":779:844  function __Context_init_unchained() internal initializer {\r... */\n      pop\n      jump\t// out\n        /* \"farming/access/OwnableUpgradeable.sol\":1092:1288  function __Ownable_init_unchained() internal initializer {\r... */\n    tag_115:\n        /* \"farming/proxy/Initializable.sol\":1547:1560  _initializing */\n      0x00\n      0x01\n      swap1\n      sload\n      swap1\n      0x0100\n      exp\n      swap1\n      div\n      0xff\n      and\n        /* \"farming/proxy/Initializable.sol\":1547:1580  _initializing || _isConstructor() */\n      dup1\n      tag_130\n      jumpi\n      pop\n        /* \"farming/proxy/Initializable.sol\":1564:1580  _isConstructor() */\n      tag_131\n        /* \"farming/proxy/Initializable.sol\":1564:1578  _isConstructor */\n      tag_78\n        /* \"farming/proxy/Initializable.sol\":1564:1580  _isConstructor() */\n      jump\t// in\n    tag_131:\n        /* \"farming/proxy/Initializable.sol\":1547:1580  _initializing || _isConstructor() */\n    tag_130:\n        /* \"farming/proxy/Initializable.sol\":1547:1597  _initializing || _isConstructor() || !_initialized */\n      dup1\n      tag_132\n      jumpi\n      pop\n        /* \"farming/proxy/Initializable.sol\":1585:1597  _initialized */\n      0x00\n      dup1\n      sload\n      swap1\n      0x0100\n      exp\n      swap1\n      div\n      0xff\n      and\n        /* \"farming/proxy/Initializable.sol\":1584:1597  !_initialized */\n      iszero\n        /* \"farming/proxy/Initializable.sol\":1547:1597  _initializing || _isConstructor() || !_initialized */\n    tag_132:\n        /* \"farming/proxy/Initializable.sol\":1539:1648  require(_initializing || _isConstructor() || !_initialized, \"Initializable: contract is already initialized\") */\n      tag_133\n      jumpi\n      mload(0x40)\n      0x08c379a000000000000000000000000000000000000000000000000000000000\n      dup2\n      mstore\n      0x04\n      add\n      dup1\n      dup1\n      0x20\n      add\n      dup3\n      dup2\n      sub\n      dup3\n      mstore\n      0x2e\n      dup2\n      mstore\n      0x20\n      add\n      dup1\n      data_7a2a4e26842155ea933fe6eb6e3137eb5a296dcdf55721c552be7b4c3cc23759\n      0x2e\n      swap2\n      codecopy\n      0x40\n      add\n      swap2\n      pop\n      pop\n      mload(0x40)\n      dup1\n      swap2\n      sub\n      swap1\n      revert\n    tag_133:\n        /* \"farming/proxy/Initializable.sol\":1661:1680  bool isTopLevelCall */\n      0x00\n        /* \"farming/proxy/Initializable.sol\":1684:1697  _initializing */\n      dup1\n      0x01\n      swap1\n      sload\n      swap1\n      0x0100\n      exp\n      swap1\n      div\n      0xff\n      and\n        /* \"farming/proxy/Initializable.sol\":1683:1697  !_initializing */\n      iszero\n        /* \"farming/proxy/Initializable.sol\":1661:1697  bool isTopLevelCall = !_initializing */\n      swap1\n      pop\n        /* \"farming/proxy/Initializable.sol\":1712:1726  isTopLevelCall */\n      dup1\n        /* \"farming/proxy/Initializable.sol\":1708:1809  if (isTopLevelCall) {\r... */\n      iszero\n      tag_134\n      jumpi\n        /* \"farming/proxy/Initializable.sol\":1759:1763  true */\n      0x01\n        /* \"farming/proxy/Initializable.sol\":1743:1756  _initializing */\n      0x00\n      0x01\n        /* \"farming/proxy/Initializable.sol\":1743:1763  _initializing = true */\n      0x0100\n      exp\n      dup2\n      sload\n      dup2\n      0xff\n      mul\n      not\n      and\n      swap1\n      dup4\n      iszero\n      iszero\n      mul\n      or\n      swap1\n      sstore\n      pop\n        /* \"farming/proxy/Initializable.sol\":1793:1797  true */\n      0x01\n        /* \"farming/proxy/Initializable.sol\":1778:1790  _initialized */\n      0x00\n      dup1\n        /* \"farming/proxy/Initializable.sol\":1778:1797  _initialized = true */\n      0x0100\n      exp\n      dup2\n      sload\n      dup2\n      0xff\n      mul\n      not\n      and\n      swap1\n      dup4\n      iszero\n      iszero\n      mul\n      or\n      swap1\n      sstore\n      pop\n        /* \"farming/proxy/Initializable.sol\":1708:1809  if (isTopLevelCall) {\r... */\n    tag_134:\n        /* \"farming/access/OwnableUpgradeable.sol\":1160:1177  address msgSender */\n      0x00\n        /* \"farming/access/OwnableUpgradeable.sol\":1180:1192  _msgSender() */\n      tag_136\n        /* \"farming/access/OwnableUpgradeable.sol\":1180:1190  _msgSender */\n      tag_58\n        /* \"farming/access/OwnableUpgradeable.sol\":1180:1192  _msgSender() */\n      jump\t// in\n    tag_136:\n        /* \"farming/access/OwnableUpgradeable.sol\":1160:1192  address msgSender = _msgSender() */\n      swap1\n      pop\n        /* \"farming/access/OwnableUpgradeable.sol\":1212:1221  msgSender */\n      dup1\n        /* \"farming/access/OwnableUpgradeable.sol\":1203:1209  _owner */\n      0x33\n      0x00\n        /* \"farming/access/OwnableUpgradeable.sol\":1203:1221  _owner = msgSender */\n      0x0100\n      exp\n      dup2\n      sload\n      dup2\n      0xffffffffffffffffffffffffffffffffffffffff\n      mul\n      not\n      and\n      swap1\n      dup4\n      0xffffffffffffffffffffffffffffffffffffffff\n      and\n      mul\n      or\n      swap1\n      sstore\n      pop\n        /* \"farming/access/OwnableUpgradeable.sol\":1270:1279  msgSender */\n      dup1\n        /* \"farming/access/OwnableUpgradeable.sol\":1237:1280  OwnershipTransferred(address(0), msgSender) */\n      0xffffffffffffffffffffffffffffffffffffffff\n      and\n        /* \"farming/access/OwnableUpgradeable.sol\":1266:1267  0 */\n      0x00\n        /* \"farming/access/OwnableUpgradeable.sol\":1237:1280  OwnershipTransferred(address(0), msgSender) */\n      0xffffffffffffffffffffffffffffffffffffffff\n      and\n      0x8be0079c531659141344cd1fd0a4f28419497f9722a3daafe3b4186f6b6457e0\n      mload(0x40)\n      mload(0x40)\n      dup1\n      swap2\n      sub\n      swap1\n      log3\n        /* \"farming/proxy/Initializable.sol\":1821:1822  _ */\n      pop\n        /* \"farming/proxy/Initializable.sol\":1839:1853  isTopLevelCall */\n      dup1\n        /* \"farming/proxy/Initializable.sol\":1835:1903  if (isTopLevelCall) {\r... */\n      iszero\n      tag_137\n      jumpi\n        /* \"farming/proxy/Initializable.sol\":1886:1891  false */\n      0x00\n        /* \"farming/proxy/Initializable.sol\":1870:1883  _initializing */\n      dup1\n      0x01\n        /* \"farming/proxy/Initializable.sol\":1870:1891  _initializing = false */\n      0x0100\n      exp\n      dup2\n      sload\n      dup2\n      0xff\n      mul\n      not\n      and\n      swap1\n      dup4\n      iszero\n      iszero\n      mul\n      or\n      swap1\n      sstore\n      pop\n        /* \"farming/proxy/Initializable.sol\":1835:1903  if (isTopLevelCall) {\r... */\n    tag_137:\n        /* \"farming/access/OwnableUpgradeable.sol\":1092:1288  function __Ownable_init_unchained() internal initializer {\r... */\n      pop\n      jump\t// out\n        /* \"farming/utils/SafeBEP20.sol\":3254:4028  function _callOptionalReturn(IBEP20 token, bytes memory data) private {\r... */\n    tag_119:\n        /* \"farming/utils/SafeBEP20.sol\":3678:3701  bytes memory returndata */\n      0x60\n        /* \"farming/utils/SafeBEP20.sol\":3704:3773  address(token).functionCall(data, 'SafeBEP20: low-level call failed') */\n      tag_139\n        /* \"farming/utils/SafeBEP20.sol\":3732:3736  data */\n      dup3\n        /* \"farming/utils/SafeBEP20.sol\":3704:3773  address(token).functionCall(data, 'SafeBEP20: low-level call failed') */\n      mload(0x40)\n      dup1\n      0x40\n      add\n      0x40\n      mstore\n      dup1\n      0x20\n      dup2\n      mstore\n      0x20\n      add\n      0x5361666542455032303a206c6f772d6c6576656c2063616c6c206661696c6564\n      dup2\n      mstore\n      pop\n        /* \"farming/utils/SafeBEP20.sol\":3712:3717  token */\n      dup6\n        /* \"farming/utils/SafeBEP20.sol\":3704:3731  address(token).functionCall */\n      0xffffffffffffffffffffffffffffffffffffffff\n      and\n      tag_140\n      swap1\n        /* \"farming/utils/SafeBEP20.sol\":3704:3773  address(token).functionCall(data, 'SafeBEP20: low-level call failed') */\n      swap3\n      swap2\n      swap1\n      0xffffffff\n      and\n      jump\t// in\n    tag_139:\n        /* \"farming/utils/SafeBEP20.sol\":3678:3773  bytes memory returndata = address(token).functionCall(data, 'SafeBEP20: low-level call failed') */\n      swap1\n      pop\n        /* \"farming/utils/SafeBEP20.sol\":3808:3809  0 */\n      0x00\n        /* \"farming/utils/SafeBEP20.sol\":3788:3798  returndata */\n      dup2\n        /* \"farming/utils/SafeBEP20.sol\":3788:3805  returndata.length */\n      mload\n        /* \"farming/utils/SafeBEP20.sol\":3788:3809  returndata.length > 0 */\n      gt\n        /* \"farming/utils/SafeBEP20.sol\":3784:4021  if (returndata.length > 0) {\r... */\n      iszero\n      tag_141\n      jumpi\n        /* \"farming/utils/SafeBEP20.sol\":3943:3953  returndata */\n      dup1\n        /* \"farming/utils/SafeBEP20.sol\":3932:3962  abi.decode(returndata, (bool)) */\n      dup1\n      0x20\n      add\n      swap1\n      mload\n      0x20\n      dup2\n      lt\n      iszero\n      tag_142\n      jumpi\n      0x00\n      dup1\n      revert\n    tag_142:\n      dup2\n      add\n      swap1\n      dup1\n      dup1\n      mload\n      swap1\n      0x20\n      add\n      swap1\n      swap3\n      swap2\n      swap1\n      pop\n      pop\n      pop\n        /* \"farming/utils/SafeBEP20.sol\":3924:4009  require(abi.decode(returndata, (bool)), 'SafeBEP20: BEP20 operation did not succeed') */\n      tag_143\n      jumpi\n      mload(0x40)\n      0x08c379a000000000000000000000000000000000000000000000000000000000\n      dup2\n      mstore\n      0x04\n      add\n      dup1\n      dup1\n      0x20\n      add\n      dup3\n      dup2\n      sub\n      dup3\n      mstore\n      0x2a\n      dup2\n      mstore\n      0x20\n      add\n      dup1\n      data_21c3364d55537bf20eb8f05374e9f53f47299e1883c412f1f1135f398f2c2082\n      0x2a\n      swap2\n      codecopy\n      0x40\n      add\n      swap2\n      pop\n      pop\n      mload(0x40)\n      dup1\n      swap2\n      sub\n      swap1\n      revert\n    tag_143:\n        /* \"farming/utils/SafeBEP20.sol\":3784:4021  if (returndata.length > 0) {\r... */\n    tag_141:\n        /* \"farming/utils/SafeBEP20.sol\":3254:4028  function _callOptionalReturn(IBEP20 token, bytes memory data) private {\r... */\n      pop\n      pop\n      pop\n      jump\t// out\n        /* \"farming/utils/Address.sol\":3880:4110  function functionCall(\r... */\n    tag_140:\n        /* \"farming/utils/Address.sol\":4017:4029  bytes memory */\n      0x60\n        /* \"farming/utils/Address.sol\":4049:4102  _functionCallWithValue(target, data, 0, errorMessage) */\n      tag_145\n        /* \"farming/utils/Address.sol\":4072:4078  target */\n      dup5\n        /* \"farming/utils/Address.sol\":4080:4084  data */\n      dup5\n        /* \"farming/utils/Address.sol\":4086:4087  0 */\n      0x00\n        /* \"farming/utils/Address.sol\":4089:4101  errorMessage */\n      dup6\n        /* \"farming/utils/Address.sol\":4049:4071  _functionCallWithValue */\n      tag_146\n        /* \"farming/utils/Address.sol\":4049:4102  _functionCallWithValue(target, data, 0, errorMessage) */\n      jump\t// in\n    tag_145:\n        /* \"farming/utils/Address.sol\":4042:4102  return _functionCallWithValue(target, data, 0, errorMessage) */\n      swap1\n      pop\n        /* \"farming/utils/Address.sol\":3880:4110  function functionCall(\r... */\n      swap4\n      swap3\n      pop\n      pop\n      pop\n      jump\t// out\n        /* \"farming/utils/Address.sol\":5368:6388  function _functionCallWithValue(\r... */\n    tag_146:\n        /* \"farming/utils/Address.sol\":5541:5553  bytes memory */\n      0x60\n        /* \"farming/utils/Address.sol\":5574:5592  isContract(target) */\n      tag_148\n        /* \"farming/utils/Address.sol\":5585:5591  target */\n      dup6\n        /* \"farming/utils/Address.sol\":5574:5584  isContract */\n      tag_149\n        /* \"farming/utils/Address.sol\":5574:5592  isContract(target) */\n      jump\t// in\n    tag_148:\n        /* \"farming/utils/Address.sol\":5566:5626  require(isContract(target), 'Address: call to non-contract') */\n      tag_150\n      jumpi\n      mload(0x40)\n      0x08c379a000000000000000000000000000000000000000000000000000000000\n      dup2\n      mstore\n      0x04\n      add\n      dup1\n      dup1\n      0x20\n      add\n      dup3\n      dup2\n      sub\n      dup3\n      mstore\n      0x1d\n      dup2\n      mstore\n      0x20\n      add\n      dup1\n      0x416464726573733a2063616c6c20746f206e6f6e2d636f6e7472616374000000\n      dup2\n      mstore\n      pop\n      0x20\n      add\n      swap2\n      pop\n      pop\n      mload(0x40)\n      dup1\n      swap2\n      sub\n      swap1\n      revert\n    tag_150:\n        /* \"farming/utils/Address.sol\":5700:5712  bool success */\n      0x00\n        /* \"farming/utils/Address.sol\":5714:5737  bytes memory returndata */\n      0x60\n        /* \"farming/utils/Address.sol\":5741:5747  target */\n      dup7\n        /* \"farming/utils/Address.sol\":5741:5752  target.call */\n      0xffffffffffffffffffffffffffffffffffffffff\n      and\n        /* \"farming/utils/Address.sol\":5760:5768  weiValue */\n      dup6\n        /* \"farming/utils/Address.sol\":5770:5774  data */\n      dup8\n        /* \"farming/utils/Address.sol\":5741:5775  target.call{value: weiValue}(data) */\n      mload(0x40)\n      dup1\n      dup3\n      dup1\n      mload\n      swap1\n      0x20\n      add\n      swap1\n      dup1\n      dup4\n      dup4\n    tag_151:\n      0x20\n      dup4\n      lt\n      tag_153\n      jumpi\n      dup1\n      mload\n      dup3\n      mstore\n      0x20\n      dup3\n      add\n      swap2\n      pop\n      0x20\n      dup2\n      add\n      swap1\n      pop\n      0x20\n      dup4\n      sub\n      swap3\n      pop\n      jump(tag_151)\n    tag_153:\n      0x01\n      dup4\n      0x20\n      sub\n      0x0100\n      exp\n      sub\n      dup1\n      not\n      dup3\n      mload\n      and\n      dup2\n      dup5\n      mload\n      and\n      dup1\n      dup3\n      or\n      dup6\n      mstore\n      pop\n      pop\n      pop\n      pop\n      pop\n      pop\n      swap1\n      pop\n      add\n      swap2\n      pop\n      pop\n      0x00\n      mload(0x40)\n      dup1\n      dup4\n      sub\n      dup2\n      dup6\n      dup8\n      gas\n      call\n      swap3\n      pop\n      pop\n      pop\n      returndatasize\n      dup1\n      0x00\n      dup2\n      eq\n      tag_156\n      jumpi\n      mload(0x40)\n      swap2\n      pop\n      and(add(returndatasize, 0x3f), not(0x1f))\n      dup3\n      add\n      0x40\n      mstore\n      returndatasize\n      dup3\n      mstore\n      returndatasize\n      0x00\n      0x20\n      dup5\n      add\n      returndatacopy\n      jump(tag_155)\n    tag_156:\n      0x60\n      swap2\n      pop\n    tag_155:\n      pop\n        /* \"farming/utils/Address.sol\":5699:5775  (bool success, bytes memory returndata) = target.call{value: weiValue}(data) */\n      swap2\n      pop\n      swap2\n      pop\n        /* \"farming/utils/Address.sol\":5790:5797  success */\n      dup2\n        /* \"farming/utils/Address.sol\":5786:6381  if (success) {\r... */\n      iszero\n      tag_157\n      jumpi\n        /* \"farming/utils/Address.sol\":5821:5831  returndata */\n      dup1\n        /* \"farming/utils/Address.sol\":5814:5831  return returndata */\n      swap3\n      pop\n      pop\n      pop\n      jump(tag_147)\n        /* \"farming/utils/Address.sol\":5786:6381  if (success) {\r... */\n    tag_157:\n        /* \"farming/utils/Address.sol\":5955:5956  0 */\n      0x00\n        /* \"farming/utils/Address.sol\":5935:5945  returndata */\n      dup2\n        /* \"farming/utils/Address.sol\":5935:5952  returndata.length */\n      mload\n        /* \"farming/utils/Address.sol\":5935:5956  returndata.length > 0 */\n      gt\n        /* \"farming/utils/Address.sol\":5931:6370  if (returndata.length > 0) {\r... */\n      iszero\n      tag_159\n      jumpi\n        /* \"farming/utils/Address.sol\":6198:6208  returndata */\n      dup1\n        /* \"farming/utils/Address.sol\":6192:6209  mload(returndata) */\n      mload\n        /* \"farming/utils/Address.sol\":6259:6274  returndata_size */\n      dup1\n        /* \"farming/utils/Address.sol\":6246:6256  returndata */\n      dup3\n        /* \"farming/utils/Address.sol\":6242:6244  32 */\n      0x20\n        /* \"farming/utils/Address.sol\":6238:6257  add(32, returndata) */\n      add\n        /* \"farming/utils/Address.sol\":6231:6275  revert(add(32, returndata), returndata_size) */\n      revert\n        /* \"farming/utils/Address.sol\":6146:6294  {\r... */\n    tag_159:\n        /* \"farming/utils/Address.sol\":6341:6353  errorMessage */\n      dup4\n        /* \"farming/utils/Address.sol\":6334:6354  revert(errorMessage) */\n      mload(0x40)\n      0x08c379a000000000000000000000000000000000000000000000000000000000\n      dup2\n      mstore\n      0x04\n      add\n      dup1\n      dup1\n      0x20\n      add\n      dup3\n      dup2\n      sub\n      dup3\n      mstore\n      dup4\n      dup2\n      dup2\n      mload\n      dup2\n      mstore\n      0x20\n      add\n      swap2\n      pop\n      dup1\n      mload\n      swap1\n      0x20\n      add\n      swap1\n      dup1\n      dup4\n      dup4\n      0x00\n    tag_161:\n      dup4\n      dup2\n      lt\n      iszero\n      tag_163\n      jumpi\n      dup1\n      dup3\n      add\n      mload\n      dup2\n      dup5\n      add\n      mstore\n      0x20\n      dup2\n      add\n      swap1\n      pop\n      jump(tag_161)\n    tag_163:\n      pop\n      pop\n      pop\n      pop\n      swap1\n      pop\n      swap1\n      dup2\n      add\n      swap1\n      0x1f\n      and\n      dup1\n      iszero\n      tag_164\n      jumpi\n      dup1\n      dup3\n      sub\n      dup1\n      mload\n      0x01\n      dup4\n      0x20\n      sub\n      0x0100\n      exp\n      sub\n      not\n      and\n      dup2\n      mstore\n      0x20\n      add\n      swap2\n      pop\n    tag_164:\n      pop\n      swap3\n      pop\n      pop\n      pop\n      mload(0x40)\n      dup1\n      swap2\n      sub\n      swap1\n      revert\n        /* \"farming/utils/Address.sol\":5368:6388  function _functionCallWithValue(\r... */\n    tag_147:\n      swap5\n      swap4\n      pop\n      pop\n      pop\n      pop\n      jump\t// out\n        /* \"farming/utils/Address.sol\":743:1384  function isContract(address account) internal view returns (bool) {\r... */\n    tag_149:\n        /* \"farming/utils/Address.sol\":803:807  bool */\n      0x00\n        /* \"farming/utils/Address.sol\":1065:1081  bytes32 codehash */\n      dup1\n        /* \"farming/utils/Address.sol\":1092:1111  bytes32 accountHash */\n      0x00\n        /* \"farming/utils/Address.sol\":1114:1180  0xc5d2460186f7233c927e7db2dcc703c0e500b653ca82273b7bfad8045d85a470 */\n      0xc5d2460186f7233c927e7db2dcc703c0e500b653ca82273b7bfad8045d85a470\n        /* \"farming/utils/Address.sol\":1092:1180  bytes32 accountHash = 0xc5d2460186f7233c927e7db2dcc703c0e500b653ca82273b7bfad8045d85a470 */\n      0x00\n      shl\n      swap1\n      pop\n        /* \"farming/utils/Address.sol\":1296:1303  account */\n      dup4\n        /* \"farming/utils/Address.sol\":1284:1304  extcodehash(account) */\n      extcodehash\n        /* \"farming/utils/Address.sol\":1272:1304  codehash := extcodehash(account) */\n      swap2\n      pop\n        /* \"farming/utils/Address.sol\":1345:1356  accountHash */\n      dup1\n        /* \"farming/utils/Address.sol\":1333:1341  codehash */\n      dup3\n        /* \"farming/utils/Address.sol\":1333:1356  codehash != accountHash */\n      eq\n      iszero\n        /* \"farming/utils/Address.sol\":1333:1375  codehash != accountHash && codehash != 0x0 */\n      dup1\n      iszero\n      tag_166\n      jumpi\n      pop\n        /* \"farming/utils/Address.sol\":1372:1375  0x0 */\n      0x00\n        /* \"farming/utils/Address.sol\":1360:1375  codehash != 0x0 */\n      dup1\n      shl\n        /* \"farming/utils/Address.sol\":1360:1368  codehash */\n      dup3\n        /* \"farming/utils/Address.sol\":1360:1375  codehash != 0x0 */\n      eq\n      iszero\n        /* \"farming/utils/Address.sol\":1333:1375  codehash != accountHash && codehash != 0x0 */\n    tag_166:\n        /* \"farming/utils/Address.sol\":1325:1376  return (codehash != accountHash && codehash != 0x0) */\n      swap3\n      pop\n      pop\n      pop\n        /* \"farming/utils/Address.sol\":743:1384  function isContract(address account) internal view returns (bool) {\r... */\n      swap2\n      swap1\n      pop\n      jump\t// out\n    stop\n    data_21c3364d55537bf20eb8f05374e9f53f47299e1883c412f1f1135f398f2c2082 5361666542455032303a204245503230206f7065726174696f6e20646964206e6f742073756363656564\n    data_245f15ff17f551913a7a18385165551503906a406f905ac1c2437281a7cd0cfe 4f776e61626c653a206e6577206f776e657220697320746865207a65726f2061646472657373\n    data_7a2a4e26842155ea933fe6eb6e3137eb5a296dcdf55721c552be7b4c3cc23759 496e697469616c697a61626c653a20636f6e747261637420697320616c726561647920696e697469616c697a6564\n    data_8193a60c6207ee93eb48bebd42af33b356dd6e6ca52ad6aab6a8892e28cd7323 57686974656c6973743a2063616c6c6572206973206e6f74206f6e207468652077686974656c697374\n\n    auxdata: 0xa26469706673582212202a4c6e00a369c3b5bea584f4238bbd2fcd29946e2dac9f1da54dc8908e1d348a64736f6c634300060c0033\n}\n",
				"bytecode": {
					"linkReferences": {},
					"object": "608060405234801561001057600080fd5b506117ec806100206000396000f3fe608060405234801561001057600080fd5b50600436106100935760003560e01c80638da5cb5b116100665780638da5cb5b14610184578063c4d66de8146101b8578063c683630d146101fc578063d04323c514610256578063f2fde38b146102c457610093565b80633158079c1461009857806349ba1b49146100fa57806353d6fd591461012a578063715018a61461017a575b600080fd5b6100e4600480360360408110156100ae57600080fd5b81019080803573ffffffffffffffffffffffffffffffffffffffff16906020019092919080359060200190929190505050610308565b6040518082815260200191505060405180910390f35b6101286004803603602081101561011057600080fd5b81019080803515159060200190929190505050610645565b005b6101786004803603604081101561014057600080fd5b81019080803573ffffffffffffffffffffffffffffffffffffffff169060200190929190803515159060200190929190505050610775565b005b6101826108cf565b005b61018c610a3f565b604051808273ffffffffffffffffffffffffffffffffffffffff16815260200191505060405180910390f35b6101fa600480360360208110156101ce57600080fd5b81019080803573ffffffffffffffffffffffffffffffffffffffff169060200190929190505050610a69565b005b61023e6004803603602081101561021257600080fd5b81019080803573ffffffffffffffffffffffffffffffffffffffff169060200190929190505050610bb1565b60405180821515815260200191505060405180910390f35b6102c26004803603606081101561026c57600080fd5b81019080803573ffffffffffffffffffffffffffffffffffffffff16906020019092919080359060200190929190803573ffffffffffffffffffffffffffffffffffffffff169060200190929190505050610c07565b005b610306600480360360208110156102da57600080fd5b81019080803573ffffffffffffffffffffffffffffffffffffffff169060200190929190505050610d41565b005b6000606660009054906101000a900460ff168061036e5750606560003373ffffffffffffffffffffffffffffffffffffffff1673ffffffffffffffffffffffffffffffffffffffff16815260200190815260200160002060009054906101000a900460ff165b6103c3576040517f08c379a000000000000000000000000000000000000000000000000000000000815260040180806020018281038252602981526020018061178e6029913960400191505060405180910390fd5b6000609860009054906101000a900473ffffffffffffffffffffffffffffffffffffffff1673ffffffffffffffffffffffffffffffffffffffff166370a08231306040518263ffffffff1660e01b8152600401808273ffffffffffffffffffffffffffffffffffffffff16815260200191505060206040518083038186803b15801561044e57600080fd5b505afa158015610462573d6000803e3d6000fd5b505050506040513d602081101561047857600080fd5b810190808051906020019092919050505090508083111561056b57609860009054906101000a900473ffffffffffffffffffffffffffffffffffffffff1673ffffffffffffffffffffffffffffffffffffffff1663a9059cbb85836040518363ffffffff1660e01b8152600401808373ffffffffffffffffffffffffffffffffffffffff16815260200182815260200192505050602060405180830381600087803b15801561052657600080fd5b505af115801561053a573d6000803e3d6000fd5b505050506040513d602081101561055057600080fd5b8101908080519060200190929190505050508091505061063f565b609860009054906101000a900473ffffffffffffffffffffffffffffffffffffffff1673ffffffffffffffffffffffffffffffffffffffff1663a9059cbb85856040518363ffffffff1660e01b8152600401808373ffffffffffffffffffffffffffffffffffffffff16815260200182815260200192505050602060405180830381600087803b1580156105fe57600080fd5b505af1158015610612573d6000803e3d6000fd5b505050506040513d602081101561062857600080fd5b810190808051906020019092919050505050829150505b92915050565b61064d610f36565b73ffffffffffffffffffffffffffffffffffffffff1661066b610a3f565b73ffffffffffffffffffffffffffffffffffffffff16146106f4576040517f08c379a00000000000000000000000000000000000000000000000000000000081526004018080602001828103825260208152602001807f4f776e61626c653a2063616c6c6572206973206e6f7420746865206f776e657281525060200191505060405180910390fd5b80606660006101000a81548160ff0219169083151502179055508015610745577f508560e15717a4e9058b9a19d806cb679004a1bd953376f71fda71c141e5dc5360405160405180910390a1610772565b7fa2927d972f7cfc5ff8b7ad79f9adf0bdb885d0e569f40d0037df2e1299616ae060405160405180910390a15b50565b61077d610f36565b73ffffffffffffffffffffffffffffffffffffffff1661079b610a3f565b73ffffffffffffffffffffffffffffffffffffffff1614610824576040517f08c379a00000000000000000000000000000000000000000000000000000000081526004018080602001828103825260208152602001807f4f776e61626c653a2063616c6c6572206973206e6f7420746865206f776e657281525060200191505060405180910390fd5b80606560008473ffffffffffffffffffffffffffffffffffffffff1673ffffffffffffffffffffffffffffffffffffffff16815260200190815260200160002060006101000a81548160ff0219169083151502179055508173ffffffffffffffffffffffffffffffffffffffff167fa54714518c5d275fdcd3d2a461e4858e4e8cb04fb93cd0bca9d6d34115f264408260405180821515815260200191505060405180910390a25050565b6108d7610f36565b73ffffffffffffffffffffffffffffffffffffffff166108f5610a3f565b73ffffffffffffffffffffffffffffffffffffffff161461097e576040517f08c379a00000000000000000000000000000000000000000000000000000000081526004018080602001828103825260208152602001807f4f776e61626c653a2063616c6c6572206973206e6f7420746865206f776e657281525060200191505060405180910390fd5b600073ffffffffffffffffffffffffffffffffffffffff16603360009054906101000a900473ffffffffffffffffffffffffffffffffffffffff1673ffffffffffffffffffffffffffffffffffffffff167f8be0079c531659141344cd1fd0a4f28419497f9722a3daafe3b4186f6b6457e060405160405180910390a36000603360006101000a81548173ffffffffffffffffffffffffffffffffffffffff021916908373ffffffffffffffffffffffffffffffffffffffff160217905550565b6000603360009054906101000a900473ffffffffffffffffffffffffffffffffffffffff16905090565b600060019054906101000a900460ff1680610a885750610a87610f3e565b5b80610a9e575060008054906101000a900460ff16155b610af3576040517f08c379a000000000000000000000000000000000000000000000000000000000815260040180806020018281038252602e815260200180611760602e913960400191505060405180910390fd5b60008060019054906101000a900460ff161590508015610b43576001600060016101000a81548160ff02191690831515021790555060016000806101000a81548160ff0219169083151502179055505b610b4b610f4f565b81609860006101000a81548173ffffffffffffffffffffffffffffffffffffffff021916908373ffffffffffffffffffffffffffffffffffffffff1602179055508015610bad5760008060016101000a81548160ff0219169083151502179055505b5050565b6000606560008373ffffffffffffffffffffffffffffffffffffffff1673ffffffffffffffffffffffffffffffffffffffff16815260200190815260200160002060009054906101000a900460ff169050919050565b610c0f610f36565b73ffffffffffffffffffffffffffffffffffffffff16610c2d610a3f565b73ffffffffffffffffffffffffffffffffffffffff1614610cb6576040517f08c379a00000000000000000000000000000000000000000000000000000000081526004018080602001828103825260208152602001807f4f776e61626c653a2063616c6c6572206973206e6f7420746865206f776e657281525060200191505060405180910390fd5b609860009054906101000a900473ffffffffffffffffffffffffffffffffffffffff1673ffffffffffffffffffffffffffffffffffffffff168373ffffffffffffffffffffffffffffffffffffffff161415610d1157600080fd5b610d3c81838573ffffffffffffffffffffffffffffffffffffffff1661105d9092919063ffffffff16565b505050565b610d49610f36565b73ffffffffffffffffffffffffffffffffffffffff16610d67610a3f565b73ffffffffffffffffffffffffffffffffffffffff1614610df0576040517f08c379a00000000000000000000000000000000000000000000000000000000081526004018080602001828103825260208152602001807f4f776e61626c653a2063616c6c6572206973206e6f7420746865206f776e657281525060200191505060405180910390fd5b600073ffffffffffffffffffffffffffffffffffffffff168173ffffffffffffffffffffffffffffffffffffffff161415610e76576040517f08c379a000000000000000000000000000000000000000000000000000000000815260040180806020018281038252602681526020018061173a6026913960400191505060405180910390fd5b8073ffffffffffffffffffffffffffffffffffffffff16603360009054906101000a900473ffffffffffffffffffffffffffffffffffffffff1673ffffffffffffffffffffffffffffffffffffffff167f8be0079c531659141344cd1fd0a4f28419497f9722a3daafe3b4186f6b6457e060405160405180910390a380603360006101000a81548173ffffffffffffffffffffffffffffffffffffffff021916908373ffffffffffffffffffffffffffffffffffffffff16021790555050565b600033905090565b6000610f49306110ff565b15905090565b600060019054906101000a900460ff1680610f6e5750610f6d610f3e565b5b80610f84575060008054906101000a900460ff16155b610fd9576040517f08c379a000000000000000000000000000000000000000000000000000000000815260040180806020018281038252602e815260200180611760602e913960400191505060405180910390fd5b60008060019054906101000a900460ff161590508015611029576001600060016101000a81548160ff02191690831515021790555060016000806101000a81548160ff0219169083151502179055505b611031611112565b611039611210565b801561105a5760008060016101000a81548160ff0219169083151502179055505b50565b6110fa8363a9059cbb60e01b8484604051602401808373ffffffffffffffffffffffffffffffffffffffff16815260200182815260200192505050604051602081830303815290604052907bffffffffffffffffffffffffffffffffffffffffffffffffffffffff19166020820180517bffffffffffffffffffffffffffffffffffffffffffffffffffffffff83818316178352505050506113b7565b505050565b600080823b905060008111915050919050565b600060019054906101000a900460ff16806111315750611130610f3e565b5b80611147575060008054906101000a900460ff16155b61119c576040517f08c379a000000000000000000000000000000000000000000000000000000000815260040180806020018281038252602e815260200180611760602e913960400191505060405180910390fd5b60008060019054906101000a900460ff1615905080156111ec576001600060016101000a81548160ff02191690831515021790555060016000806101000a81548160ff0219169083151502179055505b801561120d5760008060016101000a81548160ff0219169083151502179055505b50565b600060019054906101000a900460ff168061122f575061122e610f3e565b5b80611245575060008054906101000a900460ff16155b61129a576040517f08c379a000000000000000000000000000000000000000000000000000000000815260040180806020018281038252602e815260200180611760602e913960400191505060405180910390fd5b60008060019054906101000a900460ff1615905080156112ea576001600060016101000a81548160ff02191690831515021790555060016000806101000a81548160ff0219169083151502179055505b60006112f4610f36565b905080603360006101000a81548173ffffffffffffffffffffffffffffffffffffffff021916908373ffffffffffffffffffffffffffffffffffffffff1602179055508073ffffffffffffffffffffffffffffffffffffffff16600073ffffffffffffffffffffffffffffffffffffffff167f8be0079c531659141344cd1fd0a4f28419497f9722a3daafe3b4186f6b6457e060405160405180910390a35080156113b45760008060016101000a81548160ff0219169083151502179055505b50565b6060611419826040518060400160405280602081526020017f5361666542455032303a206c6f772d6c6576656c2063616c6c206661696c65648152508573ffffffffffffffffffffffffffffffffffffffff166114a69092919063ffffffff16565b90506000815111156114a15780806020019051602081101561143a57600080fd5b81019080805190602001909291905050506114a0576040517f08c379a000000000000000000000000000000000000000000000000000000000815260040180806020018281038252602a815260200180611710602a913960400191505060405180910390fd5b5b505050565b60606114b584846000856114be565b90509392505050565b60606114c9856116c4565b61153b576040517f08c379a000000000000000000000000000000000000000000000000000000000815260040180806020018281038252601d8152602001807f416464726573733a2063616c6c20746f206e6f6e2d636f6e747261637400000081525060200191505060405180910390fd5b600060608673ffffffffffffffffffffffffffffffffffffffff1685876040518082805190602001908083835b6020831061158b5780518252602082019150602081019050602083039250611568565b6001836020036101000a03801982511681845116808217855250505050505090500191505060006040518083038185875af1925050503d80600081146115ed576040519150601f19603f3d011682016040523d82523d6000602084013e6115f2565b606091505b509150915081156116075780925050506116bc565b60008151111561161a5780518082602001fd5b836040517f08c379a00000000000000000000000000000000000000000000000000000000081526004018080602001828103825283818151815260200191508051906020019080838360005b83811015611681578082015181840152602081019050611666565b50505050905090810190601f1680156116ae5780820380516001836020036101000a031916815260200191505b509250505060405180910390fd5b949350505050565b60008060007fc5d2460186f7233c927e7db2dcc703c0e500b653ca82273b7bfad8045d85a47060001b9050833f915080821415801561170657506000801b8214155b9250505091905056fe5361666542455032303a204245503230206f7065726174696f6e20646964206e6f7420737563636565644f776e61626c653a206e6577206f776e657220697320746865207a65726f2061646472657373496e697469616c697a61626c653a20636f6e747261637420697320616c726561647920696e697469616c697a656457686974656c6973743a2063616c6c6572206973206e6f74206f6e207468652077686974656c697374a26469706673582212202a4c6e00a369c3b5bea584f4238bbd2fcd29946e2dac9f1da54dc8908e1d348a64736f6c634300060c0033",
					"opcodes": "PUSH1 0x80 PUSH1 0x40 MSTORE CALLVALUE DUP1 ISZERO PUSH2 0x10 JUMPI PUSH1 0x0 DUP1 REVERT JUMPDEST POP PUSH2 0x17EC DUP1 PUSH2 0x20 PUSH1 0x0 CODECOPY PUSH1 0x0 RETURN INVALID PUSH1 0x80 PUSH1 0x40 MSTORE CALLVALUE DUP1 ISZERO PUSH2 0x10 JUMPI PUSH1 0x0 DUP1 REVERT JUMPDEST POP PUSH1 0x4 CALLDATASIZE LT PUSH2 0x93 JUMPI PUSH1 0x0 CALLDATALOAD PUSH1 0xE0 SHR DUP1 PUSH4 0x8DA5CB5B GT PUSH2 0x66 JUMPI DUP1 PUSH4 0x8DA5CB5B EQ PUSH2 0x184 JUMPI DUP1 PUSH4 0xC4D66DE8 EQ PUSH2 0x1B8 JUMPI DUP1 PUSH4 0xC683630D EQ PUSH2 0x1FC JUMPI DUP1 PUSH4 0xD04323C5 EQ PUSH2 0x256 JUMPI DUP1 PUSH4 0xF2FDE38B EQ PUSH2 0x2C4 JUMPI PUSH2 0x93 JUMP JUMPDEST DUP1 PUSH4 0x3158079C EQ PUSH2 0x98 JUMPI DUP1 PUSH4 0x49BA1B49 EQ PUSH2 0xFA JUMPI DUP1 PUSH4 0x53D6FD59 EQ PUSH2 0x12A JUMPI DUP1 PUSH4 0x715018A6 EQ PUSH2 0x17A JUMPI JUMPDEST PUSH1 0x0 DUP1 REVERT JUMPDEST PUSH2 0xE4 PUSH1 0x4 DUP1 CALLDATASIZE SUB PUSH1 0x40 DUP2 LT ISZERO PUSH2 0xAE JUMPI PUSH1 0x0 DUP1 REVERT JUMPDEST DUP2 ADD SWAP1 DUP1 DUP1 CALLDATALOAD PUSH20 0xFFFFFFFFFFFFFFFFFFFFFFFFFFFFFFFFFFFFFFFF AND SWAP1 PUSH1 0x20 ADD SWAP1 SWAP3 SWAP2 SWAP1 DUP1 CALLDATALOAD SWAP1 PUSH1 0x20 ADD SWAP1 SWAP3 SWAP2 SWAP1 POP POP POP PUSH2 0x308 JUMP JUMPDEST PUSH1 0x40 MLOAD DUP1 DUP3 DUP2 MSTORE PUSH1 0x20 ADD SWAP2 POP POP PUSH1 0x40 MLOAD DUP1 SWAP2 SUB SWAP1 RETURN JUMPDEST PUSH2 0x128 PUSH1 0x4 DUP1 CALLDATASIZE SUB PUSH1 0x20 DUP2 LT ISZERO PUSH2 0x110 JUMPI PUSH1 0x0 DUP1 REVERT JUMPDEST DUP2 ADD SWAP1 DUP1 DUP1 CALLDATALOAD ISZERO ISZERO SWAP1 PUSH1 0x20 ADD SWAP1 SWAP3 SWAP2 SWAP1 POP POP POP PUSH2 0x645 JUMP JUMPDEST STOP JUMPDEST PUSH2 0x178 PUSH1 0x4 DUP1 CALLDATASIZE SUB PUSH1 0x40 DUP2 LT ISZERO PUSH2 0x140 JUMPI PUSH1 0x0 DUP1 REVERT JUMPDEST DUP2 ADD SWAP1 DUP1 DUP1 CALLDATALOAD PUSH20 0xFFFFFFFFFFFFFFFFFFFFFFFFFFFFFFFFFFFFFFFF AND SWAP1 PUSH1 0x20 ADD SWAP1 SWAP3 SWAP2 SWAP1 DUP1 CALLDATALOAD ISZERO ISZERO SWAP1 PUSH1 0x20 ADD SWAP1 SWAP3 SWAP2 SWAP1 POP POP POP PUSH2 0x775 JUMP JUMPDEST STOP JUMPDEST PUSH2 0x182 PUSH2 0x8CF JUMP JUMPDEST STOP JUMPDEST PUSH2 0x18C PUSH2 0xA3F JUMP JUMPDEST PUSH1 0x40 MLOAD DUP1 DUP3 PUSH20 0xFFFFFFFFFFFFFFFFFFFFFFFFFFFFFFFFFFFFFFFF AND DUP2 MSTORE PUSH1 0x20 ADD SWAP2 POP POP PUSH1 0x40 MLOAD DUP1 SWAP2 SUB SWAP1 RETURN JUMPDEST PUSH2 0x1FA PUSH1 0x4 DUP1 CALLDATASIZE SUB PUSH1 0x20 DUP2 LT ISZERO PUSH2 0x1CE JUMPI PUSH1 0x0 DUP1 REVERT JUMPDEST DUP2 ADD SWAP1 DUP1 DUP1 CALLDATALOAD PUSH20 0xFFFFFFFFFFFFFFFFFFFFFFFFFFFFFFFFFFFFFFFF AND SWAP1 PUSH1 0x20 ADD SWAP1 SWAP3 SWAP2 SWAP1 POP POP POP PUSH2 0xA69 JUMP JUMPDEST STOP JUMPDEST PUSH2 0x23E PUSH1 0x4 DUP1 CALLDATASIZE SUB PUSH1 0x20 DUP2 LT ISZERO PUSH2 0x212 JUMPI PUSH1 0x0 DUP1 REVERT JUMPDEST DUP2 ADD SWAP1 DUP1 DUP1 CALLDATALOAD PUSH20 0xFFFFFFFFFFFFFFFFFFFFFFFFFFFFFFFFFFFFFFFF AND SWAP1 PUSH1 0x20 ADD SWAP1 SWAP3 SWAP2 SWAP1 POP POP POP PUSH2 0xBB1 JUMP JUMPDEST PUSH1 0x40 MLOAD DUP1 DUP3 ISZERO ISZERO DUP2 MSTORE PUSH1 0x20 ADD SWAP2 POP POP PUSH1 0x40 MLOAD DUP1 SWAP2 SUB SWAP1 RETURN JUMPDEST PUSH2 0x2C2 PUSH1 0x4 DUP1 CALLDATASIZE SUB PUSH1 0x60 DUP2 LT ISZERO PUSH2 0x26C JUMPI PUSH1 0x0 DUP1 REVERT JUMPDEST DUP2 ADD SWAP1 DUP1 DUP1 CALLDATALOAD PUSH20 0xFFFFFFFFFFFFFFFFFFFFFFFFFFFFFFFFFFFFFFFF AND SWAP1 PUSH1 0x20 ADD SWAP1 SWAP3 SWAP2 SWAP1 DUP1 CALLDATALOAD SWAP1 PUSH1 0x20 ADD SWAP1 SWAP3 SWAP2 SWAP1 DUP1 CALLDATALOAD PUSH20 0xFFFFFFFFFFFFFFFFFFFFFFFFFFFFFFFFFFFFFFFF AND SWAP1 PUSH1 0x20 ADD SWAP1 SWAP3 SWAP2 SWAP1 POP POP POP PUSH2 0xC07 JUMP JUMPDEST STOP JUMPDEST PUSH2 0x306 PUSH1 0x4 DUP1 CALLDATASIZE SUB PUSH1 0x20 DUP2 LT ISZERO PUSH2 0x2DA JUMPI PUSH1 0x0 DUP1 REVERT JUMPDEST DUP2 ADD SWAP1 DUP1 DUP1 CALLDATALOAD PUSH20 0xFFFFFFFFFFFFFFFFFFFFFFFFFFFFFFFFFFFFFFFF AND SWAP1 PUSH1 0x20 ADD SWAP1 SWAP3 SWAP2 SWAP1 POP POP POP PUSH2 0xD41 JUMP JUMPDEST STOP JUMPDEST PUSH1 0x0 PUSH1 0x66 PUSH1 0x0 SWAP1 SLOAD SWAP1 PUSH2 0x100 EXP SWAP1 DIV PUSH1 0xFF AND DUP1 PUSH2 0x36E JUMPI POP PUSH1 0x65 PUSH1 0x0 CALLER PUSH20 0xFFFFFFFFFFFFFFFFFFFFFFFFFFFFFFFFFFFFFFFF AND PUSH20 0xFFFFFFFFFFFFFFFFFFFFFFFFFFFFFFFFFFFFFFFF AND DUP2 MSTORE PUSH1 0x20 ADD SWAP1 DUP2 MSTORE PUSH1 0x20 ADD PUSH1 0x0 KECCAK256 PUSH1 0x0 SWAP1 SLOAD SWAP1 PUSH2 0x100 EXP SWAP1 DIV PUSH1 0xFF AND JUMPDEST PUSH2 0x3C3 JUMPI PUSH1 0x40 MLOAD PUSH32 0x8C379A000000000000000000000000000000000000000000000000000000000 DUP2 MSTORE PUSH1 0x4 ADD DUP1 DUP1 PUSH1 0x20 ADD DUP3 DUP2 SUB DUP3 MSTORE PUSH1 0x29 DUP2 MSTORE PUSH1 0x20 ADD DUP1 PUSH2 0x178E PUSH1 0x29 SWAP2 CODECOPY PUSH1 0x40 ADD SWAP2 POP POP PUSH1 0x40 MLOAD DUP1 SWAP2 SUB SWAP1 REVERT JUMPDEST PUSH1 0x0 PUSH1 0x98 PUSH1 0x0 SWAP1 SLOAD SWAP1 PUSH2 0x100 EXP SWAP1 DIV PUSH20 0xFFFFFFFFFFFFFFFFFFFFFFFFFFFFFFFFFFFFFFFF AND PUSH20 0xFFFFFFFFFFFFFFFFFFFFFFFFFFFFFFFFFFFFFFFF AND PUSH4 0x70A08231 ADDRESS PUSH1 0x40 MLOAD DUP3 PUSH4 0xFFFFFFFF AND PUSH1 0xE0 SHL DUP2 MSTORE PUSH1 0x4 ADD DUP1 DUP3 PUSH20 0xFFFFFFFFFFFFFFFFFFFFFFFFFFFFFFFFFFFFFFFF AND DUP2 MSTORE PUSH1 0x20 ADD SWAP2 POP POP PUSH1 0x20 PUSH1 0x40 MLOAD DUP1 DUP4 SUB DUP2 DUP7 DUP1 EXTCODESIZE ISZERO DUP1 ISZERO PUSH2 0x44E JUMPI PUSH1 0x0 DUP1 REVERT JUMPDEST POP GAS STATICCALL ISZERO DUP1 ISZERO PUSH2 0x462 JUMPI RETURNDATASIZE PUSH1 0x0 DUP1 RETURNDATACOPY RETURNDATASIZE PUSH1 0x0 REVERT JUMPDEST POP POP POP POP PUSH1 0x40 MLOAD RETURNDATASIZE PUSH1 0x20 DUP2 LT ISZERO PUSH2 0x478 JUMPI PUSH1 0x0 DUP1 REVERT JUMPDEST DUP2 ADD SWAP1 DUP1 DUP1 MLOAD SWAP1 PUSH1 0x20 ADD SWAP1 SWAP3 SWAP2 SWAP1 POP POP POP SWAP1 POP DUP1 DUP4 GT ISZERO PUSH2 0x56B JUMPI PUSH1 0x98 PUSH1 0x0 SWAP1 SLOAD SWAP1 PUSH2 0x100 EXP SWAP1 DIV PUSH20 0xFFFFFFFFFFFFFFFFFFFFFFFFFFFFFFFFFFFFFFFF AND PUSH20 0xFFFFFFFFFFFFFFFFFFFFFFFFFFFFFFFFFFFFFFFF AND PUSH4 0xA9059CBB DUP6 DUP4 PUSH1 0x40 MLOAD DUP4 PUSH4 0xFFFFFFFF AND PUSH1 0xE0 SHL DUP2 MSTORE PUSH1 0x4 ADD DUP1 DUP4 PUSH20 0xFFFFFFFFFFFFFFFFFFFFFFFFFFFFFFFFFFFFFFFF AND DUP2 MSTORE PUSH1 0x20 ADD DUP3 DUP2 MSTORE PUSH1 0x20 ADD SWAP3 POP POP POP PUSH1 0x20 PUSH1 0x40 MLOAD DUP1 DUP4 SUB DUP2 PUSH1 0x0 DUP8 DUP1 EXTCODESIZE ISZERO DUP1 ISZERO PUSH2 0x526 JUMPI PUSH1 0x0 DUP1 REVERT JUMPDEST POP GAS CALL ISZERO DUP1 ISZERO PUSH2 0x53A JUMPI RETURNDATASIZE PUSH1 0x0 DUP1 RETURNDATACOPY RETURNDATASIZE PUSH1 0x0 REVERT JUMPDEST POP POP POP POP PUSH1 0x40 MLOAD RETURNDATASIZE PUSH1 0x20 DUP2 LT ISZERO PUSH2 0x550 JUMPI PUSH1 0x0 DUP1 REVERT JUMPDEST DUP2 ADD SWAP1 DUP1 DUP1 MLOAD SWAP1 PUSH1 0x20 ADD SWAP1 SWAP3 SWAP2 SWAP1 POP POP POP POP DUP1 SWAP2 POP POP PUSH2 0x63F JUMP JUMPDEST PUSH1 0x98 PUSH1 0x0 SWAP1 SLOAD SWAP1 PUSH2 0x100 EXP SWAP1 DIV PUSH20 0xFFFFFFFFFFFFFFFFFFFFFFFFFFFFFFFFFFFFFFFF AND PUSH20 0xFFFFFFFFFFFFFFFFFFFFFFFFFFFFFFFFFFFFFFFF AND PUSH4 0xA9059CBB DUP6 DUP6 PUSH1 0x40 MLOAD DUP4 PUSH4 0xFFFFFFFF AND PUSH1 0xE0 SHL DUP2 MSTORE PUSH1 0x4 ADD DUP1 DUP4 PUSH20 0xFFFFFFFFFFFFFFFFFFFFFFFFFFFFFFFFFFFFFFFF AND DUP2 MSTORE PUSH1 0x20 ADD DUP3 DUP2 MSTORE PUSH1 0x20 ADD SWAP3 POP POP POP PUSH1 0x20 PUSH1 0x40 MLOAD DUP1 DUP4 SUB DUP2 PUSH1 0x0 DUP8 DUP1 EXTCODESIZE ISZERO DUP1 ISZERO PUSH2 0x5FE JUMPI PUSH1 0x0 DUP1 REVERT JUMPDEST POP GAS CALL ISZERO DUP1 ISZERO PUSH2 0x612 JUMPI RETURNDATASIZE PUSH1 0x0 DUP1 RETURNDATACOPY RETURNDATASIZE PUSH1 0x0 REVERT JUMPDEST POP POP POP POP PUSH1 0x40 MLOAD RETURNDATASIZE PUSH1 0x20 DUP2 LT ISZERO PUSH2 0x628 JUMPI PUSH1 0x0 DUP1 REVERT JUMPDEST DUP2 ADD SWAP1 DUP1 DUP1 MLOAD SWAP1 PUSH1 0x20 ADD SWAP1 SWAP3 SWAP2 SWAP1 POP POP POP POP DUP3 SWAP2 POP POP JUMPDEST SWAP3 SWAP2 POP POP JUMP JUMPDEST PUSH2 0x64D PUSH2 0xF36 JUMP JUMPDEST PUSH20 0xFFFFFFFFFFFFFFFFFFFFFFFFFFFFFFFFFFFFFFFF AND PUSH2 0x66B PUSH2 0xA3F JUMP JUMPDEST PUSH20 0xFFFFFFFFFFFFFFFFFFFFFFFFFFFFFFFFFFFFFFFF AND EQ PUSH2 0x6F4 JUMPI PUSH1 0x40 MLOAD PUSH32 0x8C379A000000000000000000000000000000000000000000000000000000000 DUP2 MSTORE PUSH1 0x4 ADD DUP1 DUP1 PUSH1 0x20 ADD DUP3 DUP2 SUB DUP3 MSTORE PUSH1 0x20 DUP2 MSTORE PUSH1 0x20 ADD DUP1 PUSH32 0x4F776E61626C653A2063616C6C6572206973206E6F7420746865206F776E6572 DUP2 MSTORE POP PUSH1 0x20 ADD SWAP2 POP POP PUSH1 0x40 MLOAD DUP1 SWAP2 SUB SWAP1 REVERT JUMPDEST DUP1 PUSH1 0x66 PUSH1 0x0 PUSH2 0x100 EXP DUP2 SLOAD DUP2 PUSH1 0xFF MUL NOT AND SWAP1 DUP4 ISZERO ISZERO MUL OR SWAP1 SSTORE POP DUP1 ISZERO PUSH2 0x745 JUMPI PUSH32 0x508560E15717A4E9058B9A19D806CB679004A1BD953376F71FDA71C141E5DC53 PUSH1 0x40 MLOAD PUSH1 0x40 MLOAD DUP1 SWAP2 SUB SWAP1 LOG1 PUSH2 0x772 JUMP JUMPDEST PUSH32 0xA2927D972F7CFC5FF8B7AD79F9ADF0BDB885D0E569F40D0037DF2E1299616AE0 PUSH1 0x40 MLOAD PUSH1 0x40 MLOAD DUP1 SWAP2 SUB SWAP1 LOG1 JUMPDEST POP JUMP JUMPDEST PUSH2 0x77D PUSH2 0xF36 JUMP JUMPDEST PUSH20 0xFFFFFFFFFFFFFFFFFFFFFFFFFFFFFFFFFFFFFFFF AND PUSH2 0x79B PUSH2 0xA3F JUMP JUMPDEST PUSH20 0xFFFFFFFFFFFFFFFFFFFFFFFFFFFFFFFFFFFFFFFF AND EQ PUSH2 0x824 JUMPI PUSH1 0x40 MLOAD PUSH32 0x8C379A000000000000000000000000000000000000000000000000000000000 DUP2 MSTORE PUSH1 0x4 ADD DUP1 DUP1 PUSH1 0x20 ADD DUP3 DUP2 SUB DUP3 MSTORE PUSH1 0x20 DUP2 MSTORE PUSH1 0x20 ADD DUP1 PUSH32 0x4F776E61626C653A2063616C6C6572206973206E6F7420746865206F776E6572 DUP2 MSTORE POP PUSH1 0x20 ADD SWAP2 POP POP PUSH1 0x40 MLOAD DUP1 SWAP2 SUB SWAP1 REVERT JUMPDEST DUP1 PUSH1 0x65 PUSH1 0x0 DUP5 PUSH20 0xFFFFFFFFFFFFFFFFFFFFFFFFFFFFFFFFFFFFFFFF AND PUSH20 0xFFFFFFFFFFFFFFFFFFFFFFFFFFFFFFFFFFFFFFFF AND DUP2 MSTORE PUSH1 0x20 ADD SWAP1 DUP2 MSTORE PUSH1 0x20 ADD PUSH1 0x0 KECCAK256 PUSH1 0x0 PUSH2 0x100 EXP DUP2 SLOAD DUP2 PUSH1 0xFF MUL NOT AND SWAP1 DUP4 ISZERO ISZERO MUL OR SWAP1 SSTORE POP DUP2 PUSH20 0xFFFFFFFFFFFFFFFFFFFFFFFFFFFFFFFFFFFFFFFF AND PUSH32 0xA54714518C5D275FDCD3D2A461E4858E4E8CB04FB93CD0BCA9D6D34115F26440 DUP3 PUSH1 0x40 MLOAD DUP1 DUP3 ISZERO ISZERO DUP2 MSTORE PUSH1 0x20 ADD SWAP2 POP POP PUSH1 0x40 MLOAD DUP1 SWAP2 SUB SWAP1 LOG2 POP POP JUMP JUMPDEST PUSH2 0x8D7 PUSH2 0xF36 JUMP JUMPDEST PUSH20 0xFFFFFFFFFFFFFFFFFFFFFFFFFFFFFFFFFFFFFFFF AND PUSH2 0x8F5 PUSH2 0xA3F JUMP JUMPDEST PUSH20 0xFFFFFFFFFFFFFFFFFFFFFFFFFFFFFFFFFFFFFFFF AND EQ PUSH2 0x97E JUMPI PUSH1 0x40 MLOAD PUSH32 0x8C379A000000000000000000000000000000000000000000000000000000000 DUP2 MSTORE PUSH1 0x4 ADD DUP1 DUP1 PUSH1 0x20 ADD DUP3 DUP2 SUB DUP3 MSTORE PUSH1 0x20 DUP2 MSTORE PUSH1 0x20 ADD DUP1 PUSH32 0x4F776E61626C653A2063616C6C6572206973206E6F7420746865206F776E6572 DUP2 MSTORE POP PUSH1 0x20 ADD SWAP2 POP POP PUSH1 0x40 MLOAD DUP1 SWAP2 SUB SWAP1 REVERT JUMPDEST PUSH1 0x0 PUSH20 0xFFFFFFFFFFFFFFFFFFFFFFFFFFFFFFFFFFFFFFFF AND PUSH1 0x33 PUSH1 0x0 SWAP1 SLOAD SWAP1 PUSH2 0x100 EXP SWAP1 DIV PUSH20 0xFFFFFFFFFFFFFFFFFFFFFFFFFFFFFFFFFFFFFFFF AND PUSH20 0xFFFFFFFFFFFFFFFFFFFFFFFFFFFFFFFFFFFFFFFF AND PUSH32 0x8BE0079C531659141344CD1FD0A4F28419497F9722A3DAAFE3B4186F6B6457E0 PUSH1 0x40 MLOAD PUSH1 0x40 MLOAD DUP1 SWAP2 SUB SWAP1 LOG3 PUSH1 0x0 PUSH1 0x33 PUSH1 0x0 PUSH2 0x100 EXP DUP2 SLOAD DUP2 PUSH20 0xFFFFFFFFFFFFFFFFFFFFFFFFFFFFFFFFFFFFFFFF MUL NOT AND SWAP1 DUP4 PUSH20 0xFFFFFFFFFFFFFFFFFFFFFFFFFFFFFFFFFFFFFFFF AND MUL OR SWAP1 SSTORE POP JUMP JUMPDEST PUSH1 0x0 PUSH1 0x33 PUSH1 0x0 SWAP1 SLOAD SWAP1 PUSH2 0x100 EXP SWAP1 DIV PUSH20 0xFFFFFFFFFFFFFFFFFFFFFFFFFFFFFFFFFFFFFFFF AND SWAP1 POP SWAP1 JUMP JUMPDEST PUSH1 0x0 PUSH1 0x1 SWAP1 SLOAD SWAP1 PUSH2 0x100 EXP SWAP1 DIV PUSH1 0xFF AND DUP1 PUSH2 0xA88 JUMPI POP PUSH2 0xA87 PUSH2 0xF3E JUMP JUMPDEST JUMPDEST DUP1 PUSH2 0xA9E JUMPI POP PUSH1 0x0 DUP1 SLOAD SWAP1 PUSH2 0x100 EXP SWAP1 DIV PUSH1 0xFF AND ISZERO JUMPDEST PUSH2 0xAF3 JUMPI PUSH1 0x40 MLOAD PUSH32 0x8C379A000000000000000000000000000000000000000000000000000000000 DUP2 MSTORE PUSH1 0x4 ADD DUP1 DUP1 PUSH1 0x20 ADD DUP3 DUP2 SUB DUP3 MSTORE PUSH1 0x2E DUP2 MSTORE PUSH1 0x20 ADD DUP1 PUSH2 0x1760 PUSH1 0x2E SWAP2 CODECOPY PUSH1 0x40 ADD SWAP2 POP POP PUSH1 0x40 MLOAD DUP1 SWAP2 SUB SWAP1 REVERT JUMPDEST PUSH1 0x0 DUP1 PUSH1 0x1 SWAP1 SLOAD SWAP1 PUSH2 0x100 EXP SWAP1 DIV PUSH1 0xFF AND ISZERO SWAP1 POP DUP1 ISZERO PUSH2 0xB43 JUMPI PUSH1 0x1 PUSH1 0x0 PUSH1 0x1 PUSH2 0x100 EXP DUP2 SLOAD DUP2 PUSH1 0xFF MUL NOT AND SWAP1 DUP4 ISZERO ISZERO MUL OR SWAP1 SSTORE POP PUSH1 0x1 PUSH1 0x0 DUP1 PUSH2 0x100 EXP DUP2 SLOAD DUP2 PUSH1 0xFF MUL NOT AND SWAP1 DUP4 ISZERO ISZERO MUL OR SWAP1 SSTORE POP JUMPDEST PUSH2 0xB4B PUSH2 0xF4F JUMP JUMPDEST DUP2 PUSH1 0x98 PUSH1 0x0 PUSH2 0x100 EXP DUP2 SLOAD DUP2 PUSH20 0xFFFFFFFFFFFFFFFFFFFFFFFFFFFFFFFFFFFFFFFF MUL NOT AND SWAP1 DUP4 PUSH20 0xFFFFFFFFFFFFFFFFFFFFFFFFFFFFFFFFFFFFFFFF AND MUL OR SWAP1 SSTORE POP DUP1 ISZERO PUSH2 0xBAD JUMPI PUSH1 0x0 DUP1 PUSH1 0x1 PUSH2 0x100 EXP DUP2 SLOAD DUP2 PUSH1 0xFF MUL NOT AND SWAP1 DUP4 ISZERO ISZERO MUL OR SWAP1 SSTORE POP JUMPDEST POP POP JUMP JUMPDEST PUSH1 0x0 PUSH1 0x65 PUSH1 0x0 DUP4 PUSH20 0xFFFFFFFFFFFFFFFFFFFFFFFFFFFFFFFFFFFFFFFF AND PUSH20 0xFFFFFFFFFFFFFFFFFFFFFFFFFFFFFFFFFFFFFFFF AND DUP2 MSTORE PUSH1 0x20 ADD SWAP1 DUP2 MSTORE PUSH1 0x20 ADD PUSH1 0x0 KECCAK256 PUSH1 0x0 SWAP1 SLOAD SWAP1 PUSH2 0x100 EXP SWAP1 DIV PUSH1 0xFF AND SWAP1 POP SWAP2 SWAP1 POP JUMP JUMPDEST PUSH2 0xC0F PUSH2 0xF36 JUMP JUMPDEST PUSH20 0xFFFFFFFFFFFFFFFFFFFFFFFFFFFFFFFFFFFFFFFF AND PUSH2 0xC2D PUSH2 0xA3F JUMP JUMPDEST PUSH20 0xFFFFFFFFFFFFFFFFFFFFFFFFFFFFFFFFFFFFFFFF AND EQ PUSH2 0xCB6 JUMPI PUSH1 0x40 MLOAD PUSH32 0x8C379A000000000000000000000000000000000000000000000000000000000 DUP2 MSTORE PUSH1 0x4 ADD DUP1 DUP1 PUSH1 0x20 ADD DUP3 DUP2 SUB DUP3 MSTORE PUSH1 0x20 DUP2 MSTORE PUSH1 0x20 ADD DUP1 PUSH32 0x4F776E61626C653A2063616C6C6572206973206E6F7420746865206F776E6572 DUP2 MSTORE POP PUSH1 0x20 ADD SWAP2 POP POP PUSH1 0x40 MLOAD DUP1 SWAP2 SUB SWAP1 REVERT JUMPDEST PUSH1 0x98 PUSH1 0x0 SWAP1 SLOAD SWAP1 PUSH2 0x100 EXP SWAP1 DIV PUSH20 0xFFFFFFFFFFFFFFFFFFFFFFFFFFFFFFFFFFFFFFFF AND PUSH20 0xFFFFFFFFFFFFFFFFFFFFFFFFFFFFFFFFFFFFFFFF AND DUP4 PUSH20 0xFFFFFFFFFFFFFFFFFFFFFFFFFFFFFFFFFFFFFFFF AND EQ ISZERO PUSH2 0xD11 JUMPI PUSH1 0x0 DUP1 REVERT JUMPDEST PUSH2 0xD3C DUP2 DUP4 DUP6 PUSH20 0xFFFFFFFFFFFFFFFFFFFFFFFFFFFFFFFFFFFFFFFF AND PUSH2 0x105D SWAP1 SWAP3 SWAP2 SWAP1 PUSH4 0xFFFFFFFF AND JUMP JUMPDEST POP POP POP JUMP JUMPDEST PUSH2 0xD49 PUSH2 0xF36 JUMP JUMPDEST PUSH20 0xFFFFFFFFFFFFFFFFFFFFFFFFFFFFFFFFFFFFFFFF AND PUSH2 0xD67 PUSH2 0xA3F JUMP JUMPDEST PUSH20 0xFFFFFFFFFFFFFFFFFFFFFFFFFFFFFFFFFFFFFFFF AND EQ PUSH2 0xDF0 JUMPI PUSH1 0x40 MLOAD PUSH32 0x8C379A000000000000000000000000000000000000000000000000000000000 DUP2 MSTORE PUSH1 0x4 ADD DUP1 DUP1 PUSH1 0x20 ADD DUP3 DUP2 SUB DUP3 MSTORE PUSH1 0x20 DUP2 MSTORE PUSH1 0x20 ADD DUP1 PUSH32 0x4F776E61626C653A2063616C6C6572206973206E6F7420746865206F776E6572 DUP2 MSTORE POP PUSH1 0x20 ADD SWAP2 POP POP PUSH1 0x40 MLOAD DUP1 SWAP2 SUB SWAP1 REVERT JUMPDEST PUSH1 0x0 PUSH20 0xFFFFFFFFFFFFFFFFFFFFFFFFFFFFFFFFFFFFFFFF AND DUP2 PUSH20 0xFFFFFFFFFFFFFFFFFFFFFFFFFFFFFFFFFFFFFFFF AND EQ ISZERO PUSH2 0xE76 JUMPI PUSH1 0x40 MLOAD PUSH32 0x8C379A000000000000000000000000000000000000000000000000000000000 DUP2 MSTORE PUSH1 0x4 ADD DUP1 DUP1 PUSH1 0x20 ADD DUP3 DUP2 SUB DUP3 MSTORE PUSH1 0x26 DUP2 MSTORE PUSH1 0x20 ADD DUP1 PUSH2 0x173A PUSH1 0x26 SWAP2 CODECOPY PUSH1 0x40 ADD SWAP2 POP POP PUSH1 0x40 MLOAD DUP1 SWAP2 SUB SWAP1 REVERT JUMPDEST DUP1 PUSH20 0xFFFFFFFFFFFFFFFFFFFFFFFFFFFFFFFFFFFFFFFF AND PUSH1 0x33 PUSH1 0x0 SWAP1 SLOAD SWAP1 PUSH2 0x100 EXP SWAP1 DIV PUSH20 0xFFFFFFFFFFFFFFFFFFFFFFFFFFFFFFFFFFFFFFFF AND PUSH20 0xFFFFFFFFFFFFFFFFFFFFFFFFFFFFFFFFFFFFFFFF AND PUSH32 0x8BE0079C531659141344CD1FD0A4F28419497F9722A3DAAFE3B4186F6B6457E0 PUSH1 0x40 MLOAD PUSH1 0x40 MLOAD DUP1 SWAP2 SUB SWAP1 LOG3 DUP1 PUSH1 0x33 PUSH1 0x0 PUSH2 0x100 EXP DUP2 SLOAD DUP2 PUSH20 0xFFFFFFFFFFFFFFFFFFFFFFFFFFFFFFFFFFFFFFFF MUL NOT AND SWAP1 DUP4 PUSH20 0xFFFFFFFFFFFFFFFFFFFFFFFFFFFFFFFFFFFFFFFF AND MUL OR SWAP1 SSTORE POP POP JUMP JUMPDEST PUSH1 0x0 CALLER SWAP1 POP SWAP1 JUMP JUMPDEST PUSH1 0x0 PUSH2 0xF49 ADDRESS PUSH2 0x10FF JUMP JUMPDEST ISZERO SWAP1 POP SWAP1 JUMP JUMPDEST PUSH1 0x0 PUSH1 0x1 SWAP1 SLOAD SWAP1 PUSH2 0x100 EXP SWAP1 DIV PUSH1 0xFF AND DUP1 PUSH2 0xF6E JUMPI POP PUSH2 0xF6D PUSH2 0xF3E JUMP JUMPDEST JUMPDEST DUP1 PUSH2 0xF84 JUMPI POP PUSH1 0x0 DUP1 SLOAD SWAP1 PUSH2 0x100 EXP SWAP1 DIV PUSH1 0xFF AND ISZERO JUMPDEST PUSH2 0xFD9 JUMPI PUSH1 0x40 MLOAD PUSH32 0x8C379A000000000000000000000000000000000000000000000000000000000 DUP2 MSTORE PUSH1 0x4 ADD DUP1 DUP1 PUSH1 0x20 ADD DUP3 DUP2 SUB DUP3 MSTORE PUSH1 0x2E DUP2 MSTORE PUSH1 0x20 ADD DUP1 PUSH2 0x1760 PUSH1 0x2E SWAP2 CODECOPY PUSH1 0x40 ADD SWAP2 POP POP PUSH1 0x40 MLOAD DUP1 SWAP2 SUB SWAP1 REVERT JUMPDEST PUSH1 0x0 DUP1 PUSH1 0x1 SWAP1 SLOAD SWAP1 PUSH2 0x100 EXP SWAP1 DIV PUSH1 0xFF AND ISZERO SWAP1 POP DUP1 ISZERO PUSH2 0x1029 JUMPI PUSH1 0x1 PUSH1 0x0 PUSH1 0x1 PUSH2 0x100 EXP DUP2 SLOAD DUP2 PUSH1 0xFF MUL NOT AND SWAP1 DUP4 ISZERO ISZERO MUL OR SWAP1 SSTORE POP PUSH1 0x1 PUSH1 0x0 DUP1 PUSH2 0x100 EXP DUP2 SLOAD DUP2 PUSH1 0xFF MUL NOT AND SWAP1 DUP4 ISZERO ISZERO MUL OR SWAP1 SSTORE POP JUMPDEST PUSH2 0x1031 PUSH2 0x1112 JUMP JUMPDEST PUSH2 0x1039 PUSH2 0x1210 JUMP JUMPDEST DUP1 ISZERO PUSH2 0x105A JUMPI PUSH1 0x0 DUP1 PUSH1 0x1 PUSH2 0x100 EXP DUP2 SLOAD DUP2 PUSH1 0xFF MUL NOT AND SWAP1 DUP4 ISZERO ISZERO MUL OR SWAP1 SSTORE POP JUMPDEST POP JUMP JUMPDEST PUSH2 0x10FA DUP4 PUSH4 0xA9059CBB PUSH1 0xE0 SHL DUP5 DUP5 PUSH1 0x40 MLOAD PUSH1 0x24 ADD DUP1 DUP4 PUSH20 0xFFFFFFFFFFFFFFFFFFFFFFFFFFFFFFFFFFFFFFFF AND DUP2 MSTORE PUSH1 0x20 ADD DUP3 DUP2 MSTORE PUSH1 0x20 ADD SWAP3 POP POP POP PUSH1 0x40 MLOAD PUSH1 0x20 DUP2 DUP4 SUB SUB DUP2 MSTORE SWAP1 PUSH1 0x40 MSTORE SWAP1 PUSH28 0xFFFFFFFFFFFFFFFFFFFFFFFFFFFFFFFFFFFFFFFFFFFFFFFFFFFFFFFF NOT AND PUSH1 0x20 DUP3 ADD DUP1 MLOAD PUSH28 0xFFFFFFFFFFFFFFFFFFFFFFFFFFFFFFFFFFFFFFFFFFFFFFFFFFFFFFFF DUP4 DUP2 DUP4 AND OR DUP4 MSTORE POP POP POP POP PUSH2 0x13B7 JUMP JUMPDEST POP POP POP JUMP JUMPDEST PUSH1 0x0 DUP1 DUP3 EXTCODESIZE SWAP1 POP PUSH1 0x0 DUP2 GT SWAP2 POP POP SWAP2 SWAP1 POP JUMP JUMPDEST PUSH1 0x0 PUSH1 0x1 SWAP1 SLOAD SWAP1 PUSH2 0x100 EXP SWAP1 DIV PUSH1 0xFF AND DUP1 PUSH2 0x1131 JUMPI POP PUSH2 0x1130 PUSH2 0xF3E JUMP JUMPDEST JUMPDEST DUP1 PUSH2 0x1147 JUMPI POP PUSH1 0x0 DUP1 SLOAD SWAP1 PUSH2 0x100 EXP SWAP1 DIV PUSH1 0xFF AND ISZERO JUMPDEST PUSH2 0x119C JUMPI PUSH1 0x40 MLOAD PUSH32 0x8C379A000000000000000000000000000000000000000000000000000000000 DUP2 MSTORE PUSH1 0x4 ADD DUP1 DUP1 PUSH1 0x20 ADD DUP3 DUP2 SUB DUP3 MSTORE PUSH1 0x2E DUP2 MSTORE PUSH1 0x20 ADD DUP1 PUSH2 0x1760 PUSH1 0x2E SWAP2 CODECOPY PUSH1 0x40 ADD SWAP2 POP POP PUSH1 0x40 MLOAD DUP1 SWAP2 SUB SWAP1 REVERT JUMPDEST PUSH1 0x0 DUP1 PUSH1 0x1 SWAP1 SLOAD SWAP1 PUSH2 0x100 EXP SWAP1 DIV PUSH1 0xFF AND ISZERO SWAP1 POP DUP1 ISZERO PUSH2 0x11EC JUMPI PUSH1 0x1 PUSH1 0x0 PUSH1 0x1 PUSH2 0x100 EXP DUP2 SLOAD DUP2 PUSH1 0xFF MUL NOT AND SWAP1 DUP4 ISZERO ISZERO MUL OR SWAP1 SSTORE POP PUSH1 0x1 PUSH1 0x0 DUP1 PUSH2 0x100 EXP DUP2 SLOAD DUP2 PUSH1 0xFF MUL NOT AND SWAP1 DUP4 ISZERO ISZERO MUL OR SWAP1 SSTORE POP JUMPDEST DUP1 ISZERO PUSH2 0x120D JUMPI PUSH1 0x0 DUP1 PUSH1 0x1 PUSH2 0x100 EXP DUP2 SLOAD DUP2 PUSH1 0xFF MUL NOT AND SWAP1 DUP4 ISZERO ISZERO MUL OR SWAP1 SSTORE POP JUMPDEST POP JUMP JUMPDEST PUSH1 0x0 PUSH1 0x1 SWAP1 SLOAD SWAP1 PUSH2 0x100 EXP SWAP1 DIV PUSH1 0xFF AND DUP1 PUSH2 0x122F JUMPI POP PUSH2 0x122E PUSH2 0xF3E JUMP JUMPDEST JUMPDEST DUP1 PUSH2 0x1245 JUMPI POP PUSH1 0x0 DUP1 SLOAD SWAP1 PUSH2 0x100 EXP SWAP1 DIV PUSH1 0xFF AND ISZERO JUMPDEST PUSH2 0x129A JUMPI PUSH1 0x40 MLOAD PUSH32 0x8C379A000000000000000000000000000000000000000000000000000000000 DUP2 MSTORE PUSH1 0x4 ADD DUP1 DUP1 PUSH1 0x20 ADD DUP3 DUP2 SUB DUP3 MSTORE PUSH1 0x2E DUP2 MSTORE PUSH1 0x20 ADD DUP1 PUSH2 0x1760 PUSH1 0x2E SWAP2 CODECOPY PUSH1 0x40 ADD SWAP2 POP POP PUSH1 0x40 MLOAD DUP1 SWAP2 SUB SWAP1 REVERT JUMPDEST PUSH1 0x0 DUP1 PUSH1 0x1 SWAP1 SLOAD SWAP1 PUSH2 0x100 EXP SWAP1 DIV PUSH1 0xFF AND ISZERO SWAP1 POP DUP1 ISZERO PUSH2 0x12EA JUMPI PUSH1 0x1 PUSH1 0x0 PUSH1 0x1 PUSH2 0x100 EXP DUP2 SLOAD DUP2 PUSH1 0xFF MUL NOT AND SWAP1 DUP4 ISZERO ISZERO MUL OR SWAP1 SSTORE POP PUSH1 0x1 PUSH1 0x0 DUP1 PUSH2 0x100 EXP DUP2 SLOAD DUP2 PUSH1 0xFF MUL NOT AND SWAP1 DUP4 ISZERO ISZERO MUL OR SWAP1 SSTORE POP JUMPDEST PUSH1 0x0 PUSH2 0x12F4 PUSH2 0xF36 JUMP JUMPDEST SWAP1 POP DUP1 PUSH1 0x33 PUSH1 0x0 PUSH2 0x100 EXP DUP2 SLOAD DUP2 PUSH20 0xFFFFFFFFFFFFFFFFFFFFFFFFFFFFFFFFFFFFFFFF MUL NOT AND SWAP1 DUP4 PUSH20 0xFFFFFFFFFFFFFFFFFFFFFFFFFFFFFFFFFFFFFFFF AND MUL OR SWAP1 SSTORE POP DUP1 PUSH20 0xFFFFFFFFFFFFFFFFFFFFFFFFFFFFFFFFFFFFFFFF AND PUSH1 0x0 PUSH20 0xFFFFFFFFFFFFFFFFFFFFFFFFFFFFFFFFFFFFFFFF AND PUSH32 0x8BE0079C531659141344CD1FD0A4F28419497F9722A3DAAFE3B4186F6B6457E0 PUSH1 0x40 MLOAD PUSH1 0x40 MLOAD DUP1 SWAP2 SUB SWAP1 LOG3 POP DUP1 ISZERO PUSH2 0x13B4 JUMPI PUSH1 0x0 DUP1 PUSH1 0x1 PUSH2 0x100 EXP DUP2 SLOAD DUP2 PUSH1 0xFF MUL NOT AND SWAP1 DUP4 ISZERO ISZERO MUL OR SWAP1 SSTORE POP JUMPDEST POP JUMP JUMPDEST PUSH1 0x60 PUSH2 0x1419 DUP3 PUSH1 0x40 MLOAD DUP1 PUSH1 0x40 ADD PUSH1 0x40 MSTORE DUP1 PUSH1 0x20 DUP2 MSTORE PUSH1 0x20 ADD PUSH32 0x5361666542455032303A206C6F772D6C6576656C2063616C6C206661696C6564 DUP2 MSTORE POP DUP6 PUSH20 0xFFFFFFFFFFFFFFFFFFFFFFFFFFFFFFFFFFFFFFFF AND PUSH2 0x14A6 SWAP1 SWAP3 SWAP2 SWAP1 PUSH4 0xFFFFFFFF AND JUMP JUMPDEST SWAP1 POP PUSH1 0x0 DUP2 MLOAD GT ISZERO PUSH2 0x14A1 JUMPI DUP1 DUP1 PUSH1 0x20 ADD SWAP1 MLOAD PUSH1 0x20 DUP2 LT ISZERO PUSH2 0x143A JUMPI PUSH1 0x0 DUP1 REVERT JUMPDEST DUP2 ADD SWAP1 DUP1 DUP1 MLOAD SWAP1 PUSH1 0x20 ADD SWAP1 SWAP3 SWAP2 SWAP1 POP POP POP PUSH2 0x14A0 JUMPI PUSH1 0x40 MLOAD PUSH32 0x8C379A000000000000000000000000000000000000000000000000000000000 DUP2 MSTORE PUSH1 0x4 ADD DUP1 DUP1 PUSH1 0x20 ADD DUP3 DUP2 SUB DUP3 MSTORE PUSH1 0x2A DUP2 MSTORE PUSH1 0x20 ADD DUP1 PUSH2 0x1710 PUSH1 0x2A SWAP2 CODECOPY PUSH1 0x40 ADD SWAP2 POP POP PUSH1 0x40 MLOAD DUP1 SWAP2 SUB SWAP1 REVERT JUMPDEST JUMPDEST POP POP POP JUMP JUMPDEST PUSH1 0x60 PUSH2 0x14B5 DUP5 DUP5 PUSH1 0x0 DUP6 PUSH2 0x14BE JUMP JUMPDEST SWAP1 POP SWAP4 SWAP3 POP POP POP JUMP JUMPDEST PUSH1 0x60 PUSH2 0x14C9 DUP6 PUSH2 0x16C4 JUMP JUMPDEST PUSH2 0x153B JUMPI PUSH1 0x40 MLOAD PUSH32 0x8C379A000000000000000000000000000000000000000000000000000000000 DUP2 MSTORE PUSH1 0x4 ADD DUP1 DUP1 PUSH1 0x20 ADD DUP3 DUP2 SUB DUP3 MSTORE PUSH1 0x1D DUP2 MSTORE PUSH1 0x20 ADD DUP1 PUSH32 0x416464726573733A2063616C6C20746F206E6F6E2D636F6E7472616374000000 DUP2 MSTORE POP PUSH1 0x20 ADD SWAP2 POP POP PUSH1 0x40 MLOAD DUP1 SWAP2 SUB SWAP1 REVERT JUMPDEST PUSH1 0x0 PUSH1 0x60 DUP7 PUSH20 0xFFFFFFFFFFFFFFFFFFFFFFFFFFFFFFFFFFFFFFFF AND DUP6 DUP8 PUSH1 0x40 MLOAD DUP1 DUP3 DUP1 MLOAD SWAP1 PUSH1 0x20 ADD SWAP1 DUP1 DUP4 DUP4 JUMPDEST PUSH1 0x20 DUP4 LT PUSH2 0x158B JUMPI DUP1 MLOAD DUP3 MSTORE PUSH1 0x20 DUP3 ADD SWAP2 POP PUSH1 0x20 DUP2 ADD SWAP1 POP PUSH1 0x20 DUP4 SUB SWAP3 POP PUSH2 0x1568 JUMP JUMPDEST PUSH1 0x1 DUP4 PUSH1 0x20 SUB PUSH2 0x100 EXP SUB DUP1 NOT DUP3 MLOAD AND DUP2 DUP5 MLOAD AND DUP1 DUP3 OR DUP6 MSTORE POP POP POP POP POP POP SWAP1 POP ADD SWAP2 POP POP PUSH1 0x0 PUSH1 0x40 MLOAD DUP1 DUP4 SUB DUP2 DUP6 DUP8 GAS CALL SWAP3 POP POP POP RETURNDATASIZE DUP1 PUSH1 0x0 DUP2 EQ PUSH2 0x15ED JUMPI PUSH1 0x40 MLOAD SWAP2 POP PUSH1 0x1F NOT PUSH1 0x3F RETURNDATASIZE ADD AND DUP3 ADD PUSH1 0x40 MSTORE RETURNDATASIZE DUP3 MSTORE RETURNDATASIZE PUSH1 0x0 PUSH1 0x20 DUP5 ADD RETURNDATACOPY PUSH2 0x15F2 JUMP JUMPDEST PUSH1 0x60 SWAP2 POP JUMPDEST POP SWAP2 POP SWAP2 POP DUP2 ISZERO PUSH2 0x1607 JUMPI DUP1 SWAP3 POP POP POP PUSH2 0x16BC JUMP JUMPDEST PUSH1 0x0 DUP2 MLOAD GT ISZERO PUSH2 0x161A JUMPI DUP1 MLOAD DUP1 DUP3 PUSH1 0x20 ADD REVERT JUMPDEST DUP4 PUSH1 0x40 MLOAD PUSH32 0x8C379A000000000000000000000000000000000000000000000000000000000 DUP2 MSTORE PUSH1 0x4 ADD DUP1 DUP1 PUSH1 0x20 ADD DUP3 DUP2 SUB DUP3 MSTORE DUP4 DUP2 DUP2 MLOAD DUP2 MSTORE PUSH1 0x20 ADD SWAP2 POP DUP1 MLOAD SWAP1 PUSH1 0x20 ADD SWAP1 DUP1 DUP4 DUP4 PUSH1 0x0 JUMPDEST DUP4 DUP2 LT ISZERO PUSH2 0x1681 JUMPI DUP1 DUP3 ADD MLOAD DUP2 DUP5 ADD MSTORE PUSH1 0x20 DUP2 ADD SWAP1 POP PUSH2 0x1666 JUMP JUMPDEST POP POP POP POP SWAP1 POP SWAP1 DUP2 ADD SWAP1 PUSH1 0x1F AND DUP1 ISZERO PUSH2 0x16AE JUMPI DUP1 DUP3 SUB DUP1 MLOAD PUSH1 0x1 DUP4 PUSH1 0x20 SUB PUSH2 0x100 EXP SUB NOT AND DUP2 MSTORE PUSH1 0x20 ADD SWAP2 POP JUMPDEST POP SWAP3 POP POP POP PUSH1 0x40 MLOAD DUP1 SWAP2 SUB SWAP1 REVERT JUMPDEST SWAP5 SWAP4 POP POP POP POP JUMP JUMPDEST PUSH1 0x0 DUP1 PUSH1 0x0 PUSH32 0xC5D2460186F7233C927E7DB2DCC703C0E500B653CA82273B7BFAD8045D85A470 PUSH1 0x0 SHL SWAP1 POP DUP4 EXTCODEHASH SWAP2 POP DUP1 DUP3 EQ ISZERO DUP1 ISZERO PUSH2 0x1706 JUMPI POP PUSH1 0x0 DUP1 SHL DUP3 EQ ISZERO JUMPDEST SWAP3 POP POP POP SWAP2 SWAP1 POP JUMP INVALID MSTORE8 PUSH2 0x6665 TIMESTAMP GASLIMIT POP ORIGIN ADDRESS GASPRICE KECCAK256 TIMESTAMP GASLIMIT POP ORIGIN ADDRESS KECCAK256 PUSH16 0x7065726174696F6E20646964206E6F74 KECCAK256 PUSH20 0x7563636565644F776E61626C653A206E6577206F PUSH24 0x6E657220697320746865207A65726F206164647265737349 PUSH15 0x697469616C697A61626C653A20636F PUSH15 0x747261637420697320616C72656164 PUSH26 0x20696E697469616C697A656457686974656C6973743A2063616C PUSH13 0x6572206973206E6F74206F6E20 PUSH21 0x68652077686974656C697374A26469706673582212 KECCAK256 0x2A 0x4C PUSH15 0xA369C3B5BEA584F4238BBD2FCD29 SWAP5 PUSH15 0x2DAC9F1DA54DC8908E1D348A64736F PUSH13 0x634300060C0033000000000000 "
				},
				"gasEstimates": {
					"creation": {
						"codeDepositCost": "1224800",
						"executionCost": "1275",
						"totalCost": "1226075"
					},
					"external": {
						"disableWhitelist(bool)": "22872",
						"initialize(address)": "infinite",
						"isWhitelist(address)": "1282",
						"owner()": "1055",
						"recoverToken(address,uint256,address)": "infinite",
						"renounceOwnership()": "24399",
						"safeMeerkatTransfer(address,uint256)": "infinite",
						"setWhitelist(address,bool)": "23668",
						"transferOwnership(address)": "infinite"
					}
				},
				"methodIdentifiers": {
					"disableWhitelist(bool)": "49ba1b49",
					"initialize(address)": "c4d66de8",
					"isWhitelist(address)": "c683630d",
					"owner()": "8da5cb5b",
					"recoverToken(address,uint256,address)": "d04323c5",
					"renounceOwnership()": "715018a6",
					"safeMeerkatTransfer(address,uint256)": "3158079c",
					"setWhitelist(address,bool)": "53d6fd59",
					"transferOwnership(address)": "f2fde38b"
				}
			},
			"storageLayout": {
				"storage": [
					{
						"astId": 718,
						"contract": "farming/eZKaliburProxy.sol:eZKaliburProxy",
						"label": "_initialized",
						"offset": 0,
						"slot": "0",
						"type": "t_bool"
					},
					{
						"astId": 721,
						"contract": "farming/eZKaliburProxy.sol:eZKaliburProxy",
						"label": "_initializing",
						"offset": 1,
						"slot": "0",
						"type": "t_bool"
					},
					{
						"astId": 1269,
						"contract": "farming/eZKaliburProxy.sol:eZKaliburProxy",
						"label": "__gap",
						"offset": 0,
						"slot": "1",
						"type": "t_array(t_uint256)50_storage"
					},
					{
						"astId": 10,
						"contract": "farming/eZKaliburProxy.sol:eZKaliburProxy",
						"label": "_owner",
						"offset": 0,
						"slot": "51",
						"type": "t_address"
					},
					{
						"astId": 129,
						"contract": "farming/eZKaliburProxy.sol:eZKaliburProxy",
						"label": "__gap",
						"offset": 0,
						"slot": "52",
						"type": "t_array(t_uint256)49_storage"
					},
					{
						"astId": 616,
						"contract": "farming/eZKaliburProxy.sol:eZKaliburProxy",
						"label": "_whitelist",
						"offset": 0,
						"slot": "101",
						"type": "t_mapping(t_address,t_bool)"
					},
					{
						"astId": 618,
						"contract": "farming/eZKaliburProxy.sol:eZKaliburProxy",
						"label": "_disable",
						"offset": 0,
						"slot": "102",
						"type": "t_bool"
					},
					{
						"astId": 710,
						"contract": "farming/eZKaliburProxy.sol:eZKaliburProxy",
						"label": "__gap",
						"offset": 0,
						"slot": "103",
						"type": "t_array(t_uint256)49_storage"
					},
					{
						"astId": 144,
						"contract": "farming/eZKaliburProxy.sol:eZKaliburProxy",
						"label": "token",
						"offset": 0,
						"slot": "152",
						"type": "t_contract(IBEP20)338"
					}
				],
				"types": {
					"t_address": {
						"encoding": "inplace",
						"label": "address",
						"numberOfBytes": "20"
					},
					"t_array(t_uint256)49_storage": {
						"base": "t_uint256",
						"encoding": "inplace",
						"label": "uint256[49]",
						"numberOfBytes": "1568"
					},
					"t_array(t_uint256)50_storage": {
						"base": "t_uint256",
						"encoding": "inplace",
						"label": "uint256[50]",
						"numberOfBytes": "1600"
					},
					"t_bool": {
						"encoding": "inplace",
						"label": "bool",
						"numberOfBytes": "1"
					},
					"t_contract(IBEP20)338": {
						"encoding": "inplace",
						"label": "contract IBEP20",
						"numberOfBytes": "20"
					},
					"t_mapping(t_address,t_bool)": {
						"encoding": "mapping",
						"key": "t_address",
						"label": "mapping(address => bool)",
						"numberOfBytes": "32",
						"value": "t_bool"
					},
					"t_uint256": {
						"encoding": "inplace",
						"label": "uint256",
						"numberOfBytes": "32"
					}
				}
			},
			"userdoc": {
				"kind": "user",
				"methods": {},
				"version": 1
			}
		}
	}
}