{
	"token/SWORD.sol": {
		"eZKaliburToken": {
			"abi": [
				{
					"anonymous": false,
					"inputs": [
						{
							"indexed": true,
							"internalType": "address",
							"name": "owner",
							"type": "address"
						},
						{
							"indexed": true,
							"internalType": "address",
							"name": "spender",
							"type": "address"
						},
						{
							"indexed": false,
							"internalType": "uint256",
							"name": "value",
							"type": "uint256"
						}
					],
					"name": "Approval",
					"type": "event"
				},
				{
					"anonymous": false,
					"inputs": [
						{
							"indexed": true,
							"internalType": "address",
							"name": "previousOwner",
							"type": "address"
						},
						{
							"indexed": true,
							"internalType": "address",
							"name": "newOwner",
							"type": "address"
						}
					],
					"name": "OwnershipTransferred",
					"type": "event"
				},
				{
					"anonymous": false,
					"inputs": [
						{
							"indexed": true,
							"internalType": "address",
							"name": "from",
							"type": "address"
						},
						{
							"indexed": true,
							"internalType": "address",
							"name": "to",
							"type": "address"
						},
						{
							"indexed": false,
							"internalType": "uint256",
							"name": "value",
							"type": "uint256"
						}
					],
					"name": "Transfer",
					"type": "event"
				},
				{
					"inputs": [
						{
							"internalType": "address",
							"name": "_addMinter",
							"type": "address"
						}
					],
					"name": "addMinter",
					"outputs": [
						{
							"internalType": "bool",
							"name": "",
							"type": "bool"
						}
					],
					"stateMutability": "nonpayable",
					"type": "function"
				},
				{
					"inputs": [
						{
							"internalType": "address",
							"name": "owner",
							"type": "address"
						},
						{
							"internalType": "address",
							"name": "spender",
							"type": "address"
						}
					],
					"name": "allowance",
					"outputs": [
						{
							"internalType": "uint256",
							"name": "",
							"type": "uint256"
						}
					],
					"stateMutability": "view",
					"type": "function"
				},
				{
					"inputs": [
						{
							"internalType": "address",
							"name": "spender",
							"type": "address"
						},
						{
							"internalType": "uint256",
							"name": "amount",
							"type": "uint256"
						}
					],
					"name": "approve",
					"outputs": [
						{
							"internalType": "bool",
							"name": "",
							"type": "bool"
						}
					],
					"stateMutability": "nonpayable",
					"type": "function"
				},
				{
					"inputs": [
						{
							"internalType": "address",
							"name": "account",
							"type": "address"
						}
					],
					"name": "balanceOf",
					"outputs": [
						{
							"internalType": "uint256",
							"name": "",
							"type": "uint256"
						}
					],
					"stateMutability": "view",
					"type": "function"
				},
				{
					"inputs": [
						{
							"internalType": "address",
							"name": "account",
							"type": "address"
						},
						{
							"internalType": "uint256",
							"name": "amount",
							"type": "uint256"
						}
					],
					"name": "burnFrom",
					"outputs": [],
					"stateMutability": "nonpayable",
					"type": "function"
				},
				{
					"inputs": [],
					"name": "decimals",
					"outputs": [
						{
							"internalType": "uint8",
							"name": "",
							"type": "uint8"
						}
					],
					"stateMutability": "view",
					"type": "function"
				},
				{
					"inputs": [
						{
							"internalType": "address",
							"name": "spender",
							"type": "address"
						},
						{
							"internalType": "uint256",
							"name": "subtractedValue",
							"type": "uint256"
						}
					],
					"name": "decreaseAllowance",
					"outputs": [
						{
							"internalType": "bool",
							"name": "",
							"type": "bool"
						}
					],
					"stateMutability": "nonpayable",
					"type": "function"
				},
				{
					"inputs": [
						{
							"internalType": "address",
							"name": "_delMinter",
							"type": "address"
						}
					],
					"name": "delMinter",
					"outputs": [
						{
							"internalType": "bool",
							"name": "",
							"type": "bool"
						}
					],
					"stateMutability": "nonpayable",
					"type": "function"
				},
				{
					"inputs": [
						{
							"internalType": "uint256",
							"name": "_index",
							"type": "uint256"
						}
					],
					"name": "getMinter",
					"outputs": [
						{
							"internalType": "address",
							"name": "",
							"type": "address"
						}
					],
					"stateMutability": "view",
					"type": "function"
				},
				{
					"inputs": [],
					"name": "getMinterLength",
					"outputs": [
						{
							"internalType": "uint256",
							"name": "",
							"type": "uint256"
						}
					],
					"stateMutability": "view",
					"type": "function"
				},
				{
					"inputs": [],
					"name": "getOwner",
					"outputs": [
						{
							"internalType": "address",
							"name": "",
							"type": "address"
						}
					],
					"stateMutability": "view",
					"type": "function"
				},
				{
					"inputs": [
						{
							"internalType": "address",
							"name": "spender",
							"type": "address"
						},
						{
							"internalType": "uint256",
							"name": "addedValue",
							"type": "uint256"
						}
					],
					"name": "increaseAllowance",
					"outputs": [
						{
							"internalType": "bool",
							"name": "",
							"type": "bool"
						}
					],
					"stateMutability": "nonpayable",
					"type": "function"
				},
				{
					"inputs": [
						{
							"internalType": "address",
							"name": "account",
							"type": "address"
						}
					],
					"name": "isMinter",
					"outputs": [
						{
							"internalType": "bool",
							"name": "",
							"type": "bool"
						}
					],
					"stateMutability": "view",
					"type": "function"
				},
				{
					"inputs": [],
					"name": "maxSupply",
					"outputs": [
						{
							"internalType": "uint256",
							"name": "",
							"type": "uint256"
						}
					],
					"stateMutability": "view",
					"type": "function"
				},
				{
					"inputs": [
						{
							"internalType": "address",
							"name": "_to",
							"type": "address"
						},
						{
							"internalType": "uint256",
							"name": "_amount",
							"type": "uint256"
						}
					],
					"name": "mint",
					"outputs": [
						{
							"internalType": "bool",
							"name": "",
							"type": "bool"
						}
					],
					"stateMutability": "nonpayable",
					"type": "function"
				},
				{
					"inputs": [
						{
							"internalType": "uint256",
							"name": "amount",
							"type": "uint256"
						}
					],
					"name": "mint",
					"outputs": [
						{
							"internalType": "bool",
							"name": "",
							"type": "bool"
						}
					],
					"stateMutability": "nonpayable",
					"type": "function"
				},
				{
					"inputs": [],
					"name": "name",
					"outputs": [
						{
							"internalType": "string",
							"name": "",
							"type": "string"
						}
					],
					"stateMutability": "view",
					"type": "function"
				},
				{
					"inputs": [],
					"name": "owner",
					"outputs": [
						{
							"internalType": "address",
							"name": "",
							"type": "address"
						}
					],
					"stateMutability": "view",
					"type": "function"
				},
				{
					"inputs": [],
					"name": "preMineSupply",
					"outputs": [
						{
							"internalType": "uint256",
							"name": "",
							"type": "uint256"
						}
					],
					"stateMutability": "view",
					"type": "function"
				},
				{
					"inputs": [],
					"name": "renounceOwnership",
					"outputs": [],
					"stateMutability": "nonpayable",
					"type": "function"
				},
				{
					"inputs": [],
					"name": "symbol",
					"outputs": [
						{
							"internalType": "string",
							"name": "",
							"type": "string"
						}
					],
					"stateMutability": "view",
					"type": "function"
				},
				{
					"inputs": [],
					"name": "totalSupply",
					"outputs": [
						{
							"internalType": "uint256",
							"name": "",
							"type": "uint256"
						}
					],
					"stateMutability": "view",
					"type": "function"
				},
				{
					"inputs": [
						{
							"internalType": "address",
							"name": "recipient",
							"type": "address"
						},
						{
							"internalType": "uint256",
							"name": "amount",
							"type": "uint256"
						}
					],
					"name": "transfer",
					"outputs": [
						{
							"internalType": "bool",
							"name": "",
							"type": "bool"
						}
					],
					"stateMutability": "nonpayable",
					"type": "function"
				},
				{
					"inputs": [
						{
							"internalType": "address",
							"name": "sender",
							"type": "address"
						},
						{
							"internalType": "address",
							"name": "recipient",
							"type": "address"
						},
						{
							"internalType": "uint256",
							"name": "amount",
							"type": "uint256"
						}
					],
					"name": "transferFrom",
					"outputs": [
						{
							"internalType": "bool",
							"name": "",
							"type": "bool"
						}
					],
					"stateMutability": "nonpayable",
					"type": "function"
				},
				{
					"inputs": [
						{
							"internalType": "address",
							"name": "newOwner",
							"type": "address"
						}
					],
					"name": "transferOwnership",
					"outputs": [],
					"stateMutability": "nonpayable",
					"type": "function"
				}
			],
			"devdoc": {
				"kind": "dev",
				"methods": {
					"allowance(address,address)": {
						"details": "See {ERC20-allowance}."
					},
					"approve(address,uint256)": {
						"details": "See {ERC20-approve}. Requirements: - `spender` cannot be the zero address."
					},
					"balanceOf(address)": {
						"details": "See {ERC20-balanceOf}."
					},
					"decimals()": {
						"details": "Returns the token decimals."
					},
					"decreaseAllowance(address,uint256)": {
						"details": "Atomically decreases the allowance granted to `spender` by the caller. This is an alternative to {approve} that can be used as a mitigation for problems described in {ERC20-approve}. Emits an {Approval} event indicating the updated allowance. Requirements: - `spender` cannot be the zero address. - `spender` must have allowance for the caller of at least `subtractedValue`."
					},
					"getOwner()": {
						"details": "Returns the bep token owner."
					},
					"increaseAllowance(address,uint256)": {
						"details": "Atomically increases the allowance granted to `spender` by the caller. This is an alternative to {approve} that can be used as a mitigation for problems described in {ERC20-approve}. Emits an {Approval} event indicating the updated allowance. Requirements: - `spender` cannot be the zero address."
					},
					"mint(uint256)": {
						"details": "Creates `amount` tokens and assigns them to `msg.sender`, increasing the total supply. Requirements - `msg.sender` must be the token owner"
					},
					"name()": {
						"details": "Returns the token name."
					},
					"owner()": {
						"details": "Returns the address of the current owner."
					},
					"renounceOwnership()": {
						"details": "Leaves the contract without owner. It will not be possible to call `onlyOwner` functions anymore. Can only be called by the current owner. NOTE: Renouncing ownership will leave the contract without an owner, thereby removing any functionality that is only available to the owner."
					},
					"symbol()": {
						"details": "Returns the token symbol."
					},
					"totalSupply()": {
						"details": "See {ERC20-totalSupply}."
					},
					"transfer(address,uint256)": {
						"details": "See {ERC20-transfer}. Requirements: - `recipient` cannot be the zero address. - the caller must have a balance of at least `amount`."
					},
					"transferFrom(address,address,uint256)": {
						"details": "See {ERC20-transferFrom}. Emits an {Approval} event indicating the updated allowance. This is not required by the EIP. See the note at the beginning of {ERC20}; Requirements: - `sender` and `recipient` cannot be the zero address. - `sender` must have a balance of at least `amount`. - the caller must have allowance for `sender`'s tokens of at least `amount`."
					},
					"transferOwnership(address)": {
						"details": "Transfers ownership of the contract to a new account (`newOwner`). Can only be called by the current owner."
					}
				},
				"version": 1
			},
			"evm": {
				"assembly": "    /* \"token/SWORD.sol\":34153:35722  contract eZKaliburToken is ERC20('eZKalibur Token', 'SWORD') {\r... */\n  mstore(0x40, 0x80)\n  callvalue\n  dup1\n  iszero\n  tag_1\n  jumpi\n  0x00\n  dup1\n  revert\ntag_1:\n  pop\n    /* \"token/SWORD.sol\":18219:18409  constructor(string memory name, string memory symbol) public {\r... */\n  mload(0x40)\n  dup1\n  0x40\n  add\n  0x40\n  mstore\n  dup1\n  0x0f\n  dup2\n  mstore\n  0x20\n  add\n  0x655a4b616c6962757220546f6b656e0000000000000000000000000000000000\n  dup2\n  mstore\n  pop\n  mload(0x40)\n  dup1\n  0x40\n  add\n  0x40\n  mstore\n  dup1\n  0x05\n  dup2\n  mstore\n  0x20\n  add\n  0x53574f5244000000000000000000000000000000000000000000000000000000\n  dup2\n  mstore\n  pop\n    /* \"token/SWORD.sol\":900:917  address msgSender */\n  0x00\n    /* \"token/SWORD.sol\":920:932  _msgSender() */\n  tag_7\n    /* \"token/SWORD.sol\":920:930  _msgSender */\n  shl(0x20, tag_8)\n    /* \"token/SWORD.sol\":920:932  _msgSender() */\n  0x20\n  shr\n  jump\t// in\ntag_7:\n    /* \"token/SWORD.sol\":900:932  address msgSender = _msgSender() */\n  swap1\n  pop\n    /* \"token/SWORD.sol\":952:961  msgSender */\n  dup1\n    /* \"token/SWORD.sol\":943:949  _owner */\n  0x00\n  dup1\n    /* \"token/SWORD.sol\":943:961  _owner = msgSender */\n  0x0100\n  exp\n  dup2\n  sload\n  dup2\n  0xffffffffffffffffffffffffffffffffffffffff\n  mul\n  not\n  and\n  swap1\n  dup4\n  0xffffffffffffffffffffffffffffffffffffffff\n  and\n  mul\n  or\n  swap1\n  sstore\n  pop\n    /* \"token/SWORD.sol\":1010:1019  msgSender */\n  dup1\n    /* \"token/SWORD.sol\":977:1020  OwnershipTransferred(address(0), msgSender) */\n  0xffffffffffffffffffffffffffffffffffffffff\n  and\n    /* \"token/SWORD.sol\":1006:1007  0 */\n  0x00\n    /* \"token/SWORD.sol\":977:1020  OwnershipTransferred(address(0), msgSender) */\n  0xffffffffffffffffffffffffffffffffffffffff\n  and\n  0x8be0079c531659141344cd1fd0a4f28419497f9722a3daafe3b4186f6b6457e0\n  mload(0x40)\n  mload(0x40)\n  dup1\n  swap2\n  sub\n  swap1\n  log3\n    /* \"token/SWORD.sol\":866:1028  constructor() internal {\r... */\n  pop\n    /* \"token/SWORD.sol\":18299:18303  name */\n  dup2\n    /* \"token/SWORD.sol\":18291:18296  _name */\n  0x04\n    /* \"token/SWORD.sol\":18291:18303  _name = name */\n  swap1\n  dup1\n  mload\n  swap1\n  0x20\n  add\n  swap1\n  tag_10\n  swap3\n  swap2\n  swap1\n  tag_11\n  jump\t// in\ntag_10:\n  pop\n    /* \"token/SWORD.sol\":18324:18330  symbol */\n  dup1\n    /* \"token/SWORD.sol\":18314:18321  _symbol */\n  0x05\n    /* \"token/SWORD.sol\":18314:18330  _symbol = symbol */\n  swap1\n  dup1\n  mload\n  swap1\n  0x20\n  add\n  swap1\n  tag_12\n  swap3\n  swap2\n  swap1\n  tag_11\n  jump\t// in\ntag_12:\n  pop\n    /* \"token/SWORD.sol\":18353:18355  18 */\n  0x12\n    /* \"token/SWORD.sol\":18341:18350  _decimals */\n  0x06\n  0x00\n    /* \"token/SWORD.sol\":18341:18355  _decimals = 18 */\n  0x0100\n  exp\n  dup2\n  sload\n  dup2\n  0xff\n  mul\n  not\n  and\n  swap1\n  dup4\n  0xff\n  and\n  mul\n  or\n  swap1\n  sstore\n  pop\n    /* \"token/SWORD.sol\":18368:18401  _mint(msg.sender, _preMineSupply) */\n  tag_13\n    /* \"token/SWORD.sol\":18374:18384  msg.sender */\n  caller\n    /* \"token/SWORD.sol\":17488:17502  5800000 * 1e18 */\n  0x04cc32a1490afbd9000000\n    /* \"token/SWORD.sol\":18368:18373  _mint */\n  shl(0x20, tag_14)\n    /* \"token/SWORD.sol\":18368:18401  _mint(msg.sender, _preMineSupply) */\n  0x20\n  shr\n  jump\t// in\ntag_13:\n  pop\n    /* \"token/SWORD.sol\":18219:18409  constructor(string memory name, string memory symbol) public {\r... */\n  pop\n  pop\n    /* \"token/SWORD.sol\":34153:35722  contract eZKaliburToken is ERC20('eZKalibur Token', 'SWORD') {\r... */\n  jump(tag_15)\n    /* \"token/SWORD.sol\":273:371  function _msgSender() internal view returns (address payable) {\r... */\ntag_8:\n    /* \"token/SWORD.sol\":318:333  address payable */\n  0x00\n    /* \"token/SWORD.sol\":353:363  msg.sender */\n  caller\n    /* \"token/SWORD.sol\":346:363  return msg.sender */\n  swap1\n  pop\n    /* \"token/SWORD.sol\":273:371  function _msgSender() internal view returns (address payable) {\r... */\n  swap1\n  jump\t// out\n    /* \"token/SWORD.sol\":24421:24835  function _mint(address account, uint256 amount) internal returns(bool) {\r... */\ntag_14:\n    /* \"token/SWORD.sol\":24486:24490  bool */\n  0x00\n    /* \"token/SWORD.sol\":24530:24531  0 */\n  dup1\n    /* \"token/SWORD.sol\":24511:24532  account != address(0) */\n  0xffffffffffffffffffffffffffffffffffffffff\n  and\n    /* \"token/SWORD.sol\":24511:24518  account */\n  dup4\n    /* \"token/SWORD.sol\":24511:24532  account != address(0) */\n  0xffffffffffffffffffffffffffffffffffffffff\n  and\n  eq\n  iszero\n    /* \"token/SWORD.sol\":24503:24568  require(account != address(0), 'ERC20: mint to the zero address') */\n  tag_18\n  jumpi\n  mload(0x40)\n  0x08c379a000000000000000000000000000000000000000000000000000000000\n  dup2\n  mstore\n  0x04\n  add\n  dup1\n  dup1\n  0x20\n  add\n  dup3\n  dup2\n  sub\n  dup3\n  mstore\n  0x1f\n  dup2\n  mstore\n  0x20\n  add\n  dup1\n  0x45524332303a206d696e7420746f20746865207a65726f206164647265737300\n  dup2\n  mstore\n  pop\n  0x20\n  add\n  swap2\n  pop\n  pop\n  mload(0x40)\n  dup1\n  swap2\n  sub\n  swap1\n  revert\ntag_18:\n    /* \"token/SWORD.sol\":17547:17562  10000000 * 1e18 */\n  0x084595161401484a000000\n    /* \"token/SWORD.sol\":24583:24607  amount.add(_totalSupply) */\n  tag_19\n    /* \"token/SWORD.sol\":24594:24606  _totalSupply */\n  sload(0x03)\n    /* \"token/SWORD.sol\":24583:24589  amount */\n  dup5\n    /* \"token/SWORD.sol\":24583:24593  amount.add */\n  or(tag_0_105, shl(0x20, tag_20))\n  swap1\n    /* \"token/SWORD.sol\":24583:24607  amount.add(_totalSupply) */\n  swap2\n  swap1\n  0x20\n  shr\n  jump\t// in\ntag_19:\n    /* \"token/SWORD.sol\":24583:24620  amount.add(_totalSupply) > _maxSupply */\n  gt\n    /* \"token/SWORD.sol\":24579:24661  if (amount.add(_totalSupply) > _maxSupply) {\r... */\n  iszero\n  tag_21\n  jumpi\n    /* \"token/SWORD.sol\":24644:24649  false */\n  0x00\n    /* \"token/SWORD.sol\":24637:24649  return false */\n  swap1\n  pop\n  jump(tag_17)\n    /* \"token/SWORD.sol\":24579:24661  if (amount.add(_totalSupply) > _maxSupply) {\r... */\ntag_21:\n    /* \"token/SWORD.sol\":24688:24712  _totalSupply.add(amount) */\n  tag_22\n    /* \"token/SWORD.sol\":24705:24711  amount */\n  dup3\n    /* \"token/SWORD.sol\":24688:24700  _totalSupply */\n  sload(0x03)\n    /* \"token/SWORD.sol\":24688:24704  _totalSupply.add */\n  or(tag_0_105, shl(0x20, tag_20))\n  swap1\n    /* \"token/SWORD.sol\":24688:24712  _totalSupply.add(amount) */\n  swap2\n  swap1\n  0x20\n  shr\n  jump\t// in\ntag_22:\n    /* \"token/SWORD.sol\":24673:24685  _totalSupply */\n  0x03\n    /* \"token/SWORD.sol\":24673:24712  _totalSupply = _totalSupply.add(amount) */\n  dup2\n  swap1\n  sstore\n  pop\n    /* \"token/SWORD.sol\":24744:24774  _balances[account].add(amount) */\n  tag_23\n    /* \"token/SWORD.sol\":24767:24773  amount */\n  dup3\n    /* \"token/SWORD.sol\":24744:24753  _balances */\n  0x01\n    /* \"token/SWORD.sol\":24744:24762  _balances[account] */\n  0x00\n    /* \"token/SWORD.sol\":24754:24761  account */\n  dup7\n    /* \"token/SWORD.sol\":24744:24762  _balances[account] */\n  0xffffffffffffffffffffffffffffffffffffffff\n  and\n  0xffffffffffffffffffffffffffffffffffffffff\n  and\n  dup2\n  mstore\n  0x20\n  add\n  swap1\n  dup2\n  mstore\n  0x20\n  add\n  0x00\n  keccak256\n  sload\n    /* \"token/SWORD.sol\":24744:24766  _balances[account].add */\n  or(tag_0_105, shl(0x20, tag_20))\n  swap1\n    /* \"token/SWORD.sol\":24744:24774  _balances[account].add(amount) */\n  swap2\n  swap1\n  0x20\n  shr\n  jump\t// in\ntag_23:\n    /* \"token/SWORD.sol\":24723:24732  _balances */\n  0x01\n    /* \"token/SWORD.sol\":24723:24741  _balances[account] */\n  0x00\n    /* \"token/SWORD.sol\":24733:24740  account */\n  dup6\n    /* \"token/SWORD.sol\":24723:24741  _balances[account] */\n  0xffffffffffffffffffffffffffffffffffffffff\n  and\n  0xffffffffffffffffffffffffffffffffffffffff\n  and\n  dup2\n  mstore\n  0x20\n  add\n  swap1\n  dup2\n  mstore\n  0x20\n  add\n  0x00\n  keccak256\n    /* \"token/SWORD.sol\":24723:24774  _balances[account] = _balances[account].add(amount) */\n  dup2\n  swap1\n  sstore\n  pop\n    /* \"token/SWORD.sol\":24811:24818  account */\n  dup3\n    /* \"token/SWORD.sol\":24790:24827  Transfer(address(0), account, amount) */\n  0xffffffffffffffffffffffffffffffffffffffff\n  and\n    /* \"token/SWORD.sol\":24807:24808  0 */\n  0x00\n    /* \"token/SWORD.sol\":24790:24827  Transfer(address(0), account, amount) */\n  0xffffffffffffffffffffffffffffffffffffffff\n  and\n  0xddf252ad1be2c89b69c2b068fc378daa952ba7f163c4a11628f55a4df523b3ef\n    /* \"token/SWORD.sol\":24820:24826  amount */\n  dup5\n    /* \"token/SWORD.sol\":24790:24827  Transfer(address(0), account, amount) */\n  mload(0x40)\n  dup1\n  dup3\n  dup2\n  mstore\n  0x20\n  add\n  swap2\n  pop\n  pop\n  mload(0x40)\n  dup1\n  swap2\n  sub\n  swap1\n  log3\n    /* \"token/SWORD.sol\":24421:24835  function _mint(address account, uint256 amount) internal returns(bool) {\r... */\ntag_17:\n  swap3\n  swap2\n  pop\n  pop\n  jump\t// out\n    /* \"token/SWORD.sol\":6031:6212  function add(uint256 a, uint256 b) internal pure returns (uint256) {\r... */\ntag_20:\n    /* \"token/SWORD.sol\":6089:6096  uint256 */\n  0x00\n    /* \"token/SWORD.sol\":6109:6118  uint256 c */\n  dup1\n    /* \"token/SWORD.sol\":6125:6126  b */\n  dup3\n    /* \"token/SWORD.sol\":6121:6122  a */\n  dup5\n    /* \"token/SWORD.sol\":6121:6126  a + b */\n  add\n    /* \"token/SWORD.sol\":6109:6126  uint256 c = a + b */\n  swap1\n  pop\n    /* \"token/SWORD.sol\":6150:6151  a */\n  dup4\n    /* \"token/SWORD.sol\":6145:6146  c */\n  dup2\n    /* \"token/SWORD.sol\":6145:6151  c >= a */\n  lt\n  iszero\n    /* \"token/SWORD.sol\":6137:6183  require(c >= a, 'SafeMath: addition overflow') */\n  tag_25\n  jumpi\n  mload(0x40)\n  0x08c379a000000000000000000000000000000000000000000000000000000000\n  dup2\n  mstore\n  0x04\n  add\n  dup1\n  dup1\n  0x20\n  add\n  dup3\n  dup2\n  sub\n  dup3\n  mstore\n  0x1b\n  dup2\n  mstore\n  0x20\n  add\n  dup1\n  0x536166654d6174683a206164646974696f6e206f766572666c6f770000000000\n  dup2\n  mstore\n  pop\n  0x20\n  add\n  swap2\n  pop\n  pop\n  mload(0x40)\n  dup1\n  swap2\n  sub\n  swap1\n  revert\ntag_25:\n    /* \"token/SWORD.sol\":6203:6204  c */\n  dup1\n    /* \"token/SWORD.sol\":6196:6204  return c */\n  swap2\n  pop\n  pop\n    /* \"token/SWORD.sol\":6031:6212  function add(uint256 a, uint256 b) internal pure returns (uint256) {\r... */\n  swap3\n  swap2\n  pop\n  pop\n  jump\t// out\n    /* \"token/SWORD.sol\":34153:35722  contract eZKaliburToken is ERC20('eZKalibur Token', 'SWORD') {\r... */\ntag_11:\n  dup3\n  dup1\n  sload\n  0x01\n  dup2\n  0x01\n  and\n  iszero\n  0x0100\n  mul\n  sub\n  and\n  0x02\n  swap1\n  div\n  swap1\n  0x00\n  mstore\n  keccak256(0x00, 0x20)\n  swap1\n  0x1f\n  add\n  0x20\n  swap1\n  div\n  dup2\n  add\n  swap3\n  dup3\n  0x1f\n  lt\n  tag_27\n  jumpi\n  dup1\n  mload\n  not(0xff)\n  and\n  dup4\n  dup1\n  add\n  or\n  dup6\n  sstore\n  jump(tag_26)\ntag_27:\n  dup3\n  dup1\n  add\n  0x01\n  add\n  dup6\n  sstore\n  dup3\n  iszero\n  tag_26\n  jumpi\n  swap2\n  dup3\n  add\ntag_28:\n  dup3\n  dup2\n  gt\n  iszero\n  tag_29\n  jumpi\n  dup3\n  mload\n  dup3\n  sstore\n  swap2\n  0x20\n  add\n  swap2\n  swap1\n  0x01\n  add\n  swap1\n  jump(tag_28)\ntag_29:\ntag_26:\n  pop\n  swap1\n  pop\n  tag_30\n  swap2\n  swap1\n  tag_31\n  jump\t// in\ntag_30:\n  pop\n  swap1\n  jump\t// out\ntag_31:\ntag_32:\n  dup1\n  dup3\n  gt\n  iszero\n  tag_33\n  jumpi\n  0x00\n  dup2\n  0x00\n  swap1\n  sstore\n  pop\n  0x01\n  add\n  jump(tag_32)\ntag_33:\n  pop\n  swap1\n  jump\t// out\ntag_15:\n  dataSize(sub_0)\n  dup1\n  dataOffset(sub_0)\n  0x00\n  codecopy\n  0x00\n  return\nstop\n\nsub_0: assembly {\n        /* \"token/SWORD.sol\":34153:35722  contract eZKaliburToken is ERC20('eZKalibur Token', 'SWORD') {\r... */\n      mstore(0x40, 0x80)\n      callvalue\n      dup1\n      iszero\n      tag_1\n      jumpi\n      0x00\n      dup1\n      revert\n    tag_1:\n      pop\n      jumpi(tag_2, lt(calldatasize, 0x04))\n      shr(0xe0, calldataload(0x00))\n      dup1\n      0x715018a6\n      gt\n      tag_28\n      jumpi\n      dup1\n      0xa0712d68\n      gt\n      tag_29\n      jumpi\n      dup1\n      0xaa271e1a\n      gt\n      tag_30\n      jumpi\n      dup1\n      0xaa271e1a\n      eq\n      tag_24\n      jumpi\n      dup1\n      0xd5abeb01\n      eq\n      tag_25\n      jumpi\n      dup1\n      0xdd62ed3e\n      eq\n      tag_26\n      jumpi\n      dup1\n      0xf2fde38b\n      eq\n      tag_27\n      jumpi\n      jump(tag_2)\n    tag_30:\n      dup1\n      0xa0712d68\n      eq\n      tag_21\n      jumpi\n      dup1\n      0xa457c2d7\n      eq\n      tag_22\n      jumpi\n      dup1\n      0xa9059cbb\n      eq\n      tag_23\n      jumpi\n      jump(tag_2)\n    tag_29:\n      dup1\n      0x715018a6\n      eq\n      tag_15\n      jumpi\n      dup1\n      0x79cc6790\n      eq\n      tag_16\n      jumpi\n      dup1\n      0x893d20e8\n      eq\n      tag_17\n      jumpi\n      dup1\n      0x8da5cb5b\n      eq\n      tag_18\n      jumpi\n      dup1\n      0x95d89b41\n      eq\n      tag_19\n      jumpi\n      dup1\n      0x983b2d56\n      eq\n      tag_20\n      jumpi\n      jump(tag_2)\n    tag_28:\n      dup1\n      0x23b872dd\n      gt\n      tag_31\n      jumpi\n      dup1\n      0x23b872dd\n      eq\n      tag_9\n      jumpi\n      dup1\n      0x313ce567\n      eq\n      tag_10\n      jumpi\n      dup1\n      0x39509351\n      eq\n      tag_11\n      jumpi\n      dup1\n      0x40c10f19\n      eq\n      tag_12\n      jumpi\n      dup1\n      0x5b7121f8\n      eq\n      tag_13\n      jumpi\n      dup1\n      0x70a08231\n      eq\n      tag_14\n      jumpi\n      jump(tag_2)\n    tag_31:\n      dup1\n      0x0323aac7\n      eq\n      tag_3\n      jumpi\n      dup1\n      0x06fdde03\n      eq\n      tag_4\n      jumpi\n      dup1\n      0x095ea7b3\n      eq\n      tag_5\n      jumpi\n      dup1\n      0x0c16ea83\n      eq\n      tag_6\n      jumpi\n      dup1\n      0x18160ddd\n      eq\n      tag_7\n      jumpi\n      dup1\n      0x23338b88\n      eq\n      tag_8\n      jumpi\n    tag_2:\n      0x00\n      dup1\n      revert\n        /* \"token/SWORD.sol\":35095:35208  function getMinterLength() public view returns (uint256) {\r... */\n    tag_3:\n      tag_32\n      tag_33\n      jump\t// in\n    tag_32:\n      mload(0x40)\n      dup1\n      dup3\n      dup2\n      mstore\n      0x20\n      add\n      swap2\n      pop\n      pop\n      mload(0x40)\n      dup1\n      swap2\n      sub\n      swap1\n      return\n        /* \"token/SWORD.sol\":18634:18726  function name() public override view returns (string memory) {\r... */\n    tag_4:\n      tag_34\n      tag_35\n      jump\t// in\n    tag_34:\n      mload(0x40)\n      dup1\n      dup1\n      0x20\n      add\n      dup3\n      dup2\n      sub\n      dup3\n      mstore\n      dup4\n      dup2\n      dup2\n      mload\n      dup2\n      mstore\n      0x20\n      add\n      swap2\n      pop\n      dup1\n      mload\n      swap1\n      0x20\n      add\n      swap1\n      dup1\n      dup4\n      dup4\n      0x00\n    tag_36:\n      dup4\n      dup2\n      lt\n      iszero\n      tag_38\n      jumpi\n      dup1\n      dup3\n      add\n      mload\n      dup2\n      dup5\n      add\n      mstore\n      0x20\n      dup2\n      add\n      swap1\n      pop\n      jump(tag_36)\n    tag_38:\n      pop\n      pop\n      pop\n      pop\n      swap1\n      pop\n      swap1\n      dup2\n      add\n      swap1\n      0x1f\n      and\n      dup1\n      iszero\n      tag_39\n      jumpi\n      dup1\n      dup3\n      sub\n      dup1\n      mload\n      0x01\n      dup4\n      0x20\n      sub\n      0x0100\n      exp\n      sub\n      not\n      and\n      dup2\n      mstore\n      0x20\n      add\n      swap2\n      pop\n    tag_39:\n      pop\n      swap3\n      pop\n      pop\n      pop\n      mload(0x40)\n      dup1\n      swap2\n      sub\n      swap1\n      return\n        /* \"token/SWORD.sol\":20337:20498  function approve(address spender, uint256 amount) public override returns (bool) {\r... */\n    tag_5:\n      tag_40\n      0x04\n      dup1\n      calldatasize\n      sub\n      0x40\n      dup2\n      lt\n      iszero\n      tag_41\n      jumpi\n      0x00\n      dup1\n      revert\n    tag_41:\n      dup2\n      add\n      swap1\n      dup1\n      dup1\n      calldataload\n      0xffffffffffffffffffffffffffffffffffffffff\n      and\n      swap1\n      0x20\n      add\n      swap1\n      swap3\n      swap2\n      swap1\n      dup1\n      calldataload\n      swap1\n      0x20\n      add\n      swap1\n      swap3\n      swap2\n      swap1\n      pop\n      pop\n      pop\n      tag_42\n      jump\t// in\n    tag_40:\n      mload(0x40)\n      dup1\n      dup3\n      iszero\n      iszero\n      dup2\n      mstore\n      0x20\n      add\n      swap2\n      pop\n      pop\n      mload(0x40)\n      dup1\n      swap2\n      sub\n      swap1\n      return\n        /* \"token/SWORD.sol\":19218:19322  function preMineSupply() public override view returns (uint256) {\r... */\n    tag_6:\n      tag_43\n      tag_44\n      jump\t// in\n    tag_43:\n      mload(0x40)\n      dup1\n      dup3\n      dup2\n      mstore\n      0x20\n      add\n      swap2\n      pop\n      pop\n      mload(0x40)\n      dup1\n      swap2\n      sub\n      swap1\n      return\n        /* \"token/SWORD.sol\":19110:19210  function totalSupply() public override view returns (uint256) {\r... */\n    tag_7:\n      tag_45\n      tag_46\n      jump\t// in\n    tag_45:\n      mload(0x40)\n      dup1\n      dup3\n      dup2\n      mstore\n      0x20\n      add\n      swap2\n      pop\n      pop\n      mload(0x40)\n      dup1\n      swap2\n      sub\n      swap1\n      return\n        /* \"token/SWORD.sol\":34865:35087  function delMinter(address _delMinter) public onlyOwner returns (bool) {\r... */\n    tag_8:\n      tag_47\n      0x04\n      dup1\n      calldatasize\n      sub\n      0x20\n      dup2\n      lt\n      iszero\n      tag_48\n      jumpi\n      0x00\n      dup1\n      revert\n    tag_48:\n      dup2\n      add\n      swap1\n      dup1\n      dup1\n      calldataload\n      0xffffffffffffffffffffffffffffffffffffffff\n      and\n      swap1\n      0x20\n      add\n      swap1\n      swap3\n      swap2\n      swap1\n      pop\n      pop\n      pop\n      tag_49\n      jump\t// in\n    tag_47:\n      mload(0x40)\n      dup1\n      dup3\n      iszero\n      iszero\n      dup2\n      mstore\n      0x20\n      add\n      swap2\n      pop\n      pop\n      mload(0x40)\n      dup1\n      swap2\n      sub\n      swap1\n      return\n        /* \"token/SWORD.sol\":20969:21366  function transferFrom(\r... */\n    tag_9:\n      tag_50\n      0x04\n      dup1\n      calldatasize\n      sub\n      0x60\n      dup2\n      lt\n      iszero\n      tag_51\n      jumpi\n      0x00\n      dup1\n      revert\n    tag_51:\n      dup2\n      add\n      swap1\n      dup1\n      dup1\n      calldataload\n      0xffffffffffffffffffffffffffffffffffffffff\n      and\n      swap1\n      0x20\n      add\n      swap1\n      swap3\n      swap2\n      swap1\n      dup1\n      calldataload\n      0xffffffffffffffffffffffffffffffffffffffff\n      and\n      swap1\n      0x20\n      add\n      swap1\n      swap3\n      swap2\n      swap1\n      dup1\n      calldataload\n      swap1\n      0x20\n      add\n      swap1\n      swap3\n      swap2\n      swap1\n      pop\n      pop\n      pop\n      tag_52\n      jump\t// in\n    tag_50:\n      mload(0x40)\n      dup1\n      dup3\n      iszero\n      iszero\n      dup2\n      mstore\n      0x20\n      add\n      swap2\n      pop\n      pop\n      mload(0x40)\n      dup1\n      swap2\n      sub\n      swap1\n      return\n        /* \"token/SWORD.sol\":18793:18885  function decimals() public override view returns (uint8) {\r... */\n    tag_10:\n      tag_53\n      tag_54\n      jump\t// in\n    tag_53:\n      mload(0x40)\n      dup1\n      dup3\n      0xff\n      and\n      dup2\n      mstore\n      0x20\n      add\n      swap2\n      pop\n      pop\n      mload(0x40)\n      dup1\n      swap2\n      sub\n      swap1\n      return\n        /* \"token/SWORD.sol\":21774:21984  function increaseAllowance(address spender, uint256 addedValue) public returns (bool) {\r... */\n    tag_11:\n      tag_55\n      0x04\n      dup1\n      calldatasize\n      sub\n      0x40\n      dup2\n      lt\n      iszero\n      tag_56\n      jumpi\n      0x00\n      dup1\n      revert\n    tag_56:\n      dup2\n      add\n      swap1\n      dup1\n      dup1\n      calldataload\n      0xffffffffffffffffffffffffffffffffffffffff\n      and\n      swap1\n      0x20\n      add\n      swap1\n      swap3\n      swap2\n      swap1\n      dup1\n      calldataload\n      swap1\n      0x20\n      add\n      swap1\n      swap3\n      swap2\n      swap1\n      pop\n      pop\n      pop\n      tag_57\n      jump\t// in\n    tag_55:\n      mload(0x40)\n      dup1\n      dup3\n      iszero\n      iszero\n      dup2\n      mstore\n      0x20\n      add\n      swap2\n      pop\n      pop\n      mload(0x40)\n      dup1\n      swap2\n      sub\n      swap1\n      return\n        /* \"token/SWORD.sol\":34377:34513  function mint(address _to, uint256 _amount) public onlyMinter returns(bool) {\r... */\n    tag_12:\n      tag_58\n      0x04\n      dup1\n      calldatasize\n      sub\n      0x40\n      dup2\n      lt\n      iszero\n      tag_59\n      jumpi\n      0x00\n      dup1\n      revert\n    tag_59:\n      dup2\n      add\n      swap1\n      dup1\n      dup1\n      calldataload\n      0xffffffffffffffffffffffffffffffffffffffff\n      and\n      swap1\n      0x20\n      add\n      swap1\n      swap3\n      swap2\n      swap1\n      dup1\n      calldataload\n      swap1\n      0x20\n      add\n      swap1\n      swap3\n      swap2\n      swap1\n      pop\n      pop\n      pop\n      tag_60\n      jump\t// in\n    tag_58:\n      mload(0x40)\n      dup1\n      dup3\n      iszero\n      iszero\n      dup2\n      mstore\n      0x20\n      add\n      swap2\n      pop\n      pop\n      mload(0x40)\n      dup1\n      swap2\n      sub\n      swap1\n      return\n        /* \"token/SWORD.sol\":35353:35566  function getMinter(uint256 _index) public view onlyOwner returns (address){\r... */\n    tag_13:\n      tag_61\n      0x04\n      dup1\n      calldatasize\n      sub\n      0x20\n      dup2\n      lt\n      iszero\n      tag_62\n      jumpi\n      0x00\n      dup1\n      revert\n    tag_62:\n      dup2\n      add\n      swap1\n      dup1\n      dup1\n      calldataload\n      swap1\n      0x20\n      add\n      swap1\n      swap3\n      swap2\n      swap1\n      pop\n      pop\n      pop\n      tag_63\n      jump\t// in\n    tag_61:\n      mload(0x40)\n      dup1\n      dup3\n      0xffffffffffffffffffffffffffffffffffffffff\n      and\n      dup2\n      mstore\n      0x20\n      add\n      swap2\n      pop\n      pop\n      mload(0x40)\n      dup1\n      swap2\n      sub\n      swap1\n      return\n        /* \"token/SWORD.sol\":19488:19607  function balanceOf(address account) public override view returns (uint256) {\r... */\n    tag_14:\n      tag_64\n      0x04\n      dup1\n      calldatasize\n      sub\n      0x20\n      dup2\n      lt\n      iszero\n      tag_65\n      jumpi\n      0x00\n      dup1\n      revert\n    tag_65:\n      dup2\n      add\n      swap1\n      dup1\n      dup1\n      calldataload\n      0xffffffffffffffffffffffffffffffffffffffff\n      and\n      swap1\n      0x20\n      add\n      swap1\n      swap3\n      swap2\n      swap1\n      pop\n      pop\n      pop\n      tag_66\n      jump\t// in\n    tag_64:\n      mload(0x40)\n      dup1\n      dup3\n      dup2\n      mstore\n      0x20\n      add\n      swap2\n      pop\n      pop\n      mload(0x40)\n      dup1\n      swap2\n      sub\n      swap1\n      return\n        /* \"token/SWORD.sol\":1751:1891  function renounceOwnership() public onlyOwner {\r... */\n    tag_15:\n      tag_67\n      tag_68\n      jump\t// in\n    tag_67:\n      stop\n        /* \"token/SWORD.sol\":34525:34630  function burnFrom(address account, uint256 amount) external {\r... */\n    tag_16:\n      tag_69\n      0x04\n      dup1\n      calldatasize\n      sub\n      0x40\n      dup2\n      lt\n      iszero\n      tag_70\n      jumpi\n      0x00\n      dup1\n      revert\n    tag_70:\n      dup2\n      add\n      swap1\n      dup1\n      dup1\n      calldataload\n      0xffffffffffffffffffffffffffffffffffffffff\n      and\n      swap1\n      0x20\n      add\n      swap1\n      swap3\n      swap2\n      swap1\n      dup1\n      calldataload\n      swap1\n      0x20\n      add\n      swap1\n      swap3\n      swap2\n      swap1\n      pop\n      pop\n      pop\n      tag_71\n      jump\t// in\n    tag_69:\n      stop\n        /* \"token/SWORD.sol\":18477:18571  function getOwner() external override view returns (address) {\r... */\n    tag_17:\n      tag_72\n      tag_73\n      jump\t// in\n    tag_72:\n      mload(0x40)\n      dup1\n      dup3\n      0xffffffffffffffffffffffffffffffffffffffff\n      and\n      dup2\n      mstore\n      0x20\n      add\n      swap2\n      pop\n      pop\n      mload(0x40)\n      dup1\n      swap2\n      sub\n      swap1\n      return\n        /* \"token/SWORD.sol\":1109:1188  function owner() public view returns (address) {\r... */\n    tag_18:\n      tag_74\n      tag_75\n      jump\t// in\n    tag_74:\n      mload(0x40)\n      dup1\n      dup3\n      0xffffffffffffffffffffffffffffffffffffffff\n      and\n      dup2\n      mstore\n      0x20\n      add\n      swap2\n      pop\n      pop\n      mload(0x40)\n      dup1\n      swap2\n      sub\n      swap1\n      return\n        /* \"token/SWORD.sol\":18950:19046  function symbol() public override view returns (string memory) {\r... */\n    tag_19:\n      tag_76\n      tag_77\n      jump\t// in\n    tag_76:\n      mload(0x40)\n      dup1\n      dup1\n      0x20\n      add\n      dup3\n      dup2\n      sub\n      dup3\n      mstore\n      dup4\n      dup2\n      dup2\n      mload\n      dup2\n      mstore\n      0x20\n      add\n      swap2\n      pop\n      dup1\n      mload\n      swap1\n      0x20\n      add\n      swap1\n      dup1\n      dup4\n      dup4\n      0x00\n    tag_78:\n      dup4\n      dup2\n      lt\n      iszero\n      tag_80\n      jumpi\n      dup1\n      dup3\n      add\n      mload\n      dup2\n      dup5\n      add\n      mstore\n      0x20\n      dup2\n      add\n      swap1\n      pop\n      jump(tag_78)\n    tag_80:\n      pop\n      pop\n      pop\n      pop\n      swap1\n      pop\n      swap1\n      dup2\n      add\n      swap1\n      0x1f\n      and\n      dup1\n      iszero\n      tag_81\n      jumpi\n      dup1\n      dup3\n      sub\n      dup1\n      mload\n      0x01\n      dup4\n      0x20\n      sub\n      0x0100\n      exp\n      sub\n      not\n      and\n      dup2\n      mstore\n      0x20\n      add\n      swap2\n      pop\n    tag_81:\n      pop\n      swap3\n      pop\n      pop\n      pop\n      mload(0x40)\n      dup1\n      swap2\n      sub\n      swap1\n      return\n        /* \"token/SWORD.sol\":34638:34857  function addMinter(address _addMinter) public onlyOwner returns (bool) {\r... */\n    tag_20:\n      tag_82\n      0x04\n      dup1\n      calldatasize\n      sub\n      0x20\n      dup2\n      lt\n      iszero\n      tag_83\n      jumpi\n      0x00\n      dup1\n      revert\n    tag_83:\n      dup2\n      add\n      swap1\n      dup1\n      dup1\n      calldataload\n      0xffffffffffffffffffffffffffffffffffffffff\n      and\n      swap1\n      0x20\n      add\n      swap1\n      swap3\n      swap2\n      swap1\n      pop\n      pop\n      pop\n      tag_84\n      jump\t// in\n    tag_82:\n      mload(0x40)\n      dup1\n      dup3\n      iszero\n      iszero\n      dup2\n      mstore\n      0x20\n      add\n      swap2\n      pop\n      pop\n      mload(0x40)\n      dup1\n      swap2\n      sub\n      swap1\n      return\n        /* \"token/SWORD.sol\":23015:23145  function mint(uint256 amount) public onlyOwner returns (bool) {\r... */\n    tag_21:\n      tag_85\n      0x04\n      dup1\n      calldatasize\n      sub\n      0x20\n      dup2\n      lt\n      iszero\n      tag_86\n      jumpi\n      0x00\n      dup1\n      revert\n    tag_86:\n      dup2\n      add\n      swap1\n      dup1\n      dup1\n      calldataload\n      swap1\n      0x20\n      add\n      swap1\n      swap3\n      swap2\n      swap1\n      pop\n      pop\n      pop\n      tag_87\n      jump\t// in\n    tag_85:\n      mload(0x40)\n      dup1\n      dup3\n      iszero\n      iszero\n      dup2\n      mstore\n      0x20\n      add\n      swap2\n      pop\n      pop\n      mload(0x40)\n      dup1\n      swap2\n      sub\n      swap1\n      return\n        /* \"token/SWORD.sol\":22486:22797  function decreaseAllowance(address spender, uint256 subtractedValue) public returns (bool) {\r... */\n    tag_22:\n      tag_88\n      0x04\n      dup1\n      calldatasize\n      sub\n      0x40\n      dup2\n      lt\n      iszero\n      tag_89\n      jumpi\n      0x00\n      dup1\n      revert\n    tag_89:\n      dup2\n      add\n      swap1\n      dup1\n      dup1\n      calldataload\n      0xffffffffffffffffffffffffffffffffffffffff\n      and\n      swap1\n      0x20\n      add\n      swap1\n      swap3\n      swap2\n      swap1\n      dup1\n      calldataload\n      swap1\n      0x20\n      add\n      swap1\n      swap3\n      swap2\n      swap1\n      pop\n      pop\n      pop\n      tag_90\n      jump\t// in\n    tag_88:\n      mload(0x40)\n      dup1\n      dup3\n      iszero\n      iszero\n      dup2\n      mstore\n      0x20\n      add\n      swap2\n      pop\n      pop\n      mload(0x40)\n      dup1\n      swap2\n      sub\n      swap1\n      return\n        /* \"token/SWORD.sol\":19819:19986  function transfer(address recipient, uint256 amount) public override returns (bool) {\r... */\n    tag_23:\n      tag_91\n      0x04\n      dup1\n      calldatasize\n      sub\n      0x40\n      dup2\n      lt\n      iszero\n      tag_92\n      jumpi\n      0x00\n      dup1\n      revert\n    tag_92:\n      dup2\n      add\n      swap1\n      dup1\n      dup1\n      calldataload\n      0xffffffffffffffffffffffffffffffffffffffff\n      and\n      swap1\n      0x20\n      add\n      swap1\n      swap3\n      swap2\n      swap1\n      dup1\n      calldataload\n      swap1\n      0x20\n      add\n      swap1\n      swap3\n      swap2\n      swap1\n      pop\n      pop\n      pop\n      tag_93\n      jump\t// in\n    tag_91:\n      mload(0x40)\n      dup1\n      dup3\n      iszero\n      iszero\n      dup2\n      mstore\n      0x20\n      add\n      swap2\n      pop\n      pop\n      mload(0x40)\n      dup1\n      swap2\n      sub\n      swap1\n      return\n        /* \"token/SWORD.sol\":35216:35345  function isMinter(address account) public view returns (bool) {\r... */\n    tag_24:\n      tag_94\n      0x04\n      dup1\n      calldatasize\n      sub\n      0x20\n      dup2\n      lt\n      iszero\n      tag_95\n      jumpi\n      0x00\n      dup1\n      revert\n    tag_95:\n      dup2\n      add\n      swap1\n      dup1\n      dup1\n      calldataload\n      0xffffffffffffffffffffffffffffffffffffffff\n      and\n      swap1\n      0x20\n      add\n      swap1\n      swap3\n      swap2\n      swap1\n      pop\n      pop\n      pop\n      tag_96\n      jump\t// in\n    tag_94:\n      mload(0x40)\n      dup1\n      dup3\n      iszero\n      iszero\n      dup2\n      mstore\n      0x20\n      add\n      swap2\n      pop\n      pop\n      mload(0x40)\n      dup1\n      swap2\n      sub\n      swap1\n      return\n        /* \"token/SWORD.sol\":19330:19426  function maxSupply() public override view returns (uint256) {\r... */\n    tag_25:\n      tag_97\n      tag_98\n      jump\t// in\n    tag_97:\n      mload(0x40)\n      dup1\n      dup3\n      dup2\n      mstore\n      0x20\n      add\n      swap2\n      pop\n      pop\n      mload(0x40)\n      dup1\n      swap2\n      sub\n      swap1\n      return\n        /* \"token/SWORD.sol\":20048:20191  function allowance(address owner, address spender) public override view returns (uint256) {\r... */\n    tag_26:\n      tag_99\n      0x04\n      dup1\n      calldatasize\n      sub\n      0x40\n      dup2\n      lt\n      iszero\n      tag_100\n      jumpi\n      0x00\n      dup1\n      revert\n    tag_100:\n      dup2\n      add\n      swap1\n      dup1\n      dup1\n      calldataload\n      0xffffffffffffffffffffffffffffffffffffffff\n      and\n      swap1\n      0x20\n      add\n      swap1\n      swap3\n      swap2\n      swap1\n      dup1\n      calldataload\n      0xffffffffffffffffffffffffffffffffffffffff\n      and\n      swap1\n      0x20\n      add\n      swap1\n      swap3\n      swap2\n      swap1\n      pop\n      pop\n      pop\n      tag_101\n      jump\t// in\n    tag_99:\n      mload(0x40)\n      dup1\n      dup3\n      dup2\n      mstore\n      0x20\n      add\n      swap2\n      pop\n      pop\n      mload(0x40)\n      dup1\n      swap2\n      sub\n      swap1\n      return\n        /* \"token/SWORD.sol\":2046:2155  function transferOwnership(address newOwner) public onlyOwner {\r... */\n    tag_27:\n      tag_102\n      0x04\n      dup1\n      calldatasize\n      sub\n      0x20\n      dup2\n      lt\n      iszero\n      tag_103\n      jumpi\n      0x00\n      dup1\n      revert\n    tag_103:\n      dup2\n      add\n      swap1\n      dup1\n      dup1\n      calldataload\n      0xffffffffffffffffffffffffffffffffffffffff\n      and\n      swap1\n      0x20\n      add\n      swap1\n      swap3\n      swap2\n      swap1\n      pop\n      pop\n      pop\n      tag_104\n      jump\t// in\n    tag_102:\n      stop\n        /* \"token/SWORD.sol\":35095:35208  function getMinterLength() public view returns (uint256) {\r... */\n    tag_33:\n        /* \"token/SWORD.sol\":35143:35150  uint256 */\n      0x00\n        /* \"token/SWORD.sol\":35170:35200  EnumerableSet.length(_minters) */\n      tag_107\n        /* \"token/SWORD.sol\":35191:35199  _minters */\n      0x07\n        /* \"token/SWORD.sol\":35170:35190  EnumerableSet.length */\n      tag_108\n        /* \"token/SWORD.sol\":35170:35200  EnumerableSet.length(_minters) */\n      jump\t// in\n    tag_107:\n        /* \"token/SWORD.sol\":35163:35200  return EnumerableSet.length(_minters) */\n      swap1\n      pop\n        /* \"token/SWORD.sol\":35095:35208  function getMinterLength() public view returns (uint256) {\r... */\n      swap1\n      jump\t// out\n        /* \"token/SWORD.sol\":18634:18726  function name() public override view returns (string memory) {\r... */\n    tag_35:\n        /* \"token/SWORD.sol\":18680:18693  string memory */\n      0x60\n        /* \"token/SWORD.sol\":18713:18718  _name */\n      0x04\n        /* \"token/SWORD.sol\":18706:18718  return _name */\n      dup1\n      sload\n      0x01\n      dup2\n      0x01\n      and\n      iszero\n      0x0100\n      mul\n      sub\n      and\n      0x02\n      swap1\n      div\n      dup1\n      0x1f\n      add\n      0x20\n      dup1\n      swap2\n      div\n      mul\n      0x20\n      add\n      mload(0x40)\n      swap1\n      dup2\n      add\n      0x40\n      mstore\n      dup1\n      swap3\n      swap2\n      swap1\n      dup2\n      dup2\n      mstore\n      0x20\n      add\n      dup3\n      dup1\n      sload\n      0x01\n      dup2\n      0x01\n      and\n      iszero\n      0x0100\n      mul\n      sub\n      and\n      0x02\n      swap1\n      div\n      dup1\n      iszero\n      tag_110\n      jumpi\n      dup1\n      0x1f\n      lt\n      tag_111\n      jumpi\n      0x0100\n      dup1\n      dup4\n      sload\n      div\n      mul\n      dup4\n      mstore\n      swap2\n      0x20\n      add\n      swap2\n      jump(tag_110)\n    tag_111:\n      dup3\n      add\n      swap2\n      swap1\n      0x00\n      mstore\n      keccak256(0x00, 0x20)\n      swap1\n    tag_112:\n      dup2\n      sload\n      dup2\n      mstore\n      swap1\n      0x01\n      add\n      swap1\n      0x20\n      add\n      dup1\n      dup4\n      gt\n      tag_112\n      jumpi\n      dup3\n      swap1\n      sub\n      0x1f\n      and\n      dup3\n      add\n      swap2\n    tag_110:\n      pop\n      pop\n      pop\n      pop\n      pop\n      swap1\n      pop\n        /* \"token/SWORD.sol\":18634:18726  function name() public override view returns (string memory) {\r... */\n      swap1\n      jump\t// out\n        /* \"token/SWORD.sol\":20337:20498  function approve(address spender, uint256 amount) public override returns (bool) {\r... */\n    tag_42:\n        /* \"token/SWORD.sol\":20412:20416  bool */\n      0x00\n        /* \"token/SWORD.sol\":20429:20468  _approve(_msgSender(), spender, amount) */\n      tag_114\n        /* \"token/SWORD.sol\":20438:20450  _msgSender() */\n      tag_115\n        /* \"token/SWORD.sol\":20438:20448  _msgSender */\n      tag_116\n        /* \"token/SWORD.sol\":20438:20450  _msgSender() */\n      jump\t// in\n    tag_115:\n        /* \"token/SWORD.sol\":20452:20459  spender */\n      dup5\n        /* \"token/SWORD.sol\":20461:20467  amount */\n      dup5\n        /* \"token/SWORD.sol\":20429:20437  _approve */\n      tag_117\n        /* \"token/SWORD.sol\":20429:20468  _approve(_msgSender(), spender, amount) */\n      jump\t// in\n    tag_114:\n        /* \"token/SWORD.sol\":20486:20490  true */\n      0x01\n        /* \"token/SWORD.sol\":20479:20490  return true */\n      swap1\n      pop\n        /* \"token/SWORD.sol\":20337:20498  function approve(address spender, uint256 amount) public override returns (bool) {\r... */\n      swap3\n      swap2\n      pop\n      pop\n      jump\t// out\n        /* \"token/SWORD.sol\":19218:19322  function preMineSupply() public override view returns (uint256) {\r... */\n    tag_44:\n        /* \"token/SWORD.sol\":19273:19280  uint256 */\n      0x00\n        /* \"token/SWORD.sol\":17488:17502  5800000 * 1e18 */\n      0x04cc32a1490afbd9000000\n        /* \"token/SWORD.sol\":19293:19314  return _preMineSupply */\n      swap1\n      pop\n        /* \"token/SWORD.sol\":19218:19322  function preMineSupply() public override view returns (uint256) {\r... */\n      swap1\n      jump\t// out\n        /* \"token/SWORD.sol\":19110:19210  function totalSupply() public override view returns (uint256) {\r... */\n    tag_46:\n        /* \"token/SWORD.sol\":19163:19170  uint256 */\n      0x00\n        /* \"token/SWORD.sol\":19190:19202  _totalSupply */\n      sload(0x03)\n        /* \"token/SWORD.sol\":19183:19202  return _totalSupply */\n      swap1\n      pop\n        /* \"token/SWORD.sol\":19110:19210  function totalSupply() public override view returns (uint256) {\r... */\n      swap1\n      jump\t// out\n        /* \"token/SWORD.sol\":34865:35087  function delMinter(address _delMinter) public onlyOwner returns (bool) {\r... */\n    tag_49:\n        /* \"token/SWORD.sol\":34930:34934  bool */\n      0x00\n        /* \"token/SWORD.sol\":1331:1343  _msgSender() */\n      tag_121\n        /* \"token/SWORD.sol\":1331:1341  _msgSender */\n      tag_116\n        /* \"token/SWORD.sol\":1331:1343  _msgSender() */\n      jump\t// in\n    tag_121:\n        /* \"token/SWORD.sol\":1321:1343  _owner == _msgSender() */\n      0xffffffffffffffffffffffffffffffffffffffff\n      and\n        /* \"token/SWORD.sol\":1321:1327  _owner */\n      0x00\n      dup1\n      sload\n      swap1\n      0x0100\n      exp\n      swap1\n      div\n      0xffffffffffffffffffffffffffffffffffffffff\n      and\n        /* \"token/SWORD.sol\":1321:1343  _owner == _msgSender() */\n      0xffffffffffffffffffffffffffffffffffffffff\n      and\n      eq\n        /* \"token/SWORD.sol\":1313:1380  require(_owner == _msgSender(), 'Ownable: caller is not the owner') */\n      tag_122\n      jumpi\n      mload(0x40)\n      0x08c379a000000000000000000000000000000000000000000000000000000000\n      dup2\n      mstore\n      0x04\n      add\n      dup1\n      dup1\n      0x20\n      add\n      dup3\n      dup2\n      sub\n      dup3\n      mstore\n      0x20\n      dup2\n      mstore\n      0x20\n      add\n      dup1\n      0x4f776e61626c653a2063616c6c6572206973206e6f7420746865206f776e6572\n      dup2\n      mstore\n      pop\n      0x20\n      add\n      swap2\n      pop\n      pop\n      mload(0x40)\n      dup1\n      swap2\n      sub\n      swap1\n      revert\n    tag_122:\n        /* \"token/SWORD.sol\":34977:34978  0 */\n      0x00\n        /* \"token/SWORD.sol\":34955:34979  _delMinter != address(0) */\n      0xffffffffffffffffffffffffffffffffffffffff\n      and\n        /* \"token/SWORD.sol\":34955:34965  _delMinter */\n      dup3\n        /* \"token/SWORD.sol\":34955:34979  _delMinter != address(0) */\n      0xffffffffffffffffffffffffffffffffffffffff\n      and\n      eq\n      iszero\n        /* \"token/SWORD.sol\":34947:35019  require(_delMinter != address(0), \"MMF: _delMinter is the zero address\") */\n      tag_124\n      jumpi\n      mload(0x40)\n      0x08c379a000000000000000000000000000000000000000000000000000000000\n      dup2\n      mstore\n      0x04\n      add\n      dup1\n      dup1\n      0x20\n      add\n      dup3\n      dup2\n      sub\n      dup3\n      mstore\n      0x23\n      dup2\n      mstore\n      0x20\n      add\n      dup1\n      data_53713859748343adba81ef8c97f575e984f70e7b69ff4d2d2ef1c3009cadc822\n      0x23\n      swap2\n      codecopy\n      0x40\n      add\n      swap2\n      pop\n      pop\n      mload(0x40)\n      dup1\n      swap2\n      sub\n      swap1\n      revert\n    tag_124:\n        /* \"token/SWORD.sol\":35037:35079  EnumerableSet.remove(_minters, _delMinter) */\n      tag_125\n        /* \"token/SWORD.sol\":35058:35066  _minters */\n      0x07\n        /* \"token/SWORD.sol\":35068:35078  _delMinter */\n      dup4\n        /* \"token/SWORD.sol\":35037:35057  EnumerableSet.remove */\n      tag_126\n        /* \"token/SWORD.sol\":35037:35079  EnumerableSet.remove(_minters, _delMinter) */\n      jump\t// in\n    tag_125:\n        /* \"token/SWORD.sol\":35030:35079  return EnumerableSet.remove(_minters, _delMinter) */\n      swap1\n      pop\n        /* \"token/SWORD.sol\":34865:35087  function delMinter(address _delMinter) public onlyOwner returns (bool) {\r... */\n      swap2\n      swap1\n      pop\n      jump\t// out\n        /* \"token/SWORD.sol\":20969:21366  function transferFrom(\r... */\n    tag_52:\n        /* \"token/SWORD.sol\":21101:21105  bool */\n      0x00\n        /* \"token/SWORD.sol\":21118:21154  _transfer(sender, recipient, amount) */\n      tag_128\n        /* \"token/SWORD.sol\":21128:21134  sender */\n      dup5\n        /* \"token/SWORD.sol\":21136:21145  recipient */\n      dup5\n        /* \"token/SWORD.sol\":21147:21153  amount */\n      dup5\n        /* \"token/SWORD.sol\":21118:21127  _transfer */\n      tag_129\n        /* \"token/SWORD.sol\":21118:21154  _transfer(sender, recipient, amount) */\n      jump\t// in\n    tag_128:\n        /* \"token/SWORD.sol\":21165:21336  _approve(\r... */\n      tag_130\n        /* \"token/SWORD.sol\":21188:21194  sender */\n      dup5\n        /* \"token/SWORD.sol\":21209:21221  _msgSender() */\n      tag_131\n        /* \"token/SWORD.sol\":21209:21219  _msgSender */\n      tag_116\n        /* \"token/SWORD.sol\":21209:21221  _msgSender() */\n      jump\t// in\n    tag_131:\n        /* \"token/SWORD.sol\":21236:21325  _allowances[sender][_msgSender()].sub(amount, 'ERC20: transfer amount exceeds allowance') */\n      tag_132\n        /* \"token/SWORD.sol\":21274:21280  amount */\n      dup6\n        /* \"token/SWORD.sol\":21236:21325  _allowances[sender][_msgSender()].sub(amount, 'ERC20: transfer amount exceeds allowance') */\n      mload(0x40)\n      dup1\n      0x60\n      add\n      0x40\n      mstore\n      dup1\n      0x28\n      dup2\n      mstore\n      0x20\n      add\n      data_974d1b4421da69cc60b481194f0dad36a5bb4e23da810da7a7fb30cdba178330\n      0x28\n      swap2\n      codecopy\n        /* \"token/SWORD.sol\":21236:21247  _allowances */\n      0x02\n        /* \"token/SWORD.sol\":21236:21255  _allowances[sender] */\n      0x00\n        /* \"token/SWORD.sol\":21248:21254  sender */\n      dup12\n        /* \"token/SWORD.sol\":21236:21255  _allowances[sender] */\n      0xffffffffffffffffffffffffffffffffffffffff\n      and\n      0xffffffffffffffffffffffffffffffffffffffff\n      and\n      dup2\n      mstore\n      0x20\n      add\n      swap1\n      dup2\n      mstore\n      0x20\n      add\n      0x00\n      keccak256\n        /* \"token/SWORD.sol\":21236:21269  _allowances[sender][_msgSender()] */\n      0x00\n        /* \"token/SWORD.sol\":21256:21268  _msgSender() */\n      tag_133\n        /* \"token/SWORD.sol\":21256:21266  _msgSender */\n      tag_116\n        /* \"token/SWORD.sol\":21256:21268  _msgSender() */\n      jump\t// in\n    tag_133:\n        /* \"token/SWORD.sol\":21236:21269  _allowances[sender][_msgSender()] */\n      0xffffffffffffffffffffffffffffffffffffffff\n      and\n      0xffffffffffffffffffffffffffffffffffffffff\n      and\n      dup2\n      mstore\n      0x20\n      add\n      swap1\n      dup2\n      mstore\n      0x20\n      add\n      0x00\n      keccak256\n      sload\n        /* \"token/SWORD.sol\":21236:21273  _allowances[sender][_msgSender()].sub */\n      tag_134\n      swap1\n        /* \"token/SWORD.sol\":21236:21325  _allowances[sender][_msgSender()].sub(amount, 'ERC20: transfer amount exceeds allowance') */\n      swap3\n      swap2\n      swap1\n      0xffffffff\n      and\n      jump\t// in\n    tag_132:\n        /* \"token/SWORD.sol\":21165:21173  _approve */\n      tag_117\n        /* \"token/SWORD.sol\":21165:21336  _approve(\r... */\n      jump\t// in\n    tag_130:\n        /* \"token/SWORD.sol\":21354:21358  true */\n      0x01\n        /* \"token/SWORD.sol\":21347:21358  return true */\n      swap1\n      pop\n        /* \"token/SWORD.sol\":20969:21366  function transferFrom(\r... */\n      swap4\n      swap3\n      pop\n      pop\n      pop\n      jump\t// out\n        /* \"token/SWORD.sol\":18793:18885  function decimals() public override view returns (uint8) {\r... */\n    tag_54:\n        /* \"token/SWORD.sol\":18843:18848  uint8 */\n      0x00\n        /* \"token/SWORD.sol\":18868:18877  _decimals */\n      0x06\n      0x00\n      swap1\n      sload\n      swap1\n      0x0100\n      exp\n      swap1\n      div\n      0xff\n      and\n        /* \"token/SWORD.sol\":18861:18877  return _decimals */\n      swap1\n      pop\n        /* \"token/SWORD.sol\":18793:18885  function decimals() public override view returns (uint8) {\r... */\n      swap1\n      jump\t// out\n        /* \"token/SWORD.sol\":21774:21984  function increaseAllowance(address spender, uint256 addedValue) public returns (bool) {\r... */\n    tag_57:\n        /* \"token/SWORD.sol\":21854:21858  bool */\n      0x00\n        /* \"token/SWORD.sol\":21871:21954  _approve(_msgSender(), spender, _allowances[_msgSender()][spender].add(addedValue)) */\n      tag_137\n        /* \"token/SWORD.sol\":21880:21892  _msgSender() */\n      tag_138\n        /* \"token/SWORD.sol\":21880:21890  _msgSender */\n      tag_116\n        /* \"token/SWORD.sol\":21880:21892  _msgSender() */\n      jump\t// in\n    tag_138:\n        /* \"token/SWORD.sol\":21894:21901  spender */\n      dup5\n        /* \"token/SWORD.sol\":21903:21953  _allowances[_msgSender()][spender].add(addedValue) */\n      tag_139\n        /* \"token/SWORD.sol\":21942:21952  addedValue */\n      dup6\n        /* \"token/SWORD.sol\":21903:21914  _allowances */\n      0x02\n        /* \"token/SWORD.sol\":21903:21928  _allowances[_msgSender()] */\n      0x00\n        /* \"token/SWORD.sol\":21915:21927  _msgSender() */\n      tag_140\n        /* \"token/SWORD.sol\":21915:21925  _msgSender */\n      tag_116\n        /* \"token/SWORD.sol\":21915:21927  _msgSender() */\n      jump\t// in\n    tag_140:\n        /* \"token/SWORD.sol\":21903:21928  _allowances[_msgSender()] */\n      0xffffffffffffffffffffffffffffffffffffffff\n      and\n      0xffffffffffffffffffffffffffffffffffffffff\n      and\n      dup2\n      mstore\n      0x20\n      add\n      swap1\n      dup2\n      mstore\n      0x20\n      add\n      0x00\n      keccak256\n        /* \"token/SWORD.sol\":21903:21937  _allowances[_msgSender()][spender] */\n      0x00\n        /* \"token/SWORD.sol\":21929:21936  spender */\n      dup10\n        /* \"token/SWORD.sol\":21903:21937  _allowances[_msgSender()][spender] */\n      0xffffffffffffffffffffffffffffffffffffffff\n      and\n      0xffffffffffffffffffffffffffffffffffffffff\n      and\n      dup2\n      mstore\n      0x20\n      add\n      swap1\n      dup2\n      mstore\n      0x20\n      add\n      0x00\n      keccak256\n      sload\n        /* \"token/SWORD.sol\":21903:21941  _allowances[_msgSender()][spender].add */\n      tag_105\n      swap1\n        /* \"token/SWORD.sol\":21903:21953  _allowances[_msgSender()][spender].add(addedValue) */\n      swap2\n      swap1\n      0xffffffff\n      and\n      jump\t// in\n    tag_139:\n        /* \"token/SWORD.sol\":21871:21879  _approve */\n      tag_117\n        /* \"token/SWORD.sol\":21871:21954  _approve(_msgSender(), spender, _allowances[_msgSender()][spender].add(addedValue)) */\n      jump\t// in\n    tag_137:\n        /* \"token/SWORD.sol\":21972:21976  true */\n      0x01\n        /* \"token/SWORD.sol\":21965:21976  return true */\n      swap1\n      pop\n        /* \"token/SWORD.sol\":21774:21984  function increaseAllowance(address spender, uint256 addedValue) public returns (bool) {\r... */\n      swap3\n      swap2\n      pop\n      pop\n      jump\t// out\n        /* \"token/SWORD.sol\":34377:34513  function mint(address _to, uint256 _amount) public onlyMinter returns(bool) {\r... */\n    tag_60:\n        /* \"token/SWORD.sol\":34447:34451  bool */\n      0x00\n        /* \"token/SWORD.sol\":35650:35670  isMinter(msg.sender) */\n      tag_142\n        /* \"token/SWORD.sol\":35659:35669  msg.sender */\n      caller\n        /* \"token/SWORD.sol\":35650:35658  isMinter */\n      tag_96\n        /* \"token/SWORD.sol\":35650:35670  isMinter(msg.sender) */\n      jump\t// in\n    tag_142:\n        /* \"token/SWORD.sol\":35642:35699  require(isMinter(msg.sender), \"caller is not the minter\") */\n      tag_143\n      jumpi\n      mload(0x40)\n      0x08c379a000000000000000000000000000000000000000000000000000000000\n      dup2\n      mstore\n      0x04\n      add\n      dup1\n      dup1\n      0x20\n      add\n      dup3\n      dup2\n      sub\n      dup3\n      mstore\n      0x18\n      dup2\n      mstore\n      0x20\n      add\n      dup1\n      0x63616c6c6572206973206e6f7420746865206d696e7465720000000000000000\n      dup2\n      mstore\n      pop\n      0x20\n      add\n      swap2\n      pop\n      pop\n      mload(0x40)\n      dup1\n      swap2\n      sub\n      swap1\n      revert\n    tag_143:\n        /* \"token/SWORD.sol\":34464:34483  _mint(_to, _amount) */\n      tag_145\n        /* \"token/SWORD.sol\":34470:34473  _to */\n      dup4\n        /* \"token/SWORD.sol\":34475:34482  _amount */\n      dup4\n        /* \"token/SWORD.sol\":34464:34469  _mint */\n      tag_146\n        /* \"token/SWORD.sol\":34464:34483  _mint(_to, _amount) */\n      jump\t// in\n    tag_145:\n      pop\n        /* \"token/SWORD.sol\":34501:34505  true */\n      0x01\n        /* \"token/SWORD.sol\":34494:34505  return true */\n      swap1\n      pop\n        /* \"token/SWORD.sol\":34377:34513  function mint(address _to, uint256 _amount) public onlyMinter returns(bool) {\r... */\n      swap3\n      swap2\n      pop\n      pop\n      jump\t// out\n        /* \"token/SWORD.sol\":35353:35566  function getMinter(uint256 _index) public view onlyOwner returns (address){\r... */\n    tag_63:\n        /* \"token/SWORD.sol\":35419:35426  address */\n      0x00\n        /* \"token/SWORD.sol\":1331:1343  _msgSender() */\n      tag_148\n        /* \"token/SWORD.sol\":1331:1341  _msgSender */\n      tag_116\n        /* \"token/SWORD.sol\":1331:1343  _msgSender() */\n      jump\t// in\n    tag_148:\n        /* \"token/SWORD.sol\":1321:1343  _owner == _msgSender() */\n      0xffffffffffffffffffffffffffffffffffffffff\n      and\n        /* \"token/SWORD.sol\":1321:1327  _owner */\n      0x00\n      dup1\n      sload\n      swap1\n      0x0100\n      exp\n      swap1\n      div\n      0xffffffffffffffffffffffffffffffffffffffff\n      and\n        /* \"token/SWORD.sol\":1321:1343  _owner == _msgSender() */\n      0xffffffffffffffffffffffffffffffffffffffff\n      and\n      eq\n        /* \"token/SWORD.sol\":1313:1380  require(_owner == _msgSender(), 'Ownable: caller is not the owner') */\n      tag_149\n      jumpi\n      mload(0x40)\n      0x08c379a000000000000000000000000000000000000000000000000000000000\n      dup2\n      mstore\n      0x04\n      add\n      dup1\n      dup1\n      0x20\n      add\n      dup3\n      dup2\n      sub\n      dup3\n      mstore\n      0x20\n      dup2\n      mstore\n      0x20\n      add\n      dup1\n      0x4f776e61626c653a2063616c6c6572206973206e6f7420746865206f776e6572\n      dup2\n      mstore\n      pop\n      0x20\n      add\n      swap2\n      pop\n      pop\n      mload(0x40)\n      dup1\n      swap2\n      sub\n      swap1\n      revert\n    tag_149:\n        /* \"token/SWORD.sol\":35476:35477  1 */\n      0x01\n        /* \"token/SWORD.sol\":35456:35473  getMinterLength() */\n      tag_151\n        /* \"token/SWORD.sol\":35456:35471  getMinterLength */\n      tag_33\n        /* \"token/SWORD.sol\":35456:35473  getMinterLength() */\n      jump\t// in\n    tag_151:\n        /* \"token/SWORD.sol\":35456:35477  getMinterLength() - 1 */\n      sub\n        /* \"token/SWORD.sol\":35446:35452  _index */\n      dup3\n        /* \"token/SWORD.sol\":35446:35477  _index <= getMinterLength() - 1 */\n      gt\n      iszero\n        /* \"token/SWORD.sol\":35438:35506  require(_index <= getMinterLength() - 1, \"MMF: index out of bounds\") */\n      tag_152\n      jumpi\n      mload(0x40)\n      0x08c379a000000000000000000000000000000000000000000000000000000000\n      dup2\n      mstore\n      0x04\n      add\n      dup1\n      dup1\n      0x20\n      add\n      dup3\n      dup2\n      sub\n      dup3\n      mstore\n      0x18\n      dup2\n      mstore\n      0x20\n      add\n      dup1\n      0x4d4d463a20696e646578206f7574206f6620626f756e64730000000000000000\n      dup2\n      mstore\n      pop\n      0x20\n      add\n      swap2\n      pop\n      pop\n      mload(0x40)\n      dup1\n      swap2\n      sub\n      swap1\n      revert\n    tag_152:\n        /* \"token/SWORD.sol\":35524:35558  EnumerableSet.at(_minters, _index) */\n      tag_153\n        /* \"token/SWORD.sol\":35541:35549  _minters */\n      0x07\n        /* \"token/SWORD.sol\":35551:35557  _index */\n      dup4\n        /* \"token/SWORD.sol\":35524:35540  EnumerableSet.at */\n      tag_154\n        /* \"token/SWORD.sol\":35524:35558  EnumerableSet.at(_minters, _index) */\n      jump\t// in\n    tag_153:\n        /* \"token/SWORD.sol\":35517:35558  return EnumerableSet.at(_minters, _index) */\n      swap1\n      pop\n        /* \"token/SWORD.sol\":35353:35566  function getMinter(uint256 _index) public view onlyOwner returns (address){\r... */\n      swap2\n      swap1\n      pop\n      jump\t// out\n        /* \"token/SWORD.sol\":19488:19607  function balanceOf(address account) public override view returns (uint256) {\r... */\n    tag_66:\n        /* \"token/SWORD.sol\":19554:19561  uint256 */\n      0x00\n        /* \"token/SWORD.sol\":19581:19590  _balances */\n      0x01\n        /* \"token/SWORD.sol\":19581:19599  _balances[account] */\n      0x00\n        /* \"token/SWORD.sol\":19591:19598  account */\n      dup4\n        /* \"token/SWORD.sol\":19581:19599  _balances[account] */\n      0xffffffffffffffffffffffffffffffffffffffff\n      and\n      0xffffffffffffffffffffffffffffffffffffffff\n      and\n      dup2\n      mstore\n      0x20\n      add\n      swap1\n      dup2\n      mstore\n      0x20\n      add\n      0x00\n      keccak256\n      sload\n        /* \"token/SWORD.sol\":19574:19599  return _balances[account] */\n      swap1\n      pop\n        /* \"token/SWORD.sol\":19488:19607  function balanceOf(address account) public override view returns (uint256) {\r... */\n      swap2\n      swap1\n      pop\n      jump\t// out\n        /* \"token/SWORD.sol\":1751:1891  function renounceOwnership() public onlyOwner {\r... */\n    tag_68:\n        /* \"token/SWORD.sol\":1331:1343  _msgSender() */\n      tag_157\n        /* \"token/SWORD.sol\":1331:1341  _msgSender */\n      tag_116\n        /* \"token/SWORD.sol\":1331:1343  _msgSender() */\n      jump\t// in\n    tag_157:\n        /* \"token/SWORD.sol\":1321:1343  _owner == _msgSender() */\n      0xffffffffffffffffffffffffffffffffffffffff\n      and\n        /* \"token/SWORD.sol\":1321:1327  _owner */\n      0x00\n      dup1\n      sload\n      swap1\n      0x0100\n      exp\n      swap1\n      div\n      0xffffffffffffffffffffffffffffffffffffffff\n      and\n        /* \"token/SWORD.sol\":1321:1343  _owner == _msgSender() */\n      0xffffffffffffffffffffffffffffffffffffffff\n      and\n      eq\n        /* \"token/SWORD.sol\":1313:1380  require(_owner == _msgSender(), 'Ownable: caller is not the owner') */\n      tag_158\n      jumpi\n      mload(0x40)\n      0x08c379a000000000000000000000000000000000000000000000000000000000\n      dup2\n      mstore\n      0x04\n      add\n      dup1\n      dup1\n      0x20\n      add\n      dup3\n      dup2\n      sub\n      dup3\n      mstore\n      0x20\n      dup2\n      mstore\n      0x20\n      add\n      dup1\n      0x4f776e61626c653a2063616c6c6572206973206e6f7420746865206f776e6572\n      dup2\n      mstore\n      pop\n      0x20\n      add\n      swap2\n      pop\n      pop\n      mload(0x40)\n      dup1\n      swap2\n      sub\n      swap1\n      revert\n    tag_158:\n        /* \"token/SWORD.sol\":1850:1851  0 */\n      0x00\n        /* \"token/SWORD.sol\":1813:1853  OwnershipTransferred(_owner, address(0)) */\n      0xffffffffffffffffffffffffffffffffffffffff\n      and\n        /* \"token/SWORD.sol\":1834:1840  _owner */\n      0x00\n      dup1\n      sload\n      swap1\n      0x0100\n      exp\n      swap1\n      div\n      0xffffffffffffffffffffffffffffffffffffffff\n      and\n        /* \"token/SWORD.sol\":1813:1853  OwnershipTransferred(_owner, address(0)) */\n      0xffffffffffffffffffffffffffffffffffffffff\n      and\n      0x8be0079c531659141344cd1fd0a4f28419497f9722a3daafe3b4186f6b6457e0\n      mload(0x40)\n      mload(0x40)\n      dup1\n      swap2\n      sub\n      swap1\n      log3\n        /* \"token/SWORD.sol\":1881:1882  0 */\n      0x00\n        /* \"token/SWORD.sol\":1864:1870  _owner */\n      dup1\n      0x00\n        /* \"token/SWORD.sol\":1864:1883  _owner = address(0) */\n      0x0100\n      exp\n      dup2\n      sload\n      dup2\n      0xffffffffffffffffffffffffffffffffffffffff\n      mul\n      not\n      and\n      swap1\n      dup4\n      0xffffffffffffffffffffffffffffffffffffffff\n      and\n      mul\n      or\n      swap1\n      sstore\n      pop\n        /* \"token/SWORD.sol\":1751:1891  function renounceOwnership() public onlyOwner {\r... */\n      jump\t// out\n        /* \"token/SWORD.sol\":34525:34630  function burnFrom(address account, uint256 amount) external {\r... */\n    tag_71:\n        /* \"token/SWORD.sol\":34596:34622  _burnFrom(account, amount) */\n      tag_161\n        /* \"token/SWORD.sol\":34606:34613  account */\n      dup3\n        /* \"token/SWORD.sol\":34615:34621  amount */\n      dup3\n        /* \"token/SWORD.sol\":34596:34605  _burnFrom */\n      tag_162\n        /* \"token/SWORD.sol\":34596:34622  _burnFrom(account, amount) */\n      jump\t// in\n    tag_161:\n        /* \"token/SWORD.sol\":34525:34630  function burnFrom(address account, uint256 amount) external {\r... */\n      pop\n      pop\n      jump\t// out\n        /* \"token/SWORD.sol\":18477:18571  function getOwner() external override view returns (address) {\r... */\n    tag_73:\n        /* \"token/SWORD.sol\":18529:18536  address */\n      0x00\n        /* \"token/SWORD.sol\":18556:18563  owner() */\n      tag_164\n        /* \"token/SWORD.sol\":18556:18561  owner */\n      tag_75\n        /* \"token/SWORD.sol\":18556:18563  owner() */\n      jump\t// in\n    tag_164:\n        /* \"token/SWORD.sol\":18549:18563  return owner() */\n      swap1\n      pop\n        /* \"token/SWORD.sol\":18477:18571  function getOwner() external override view returns (address) {\r... */\n      swap1\n      jump\t// out\n        /* \"token/SWORD.sol\":1109:1188  function owner() public view returns (address) {\r... */\n    tag_75:\n        /* \"token/SWORD.sol\":1147:1154  address */\n      0x00\n        /* \"token/SWORD.sol\":1174:1180  _owner */\n      dup1\n      0x00\n      swap1\n      sload\n      swap1\n      0x0100\n      exp\n      swap1\n      div\n      0xffffffffffffffffffffffffffffffffffffffff\n      and\n        /* \"token/SWORD.sol\":1167:1180  return _owner */\n      swap1\n      pop\n        /* \"token/SWORD.sol\":1109:1188  function owner() public view returns (address) {\r... */\n      swap1\n      jump\t// out\n        /* \"token/SWORD.sol\":18950:19046  function symbol() public override view returns (string memory) {\r... */\n    tag_77:\n        /* \"token/SWORD.sol\":18998:19011  string memory */\n      0x60\n        /* \"token/SWORD.sol\":19031:19038  _symbol */\n      0x05\n        /* \"token/SWORD.sol\":19024:19038  return _symbol */\n      dup1\n      sload\n      0x01\n      dup2\n      0x01\n      and\n      iszero\n      0x0100\n      mul\n      sub\n      and\n      0x02\n      swap1\n      div\n      dup1\n      0x1f\n      add\n      0x20\n      dup1\n      swap2\n      div\n      mul\n      0x20\n      add\n      mload(0x40)\n      swap1\n      dup2\n      add\n      0x40\n      mstore\n      dup1\n      swap3\n      swap2\n      swap1\n      dup2\n      dup2\n      mstore\n      0x20\n      add\n      dup3\n      dup1\n      sload\n      0x01\n      dup2\n      0x01\n      and\n      iszero\n      0x0100\n      mul\n      sub\n      and\n      0x02\n      swap1\n      div\n      dup1\n      iszero\n      tag_167\n      jumpi\n      dup1\n      0x1f\n      lt\n      tag_168\n      jumpi\n      0x0100\n      dup1\n      dup4\n      sload\n      div\n      mul\n      dup4\n      mstore\n      swap2\n      0x20\n      add\n      swap2\n      jump(tag_167)\n    tag_168:\n      dup3\n      add\n      swap2\n      swap1\n      0x00\n      mstore\n      keccak256(0x00, 0x20)\n      swap1\n    tag_169:\n      dup2\n      sload\n      dup2\n      mstore\n      swap1\n      0x01\n      add\n      swap1\n      0x20\n      add\n      dup1\n      dup4\n      gt\n      tag_169\n      jumpi\n      dup3\n      swap1\n      sub\n      0x1f\n      and\n      dup3\n      add\n      swap2\n    tag_167:\n      pop\n      pop\n      pop\n      pop\n      pop\n      swap1\n      pop\n        /* \"token/SWORD.sol\":18950:19046  function symbol() public override view returns (string memory) {\r... */\n      swap1\n      jump\t// out\n        /* \"token/SWORD.sol\":34638:34857  function addMinter(address _addMinter) public onlyOwner returns (bool) {\r... */\n    tag_84:\n        /* \"token/SWORD.sol\":34703:34707  bool */\n      0x00\n        /* \"token/SWORD.sol\":1331:1343  _msgSender() */\n      tag_171\n        /* \"token/SWORD.sol\":1331:1341  _msgSender */\n      tag_116\n        /* \"token/SWORD.sol\":1331:1343  _msgSender() */\n      jump\t// in\n    tag_171:\n        /* \"token/SWORD.sol\":1321:1343  _owner == _msgSender() */\n      0xffffffffffffffffffffffffffffffffffffffff\n      and\n        /* \"token/SWORD.sol\":1321:1327  _owner */\n      0x00\n      dup1\n      sload\n      swap1\n      0x0100\n      exp\n      swap1\n      div\n      0xffffffffffffffffffffffffffffffffffffffff\n      and\n        /* \"token/SWORD.sol\":1321:1343  _owner == _msgSender() */\n      0xffffffffffffffffffffffffffffffffffffffff\n      and\n      eq\n        /* \"token/SWORD.sol\":1313:1380  require(_owner == _msgSender(), 'Ownable: caller is not the owner') */\n      tag_172\n      jumpi\n      mload(0x40)\n      0x08c379a000000000000000000000000000000000000000000000000000000000\n      dup2\n      mstore\n      0x04\n      add\n      dup1\n      dup1\n      0x20\n      add\n      dup3\n      dup2\n      sub\n      dup3\n      mstore\n      0x20\n      dup2\n      mstore\n      0x20\n      add\n      dup1\n      0x4f776e61626c653a2063616c6c6572206973206e6f7420746865206f776e6572\n      dup2\n      mstore\n      pop\n      0x20\n      add\n      swap2\n      pop\n      pop\n      mload(0x40)\n      dup1\n      swap2\n      sub\n      swap1\n      revert\n    tag_172:\n        /* \"token/SWORD.sol\":34750:34751  0 */\n      0x00\n        /* \"token/SWORD.sol\":34728:34752  _addMinter != address(0) */\n      0xffffffffffffffffffffffffffffffffffffffff\n      and\n        /* \"token/SWORD.sol\":34728:34738  _addMinter */\n      dup3\n        /* \"token/SWORD.sol\":34728:34752  _addMinter != address(0) */\n      0xffffffffffffffffffffffffffffffffffffffff\n      and\n      eq\n      iszero\n        /* \"token/SWORD.sol\":34720:34792  require(_addMinter != address(0), \"MMF: _addMinter is the zero address\") */\n      tag_174\n      jumpi\n      mload(0x40)\n      0x08c379a000000000000000000000000000000000000000000000000000000000\n      dup2\n      mstore\n      0x04\n      add\n      dup1\n      dup1\n      0x20\n      add\n      dup3\n      dup2\n      sub\n      dup3\n      mstore\n      0x23\n      dup2\n      mstore\n      0x20\n      add\n      dup1\n      data_c14406b32059cada6d28546e93015248f7ef04311a1609f8172f4714d01968d0\n      0x23\n      swap2\n      codecopy\n      0x40\n      add\n      swap2\n      pop\n      pop\n      mload(0x40)\n      dup1\n      swap2\n      sub\n      swap1\n      revert\n    tag_174:\n        /* \"token/SWORD.sol\":34810:34849  EnumerableSet.add(_minters, _addMinter) */\n      tag_175\n        /* \"token/SWORD.sol\":34828:34836  _minters */\n      0x07\n        /* \"token/SWORD.sol\":34838:34848  _addMinter */\n      dup4\n        /* \"token/SWORD.sol\":34810:34827  EnumerableSet.add */\n      tag_176\n        /* \"token/SWORD.sol\":34810:34849  EnumerableSet.add(_minters, _addMinter) */\n      jump\t// in\n    tag_175:\n        /* \"token/SWORD.sol\":34803:34849  return EnumerableSet.add(_minters, _addMinter) */\n      swap1\n      pop\n        /* \"token/SWORD.sol\":34638:34857  function addMinter(address _addMinter) public onlyOwner returns (bool) {\r... */\n      swap2\n      swap1\n      pop\n      jump\t// out\n        /* \"token/SWORD.sol\":23015:23145  function mint(uint256 amount) public onlyOwner returns (bool) {\r... */\n    tag_87:\n        /* \"token/SWORD.sol\":23071:23075  bool */\n      0x00\n        /* \"token/SWORD.sol\":1331:1343  _msgSender() */\n      tag_178\n        /* \"token/SWORD.sol\":1331:1341  _msgSender */\n      tag_116\n        /* \"token/SWORD.sol\":1331:1343  _msgSender() */\n      jump\t// in\n    tag_178:\n        /* \"token/SWORD.sol\":1321:1343  _owner == _msgSender() */\n      0xffffffffffffffffffffffffffffffffffffffff\n      and\n        /* \"token/SWORD.sol\":1321:1327  _owner */\n      0x00\n      dup1\n      sload\n      swap1\n      0x0100\n      exp\n      swap1\n      div\n      0xffffffffffffffffffffffffffffffffffffffff\n      and\n        /* \"token/SWORD.sol\":1321:1343  _owner == _msgSender() */\n      0xffffffffffffffffffffffffffffffffffffffff\n      and\n      eq\n        /* \"token/SWORD.sol\":1313:1380  require(_owner == _msgSender(), 'Ownable: caller is not the owner') */\n      tag_179\n      jumpi\n      mload(0x40)\n      0x08c379a000000000000000000000000000000000000000000000000000000000\n      dup2\n      mstore\n      0x04\n      add\n      dup1\n      dup1\n      0x20\n      add\n      dup3\n      dup2\n      sub\n      dup3\n      mstore\n      0x20\n      dup2\n      mstore\n      0x20\n      add\n      dup1\n      0x4f776e61626c653a2063616c6c6572206973206e6f7420746865206f776e6572\n      dup2\n      mstore\n      pop\n      0x20\n      add\n      swap2\n      pop\n      pop\n      mload(0x40)\n      dup1\n      swap2\n      sub\n      swap1\n      revert\n    tag_179:\n        /* \"token/SWORD.sol\":23088:23115  _mint(_msgSender(), amount) */\n      tag_181\n        /* \"token/SWORD.sol\":23094:23106  _msgSender() */\n      tag_182\n        /* \"token/SWORD.sol\":23094:23104  _msgSender */\n      tag_116\n        /* \"token/SWORD.sol\":23094:23106  _msgSender() */\n      jump\t// in\n    tag_182:\n        /* \"token/SWORD.sol\":23108:23114  amount */\n      dup4\n        /* \"token/SWORD.sol\":23088:23093  _mint */\n      tag_146\n        /* \"token/SWORD.sol\":23088:23115  _mint(_msgSender(), amount) */\n      jump\t// in\n    tag_181:\n      pop\n        /* \"token/SWORD.sol\":23133:23137  true */\n      0x01\n        /* \"token/SWORD.sol\":23126:23137  return true */\n      swap1\n      pop\n        /* \"token/SWORD.sol\":23015:23145  function mint(uint256 amount) public onlyOwner returns (bool) {\r... */\n      swap2\n      swap1\n      pop\n      jump\t// out\n        /* \"token/SWORD.sol\":22486:22797  function decreaseAllowance(address spender, uint256 subtractedValue) public returns (bool) {\r... */\n    tag_90:\n        /* \"token/SWORD.sol\":22571:22575  bool */\n      0x00\n        /* \"token/SWORD.sol\":22588:22767  _approve(\r... */\n      tag_184\n        /* \"token/SWORD.sol\":22611:22623  _msgSender() */\n      tag_185\n        /* \"token/SWORD.sol\":22611:22621  _msgSender */\n      tag_116\n        /* \"token/SWORD.sol\":22611:22623  _msgSender() */\n      jump\t// in\n    tag_185:\n        /* \"token/SWORD.sol\":22638:22645  spender */\n      dup5\n        /* \"token/SWORD.sol\":22660:22756  _allowances[_msgSender()][spender].sub(subtractedValue, 'ERC20: decreased allowance below zero') */\n      tag_186\n        /* \"token/SWORD.sol\":22699:22714  subtractedValue */\n      dup6\n        /* \"token/SWORD.sol\":22660:22756  _allowances[_msgSender()][spender].sub(subtractedValue, 'ERC20: decreased allowance below zero') */\n      mload(0x40)\n      dup1\n      0x60\n      add\n      0x40\n      mstore\n      dup1\n      0x25\n      dup2\n      mstore\n      0x20\n      add\n      data_f8b476f7d28209d77d4a4ac1fe36b9f8259aa1bb6bddfa6e89de7e51615cf8a8\n      0x25\n      swap2\n      codecopy\n        /* \"token/SWORD.sol\":22660:22671  _allowances */\n      0x02\n        /* \"token/SWORD.sol\":22660:22685  _allowances[_msgSender()] */\n      0x00\n        /* \"token/SWORD.sol\":22672:22684  _msgSender() */\n      tag_187\n        /* \"token/SWORD.sol\":22672:22682  _msgSender */\n      tag_116\n        /* \"token/SWORD.sol\":22672:22684  _msgSender() */\n      jump\t// in\n    tag_187:\n        /* \"token/SWORD.sol\":22660:22685  _allowances[_msgSender()] */\n      0xffffffffffffffffffffffffffffffffffffffff\n      and\n      0xffffffffffffffffffffffffffffffffffffffff\n      and\n      dup2\n      mstore\n      0x20\n      add\n      swap1\n      dup2\n      mstore\n      0x20\n      add\n      0x00\n      keccak256\n        /* \"token/SWORD.sol\":22660:22694  _allowances[_msgSender()][spender] */\n      0x00\n        /* \"token/SWORD.sol\":22686:22693  spender */\n      dup11\n        /* \"token/SWORD.sol\":22660:22694  _allowances[_msgSender()][spender] */\n      0xffffffffffffffffffffffffffffffffffffffff\n      and\n      0xffffffffffffffffffffffffffffffffffffffff\n      and\n      dup2\n      mstore\n      0x20\n      add\n      swap1\n      dup2\n      mstore\n      0x20\n      add\n      0x00\n      keccak256\n      sload\n        /* \"token/SWORD.sol\":22660:22698  _allowances[_msgSender()][spender].sub */\n      tag_134\n      swap1\n        /* \"token/SWORD.sol\":22660:22756  _allowances[_msgSender()][spender].sub(subtractedValue, 'ERC20: decreased allowance below zero') */\n      swap3\n      swap2\n      swap1\n      0xffffffff\n      and\n      jump\t// in\n    tag_186:\n        /* \"token/SWORD.sol\":22588:22596  _approve */\n      tag_117\n        /* \"token/SWORD.sol\":22588:22767  _approve(\r... */\n      jump\t// in\n    tag_184:\n        /* \"token/SWORD.sol\":22785:22789  true */\n      0x01\n        /* \"token/SWORD.sol\":22778:22789  return true */\n      swap1\n      pop\n        /* \"token/SWORD.sol\":22486:22797  function decreaseAllowance(address spender, uint256 subtractedValue) public returns (bool) {\r... */\n      swap3\n      swap2\n      pop\n      pop\n      jump\t// out\n        /* \"token/SWORD.sol\":19819:19986  function transfer(address recipient, uint256 amount) public override returns (bool) {\r... */\n    tag_93:\n        /* \"token/SWORD.sol\":19897:19901  bool */\n      0x00\n        /* \"token/SWORD.sol\":19914:19956  _transfer(_msgSender(), recipient, amount) */\n      tag_189\n        /* \"token/SWORD.sol\":19924:19936  _msgSender() */\n      tag_190\n        /* \"token/SWORD.sol\":19924:19934  _msgSender */\n      tag_116\n        /* \"token/SWORD.sol\":19924:19936  _msgSender() */\n      jump\t// in\n    tag_190:\n        /* \"token/SWORD.sol\":19938:19947  recipient */\n      dup5\n        /* \"token/SWORD.sol\":19949:19955  amount */\n      dup5\n        /* \"token/SWORD.sol\":19914:19923  _transfer */\n      tag_129\n        /* \"token/SWORD.sol\":19914:19956  _transfer(_msgSender(), recipient, amount) */\n      jump\t// in\n    tag_189:\n        /* \"token/SWORD.sol\":19974:19978  true */\n      0x01\n        /* \"token/SWORD.sol\":19967:19978  return true */\n      swap1\n      pop\n        /* \"token/SWORD.sol\":19819:19986  function transfer(address recipient, uint256 amount) public override returns (bool) {\r... */\n      swap3\n      swap2\n      pop\n      pop\n      jump\t// out\n        /* \"token/SWORD.sol\":35216:35345  function isMinter(address account) public view returns (bool) {\r... */\n    tag_96:\n        /* \"token/SWORD.sol\":35272:35276  bool */\n      0x00\n        /* \"token/SWORD.sol\":35296:35337  EnumerableSet.contains(_minters, account) */\n      tag_192\n        /* \"token/SWORD.sol\":35319:35327  _minters */\n      0x07\n        /* \"token/SWORD.sol\":35329:35336  account */\n      dup4\n        /* \"token/SWORD.sol\":35296:35318  EnumerableSet.contains */\n      tag_193\n        /* \"token/SWORD.sol\":35296:35337  EnumerableSet.contains(_minters, account) */\n      jump\t// in\n    tag_192:\n        /* \"token/SWORD.sol\":35289:35337  return EnumerableSet.contains(_minters, account) */\n      swap1\n      pop\n        /* \"token/SWORD.sol\":35216:35345  function isMinter(address account) public view returns (bool) {\r... */\n      swap2\n      swap1\n      pop\n      jump\t// out\n        /* \"token/SWORD.sol\":19330:19426  function maxSupply() public override view returns (uint256) {\r... */\n    tag_98:\n        /* \"token/SWORD.sol\":19381:19388  uint256 */\n      0x00\n        /* \"token/SWORD.sol\":17547:17562  10000000 * 1e18 */\n      0x084595161401484a000000\n        /* \"token/SWORD.sol\":19401:19418  return _maxSupply */\n      swap1\n      pop\n        /* \"token/SWORD.sol\":19330:19426  function maxSupply() public override view returns (uint256) {\r... */\n      swap1\n      jump\t// out\n        /* \"token/SWORD.sol\":20048:20191  function allowance(address owner, address spender) public override view returns (uint256) {\r... */\n    tag_101:\n        /* \"token/SWORD.sol\":20129:20136  uint256 */\n      0x00\n        /* \"token/SWORD.sol\":20156:20167  _allowances */\n      0x02\n        /* \"token/SWORD.sol\":20156:20174  _allowances[owner] */\n      0x00\n        /* \"token/SWORD.sol\":20168:20173  owner */\n      dup5\n        /* \"token/SWORD.sol\":20156:20174  _allowances[owner] */\n      0xffffffffffffffffffffffffffffffffffffffff\n      and\n      0xffffffffffffffffffffffffffffffffffffffff\n      and\n      dup2\n      mstore\n      0x20\n      add\n      swap1\n      dup2\n      mstore\n      0x20\n      add\n      0x00\n      keccak256\n        /* \"token/SWORD.sol\":20156:20183  _allowances[owner][spender] */\n      0x00\n        /* \"token/SWORD.sol\":20175:20182  spender */\n      dup4\n        /* \"token/SWORD.sol\":20156:20183  _allowances[owner][spender] */\n      0xffffffffffffffffffffffffffffffffffffffff\n      and\n      0xffffffffffffffffffffffffffffffffffffffff\n      and\n      dup2\n      mstore\n      0x20\n      add\n      swap1\n      dup2\n      mstore\n      0x20\n      add\n      0x00\n      keccak256\n      sload\n        /* \"token/SWORD.sol\":20149:20183  return _allowances[owner][spender] */\n      swap1\n      pop\n        /* \"token/SWORD.sol\":20048:20191  function allowance(address owner, address spender) public override view returns (uint256) {\r... */\n      swap3\n      swap2\n      pop\n      pop\n      jump\t// out\n        /* \"token/SWORD.sol\":2046:2155  function transferOwnership(address newOwner) public onlyOwner {\r... */\n    tag_104:\n        /* \"token/SWORD.sol\":1331:1343  _msgSender() */\n      tag_197\n        /* \"token/SWORD.sol\":1331:1341  _msgSender */\n      tag_116\n        /* \"token/SWORD.sol\":1331:1343  _msgSender() */\n      jump\t// in\n    tag_197:\n        /* \"token/SWORD.sol\":1321:1343  _owner == _msgSender() */\n      0xffffffffffffffffffffffffffffffffffffffff\n      and\n        /* \"token/SWORD.sol\":1321:1327  _owner */\n      0x00\n      dup1\n      sload\n      swap1\n      0x0100\n      exp\n      swap1\n      div\n      0xffffffffffffffffffffffffffffffffffffffff\n      and\n        /* \"token/SWORD.sol\":1321:1343  _owner == _msgSender() */\n      0xffffffffffffffffffffffffffffffffffffffff\n      and\n      eq\n        /* \"token/SWORD.sol\":1313:1380  require(_owner == _msgSender(), 'Ownable: caller is not the owner') */\n      tag_198\n      jumpi\n      mload(0x40)\n      0x08c379a000000000000000000000000000000000000000000000000000000000\n      dup2\n      mstore\n      0x04\n      add\n      dup1\n      dup1\n      0x20\n      add\n      dup3\n      dup2\n      sub\n      dup3\n      mstore\n      0x20\n      dup2\n      mstore\n      0x20\n      add\n      dup1\n      0x4f776e61626c653a2063616c6c6572206973206e6f7420746865206f776e6572\n      dup2\n      mstore\n      pop\n      0x20\n      add\n      swap2\n      pop\n      pop\n      mload(0x40)\n      dup1\n      swap2\n      sub\n      swap1\n      revert\n    tag_198:\n        /* \"token/SWORD.sol\":2119:2147  _transferOwnership(newOwner) */\n      tag_200\n        /* \"token/SWORD.sol\":2138:2146  newOwner */\n      dup2\n        /* \"token/SWORD.sol\":2119:2137  _transferOwnership */\n      tag_201\n        /* \"token/SWORD.sol\":2119:2147  _transferOwnership(newOwner) */\n      jump\t// in\n    tag_200:\n        /* \"token/SWORD.sol\":2046:2155  function transferOwnership(address newOwner) public onlyOwner {\r... */\n      pop\n      jump\t// out\n        /* \"token/SWORD.sol\":6031:6212  function add(uint256 a, uint256 b) internal pure returns (uint256) {\r... */\n    tag_105:\n        /* \"token/SWORD.sol\":6089:6096  uint256 */\n      0x00\n        /* \"token/SWORD.sol\":6109:6118  uint256 c */\n      dup1\n        /* \"token/SWORD.sol\":6125:6126  b */\n      dup3\n        /* \"token/SWORD.sol\":6121:6122  a */\n      dup5\n        /* \"token/SWORD.sol\":6121:6126  a + b */\n      add\n        /* \"token/SWORD.sol\":6109:6126  uint256 c = a + b */\n      swap1\n      pop\n        /* \"token/SWORD.sol\":6150:6151  a */\n      dup4\n        /* \"token/SWORD.sol\":6145:6146  c */\n      dup2\n        /* \"token/SWORD.sol\":6145:6151  c >= a */\n      lt\n      iszero\n        /* \"token/SWORD.sol\":6137:6183  require(c >= a, 'SafeMath: addition overflow') */\n      tag_203\n      jumpi\n      mload(0x40)\n      0x08c379a000000000000000000000000000000000000000000000000000000000\n      dup2\n      mstore\n      0x04\n      add\n      dup1\n      dup1\n      0x20\n      add\n      dup3\n      dup2\n      sub\n      dup3\n      mstore\n      0x1b\n      dup2\n      mstore\n      0x20\n      add\n      dup1\n      0x536166654d6174683a206164646974696f6e206f766572666c6f770000000000\n      dup2\n      mstore\n      pop\n      0x20\n      add\n      swap2\n      pop\n      pop\n      mload(0x40)\n      dup1\n      swap2\n      sub\n      swap1\n      revert\n    tag_203:\n        /* \"token/SWORD.sol\":6203:6204  c */\n      dup1\n        /* \"token/SWORD.sol\":6196:6204  return c */\n      swap2\n      pop\n      pop\n        /* \"token/SWORD.sol\":6031:6212  function add(uint256 a, uint256 b) internal pure returns (uint256) {\r... */\n      swap3\n      swap2\n      pop\n      pop\n      jump\t// out\n        /* \"token/SWORD.sol\":31878:31995  function length(AddressSet storage set) internal view returns (uint256) {\r... */\n    tag_108:\n        /* \"token/SWORD.sol\":31941:31948  uint256 */\n      0x00\n        /* \"token/SWORD.sol\":31968:31987  _length(set._inner) */\n      tag_205\n        /* \"token/SWORD.sol\":31976:31979  set */\n      dup3\n        /* \"token/SWORD.sol\":31976:31986  set._inner */\n      0x00\n      add\n        /* \"token/SWORD.sol\":31968:31975  _length */\n      tag_206\n        /* \"token/SWORD.sol\":31968:31987  _length(set._inner) */\n      jump\t// in\n    tag_205:\n        /* \"token/SWORD.sol\":31961:31987  return _length(set._inner) */\n      swap1\n      pop\n        /* \"token/SWORD.sol\":31878:31995  function length(AddressSet storage set) internal view returns (uint256) {\r... */\n      swap2\n      swap1\n      pop\n      jump\t// out\n        /* \"token/SWORD.sol\":273:371  function _msgSender() internal view returns (address payable) {\r... */\n    tag_116:\n        /* \"token/SWORD.sol\":318:333  address payable */\n      0x00\n        /* \"token/SWORD.sol\":353:363  msg.sender */\n      caller\n        /* \"token/SWORD.sol\":346:363  return msg.sender */\n      swap1\n      pop\n        /* \"token/SWORD.sol\":273:371  function _msgSender() internal view returns (address payable) {\r... */\n      swap1\n      jump\t// out\n        /* \"token/SWORD.sol\":25955:26327  function _approve(\r... */\n    tag_117:\n        /* \"token/SWORD.sol\":26100:26101  0 */\n      0x00\n        /* \"token/SWORD.sol\":26083:26102  owner != address(0) */\n      0xffffffffffffffffffffffffffffffffffffffff\n      and\n        /* \"token/SWORD.sol\":26083:26088  owner */\n      dup4\n        /* \"token/SWORD.sol\":26083:26102  owner != address(0) */\n      0xffffffffffffffffffffffffffffffffffffffff\n      and\n      eq\n      iszero\n        /* \"token/SWORD.sol\":26075:26143  require(owner != address(0), 'ERC20: approve from the zero address') */\n      tag_209\n      jumpi\n      mload(0x40)\n      0x08c379a000000000000000000000000000000000000000000000000000000000\n      dup2\n      mstore\n      0x04\n      add\n      dup1\n      dup1\n      0x20\n      add\n      dup3\n      dup2\n      sub\n      dup3\n      mstore\n      0x24\n      dup2\n      mstore\n      0x20\n      add\n      dup1\n      data_c953f4879035ed60e766b34720f656aab5c697b141d924c283124ecedb91c208\n      0x24\n      swap2\n      codecopy\n      0x40\n      add\n      swap2\n      pop\n      pop\n      mload(0x40)\n      dup1\n      swap2\n      sub\n      swap1\n      revert\n    tag_209:\n        /* \"token/SWORD.sol\":26181:26182  0 */\n      0x00\n        /* \"token/SWORD.sol\":26162:26183  spender != address(0) */\n      0xffffffffffffffffffffffffffffffffffffffff\n      and\n        /* \"token/SWORD.sol\":26162:26169  spender */\n      dup3\n        /* \"token/SWORD.sol\":26162:26183  spender != address(0) */\n      0xffffffffffffffffffffffffffffffffffffffff\n      and\n      eq\n      iszero\n        /* \"token/SWORD.sol\":26154:26222  require(spender != address(0), 'ERC20: approve to the zero address') */\n      tag_210\n      jumpi\n      mload(0x40)\n      0x08c379a000000000000000000000000000000000000000000000000000000000\n      dup2\n      mstore\n      0x04\n      add\n      dup1\n      dup1\n      0x20\n      add\n      dup3\n      dup2\n      sub\n      dup3\n      mstore\n      0x22\n      dup2\n      mstore\n      0x20\n      add\n      dup1\n      data_24883cc5fe64ace9d0df1893501ecb93c77180f0ff69cca79affb3c316dc8029\n      0x22\n      swap2\n      codecopy\n      0x40\n      add\n      swap2\n      pop\n      pop\n      mload(0x40)\n      dup1\n      swap2\n      sub\n      swap1\n      revert\n    tag_210:\n        /* \"token/SWORD.sol\":26265:26271  amount */\n      dup1\n        /* \"token/SWORD.sol\":26235:26246  _allowances */\n      0x02\n        /* \"token/SWORD.sol\":26235:26253  _allowances[owner] */\n      0x00\n        /* \"token/SWORD.sol\":26247:26252  owner */\n      dup6\n        /* \"token/SWORD.sol\":26235:26253  _allowances[owner] */\n      0xffffffffffffffffffffffffffffffffffffffff\n      and\n      0xffffffffffffffffffffffffffffffffffffffff\n      and\n      dup2\n      mstore\n      0x20\n      add\n      swap1\n      dup2\n      mstore\n      0x20\n      add\n      0x00\n      keccak256\n        /* \"token/SWORD.sol\":26235:26262  _allowances[owner][spender] */\n      0x00\n        /* \"token/SWORD.sol\":26254:26261  spender */\n      dup5\n        /* \"token/SWORD.sol\":26235:26262  _allowances[owner][spender] */\n      0xffffffffffffffffffffffffffffffffffffffff\n      and\n      0xffffffffffffffffffffffffffffffffffffffff\n      and\n      dup2\n      mstore\n      0x20\n      add\n      swap1\n      dup2\n      mstore\n      0x20\n      add\n      0x00\n      keccak256\n        /* \"token/SWORD.sol\":26235:26271  _allowances[owner][spender] = amount */\n      dup2\n      swap1\n      sstore\n      pop\n        /* \"token/SWORD.sol\":26303:26310  spender */\n      dup2\n        /* \"token/SWORD.sol\":26287:26319  Approval(owner, spender, amount) */\n      0xffffffffffffffffffffffffffffffffffffffff\n      and\n        /* \"token/SWORD.sol\":26296:26301  owner */\n      dup4\n        /* \"token/SWORD.sol\":26287:26319  Approval(owner, spender, amount) */\n      0xffffffffffffffffffffffffffffffffffffffff\n      and\n      0x8c5be1e5ebec7d5bd14f71427d1e84f3dd0314c0f7b2291e5b200ac8c7c3b925\n        /* \"token/SWORD.sol\":26312:26318  amount */\n      dup4\n        /* \"token/SWORD.sol\":26287:26319  Approval(owner, spender, amount) */\n      mload(0x40)\n      dup1\n      dup3\n      dup2\n      mstore\n      0x20\n      add\n      swap2\n      pop\n      pop\n      mload(0x40)\n      dup1\n      swap2\n      sub\n      swap1\n      log3\n        /* \"token/SWORD.sol\":25955:26327  function _approve(\r... */\n      pop\n      pop\n      pop\n      jump\t// out\n        /* \"token/SWORD.sol\":31399:31548  function remove(AddressSet storage set, address value) internal returns (bool) {\r... */\n    tag_126:\n        /* \"token/SWORD.sol\":31472:31476  bool */\n      0x00\n        /* \"token/SWORD.sol\":31496:31540  _remove(set._inner, bytes32(uint256(value))) */\n      tag_212\n        /* \"token/SWORD.sol\":31504:31507  set */\n      dup4\n        /* \"token/SWORD.sol\":31504:31514  set._inner */\n      0x00\n      add\n        /* \"token/SWORD.sol\":31532:31537  value */\n      dup4\n        /* \"token/SWORD.sol\":31524:31538  uint256(value) */\n      0xffffffffffffffffffffffffffffffffffffffff\n      and\n        /* \"token/SWORD.sol\":31516:31539  bytes32(uint256(value)) */\n      0x00\n      shl\n        /* \"token/SWORD.sol\":31496:31503  _remove */\n      tag_213\n        /* \"token/SWORD.sol\":31496:31540  _remove(set._inner, bytes32(uint256(value))) */\n      jump\t// in\n    tag_212:\n        /* \"token/SWORD.sol\":31489:31540  return _remove(set._inner, bytes32(uint256(value))) */\n      swap1\n      pop\n        /* \"token/SWORD.sol\":31399:31548  function remove(AddressSet storage set, address value) internal returns (bool) {\r... */\n      swap3\n      swap2\n      pop\n      pop\n      jump\t// out\n        /* \"token/SWORD.sol\":23635:24140  function _transfer(\r... */\n    tag_129:\n        /* \"token/SWORD.sol\":23785:23786  0 */\n      0x00\n        /* \"token/SWORD.sol\":23767:23787  sender != address(0) */\n      0xffffffffffffffffffffffffffffffffffffffff\n      and\n        /* \"token/SWORD.sol\":23767:23773  sender */\n      dup4\n        /* \"token/SWORD.sol\":23767:23787  sender != address(0) */\n      0xffffffffffffffffffffffffffffffffffffffff\n      and\n      eq\n      iszero\n        /* \"token/SWORD.sol\":23759:23829  require(sender != address(0), 'ERC20: transfer from the zero address') */\n      tag_215\n      jumpi\n      mload(0x40)\n      0x08c379a000000000000000000000000000000000000000000000000000000000\n      dup2\n      mstore\n      0x04\n      add\n      dup1\n      dup1\n      0x20\n      add\n      dup3\n      dup2\n      sub\n      dup3\n      mstore\n      0x25\n      dup2\n      mstore\n      0x20\n      add\n      dup1\n      data_baecc556b46f4ed0f2b4cb599d60785ac8563dd2dc0a5bf12edea1c39e5e1fea\n      0x25\n      swap2\n      codecopy\n      0x40\n      add\n      swap2\n      pop\n      pop\n      mload(0x40)\n      dup1\n      swap2\n      sub\n      swap1\n      revert\n    tag_215:\n        /* \"token/SWORD.sol\":23869:23870  0 */\n      0x00\n        /* \"token/SWORD.sol\":23848:23871  recipient != address(0) */\n      0xffffffffffffffffffffffffffffffffffffffff\n      and\n        /* \"token/SWORD.sol\":23848:23857  recipient */\n      dup3\n        /* \"token/SWORD.sol\":23848:23871  recipient != address(0) */\n      0xffffffffffffffffffffffffffffffffffffffff\n      and\n      eq\n      iszero\n        /* \"token/SWORD.sol\":23840:23911  require(recipient != address(0), 'ERC20: transfer to the zero address') */\n      tag_216\n      jumpi\n      mload(0x40)\n      0x08c379a000000000000000000000000000000000000000000000000000000000\n      dup2\n      mstore\n      0x04\n      add\n      dup1\n      dup1\n      0x20\n      add\n      dup3\n      dup2\n      sub\n      dup3\n      mstore\n      0x23\n      dup2\n      mstore\n      0x20\n      add\n      dup1\n      data_0557e210f7a69a685100a7e4e3d0a7024c546085cee28910fd17d0b081d9516f\n      0x23\n      swap2\n      codecopy\n      0x40\n      add\n      swap2\n      pop\n      pop\n      mload(0x40)\n      dup1\n      swap2\n      sub\n      swap1\n      revert\n    tag_216:\n        /* \"token/SWORD.sol\":23944:24015  _balances[sender].sub(amount, 'ERC20: transfer amount exceeds balance') */\n      tag_217\n        /* \"token/SWORD.sol\":23966:23972  amount */\n      dup2\n        /* \"token/SWORD.sol\":23944:24015  _balances[sender].sub(amount, 'ERC20: transfer amount exceeds balance') */\n      mload(0x40)\n      dup1\n      0x60\n      add\n      0x40\n      mstore\n      dup1\n      0x26\n      dup2\n      mstore\n      0x20\n      add\n      data_4107e8a8b9e94bf8ff83080ddec1c0bffe897ebc2241b89d44f66b3d274088b6\n      0x26\n      swap2\n      codecopy\n        /* \"token/SWORD.sol\":23944:23953  _balances */\n      0x01\n        /* \"token/SWORD.sol\":23944:23961  _balances[sender] */\n      0x00\n        /* \"token/SWORD.sol\":23954:23960  sender */\n      dup8\n        /* \"token/SWORD.sol\":23944:23961  _balances[sender] */\n      0xffffffffffffffffffffffffffffffffffffffff\n      and\n      0xffffffffffffffffffffffffffffffffffffffff\n      and\n      dup2\n      mstore\n      0x20\n      add\n      swap1\n      dup2\n      mstore\n      0x20\n      add\n      0x00\n      keccak256\n      sload\n        /* \"token/SWORD.sol\":23944:23965  _balances[sender].sub */\n      tag_134\n      swap1\n        /* \"token/SWORD.sol\":23944:24015  _balances[sender].sub(amount, 'ERC20: transfer amount exceeds balance') */\n      swap3\n      swap2\n      swap1\n      0xffffffff\n      and\n      jump\t// in\n    tag_217:\n        /* \"token/SWORD.sol\":23924:23933  _balances */\n      0x01\n        /* \"token/SWORD.sol\":23924:23941  _balances[sender] */\n      0x00\n        /* \"token/SWORD.sol\":23934:23940  sender */\n      dup6\n        /* \"token/SWORD.sol\":23924:23941  _balances[sender] */\n      0xffffffffffffffffffffffffffffffffffffffff\n      and\n      0xffffffffffffffffffffffffffffffffffffffff\n      and\n      dup2\n      mstore\n      0x20\n      add\n      swap1\n      dup2\n      mstore\n      0x20\n      add\n      0x00\n      keccak256\n        /* \"token/SWORD.sol\":23924:24015  _balances[sender] = _balances[sender].sub(amount, 'ERC20: transfer amount exceeds balance') */\n      dup2\n      swap1\n      sstore\n      pop\n        /* \"token/SWORD.sol\":24049:24081  _balances[recipient].add(amount) */\n      tag_218\n        /* \"token/SWORD.sol\":24074:24080  amount */\n      dup2\n        /* \"token/SWORD.sol\":24049:24058  _balances */\n      0x01\n        /* \"token/SWORD.sol\":24049:24069  _balances[recipient] */\n      0x00\n        /* \"token/SWORD.sol\":24059:24068  recipient */\n      dup6\n        /* \"token/SWORD.sol\":24049:24069  _balances[recipient] */\n      0xffffffffffffffffffffffffffffffffffffffff\n      and\n      0xffffffffffffffffffffffffffffffffffffffff\n      and\n      dup2\n      mstore\n      0x20\n      add\n      swap1\n      dup2\n      mstore\n      0x20\n      add\n      0x00\n      keccak256\n      sload\n        /* \"token/SWORD.sol\":24049:24073  _balances[recipient].add */\n      tag_105\n      swap1\n        /* \"token/SWORD.sol\":24049:24081  _balances[recipient].add(amount) */\n      swap2\n      swap1\n      0xffffffff\n      and\n      jump\t// in\n    tag_218:\n        /* \"token/SWORD.sol\":24026:24035  _balances */\n      0x01\n        /* \"token/SWORD.sol\":24026:24046  _balances[recipient] */\n      0x00\n        /* \"token/SWORD.sol\":24036:24045  recipient */\n      dup5\n        /* \"token/SWORD.sol\":24026:24046  _balances[recipient] */\n      0xffffffffffffffffffffffffffffffffffffffff\n      and\n      0xffffffffffffffffffffffffffffffffffffffff\n      and\n      dup2\n      mstore\n      0x20\n      add\n      swap1\n      dup2\n      mstore\n      0x20\n      add\n      0x00\n      keccak256\n        /* \"token/SWORD.sol\":24026:24081  _balances[recipient] = _balances[recipient].add(amount) */\n      dup2\n      swap1\n      sstore\n      pop\n        /* \"token/SWORD.sol\":24114:24123  recipient */\n      dup2\n        /* \"token/SWORD.sol\":24097:24132  Transfer(sender, recipient, amount) */\n      0xffffffffffffffffffffffffffffffffffffffff\n      and\n        /* \"token/SWORD.sol\":24106:24112  sender */\n      dup4\n        /* \"token/SWORD.sol\":24097:24132  Transfer(sender, recipient, amount) */\n      0xffffffffffffffffffffffffffffffffffffffff\n      and\n      0xddf252ad1be2c89b69c2b068fc378daa952ba7f163c4a11628f55a4df523b3ef\n        /* \"token/SWORD.sol\":24125:24131  amount */\n      dup4\n        /* \"token/SWORD.sol\":24097:24132  Transfer(sender, recipient, amount) */\n      mload(0x40)\n      dup1\n      dup3\n      dup2\n      mstore\n      0x20\n      add\n      swap2\n      pop\n      pop\n      mload(0x40)\n      dup1\n      swap2\n      sub\n      swap1\n      log3\n        /* \"token/SWORD.sol\":23635:24140  function _transfer(\r... */\n      pop\n      pop\n      pop\n      jump\t// out\n        /* \"token/SWORD.sol\":6934:7160  function sub(\r... */\n    tag_134:\n        /* \"token/SWORD.sol\":7054:7061  uint256 */\n      0x00\n        /* \"token/SWORD.sol\":7087:7088  a */\n      dup4\n        /* \"token/SWORD.sol\":7082:7083  b */\n      dup4\n        /* \"token/SWORD.sol\":7082:7088  b <= a */\n      gt\n      iszero\n        /* \"token/SWORD.sol\":7090:7102  errorMessage */\n      dup3\n        /* \"token/SWORD.sol\":7074:7103  require(b <= a, errorMessage) */\n      swap1\n      tag_220\n      jumpi\n      mload(0x40)\n      0x08c379a000000000000000000000000000000000000000000000000000000000\n      dup2\n      mstore\n      0x04\n      add\n      dup1\n      dup1\n      0x20\n      add\n      dup3\n      dup2\n      sub\n      dup3\n      mstore\n      dup4\n      dup2\n      dup2\n      mload\n      dup2\n      mstore\n      0x20\n      add\n      swap2\n      pop\n      dup1\n      mload\n      swap1\n      0x20\n      add\n      swap1\n      dup1\n      dup4\n      dup4\n      0x00\n    tag_221:\n      dup4\n      dup2\n      lt\n      iszero\n      tag_223\n      jumpi\n      dup1\n      dup3\n      add\n      mload\n      dup2\n      dup5\n      add\n      mstore\n      0x20\n      dup2\n      add\n      swap1\n      pop\n      jump(tag_221)\n    tag_223:\n      pop\n      pop\n      pop\n      pop\n      swap1\n      pop\n      swap1\n      dup2\n      add\n      swap1\n      0x1f\n      and\n      dup1\n      iszero\n      tag_224\n      jumpi\n      dup1\n      dup3\n      sub\n      dup1\n      mload\n      0x01\n      dup4\n      0x20\n      sub\n      0x0100\n      exp\n      sub\n      not\n      and\n      dup2\n      mstore\n      0x20\n      add\n      swap2\n      pop\n    tag_224:\n      pop\n      swap3\n      pop\n      pop\n      pop\n      mload(0x40)\n      dup1\n      swap2\n      sub\n      swap1\n      revert\n    tag_220:\n      pop\n        /* \"token/SWORD.sol\":7114:7123  uint256 c */\n      0x00\n        /* \"token/SWORD.sol\":7130:7131  b */\n      dup4\n        /* \"token/SWORD.sol\":7126:7127  a */\n      dup6\n        /* \"token/SWORD.sol\":7126:7131  a - b */\n      sub\n        /* \"token/SWORD.sol\":7114:7131  uint256 c = a - b */\n      swap1\n      pop\n        /* \"token/SWORD.sol\":7151:7152  c */\n      dup1\n        /* \"token/SWORD.sol\":7144:7152  return c */\n      swap2\n      pop\n      pop\n        /* \"token/SWORD.sol\":6934:7160  function sub(\r... */\n      swap4\n      swap3\n      pop\n      pop\n      pop\n      jump\t// out\n        /* \"token/SWORD.sol\":24421:24835  function _mint(address account, uint256 amount) internal returns(bool) {\r... */\n    tag_146:\n        /* \"token/SWORD.sol\":24486:24490  bool */\n      0x00\n        /* \"token/SWORD.sol\":24530:24531  0 */\n      dup1\n        /* \"token/SWORD.sol\":24511:24532  account != address(0) */\n      0xffffffffffffffffffffffffffffffffffffffff\n      and\n        /* \"token/SWORD.sol\":24511:24518  account */\n      dup4\n        /* \"token/SWORD.sol\":24511:24532  account != address(0) */\n      0xffffffffffffffffffffffffffffffffffffffff\n      and\n      eq\n      iszero\n        /* \"token/SWORD.sol\":24503:24568  require(account != address(0), 'ERC20: mint to the zero address') */\n      tag_226\n      jumpi\n      mload(0x40)\n      0x08c379a000000000000000000000000000000000000000000000000000000000\n      dup2\n      mstore\n      0x04\n      add\n      dup1\n      dup1\n      0x20\n      add\n      dup3\n      dup2\n      sub\n      dup3\n      mstore\n      0x1f\n      dup2\n      mstore\n      0x20\n      add\n      dup1\n      0x45524332303a206d696e7420746f20746865207a65726f206164647265737300\n      dup2\n      mstore\n      pop\n      0x20\n      add\n      swap2\n      pop\n      pop\n      mload(0x40)\n      dup1\n      swap2\n      sub\n      swap1\n      revert\n    tag_226:\n        /* \"token/SWORD.sol\":17547:17562  10000000 * 1e18 */\n      0x084595161401484a000000\n        /* \"token/SWORD.sol\":24583:24607  amount.add(_totalSupply) */\n      tag_227\n        /* \"token/SWORD.sol\":24594:24606  _totalSupply */\n      sload(0x03)\n        /* \"token/SWORD.sol\":24583:24589  amount */\n      dup5\n        /* \"token/SWORD.sol\":24583:24593  amount.add */\n      tag_105\n      swap1\n        /* \"token/SWORD.sol\":24583:24607  amount.add(_totalSupply) */\n      swap2\n      swap1\n      0xffffffff\n      and\n      jump\t// in\n    tag_227:\n        /* \"token/SWORD.sol\":24583:24620  amount.add(_totalSupply) > _maxSupply */\n      gt\n        /* \"token/SWORD.sol\":24579:24661  if (amount.add(_totalSupply) > _maxSupply) {\r... */\n      iszero\n      tag_228\n      jumpi\n        /* \"token/SWORD.sol\":24644:24649  false */\n      0x00\n        /* \"token/SWORD.sol\":24637:24649  return false */\n      swap1\n      pop\n      jump(tag_225)\n        /* \"token/SWORD.sol\":24579:24661  if (amount.add(_totalSupply) > _maxSupply) {\r... */\n    tag_228:\n        /* \"token/SWORD.sol\":24688:24712  _totalSupply.add(amount) */\n      tag_229\n        /* \"token/SWORD.sol\":24705:24711  amount */\n      dup3\n        /* \"token/SWORD.sol\":24688:24700  _totalSupply */\n      sload(0x03)\n        /* \"token/SWORD.sol\":24688:24704  _totalSupply.add */\n      tag_105\n      swap1\n        /* \"token/SWORD.sol\":24688:24712  _totalSupply.add(amount) */\n      swap2\n      swap1\n      0xffffffff\n      and\n      jump\t// in\n    tag_229:\n        /* \"token/SWORD.sol\":24673:24685  _totalSupply */\n      0x03\n        /* \"token/SWORD.sol\":24673:24712  _totalSupply = _totalSupply.add(amount) */\n      dup2\n      swap1\n      sstore\n      pop\n        /* \"token/SWORD.sol\":24744:24774  _balances[account].add(amount) */\n      tag_230\n        /* \"token/SWORD.sol\":24767:24773  amount */\n      dup3\n        /* \"token/SWORD.sol\":24744:24753  _balances */\n      0x01\n        /* \"token/SWORD.sol\":24744:24762  _balances[account] */\n      0x00\n        /* \"token/SWORD.sol\":24754:24761  account */\n      dup7\n        /* \"token/SWORD.sol\":24744:24762  _balances[account] */\n      0xffffffffffffffffffffffffffffffffffffffff\n      and\n      0xffffffffffffffffffffffffffffffffffffffff\n      and\n      dup2\n      mstore\n      0x20\n      add\n      swap1\n      dup2\n      mstore\n      0x20\n      add\n      0x00\n      keccak256\n      sload\n        /* \"token/SWORD.sol\":24744:24766  _balances[account].add */\n      tag_105\n      swap1\n        /* \"token/SWORD.sol\":24744:24774  _balances[account].add(amount) */\n      swap2\n      swap1\n      0xffffffff\n      and\n      jump\t// in\n    tag_230:\n        /* \"token/SWORD.sol\":24723:24732  _balances */\n      0x01\n        /* \"token/SWORD.sol\":24723:24741  _balances[account] */\n      0x00\n        /* \"token/SWORD.sol\":24733:24740  account */\n      dup6\n        /* \"token/SWORD.sol\":24723:24741  _balances[account] */\n      0xffffffffffffffffffffffffffffffffffffffff\n      and\n      0xffffffffffffffffffffffffffffffffffffffff\n      and\n      dup2\n      mstore\n      0x20\n      add\n      swap1\n      dup2\n      mstore\n      0x20\n      add\n      0x00\n      keccak256\n        /* \"token/SWORD.sol\":24723:24774  _balances[account] = _balances[account].add(amount) */\n      dup2\n      swap1\n      sstore\n      pop\n        /* \"token/SWORD.sol\":24811:24818  account */\n      dup3\n        /* \"token/SWORD.sol\":24790:24827  Transfer(address(0), account, amount) */\n      0xffffffffffffffffffffffffffffffffffffffff\n      and\n        /* \"token/SWORD.sol\":24807:24808  0 */\n      0x00\n        /* \"token/SWORD.sol\":24790:24827  Transfer(address(0), account, amount) */\n      0xffffffffffffffffffffffffffffffffffffffff\n      and\n      0xddf252ad1be2c89b69c2b068fc378daa952ba7f163c4a11628f55a4df523b3ef\n        /* \"token/SWORD.sol\":24820:24826  amount */\n      dup5\n        /* \"token/SWORD.sol\":24790:24827  Transfer(address(0), account, amount) */\n      mload(0x40)\n      dup1\n      dup3\n      dup2\n      mstore\n      0x20\n      add\n      swap2\n      pop\n      pop\n      mload(0x40)\n      dup1\n      swap2\n      sub\n      swap1\n      log3\n        /* \"token/SWORD.sol\":24421:24835  function _mint(address account, uint256 amount) internal returns(bool) {\r... */\n    tag_225:\n      swap3\n      swap2\n      pop\n      pop\n      jump\t// out\n        /* \"token/SWORD.sol\":32349:32498  function at(AddressSet storage set, uint256 index) internal view returns (address) {\r... */\n    tag_154:\n        /* \"token/SWORD.sol\":32423:32430  address */\n      0x00\n        /* \"token/SWORD.sol\":32466:32488  _at(set._inner, index) */\n      tag_232\n        /* \"token/SWORD.sol\":32470:32473  set */\n      dup4\n        /* \"token/SWORD.sol\":32470:32480  set._inner */\n      0x00\n      add\n        /* \"token/SWORD.sol\":32482:32487  index */\n      dup4\n        /* \"token/SWORD.sol\":32466:32469  _at */\n      tag_233\n        /* \"token/SWORD.sol\":32466:32488  _at(set._inner, index) */\n      jump\t// in\n    tag_232:\n        /* \"token/SWORD.sol\":32458:32489  uint256(_at(set._inner, index)) */\n      0x00\n      shr\n        /* \"token/SWORD.sol\":32443:32490  return address(uint256(_at(set._inner, index))) */\n      swap1\n      pop\n        /* \"token/SWORD.sol\":32349:32498  function at(AddressSet storage set, uint256 index) internal view returns (address) {\r... */\n      swap3\n      swap2\n      pop\n      pop\n      jump\t// out\n        /* \"token/SWORD.sol\":26513:26795  function _burnFrom(address account, uint256 amount) internal {\r... */\n    tag_162:\n        /* \"token/SWORD.sol\":26585:26607  _burn(account, amount) */\n      tag_235\n        /* \"token/SWORD.sol\":26591:26598  account */\n      dup3\n        /* \"token/SWORD.sol\":26600:26606  amount */\n      dup3\n        /* \"token/SWORD.sol\":26585:26590  _burn */\n      tag_236\n        /* \"token/SWORD.sol\":26585:26607  _burn(account, amount) */\n      jump\t// in\n    tag_235:\n        /* \"token/SWORD.sol\":26618:26787  _approve(\r... */\n      tag_237\n        /* \"token/SWORD.sol\":26641:26648  account */\n      dup3\n        /* \"token/SWORD.sol\":26663:26675  _msgSender() */\n      tag_238\n        /* \"token/SWORD.sol\":26663:26673  _msgSender */\n      tag_116\n        /* \"token/SWORD.sol\":26663:26675  _msgSender() */\n      jump\t// in\n    tag_238:\n        /* \"token/SWORD.sol\":26690:26776  _allowances[account][_msgSender()].sub(amount, 'ERC20: burn amount exceeds allowance') */\n      tag_239\n        /* \"token/SWORD.sol\":26729:26735  amount */\n      dup5\n        /* \"token/SWORD.sol\":26690:26776  _allowances[account][_msgSender()].sub(amount, 'ERC20: burn amount exceeds allowance') */\n      mload(0x40)\n      dup1\n      0x60\n      add\n      0x40\n      mstore\n      dup1\n      0x24\n      dup2\n      mstore\n      0x20\n      add\n      data_a287c363786607a1457a2d9d12fa61c0073358e02d76b4035fc2c2d86a19c0db\n      0x24\n      swap2\n      codecopy\n        /* \"token/SWORD.sol\":26690:26701  _allowances */\n      0x02\n        /* \"token/SWORD.sol\":26690:26710  _allowances[account] */\n      0x00\n        /* \"token/SWORD.sol\":26702:26709  account */\n      dup10\n        /* \"token/SWORD.sol\":26690:26710  _allowances[account] */\n      0xffffffffffffffffffffffffffffffffffffffff\n      and\n      0xffffffffffffffffffffffffffffffffffffffff\n      and\n      dup2\n      mstore\n      0x20\n      add\n      swap1\n      dup2\n      mstore\n      0x20\n      add\n      0x00\n      keccak256\n        /* \"token/SWORD.sol\":26690:26724  _allowances[account][_msgSender()] */\n      0x00\n        /* \"token/SWORD.sol\":26711:26723  _msgSender() */\n      tag_240\n        /* \"token/SWORD.sol\":26711:26721  _msgSender */\n      tag_116\n        /* \"token/SWORD.sol\":26711:26723  _msgSender() */\n      jump\t// in\n    tag_240:\n        /* \"token/SWORD.sol\":26690:26724  _allowances[account][_msgSender()] */\n      0xffffffffffffffffffffffffffffffffffffffff\n      and\n      0xffffffffffffffffffffffffffffffffffffffff\n      and\n      dup2\n      mstore\n      0x20\n      add\n      swap1\n      dup2\n      mstore\n      0x20\n      add\n      0x00\n      keccak256\n      sload\n        /* \"token/SWORD.sol\":26690:26728  _allowances[account][_msgSender()].sub */\n      tag_134\n      swap1\n        /* \"token/SWORD.sol\":26690:26776  _allowances[account][_msgSender()].sub(amount, 'ERC20: burn amount exceeds allowance') */\n      swap3\n      swap2\n      swap1\n      0xffffffff\n      and\n      jump\t// in\n    tag_239:\n        /* \"token/SWORD.sol\":26618:26626  _approve */\n      tag_117\n        /* \"token/SWORD.sol\":26618:26787  _approve(\r... */\n      jump\t// in\n    tag_237:\n        /* \"token/SWORD.sol\":26513:26795  function _burnFrom(address account, uint256 amount) internal {\r... */\n      pop\n      pop\n      jump\t// out\n        /* \"token/SWORD.sol\":31080:31223  function add(AddressSet storage set, address value) internal returns (bool) {\r... */\n    tag_176:\n        /* \"token/SWORD.sol\":31150:31154  bool */\n      0x00\n        /* \"token/SWORD.sol\":31174:31215  _add(set._inner, bytes32(uint256(value))) */\n      tag_242\n        /* \"token/SWORD.sol\":31179:31182  set */\n      dup4\n        /* \"token/SWORD.sol\":31179:31189  set._inner */\n      0x00\n      add\n        /* \"token/SWORD.sol\":31207:31212  value */\n      dup4\n        /* \"token/SWORD.sol\":31199:31213  uint256(value) */\n      0xffffffffffffffffffffffffffffffffffffffff\n      and\n        /* \"token/SWORD.sol\":31191:31214  bytes32(uint256(value)) */\n      0x00\n      shl\n        /* \"token/SWORD.sol\":31174:31178  _add */\n      tag_243\n        /* \"token/SWORD.sol\":31174:31215  _add(set._inner, bytes32(uint256(value))) */\n      jump\t// in\n    tag_242:\n        /* \"token/SWORD.sol\":31167:31215  return _add(set._inner, bytes32(uint256(value))) */\n      swap1\n      pop\n        /* \"token/SWORD.sol\":31080:31223  function add(AddressSet storage set, address value) internal returns (bool) {\r... */\n      swap3\n      swap2\n      pop\n      pop\n      jump\t// out\n        /* \"token/SWORD.sol\":31634:31792  function contains(AddressSet storage set, address value) internal view returns (bool) {\r... */\n    tag_193:\n        /* \"token/SWORD.sol\":31714:31718  bool */\n      0x00\n        /* \"token/SWORD.sol\":31738:31784  _contains(set._inner, bytes32(uint256(value))) */\n      tag_245\n        /* \"token/SWORD.sol\":31748:31751  set */\n      dup4\n        /* \"token/SWORD.sol\":31748:31758  set._inner */\n      0x00\n      add\n        /* \"token/SWORD.sol\":31776:31781  value */\n      dup4\n        /* \"token/SWORD.sol\":31768:31782  uint256(value) */\n      0xffffffffffffffffffffffffffffffffffffffff\n      and\n        /* \"token/SWORD.sol\":31760:31783  bytes32(uint256(value)) */\n      0x00\n      shl\n        /* \"token/SWORD.sol\":31738:31747  _contains */\n      tag_246\n        /* \"token/SWORD.sol\":31738:31784  _contains(set._inner, bytes32(uint256(value))) */\n      jump\t// in\n    tag_245:\n        /* \"token/SWORD.sol\":31731:31784  return _contains(set._inner, bytes32(uint256(value))) */\n      swap1\n      pop\n        /* \"token/SWORD.sol\":31634:31792  function contains(AddressSet storage set, address value) internal view returns (bool) {\r... */\n      swap3\n      swap2\n      pop\n      pop\n      jump\t// out\n        /* \"token/SWORD.sol\":2261:2490  function _transferOwnership(address newOwner) internal {\r... */\n    tag_201:\n        /* \"token/SWORD.sol\":2355:2356  0 */\n      0x00\n        /* \"token/SWORD.sol\":2335:2357  newOwner != address(0) */\n      0xffffffffffffffffffffffffffffffffffffffff\n      and\n        /* \"token/SWORD.sol\":2335:2343  newOwner */\n      dup2\n        /* \"token/SWORD.sol\":2335:2357  newOwner != address(0) */\n      0xffffffffffffffffffffffffffffffffffffffff\n      and\n      eq\n      iszero\n        /* \"token/SWORD.sol\":2327:2400  require(newOwner != address(0), 'Ownable: new owner is the zero address') */\n      tag_248\n      jumpi\n      mload(0x40)\n      0x08c379a000000000000000000000000000000000000000000000000000000000\n      dup2\n      mstore\n      0x04\n      add\n      dup1\n      dup1\n      0x20\n      add\n      dup3\n      dup2\n      sub\n      dup3\n      mstore\n      0x26\n      dup2\n      mstore\n      0x20\n      add\n      dup1\n      data_245f15ff17f551913a7a18385165551503906a406f905ac1c2437281a7cd0cfe\n      0x26\n      swap2\n      codecopy\n      0x40\n      add\n      swap2\n      pop\n      pop\n      mload(0x40)\n      dup1\n      swap2\n      sub\n      swap1\n      revert\n    tag_248:\n        /* \"token/SWORD.sol\":2445:2453  newOwner */\n      dup1\n        /* \"token/SWORD.sol\":2416:2454  OwnershipTransferred(_owner, newOwner) */\n      0xffffffffffffffffffffffffffffffffffffffff\n      and\n        /* \"token/SWORD.sol\":2437:2443  _owner */\n      0x00\n      dup1\n      sload\n      swap1\n      0x0100\n      exp\n      swap1\n      div\n      0xffffffffffffffffffffffffffffffffffffffff\n      and\n        /* \"token/SWORD.sol\":2416:2454  OwnershipTransferred(_owner, newOwner) */\n      0xffffffffffffffffffffffffffffffffffffffff\n      and\n      0x8be0079c531659141344cd1fd0a4f28419497f9722a3daafe3b4186f6b6457e0\n      mload(0x40)\n      mload(0x40)\n      dup1\n      swap2\n      sub\n      swap1\n      log3\n        /* \"token/SWORD.sol\":2474:2482  newOwner */\n      dup1\n        /* \"token/SWORD.sol\":2465:2471  _owner */\n      0x00\n      dup1\n        /* \"token/SWORD.sol\":2465:2482  _owner = newOwner */\n      0x0100\n      exp\n      dup2\n      sload\n      dup2\n      0xffffffffffffffffffffffffffffffffffffffff\n      mul\n      not\n      and\n      swap1\n      dup4\n      0xffffffffffffffffffffffffffffffffffffffff\n      and\n      mul\n      or\n      swap1\n      sstore\n      pop\n        /* \"token/SWORD.sol\":2261:2490  function _transferOwnership(address newOwner) internal {\r... */\n      pop\n      jump\t// out\n        /* \"token/SWORD.sol\":30159:30268  function _length(Set storage set) private view returns (uint256) {\r... */\n    tag_206:\n        /* \"token/SWORD.sol\":30215:30222  uint256 */\n      0x00\n        /* \"token/SWORD.sol\":30242:30245  set */\n      dup2\n        /* \"token/SWORD.sol\":30242:30253  set._values */\n      0x00\n      add\n        /* \"token/SWORD.sol\":30242:30260  set._values.length */\n      dup1\n      sload\n      swap1\n      pop\n        /* \"token/SWORD.sol\":30235:30260  return set._values.length */\n      swap1\n      pop\n        /* \"token/SWORD.sol\":30159:30268  function _length(Set storage set) private view returns (uint256) {\r... */\n      swap2\n      swap1\n      pop\n      jump\t// out\n        /* \"token/SWORD.sol\":28301:29858  function _remove(Set storage set, bytes32 value) private returns (bool) {\r... */\n    tag_213:\n        /* \"token/SWORD.sol\":28367:28371  bool */\n      0x00\n        /* \"token/SWORD.sol\":28485:28503  uint256 valueIndex */\n      dup1\n        /* \"token/SWORD.sol\":28506:28509  set */\n      dup4\n        /* \"token/SWORD.sol\":28506:28518  set._indexes */\n      0x01\n      add\n        /* \"token/SWORD.sol\":28506:28525  set._indexes[value] */\n      0x00\n        /* \"token/SWORD.sol\":28519:28524  value */\n      dup5\n        /* \"token/SWORD.sol\":28506:28525  set._indexes[value] */\n      dup2\n      mstore\n      0x20\n      add\n      swap1\n      dup2\n      mstore\n      0x20\n      add\n      0x00\n      keccak256\n      sload\n        /* \"token/SWORD.sol\":28485:28525  uint256 valueIndex = set._indexes[value] */\n      swap1\n      pop\n        /* \"token/SWORD.sol\":28556:28557  0 */\n      0x00\n        /* \"token/SWORD.sol\":28542:28552  valueIndex */\n      dup2\n        /* \"token/SWORD.sol\":28542:28557  valueIndex != 0 */\n      eq\n        /* \"token/SWORD.sol\":28538:29851  if (valueIndex != 0) {\r... */\n      tag_251\n      jumpi\n        /* \"token/SWORD.sol\":28917:28938  uint256 toDeleteIndex */\n      0x00\n        /* \"token/SWORD.sol\":28954:28955  1 */\n      0x01\n        /* \"token/SWORD.sol\":28941:28951  valueIndex */\n      dup3\n        /* \"token/SWORD.sol\":28941:28955  valueIndex - 1 */\n      sub\n        /* \"token/SWORD.sol\":28917:28955  uint256 toDeleteIndex = valueIndex - 1 */\n      swap1\n      pop\n        /* \"token/SWORD.sol\":28970:28987  uint256 lastIndex */\n      0x00\n        /* \"token/SWORD.sol\":29011:29012  1 */\n      0x01\n        /* \"token/SWORD.sol\":28990:28993  set */\n      dup7\n        /* \"token/SWORD.sol\":28990:29001  set._values */\n      0x00\n      add\n        /* \"token/SWORD.sol\":28990:29008  set._values.length */\n      dup1\n      sload\n      swap1\n      pop\n        /* \"token/SWORD.sol\":28990:29012  set._values.length - 1 */\n      sub\n        /* \"token/SWORD.sol\":28970:29012  uint256 lastIndex = set._values.length - 1 */\n      swap1\n      pop\n        /* \"token/SWORD.sol\":29257:29274  bytes32 lastvalue */\n      0x00\n        /* \"token/SWORD.sol\":29277:29280  set */\n      dup7\n        /* \"token/SWORD.sol\":29277:29288  set._values */\n      0x00\n      add\n        /* \"token/SWORD.sol\":29289:29298  lastIndex */\n      dup3\n        /* \"token/SWORD.sol\":29277:29299  set._values[lastIndex] */\n      dup2\n      sload\n      dup2\n      lt\n      tag_252\n      jumpi\n      invalid\n    tag_252:\n      swap1\n      0x00\n      mstore\n      keccak256(0x00, 0x20)\n      add\n      sload\n        /* \"token/SWORD.sol\":29257:29299  bytes32 lastvalue = set._values[lastIndex] */\n      swap1\n      pop\n        /* \"token/SWORD.sol\":29423:29432  lastvalue */\n      dup1\n        /* \"token/SWORD.sol\":29394:29397  set */\n      dup8\n        /* \"token/SWORD.sol\":29394:29405  set._values */\n      0x00\n      add\n        /* \"token/SWORD.sol\":29406:29419  toDeleteIndex */\n      dup5\n        /* \"token/SWORD.sol\":29394:29420  set._values[toDeleteIndex] */\n      dup2\n      sload\n      dup2\n      lt\n      tag_254\n      jumpi\n      invalid\n    tag_254:\n      swap1\n      0x00\n      mstore\n      keccak256(0x00, 0x20)\n      add\n        /* \"token/SWORD.sol\":29394:29432  set._values[toDeleteIndex] = lastvalue */\n      dup2\n      swap1\n      sstore\n      pop\n        /* \"token/SWORD.sol\":29542:29543  1 */\n      0x01\n        /* \"token/SWORD.sol\":29526:29539  toDeleteIndex */\n      dup4\n        /* \"token/SWORD.sol\":29526:29543  toDeleteIndex + 1 */\n      add\n        /* \"token/SWORD.sol\":29500:29503  set */\n      dup8\n        /* \"token/SWORD.sol\":29500:29512  set._indexes */\n      0x01\n      add\n        /* \"token/SWORD.sol\":29500:29523  set._indexes[lastvalue] */\n      0x00\n        /* \"token/SWORD.sol\":29513:29522  lastvalue */\n      dup4\n        /* \"token/SWORD.sol\":29500:29523  set._indexes[lastvalue] */\n      dup2\n      mstore\n      0x20\n      add\n      swap1\n      dup2\n      mstore\n      0x20\n      add\n      0x00\n      keccak256\n        /* \"token/SWORD.sol\":29500:29543  set._indexes[lastvalue] = toDeleteIndex + 1 */\n      dup2\n      swap1\n      sstore\n      pop\n        /* \"token/SWORD.sol\":29652:29655  set */\n      dup7\n        /* \"token/SWORD.sol\":29652:29663  set._values */\n      0x00\n      add\n        /* \"token/SWORD.sol\":29652:29669  set._values.pop() */\n      dup1\n      sload\n      dup1\n      tag_256\n      jumpi\n      invalid\n    tag_256:\n      0x01\n      swap1\n      sub\n      dup2\n      dup2\n      swap1\n      0x00\n      mstore\n      keccak256(0x00, 0x20)\n      add\n      0x00\n      swap1\n      sstore\n      swap1\n      sstore\n        /* \"token/SWORD.sol\":29747:29750  set */\n      dup7\n        /* \"token/SWORD.sol\":29747:29759  set._indexes */\n      0x01\n      add\n        /* \"token/SWORD.sol\":29747:29766  set._indexes[value] */\n      0x00\n        /* \"token/SWORD.sol\":29760:29765  value */\n      dup8\n        /* \"token/SWORD.sol\":29747:29766  set._indexes[value] */\n      dup2\n      mstore\n      0x20\n      add\n      swap1\n      dup2\n      mstore\n      0x20\n      add\n      0x00\n      keccak256\n        /* \"token/SWORD.sol\":29740:29766  delete set._indexes[value] */\n      0x00\n      swap1\n      sstore\n        /* \"token/SWORD.sol\":29790:29794  true */\n      0x01\n        /* \"token/SWORD.sol\":29783:29794  return true */\n      swap5\n      pop\n      pop\n      pop\n      pop\n      pop\n      jump(tag_250)\n        /* \"token/SWORD.sol\":28538:29851  if (valueIndex != 0) {\r... */\n    tag_251:\n        /* \"token/SWORD.sol\":29834:29839  false */\n      0x00\n        /* \"token/SWORD.sol\":29827:29839  return false */\n      swap2\n      pop\n      pop\n        /* \"token/SWORD.sol\":28301:29858  function _remove(Set storage set, bytes32 value) private returns (bool) {\r... */\n    tag_250:\n      swap3\n      swap2\n      pop\n      pop\n      jump\t// out\n        /* \"token/SWORD.sol\":30622:30826  function _at(Set storage set, uint256 index) private view returns (bytes32) {\r... */\n    tag_233:\n        /* \"token/SWORD.sol\":30689:30696  bytes32 */\n      0x00\n        /* \"token/SWORD.sol\":30738:30743  index */\n      dup2\n        /* \"token/SWORD.sol\":30717:30720  set */\n      dup4\n        /* \"token/SWORD.sol\":30717:30728  set._values */\n      0x00\n      add\n        /* \"token/SWORD.sol\":30717:30735  set._values.length */\n      dup1\n      sload\n      swap1\n      pop\n        /* \"token/SWORD.sol\":30717:30743  set._values.length > index */\n      gt\n        /* \"token/SWORD.sol\":30709:30782  require(set._values.length > index, 'EnumerableSet: index out of bounds') */\n      tag_260\n      jumpi\n      mload(0x40)\n      0x08c379a000000000000000000000000000000000000000000000000000000000\n      dup2\n      mstore\n      0x04\n      add\n      dup1\n      dup1\n      0x20\n      add\n      dup3\n      dup2\n      sub\n      dup3\n      mstore\n      0x22\n      dup2\n      mstore\n      0x20\n      add\n      dup1\n      data_045d6834e6193a687012a3ad777f612279e549b6945364d9d2324f48610d3cbb\n      0x22\n      swap2\n      codecopy\n      0x40\n      add\n      swap2\n      pop\n      pop\n      mload(0x40)\n      dup1\n      swap2\n      sub\n      swap1\n      revert\n    tag_260:\n        /* \"token/SWORD.sol\":30800:30803  set */\n      dup3\n        /* \"token/SWORD.sol\":30800:30811  set._values */\n      0x00\n      add\n        /* \"token/SWORD.sol\":30812:30817  index */\n      dup3\n        /* \"token/SWORD.sol\":30800:30818  set._values[index] */\n      dup2\n      sload\n      dup2\n      lt\n      tag_261\n      jumpi\n      invalid\n    tag_261:\n      swap1\n      0x00\n      mstore\n      keccak256(0x00, 0x20)\n      add\n      sload\n        /* \"token/SWORD.sol\":30793:30818  return set._values[index] */\n      swap1\n      pop\n        /* \"token/SWORD.sol\":30622:30826  function _at(Set storage set, uint256 index) private view returns (bytes32) {\r... */\n      swap3\n      swap2\n      pop\n      pop\n      jump\t// out\n        /* \"token/SWORD.sol\":25167:25515  function _burn(address account, uint256 amount) internal {\r... */\n    tag_236:\n        /* \"token/SWORD.sol\":25262:25263  0 */\n      0x00\n        /* \"token/SWORD.sol\":25243:25264  account != address(0) */\n      0xffffffffffffffffffffffffffffffffffffffff\n      and\n        /* \"token/SWORD.sol\":25243:25250  account */\n      dup3\n        /* \"token/SWORD.sol\":25243:25264  account != address(0) */\n      0xffffffffffffffffffffffffffffffffffffffff\n      and\n      eq\n      iszero\n        /* \"token/SWORD.sol\":25235:25302  require(account != address(0), 'ERC20: burn from the zero address') */\n      tag_264\n      jumpi\n      mload(0x40)\n      0x08c379a000000000000000000000000000000000000000000000000000000000\n      dup2\n      mstore\n      0x04\n      add\n      dup1\n      dup1\n      0x20\n      add\n      dup3\n      dup2\n      sub\n      dup3\n      mstore\n      0x21\n      dup2\n      mstore\n      0x20\n      add\n      dup1\n      data_b16788493b576042bb52c50ed56189e0b250db113c7bfb1c3897d25cf9632d7f\n      0x21\n      swap2\n      codecopy\n      0x40\n      add\n      swap2\n      pop\n      pop\n      mload(0x40)\n      dup1\n      swap2\n      sub\n      swap1\n      revert\n    tag_264:\n        /* \"token/SWORD.sol\":25336:25404  _balances[account].sub(amount, 'ERC20: burn amount exceeds balance') */\n      tag_265\n        /* \"token/SWORD.sol\":25359:25365  amount */\n      dup2\n        /* \"token/SWORD.sol\":25336:25404  _balances[account].sub(amount, 'ERC20: burn amount exceeds balance') */\n      mload(0x40)\n      dup1\n      0x60\n      add\n      0x40\n      mstore\n      dup1\n      0x22\n      dup2\n      mstore\n      0x20\n      add\n      data_149b126e7125232b4200af45303d04fba8b74653b1a295a6a561a528c33fefdd\n      0x22\n      swap2\n      codecopy\n        /* \"token/SWORD.sol\":25336:25345  _balances */\n      0x01\n        /* \"token/SWORD.sol\":25336:25354  _balances[account] */\n      0x00\n        /* \"token/SWORD.sol\":25346:25353  account */\n      dup7\n        /* \"token/SWORD.sol\":25336:25354  _balances[account] */\n      0xffffffffffffffffffffffffffffffffffffffff\n      and\n      0xffffffffffffffffffffffffffffffffffffffff\n      and\n      dup2\n      mstore\n      0x20\n      add\n      swap1\n      dup2\n      mstore\n      0x20\n      add\n      0x00\n      keccak256\n      sload\n        /* \"token/SWORD.sol\":25336:25358  _balances[account].sub */\n      tag_134\n      swap1\n        /* \"token/SWORD.sol\":25336:25404  _balances[account].sub(amount, 'ERC20: burn amount exceeds balance') */\n      swap3\n      swap2\n      swap1\n      0xffffffff\n      and\n      jump\t// in\n    tag_265:\n        /* \"token/SWORD.sol\":25315:25324  _balances */\n      0x01\n        /* \"token/SWORD.sol\":25315:25333  _balances[account] */\n      0x00\n        /* \"token/SWORD.sol\":25325:25332  account */\n      dup5\n        /* \"token/SWORD.sol\":25315:25333  _balances[account] */\n      0xffffffffffffffffffffffffffffffffffffffff\n      and\n      0xffffffffffffffffffffffffffffffffffffffff\n      and\n      dup2\n      mstore\n      0x20\n      add\n      swap1\n      dup2\n      mstore\n      0x20\n      add\n      0x00\n      keccak256\n        /* \"token/SWORD.sol\":25315:25404  _balances[account] = _balances[account].sub(amount, 'ERC20: burn amount exceeds balance') */\n      dup2\n      swap1\n      sstore\n      pop\n        /* \"token/SWORD.sol\":25430:25454  _totalSupply.sub(amount) */\n      tag_266\n        /* \"token/SWORD.sol\":25447:25453  amount */\n      dup2\n        /* \"token/SWORD.sol\":25430:25442  _totalSupply */\n      sload(0x03)\n        /* \"token/SWORD.sol\":25430:25446  _totalSupply.sub */\n      tag_267\n      swap1\n        /* \"token/SWORD.sol\":25430:25454  _totalSupply.sub(amount) */\n      swap2\n      swap1\n      0xffffffff\n      and\n      jump\t// in\n    tag_266:\n        /* \"token/SWORD.sol\":25415:25427  _totalSupply */\n      0x03\n        /* \"token/SWORD.sol\":25415:25454  _totalSupply = _totalSupply.sub(amount) */\n      dup2\n      swap1\n      sstore\n      pop\n        /* \"token/SWORD.sol\":25496:25497  0 */\n      0x00\n        /* \"token/SWORD.sol\":25470:25507  Transfer(account, address(0), amount) */\n      0xffffffffffffffffffffffffffffffffffffffff\n      and\n        /* \"token/SWORD.sol\":25479:25486  account */\n      dup3\n        /* \"token/SWORD.sol\":25470:25507  Transfer(account, address(0), amount) */\n      0xffffffffffffffffffffffffffffffffffffffff\n      and\n      0xddf252ad1be2c89b69c2b068fc378daa952ba7f163c4a11628f55a4df523b3ef\n        /* \"token/SWORD.sol\":25500:25506  amount */\n      dup4\n        /* \"token/SWORD.sol\":25470:25507  Transfer(account, address(0), amount) */\n      mload(0x40)\n      dup1\n      dup3\n      dup2\n      mstore\n      0x20\n      add\n      swap2\n      pop\n      pop\n      mload(0x40)\n      dup1\n      swap2\n      sub\n      swap1\n      log3\n        /* \"token/SWORD.sol\":25167:25515  function _burn(address account, uint256 amount) internal {\r... */\n      pop\n      pop\n      jump\t// out\n        /* \"token/SWORD.sol\":27711:28125  function _add(Set storage set, bytes32 value) private returns (bool) {\r... */\n    tag_243:\n        /* \"token/SWORD.sol\":27774:27778  bool */\n      0x00\n        /* \"token/SWORD.sol\":27796:27817  _contains(set, value) */\n      tag_269\n        /* \"token/SWORD.sol\":27806:27809  set */\n      dup4\n        /* \"token/SWORD.sol\":27811:27816  value */\n      dup4\n        /* \"token/SWORD.sol\":27796:27805  _contains */\n      tag_246\n        /* \"token/SWORD.sol\":27796:27817  _contains(set, value) */\n      jump\t// in\n    tag_269:\n        /* \"token/SWORD.sol\":27791:28118  if (!_contains(set, value)) {\r... */\n      tag_270\n      jumpi\n        /* \"token/SWORD.sol\":27834:27837  set */\n      dup3\n        /* \"token/SWORD.sol\":27834:27845  set._values */\n      0x00\n      add\n        /* \"token/SWORD.sol\":27851:27856  value */\n      dup3\n        /* \"token/SWORD.sol\":27834:27857  set._values.push(value) */\n      swap1\n      dup1\n      0x01\n      dup2\n      sload\n      add\n      dup1\n      dup3\n      sstore\n      dup1\n      swap2\n      pop\n      pop\n      0x01\n      swap1\n      sub\n      swap1\n      0x00\n      mstore\n      keccak256(0x00, 0x20)\n      add\n      0x00\n      swap1\n      swap2\n      swap1\n      swap2\n      swap1\n      swap2\n      pop\n      sstore\n        /* \"token/SWORD.sol\":28017:28020  set */\n      dup3\n        /* \"token/SWORD.sol\":28017:28028  set._values */\n      0x00\n      add\n        /* \"token/SWORD.sol\":28017:28035  set._values.length */\n      dup1\n      sload\n      swap1\n      pop\n        /* \"token/SWORD.sol\":27995:27998  set */\n      dup4\n        /* \"token/SWORD.sol\":27995:28007  set._indexes */\n      0x01\n      add\n        /* \"token/SWORD.sol\":27995:28014  set._indexes[value] */\n      0x00\n        /* \"token/SWORD.sol\":28008:28013  value */\n      dup5\n        /* \"token/SWORD.sol\":27995:28014  set._indexes[value] */\n      dup2\n      mstore\n      0x20\n      add\n      swap1\n      dup2\n      mstore\n      0x20\n      add\n      0x00\n      keccak256\n        /* \"token/SWORD.sol\":27995:28035  set._indexes[value] = set._values.length */\n      dup2\n      swap1\n      sstore\n      pop\n        /* \"token/SWORD.sol\":28057:28061  true */\n      0x01\n        /* \"token/SWORD.sol\":28050:28061  return true */\n      swap1\n      pop\n      jump(tag_268)\n        /* \"token/SWORD.sol\":27791:28118  if (!_contains(set, value)) {\r... */\n    tag_270:\n        /* \"token/SWORD.sol\":28101:28106  false */\n      0x00\n        /* \"token/SWORD.sol\":28094:28106  return false */\n      swap1\n      pop\n        /* \"token/SWORD.sol\":27711:28125  function _add(Set storage set, bytes32 value) private returns (bool) {\r... */\n    tag_268:\n      swap3\n      swap2\n      pop\n      pop\n      jump\t// out\n        /* \"token/SWORD.sol\":29944:30073  function _contains(Set storage set, bytes32 value) private view returns (bool) {\r... */\n    tag_246:\n        /* \"token/SWORD.sol\":30017:30021  bool */\n      0x00\n        /* \"token/SWORD.sol\":30064:30065  0 */\n      dup1\n        /* \"token/SWORD.sol\":30041:30044  set */\n      dup4\n        /* \"token/SWORD.sol\":30041:30053  set._indexes */\n      0x01\n      add\n        /* \"token/SWORD.sol\":30041:30060  set._indexes[value] */\n      0x00\n        /* \"token/SWORD.sol\":30054:30059  value */\n      dup5\n        /* \"token/SWORD.sol\":30041:30060  set._indexes[value] */\n      dup2\n      mstore\n      0x20\n      add\n      swap1\n      dup2\n      mstore\n      0x20\n      add\n      0x00\n      keccak256\n      sload\n        /* \"token/SWORD.sol\":30041:30065  set._indexes[value] != 0 */\n      eq\n      iszero\n        /* \"token/SWORD.sol\":30034:30065  return set._indexes[value] != 0 */\n      swap1\n      pop\n        /* \"token/SWORD.sol\":29944:30073  function _contains(Set storage set, bytes32 value) private view returns (bool) {\r... */\n      swap3\n      swap2\n      pop\n      pop\n      jump\t// out\n        /* \"token/SWORD.sol\":6495:6631  function sub(uint256 a, uint256 b) internal pure returns (uint256) {\r... */\n    tag_267:\n        /* \"token/SWORD.sol\":6553:6560  uint256 */\n      0x00\n        /* \"token/SWORD.sol\":6580:6623  sub(a, b, 'SafeMath: subtraction overflow') */\n      tag_275\n        /* \"token/SWORD.sol\":6584:6585  a */\n      dup4\n        /* \"token/SWORD.sol\":6587:6588  b */\n      dup4\n        /* \"token/SWORD.sol\":6580:6623  sub(a, b, 'SafeMath: subtraction overflow') */\n      mload(0x40)\n      dup1\n      0x40\n      add\n      0x40\n      mstore\n      dup1\n      0x1e\n      dup2\n      mstore\n      0x20\n      add\n      0x536166654d6174683a207375627472616374696f6e206f766572666c6f770000\n      dup2\n      mstore\n      pop\n        /* \"token/SWORD.sol\":6580:6583  sub */\n      tag_134\n        /* \"token/SWORD.sol\":6580:6623  sub(a, b, 'SafeMath: subtraction overflow') */\n      jump\t// in\n    tag_275:\n        /* \"token/SWORD.sol\":6573:6623  return sub(a, b, 'SafeMath: subtraction overflow') */\n      swap1\n      pop\n        /* \"token/SWORD.sol\":6495:6631  function sub(uint256 a, uint256 b) internal pure returns (uint256) {\r... */\n      swap3\n      swap2\n      pop\n      pop\n      jump\t// out\n    stop\n    data_045d6834e6193a687012a3ad777f612279e549b6945364d9d2324f48610d3cbb 456e756d657261626c655365743a20696e646578206f7574206f6620626f756e6473\n    data_0557e210f7a69a685100a7e4e3d0a7024c546085cee28910fd17d0b081d9516f 45524332303a207472616e7366657220746f20746865207a65726f2061646472657373\n    data_149b126e7125232b4200af45303d04fba8b74653b1a295a6a561a528c33fefdd 45524332303a206275726e20616d6f756e7420657863656564732062616c616e6365\n    data_245f15ff17f551913a7a18385165551503906a406f905ac1c2437281a7cd0cfe 4f776e61626c653a206e6577206f776e657220697320746865207a65726f2061646472657373\n    data_24883cc5fe64ace9d0df1893501ecb93c77180f0ff69cca79affb3c316dc8029 45524332303a20617070726f766520746f20746865207a65726f2061646472657373\n    data_4107e8a8b9e94bf8ff83080ddec1c0bffe897ebc2241b89d44f66b3d274088b6 45524332303a207472616e7366657220616d6f756e7420657863656564732062616c616e6365\n    data_53713859748343adba81ef8c97f575e984f70e7b69ff4d2d2ef1c3009cadc822 4d4d463a205f64656c4d696e74657220697320746865207a65726f2061646472657373\n    data_974d1b4421da69cc60b481194f0dad36a5bb4e23da810da7a7fb30cdba178330 45524332303a207472616e7366657220616d6f756e74206578636565647320616c6c6f77616e6365\n    data_a287c363786607a1457a2d9d12fa61c0073358e02d76b4035fc2c2d86a19c0db 45524332303a206275726e20616d6f756e74206578636565647320616c6c6f77616e6365\n    data_b16788493b576042bb52c50ed56189e0b250db113c7bfb1c3897d25cf9632d7f 45524332303a206275726e2066726f6d20746865207a65726f2061646472657373\n    data_baecc556b46f4ed0f2b4cb599d60785ac8563dd2dc0a5bf12edea1c39e5e1fea 45524332303a207472616e736665722066726f6d20746865207a65726f2061646472657373\n    data_c14406b32059cada6d28546e93015248f7ef04311a1609f8172f4714d01968d0 4d4d463a205f6164644d696e74657220697320746865207a65726f2061646472657373\n    data_c953f4879035ed60e766b34720f656aab5c697b141d924c283124ecedb91c208 45524332303a20617070726f76652066726f6d20746865207a65726f2061646472657373\n    data_f8b476f7d28209d77d4a4ac1fe36b9f8259aa1bb6bddfa6e89de7e51615cf8a8 45524332303a2064656372656173656420616c6c6f77616e63652062656c6f77207a65726f\n\n    auxdata: 0xa2646970667358221220bd9c392742053ec15bf72c20925f5e4cd41bc131143f6113a5628a913d92892664736f6c634300060c0033\n}\n",
				"bytecode": {
					"linkReferences": {},
					"object": "60806040523480156200001157600080fd5b506040518060400160405280600f81526020017f655a4b616c6962757220546f6b656e00000000000000000000000000000000008152506040518060400160405280600581526020017f53574f5244000000000000000000000000000000000000000000000000000000815250600062000090620001a260201b60201c565b9050806000806101000a81548173ffffffffffffffffffffffffffffffffffffffff021916908373ffffffffffffffffffffffffffffffffffffffff1602179055508073ffffffffffffffffffffffffffffffffffffffff16600073ffffffffffffffffffffffffffffffffffffffff167f8be0079c531659141344cd1fd0a4f28419497f9722a3daafe3b4186f6b6457e060405160405180910390a3508160049080519060200190620001469291906200043c565b5080600590805190602001906200015f9291906200043c565b506012600660006101000a81548160ff021916908360ff16021790555062000199336a04cc32a1490afbd9000000620001aa60201b60201c565b505050620004e2565b600033905090565b60008073ffffffffffffffffffffffffffffffffffffffff168373ffffffffffffffffffffffffffffffffffffffff1614156200024f576040517f08c379a000000000000000000000000000000000000000000000000000000000815260040180806020018281038252601f8152602001807f45524332303a206d696e7420746f20746865207a65726f20616464726573730081525060200191505060405180910390fd5b6a084595161401484a0000006200027760035484620003b360201b620016591790919060201c565b1115620002885760009050620003ad565b620002a482600354620003b360201b620016591790919060201c565b6003819055506200030382600160008673ffffffffffffffffffffffffffffffffffffffff1673ffffffffffffffffffffffffffffffffffffffff16815260200190815260200160002054620003b360201b620016591790919060201c565b600160008573ffffffffffffffffffffffffffffffffffffffff1673ffffffffffffffffffffffffffffffffffffffff168152602001908152602001600020819055508273ffffffffffffffffffffffffffffffffffffffff16600073ffffffffffffffffffffffffffffffffffffffff167fddf252ad1be2c89b69c2b068fc378daa952ba7f163c4a11628f55a4df523b3ef846040518082815260200191505060405180910390a35b92915050565b60008082840190508381101562000432576040517f08c379a000000000000000000000000000000000000000000000000000000000815260040180806020018281038252601b8152602001807f536166654d6174683a206164646974696f6e206f766572666c6f77000000000081525060200191505060405180910390fd5b8091505092915050565b828054600181600116156101000203166002900490600052602060002090601f016020900481019282601f106200047f57805160ff1916838001178555620004b0565b82800160010185558215620004b0579182015b82811115620004af57825182559160200191906001019062000492565b5b509050620004bf9190620004c3565b5090565b5b80821115620004de576000816000905550600101620004c4565b5090565b61275b80620004f26000396000f3fe608060405234801561001057600080fd5b50600436106101735760003560e01c8063715018a6116100de578063a0712d6811610097578063aa271e1a11610071578063aa271e1a146107d9578063d5abeb0114610833578063dd62ed3e14610851578063f2fde38b146108c957610173565b8063a0712d68146106cd578063a457c2d714610711578063a9059cbb1461077557610173565b8063715018a61461053057806379cc67901461053a578063893d20e8146105885780638da5cb5b146105bc57806395d89b41146105f0578063983b2d561461067357610173565b806323b872dd1161013057806323b872dd14610313578063313ce5671461039757806339509351146103b857806340c10f191461041c5780635b7121f81461048057806370a08231146104d857610173565b80630323aac71461017857806306fdde0314610196578063095ea7b3146102195780630c16ea831461027d57806318160ddd1461029b57806323338b88146102b9575b600080fd5b61018061090d565b6040518082815260200191505060405180910390f35b61019e61091e565b6040518080602001828103825283818151815260200191508051906020019080838360005b838110156101de5780820151818401526020810190506101c3565b50505050905090810190601f16801561020b5780820380516001836020036101000a031916815260200191505b509250505060405180910390f35b6102656004803603604081101561022f57600080fd5b81019080803573ffffffffffffffffffffffffffffffffffffffff169060200190929190803590602001909291905050506109c0565b60405180821515815260200191505060405180910390f35b6102856109de565b6040518082815260200191505060405180910390f35b6102a36109f1565b6040518082815260200191505060405180910390f35b6102fb600480360360208110156102cf57600080fd5b81019080803573ffffffffffffffffffffffffffffffffffffffff1690602001909291905050506109fb565b60405180821515815260200191505060405180910390f35b61037f6004803603606081101561032957600080fd5b81019080803573ffffffffffffffffffffffffffffffffffffffff169060200190929190803573ffffffffffffffffffffffffffffffffffffffff16906020019092919080359060200190929190505050610b5d565b60405180821515815260200191505060405180910390f35b61039f610c36565b604051808260ff16815260200191505060405180910390f35b610404600480360360408110156103ce57600080fd5b81019080803573ffffffffffffffffffffffffffffffffffffffff16906020019092919080359060200190929190505050610c4d565b60405180821515815260200191505060405180910390f35b6104686004803603604081101561043257600080fd5b81019080803573ffffffffffffffffffffffffffffffffffffffff16906020019092919080359060200190929190505050610d00565b60405180821515815260200191505060405180910390f35b6104ac6004803603602081101561049657600080fd5b8101908080359060200190929190505050610d92565b604051808273ffffffffffffffffffffffffffffffffffffffff16815260200191505060405180910390f35b61051a600480360360208110156104ee57600080fd5b81019080803573ffffffffffffffffffffffffffffffffffffffff169060200190929190505050610eee565b6040518082815260200191505060405180910390f35b610538610f37565b005b6105866004803603604081101561055057600080fd5b81019080803573ffffffffffffffffffffffffffffffffffffffff169060200190929190803590602001909291905050506110bd565b005b6105906110cb565b604051808273ffffffffffffffffffffffffffffffffffffffff16815260200191505060405180910390f35b6105c46110da565b604051808273ffffffffffffffffffffffffffffffffffffffff16815260200191505060405180910390f35b6105f8611103565b6040518080602001828103825283818151815260200191508051906020019080838360005b8381101561063857808201518184015260208101905061061d565b50505050905090810190601f1680156106655780820380516001836020036101000a031916815260200191505b509250505060405180910390f35b6106b56004803603602081101561068957600080fd5b81019080803573ffffffffffffffffffffffffffffffffffffffff1690602001909291905050506111a5565b60405180821515815260200191505060405180910390f35b6106f9600480360360208110156106e357600080fd5b8101908080359060200190929190505050611307565b60405180821515815260200191505060405180910390f35b61075d6004803603604081101561072757600080fd5b81019080803573ffffffffffffffffffffffffffffffffffffffff169060200190929190803590602001909291905050506113ec565b60405180821515815260200191505060405180910390f35b6107c16004803603604081101561078b57600080fd5b81019080803573ffffffffffffffffffffffffffffffffffffffff169060200190929190803590602001909291905050506114b9565b60405180821515815260200191505060405180910390f35b61081b600480360360208110156107ef57600080fd5b81019080803573ffffffffffffffffffffffffffffffffffffffff1690602001909291905050506114d7565b60405180821515815260200191505060405180910390f35b61083b6114eb565b6040518082815260200191505060405180910390f35b6108b36004803603604081101561086757600080fd5b81019080803573ffffffffffffffffffffffffffffffffffffffff169060200190929190803573ffffffffffffffffffffffffffffffffffffffff1690602001909291905050506114fe565b6040518082815260200191505060405180910390f35b61090b600480360360208110156108df57600080fd5b81019080803573ffffffffffffffffffffffffffffffffffffffff169060200190929190505050611585565b005b600061091960076116e1565b905090565b606060048054600181600116156101000203166002900480601f0160208091040260200160405190810160405280929190818152602001828054600181600116156101000203166002900480156109b65780601f1061098b576101008083540402835291602001916109b6565b820191906000526020600020905b81548152906001019060200180831161099957829003601f168201915b5050505050905090565b60006109d46109cd6116f6565b84846116fe565b6001905092915050565b60006a04cc32a1490afbd9000000905090565b6000600354905090565b6000610a056116f6565b73ffffffffffffffffffffffffffffffffffffffff1660008054906101000a900473ffffffffffffffffffffffffffffffffffffffff1673ffffffffffffffffffffffffffffffffffffffff1614610ac5576040517f08c379a00000000000000000000000000000000000000000000000000000000081526004018080602001828103825260208152602001807f4f776e61626c653a2063616c6c6572206973206e6f7420746865206f776e657281525060200191505060405180910390fd5b600073ffffffffffffffffffffffffffffffffffffffff168273ffffffffffffffffffffffffffffffffffffffff161415610b4b576040517f08c379a00000000000000000000000000000000000000000000000000000000081526004018080602001828103825260238152602001806126056023913960400191505060405180910390fd5b610b566007836118f5565b9050919050565b6000610b6a848484611925565b610c2b84610b766116f6565b610c268560405180606001604052806028815260200161262860289139600260008b73ffffffffffffffffffffffffffffffffffffffff1673ffffffffffffffffffffffffffffffffffffffff1681526020019081526020016000206000610bdc6116f6565b73ffffffffffffffffffffffffffffffffffffffff1673ffffffffffffffffffffffffffffffffffffffff16815260200190815260200160002054611bdf9092919063ffffffff16565b6116fe565b600190509392505050565b6000600660009054906101000a900460ff16905090565b6000610cf6610c5a6116f6565b84610cf18560026000610c6b6116f6565b73ffffffffffffffffffffffffffffffffffffffff1673ffffffffffffffffffffffffffffffffffffffff16815260200190815260200160002060008973ffffffffffffffffffffffffffffffffffffffff1673ffffffffffffffffffffffffffffffffffffffff1681526020019081526020016000205461165990919063ffffffff16565b6116fe565b6001905092915050565b6000610d0b336114d7565b610d7d576040517f08c379a00000000000000000000000000000000000000000000000000000000081526004018080602001828103825260188152602001807f63616c6c6572206973206e6f7420746865206d696e746572000000000000000081525060200191505060405180910390fd5b610d878383611c9f565b506001905092915050565b6000610d9c6116f6565b73ffffffffffffffffffffffffffffffffffffffff1660008054906101000a900473ffffffffffffffffffffffffffffffffffffffff1673ffffffffffffffffffffffffffffffffffffffff1614610e5c576040517f08c379a00000000000000000000000000000000000000000000000000000000081526004018080602001828103825260208152602001807f4f776e61626c653a2063616c6c6572206973206e6f7420746865206f776e657281525060200191505060405180910390fd5b6001610e6661090d565b03821115610edc576040517f08c379a00000000000000000000000000000000000000000000000000000000081526004018080602001828103825260188152602001807f4d4d463a20696e646578206f7574206f6620626f756e6473000000000000000081525060200191505060405180910390fd5b610ee7600783611e90565b9050919050565b6000600160008373ffffffffffffffffffffffffffffffffffffffff1673ffffffffffffffffffffffffffffffffffffffff168152602001908152602001600020549050919050565b610f3f6116f6565b73ffffffffffffffffffffffffffffffffffffffff1660008054906101000a900473ffffffffffffffffffffffffffffffffffffffff1673ffffffffffffffffffffffffffffffffffffffff1614610fff576040517f08c379a00000000000000000000000000000000000000000000000000000000081526004018080602001828103825260208152602001807f4f776e61626c653a2063616c6c6572206973206e6f7420746865206f776e657281525060200191505060405180910390fd5b600073ffffffffffffffffffffffffffffffffffffffff1660008054906101000a900473ffffffffffffffffffffffffffffffffffffffff1673ffffffffffffffffffffffffffffffffffffffff167f8be0079c531659141344cd1fd0a4f28419497f9722a3daafe3b4186f6b6457e060405160405180910390a360008060006101000a81548173ffffffffffffffffffffffffffffffffffffffff021916908373ffffffffffffffffffffffffffffffffffffffff160217905550565b6110c78282611eaa565b5050565b60006110d56110da565b905090565b60008060009054906101000a900473ffffffffffffffffffffffffffffffffffffffff16905090565b606060058054600181600116156101000203166002900480601f01602080910402602001604051908101604052809291908181526020018280546001816001161561010002031660029004801561119b5780601f106111705761010080835404028352916020019161119b565b820191906000526020600020905b81548152906001019060200180831161117e57829003601f168201915b5050505050905090565b60006111af6116f6565b73ffffffffffffffffffffffffffffffffffffffff1660008054906101000a900473ffffffffffffffffffffffffffffffffffffffff1673ffffffffffffffffffffffffffffffffffffffff161461126f576040517f08c379a00000000000000000000000000000000000000000000000000000000081526004018080602001828103825260208152602001807f4f776e61626c653a2063616c6c6572206973206e6f7420746865206f776e657281525060200191505060405180910390fd5b600073ffffffffffffffffffffffffffffffffffffffff168273ffffffffffffffffffffffffffffffffffffffff1614156112f5576040517f08c379a00000000000000000000000000000000000000000000000000000000081526004018080602001828103825260238152602001806126ba6023913960400191505060405180910390fd5b611300600783611f79565b9050919050565b60006113116116f6565b73ffffffffffffffffffffffffffffffffffffffff1660008054906101000a900473ffffffffffffffffffffffffffffffffffffffff1673ffffffffffffffffffffffffffffffffffffffff16146113d1576040517f08c379a00000000000000000000000000000000000000000000000000000000081526004018080602001828103825260208152602001807f4f776e61626c653a2063616c6c6572206973206e6f7420746865206f776e657281525060200191505060405180910390fd5b6113e26113dc6116f6565b83611c9f565b5060019050919050565b60006114af6113f96116f6565b846114aa8560405180606001604052806025815260200161270160259139600260006114236116f6565b73ffffffffffffffffffffffffffffffffffffffff1673ffffffffffffffffffffffffffffffffffffffff16815260200190815260200160002060008a73ffffffffffffffffffffffffffffffffffffffff1673ffffffffffffffffffffffffffffffffffffffff16815260200190815260200160002054611bdf9092919063ffffffff16565b6116fe565b6001905092915050565b60006114cd6114c66116f6565b8484611925565b6001905092915050565b60006114e4600783611fa9565b9050919050565b60006a084595161401484a000000905090565b6000600260008473ffffffffffffffffffffffffffffffffffffffff1673ffffffffffffffffffffffffffffffffffffffff16815260200190815260200160002060008373ffffffffffffffffffffffffffffffffffffffff1673ffffffffffffffffffffffffffffffffffffffff16815260200190815260200160002054905092915050565b61158d6116f6565b73ffffffffffffffffffffffffffffffffffffffff1660008054906101000a900473ffffffffffffffffffffffffffffffffffffffff1673ffffffffffffffffffffffffffffffffffffffff161461164d576040517f08c379a00000000000000000000000000000000000000000000000000000000081526004018080602001828103825260208152602001807f4f776e61626c653a2063616c6c6572206973206e6f7420746865206f776e657281525060200191505060405180910390fd5b61165681611fd9565b50565b6000808284019050838110156116d7576040517f08c379a000000000000000000000000000000000000000000000000000000000815260040180806020018281038252601b8152602001807f536166654d6174683a206164646974696f6e206f766572666c6f77000000000081525060200191505060405180910390fd5b8091505092915050565b60006116ef8260000161211c565b9050919050565b600033905090565b600073ffffffffffffffffffffffffffffffffffffffff168373ffffffffffffffffffffffffffffffffffffffff161415611784576040517f08c379a00000000000000000000000000000000000000000000000000000000081526004018080602001828103825260248152602001806126dd6024913960400191505060405180910390fd5b600073ffffffffffffffffffffffffffffffffffffffff168273ffffffffffffffffffffffffffffffffffffffff16141561180a576040517f08c379a00000000000000000000000000000000000000000000000000000000081526004018080602001828103825260228152602001806125bd6022913960400191505060405180910390fd5b80600260008573ffffffffffffffffffffffffffffffffffffffff1673ffffffffffffffffffffffffffffffffffffffff16815260200190815260200160002060008473ffffffffffffffffffffffffffffffffffffffff1673ffffffffffffffffffffffffffffffffffffffff168152602001908152602001600020819055508173ffffffffffffffffffffffffffffffffffffffff168373ffffffffffffffffffffffffffffffffffffffff167f8c5be1e5ebec7d5bd14f71427d1e84f3dd0314c0f7b2291e5b200ac8c7c3b925836040518082815260200191505060405180910390a3505050565b600061191d836000018373ffffffffffffffffffffffffffffffffffffffff1660001b61212d565b905092915050565b600073ffffffffffffffffffffffffffffffffffffffff168373ffffffffffffffffffffffffffffffffffffffff1614156119ab576040517f08c379a00000000000000000000000000000000000000000000000000000000081526004018080602001828103825260258152602001806126956025913960400191505060405180910390fd5b600073ffffffffffffffffffffffffffffffffffffffff168273ffffffffffffffffffffffffffffffffffffffff161415611a31576040517f08c379a00000000000000000000000000000000000000000000000000000000081526004018080602001828103825260238152602001806125526023913960400191505060405180910390fd5b611a9d816040518060600160405280602681526020016125df60269139600160008773ffffffffffffffffffffffffffffffffffffffff1673ffffffffffffffffffffffffffffffffffffffff16815260200190815260200160002054611bdf9092919063ffffffff16565b600160008573ffffffffffffffffffffffffffffffffffffffff1673ffffffffffffffffffffffffffffffffffffffff16815260200190815260200160002081905550611b3281600160008573ffffffffffffffffffffffffffffffffffffffff1673ffffffffffffffffffffffffffffffffffffffff1681526020019081526020016000205461165990919063ffffffff16565b600160008473ffffffffffffffffffffffffffffffffffffffff1673ffffffffffffffffffffffffffffffffffffffff168152602001908152602001600020819055508173ffffffffffffffffffffffffffffffffffffffff168373ffffffffffffffffffffffffffffffffffffffff167fddf252ad1be2c89b69c2b068fc378daa952ba7f163c4a11628f55a4df523b3ef836040518082815260200191505060405180910390a3505050565b6000838311158290611c8c576040517f08c379a00000000000000000000000000000000000000000000000000000000081526004018080602001828103825283818151815260200191508051906020019080838360005b83811015611c51578082015181840152602081019050611c36565b50505050905090810190601f168015611c7e5780820380516001836020036101000a031916815260200191505b509250505060405180910390fd5b5060008385039050809150509392505050565b60008073ffffffffffffffffffffffffffffffffffffffff168373ffffffffffffffffffffffffffffffffffffffff161415611d43576040517f08c379a000000000000000000000000000000000000000000000000000000000815260040180806020018281038252601f8152602001807f45524332303a206d696e7420746f20746865207a65726f20616464726573730081525060200191505060405180910390fd5b6a084595161401484a000000611d646003548461165990919063ffffffff16565b1115611d735760009050611e8a565b611d888260035461165990919063ffffffff16565b600381905550611de082600160008673ffffffffffffffffffffffffffffffffffffffff1673ffffffffffffffffffffffffffffffffffffffff1681526020019081526020016000205461165990919063ffffffff16565b600160008573ffffffffffffffffffffffffffffffffffffffff1673ffffffffffffffffffffffffffffffffffffffff168152602001908152602001600020819055508273ffffffffffffffffffffffffffffffffffffffff16600073ffffffffffffffffffffffffffffffffffffffff167fddf252ad1be2c89b69c2b068fc378daa952ba7f163c4a11628f55a4df523b3ef846040518082815260200191505060405180910390a35b92915050565b6000611e9f8360000183612215565b60001c905092915050565b611eb48282612298565b611f7582611ec06116f6565b611f708460405180606001604052806024815260200161265060249139600260008973ffffffffffffffffffffffffffffffffffffffff1673ffffffffffffffffffffffffffffffffffffffff1681526020019081526020016000206000611f266116f6565b73ffffffffffffffffffffffffffffffffffffffff1673ffffffffffffffffffffffffffffffffffffffff16815260200190815260200160002054611bdf9092919063ffffffff16565b6116fe565b5050565b6000611fa1836000018373ffffffffffffffffffffffffffffffffffffffff1660001b612452565b905092915050565b6000611fd1836000018373ffffffffffffffffffffffffffffffffffffffff1660001b6124c2565b905092915050565b600073ffffffffffffffffffffffffffffffffffffffff168173ffffffffffffffffffffffffffffffffffffffff16141561205f576040517f08c379a00000000000000000000000000000000000000000000000000000000081526004018080602001828103825260268152602001806125976026913960400191505060405180910390fd5b8073ffffffffffffffffffffffffffffffffffffffff1660008054906101000a900473ffffffffffffffffffffffffffffffffffffffff1673ffffffffffffffffffffffffffffffffffffffff167f8be0079c531659141344cd1fd0a4f28419497f9722a3daafe3b4186f6b6457e060405160405180910390a3806000806101000a81548173ffffffffffffffffffffffffffffffffffffffff021916908373ffffffffffffffffffffffffffffffffffffffff16021790555050565b600081600001805490509050919050565b60008083600101600084815260200190815260200160002054905060008114612209576000600182039050600060018660000180549050039050600086600001828154811061217857fe5b906000526020600020015490508087600001848154811061219557fe5b90600052602060002001819055506001830187600101600083815260200190815260200160002081905550866000018054806121cd57fe5b6001900381819060005260206000200160009055905586600101600087815260200190815260200160002060009055600194505050505061220f565b60009150505b92915050565b600081836000018054905011612276576040517f08c379a00000000000000000000000000000000000000000000000000000000081526004018080602001828103825260228152602001806125306022913960400191505060405180910390fd5b82600001828154811061228557fe5b9060005260206000200154905092915050565b600073ffffffffffffffffffffffffffffffffffffffff168273ffffffffffffffffffffffffffffffffffffffff16141561231e576040517f08c379a00000000000000000000000000000000000000000000000000000000081526004018080602001828103825260218152602001806126746021913960400191505060405180910390fd5b61238a8160405180606001604052806022815260200161257560229139600160008673ffffffffffffffffffffffffffffffffffffffff1673ffffffffffffffffffffffffffffffffffffffff16815260200190815260200160002054611bdf9092919063ffffffff16565b600160008473ffffffffffffffffffffffffffffffffffffffff1673ffffffffffffffffffffffffffffffffffffffff168152602001908152602001600020819055506123e2816003546124e590919063ffffffff16565b600381905550600073ffffffffffffffffffffffffffffffffffffffff168273ffffffffffffffffffffffffffffffffffffffff167fddf252ad1be2c89b69c2b068fc378daa952ba7f163c4a11628f55a4df523b3ef836040518082815260200191505060405180910390a35050565b600061245e83836124c2565b6124b75782600001829080600181540180825580915050600190039060005260206000200160009091909190915055826000018054905083600101600084815260200190815260200160002081905550600190506124bc565b600090505b92915050565b600080836001016000848152602001908152602001600020541415905092915050565b600061252783836040518060400160405280601e81526020017f536166654d6174683a207375627472616374696f6e206f766572666c6f770000815250611bdf565b90509291505056fe456e756d657261626c655365743a20696e646578206f7574206f6620626f756e647345524332303a207472616e7366657220746f20746865207a65726f206164647265737345524332303a206275726e20616d6f756e7420657863656564732062616c616e63654f776e61626c653a206e6577206f776e657220697320746865207a65726f206164647265737345524332303a20617070726f766520746f20746865207a65726f206164647265737345524332303a207472616e7366657220616d6f756e7420657863656564732062616c616e63654d4d463a205f64656c4d696e74657220697320746865207a65726f206164647265737345524332303a207472616e7366657220616d6f756e74206578636565647320616c6c6f77616e636545524332303a206275726e20616d6f756e74206578636565647320616c6c6f77616e636545524332303a206275726e2066726f6d20746865207a65726f206164647265737345524332303a207472616e736665722066726f6d20746865207a65726f20616464726573734d4d463a205f6164644d696e74657220697320746865207a65726f206164647265737345524332303a20617070726f76652066726f6d20746865207a65726f206164647265737345524332303a2064656372656173656420616c6c6f77616e63652062656c6f77207a65726fa2646970667358221220bd9c392742053ec15bf72c20925f5e4cd41bc131143f6113a5628a913d92892664736f6c634300060c0033",
					"opcodes": "PUSH1 0x80 PUSH1 0x40 MSTORE CALLVALUE DUP1 ISZERO PUSH3 0x11 JUMPI PUSH1 0x0 DUP1 REVERT JUMPDEST POP PUSH1 0x40 MLOAD DUP1 PUSH1 0x40 ADD PUSH1 0x40 MSTORE DUP1 PUSH1 0xF DUP2 MSTORE PUSH1 0x20 ADD PUSH32 0x655A4B616C6962757220546F6B656E0000000000000000000000000000000000 DUP2 MSTORE POP PUSH1 0x40 MLOAD DUP1 PUSH1 0x40 ADD PUSH1 0x40 MSTORE DUP1 PUSH1 0x5 DUP2 MSTORE PUSH1 0x20 ADD PUSH32 0x53574F5244000000000000000000000000000000000000000000000000000000 DUP2 MSTORE POP PUSH1 0x0 PUSH3 0x90 PUSH3 0x1A2 PUSH1 0x20 SHL PUSH1 0x20 SHR JUMP JUMPDEST SWAP1 POP DUP1 PUSH1 0x0 DUP1 PUSH2 0x100 EXP DUP2 SLOAD DUP2 PUSH20 0xFFFFFFFFFFFFFFFFFFFFFFFFFFFFFFFFFFFFFFFF MUL NOT AND SWAP1 DUP4 PUSH20 0xFFFFFFFFFFFFFFFFFFFFFFFFFFFFFFFFFFFFFFFF AND MUL OR SWAP1 SSTORE POP DUP1 PUSH20 0xFFFFFFFFFFFFFFFFFFFFFFFFFFFFFFFFFFFFFFFF AND PUSH1 0x0 PUSH20 0xFFFFFFFFFFFFFFFFFFFFFFFFFFFFFFFFFFFFFFFF AND PUSH32 0x8BE0079C531659141344CD1FD0A4F28419497F9722A3DAAFE3B4186F6B6457E0 PUSH1 0x40 MLOAD PUSH1 0x40 MLOAD DUP1 SWAP2 SUB SWAP1 LOG3 POP DUP2 PUSH1 0x4 SWAP1 DUP1 MLOAD SWAP1 PUSH1 0x20 ADD SWAP1 PUSH3 0x146 SWAP3 SWAP2 SWAP1 PUSH3 0x43C JUMP JUMPDEST POP DUP1 PUSH1 0x5 SWAP1 DUP1 MLOAD SWAP1 PUSH1 0x20 ADD SWAP1 PUSH3 0x15F SWAP3 SWAP2 SWAP1 PUSH3 0x43C JUMP JUMPDEST POP PUSH1 0x12 PUSH1 0x6 PUSH1 0x0 PUSH2 0x100 EXP DUP2 SLOAD DUP2 PUSH1 0xFF MUL NOT AND SWAP1 DUP4 PUSH1 0xFF AND MUL OR SWAP1 SSTORE POP PUSH3 0x199 CALLER PUSH11 0x4CC32A1490AFBD9000000 PUSH3 0x1AA PUSH1 0x20 SHL PUSH1 0x20 SHR JUMP JUMPDEST POP POP POP PUSH3 0x4E2 JUMP JUMPDEST PUSH1 0x0 CALLER SWAP1 POP SWAP1 JUMP JUMPDEST PUSH1 0x0 DUP1 PUSH20 0xFFFFFFFFFFFFFFFFFFFFFFFFFFFFFFFFFFFFFFFF AND DUP4 PUSH20 0xFFFFFFFFFFFFFFFFFFFFFFFFFFFFFFFFFFFFFFFF AND EQ ISZERO PUSH3 0x24F JUMPI PUSH1 0x40 MLOAD PUSH32 0x8C379A000000000000000000000000000000000000000000000000000000000 DUP2 MSTORE PUSH1 0x4 ADD DUP1 DUP1 PUSH1 0x20 ADD DUP3 DUP2 SUB DUP3 MSTORE PUSH1 0x1F DUP2 MSTORE PUSH1 0x20 ADD DUP1 PUSH32 0x45524332303A206D696E7420746F20746865207A65726F206164647265737300 DUP2 MSTORE POP PUSH1 0x20 ADD SWAP2 POP POP PUSH1 0x40 MLOAD DUP1 SWAP2 SUB SWAP1 REVERT JUMPDEST PUSH11 0x84595161401484A000000 PUSH3 0x277 PUSH1 0x3 SLOAD DUP5 PUSH3 0x3B3 PUSH1 0x20 SHL PUSH3 0x1659 OR SWAP1 SWAP2 SWAP1 PUSH1 0x20 SHR JUMP JUMPDEST GT ISZERO PUSH3 0x288 JUMPI PUSH1 0x0 SWAP1 POP PUSH3 0x3AD JUMP JUMPDEST PUSH3 0x2A4 DUP3 PUSH1 0x3 SLOAD PUSH3 0x3B3 PUSH1 0x20 SHL PUSH3 0x1659 OR SWAP1 SWAP2 SWAP1 PUSH1 0x20 SHR JUMP JUMPDEST PUSH1 0x3 DUP2 SWAP1 SSTORE POP PUSH3 0x303 DUP3 PUSH1 0x1 PUSH1 0x0 DUP7 PUSH20 0xFFFFFFFFFFFFFFFFFFFFFFFFFFFFFFFFFFFFFFFF AND PUSH20 0xFFFFFFFFFFFFFFFFFFFFFFFFFFFFFFFFFFFFFFFF AND DUP2 MSTORE PUSH1 0x20 ADD SWAP1 DUP2 MSTORE PUSH1 0x20 ADD PUSH1 0x0 KECCAK256 SLOAD PUSH3 0x3B3 PUSH1 0x20 SHL PUSH3 0x1659 OR SWAP1 SWAP2 SWAP1 PUSH1 0x20 SHR JUMP JUMPDEST PUSH1 0x1 PUSH1 0x0 DUP6 PUSH20 0xFFFFFFFFFFFFFFFFFFFFFFFFFFFFFFFFFFFFFFFF AND PUSH20 0xFFFFFFFFFFFFFFFFFFFFFFFFFFFFFFFFFFFFFFFF AND DUP2 MSTORE PUSH1 0x20 ADD SWAP1 DUP2 MSTORE PUSH1 0x20 ADD PUSH1 0x0 KECCAK256 DUP2 SWAP1 SSTORE POP DUP3 PUSH20 0xFFFFFFFFFFFFFFFFFFFFFFFFFFFFFFFFFFFFFFFF AND PUSH1 0x0 PUSH20 0xFFFFFFFFFFFFFFFFFFFFFFFFFFFFFFFFFFFFFFFF AND PUSH32 0xDDF252AD1BE2C89B69C2B068FC378DAA952BA7F163C4A11628F55A4DF523B3EF DUP5 PUSH1 0x40 MLOAD DUP1 DUP3 DUP2 MSTORE PUSH1 0x20 ADD SWAP2 POP POP PUSH1 0x40 MLOAD DUP1 SWAP2 SUB SWAP1 LOG3 JUMPDEST SWAP3 SWAP2 POP POP JUMP JUMPDEST PUSH1 0x0 DUP1 DUP3 DUP5 ADD SWAP1 POP DUP4 DUP2 LT ISZERO PUSH3 0x432 JUMPI PUSH1 0x40 MLOAD PUSH32 0x8C379A000000000000000000000000000000000000000000000000000000000 DUP2 MSTORE PUSH1 0x4 ADD DUP1 DUP1 PUSH1 0x20 ADD DUP3 DUP2 SUB DUP3 MSTORE PUSH1 0x1B DUP2 MSTORE PUSH1 0x20 ADD DUP1 PUSH32 0x536166654D6174683A206164646974696F6E206F766572666C6F770000000000 DUP2 MSTORE POP PUSH1 0x20 ADD SWAP2 POP POP PUSH1 0x40 MLOAD DUP1 SWAP2 SUB SWAP1 REVERT JUMPDEST DUP1 SWAP2 POP POP SWAP3 SWAP2 POP POP JUMP JUMPDEST DUP3 DUP1 SLOAD PUSH1 0x1 DUP2 PUSH1 0x1 AND ISZERO PUSH2 0x100 MUL SUB AND PUSH1 0x2 SWAP1 DIV SWAP1 PUSH1 0x0 MSTORE PUSH1 0x20 PUSH1 0x0 KECCAK256 SWAP1 PUSH1 0x1F ADD PUSH1 0x20 SWAP1 DIV DUP2 ADD SWAP3 DUP3 PUSH1 0x1F LT PUSH3 0x47F JUMPI DUP1 MLOAD PUSH1 0xFF NOT AND DUP4 DUP1 ADD OR DUP6 SSTORE PUSH3 0x4B0 JUMP JUMPDEST DUP3 DUP1 ADD PUSH1 0x1 ADD DUP6 SSTORE DUP3 ISZERO PUSH3 0x4B0 JUMPI SWAP2 DUP3 ADD JUMPDEST DUP3 DUP2 GT ISZERO PUSH3 0x4AF JUMPI DUP3 MLOAD DUP3 SSTORE SWAP2 PUSH1 0x20 ADD SWAP2 SWAP1 PUSH1 0x1 ADD SWAP1 PUSH3 0x492 JUMP JUMPDEST JUMPDEST POP SWAP1 POP PUSH3 0x4BF SWAP2 SWAP1 PUSH3 0x4C3 JUMP JUMPDEST POP SWAP1 JUMP JUMPDEST JUMPDEST DUP1 DUP3 GT ISZERO PUSH3 0x4DE JUMPI PUSH1 0x0 DUP2 PUSH1 0x0 SWAP1 SSTORE POP PUSH1 0x1 ADD PUSH3 0x4C4 JUMP JUMPDEST POP SWAP1 JUMP JUMPDEST PUSH2 0x275B DUP1 PUSH3 0x4F2 PUSH1 0x0 CODECOPY PUSH1 0x0 RETURN INVALID PUSH1 0x80 PUSH1 0x40 MSTORE CALLVALUE DUP1 ISZERO PUSH2 0x10 JUMPI PUSH1 0x0 DUP1 REVERT JUMPDEST POP PUSH1 0x4 CALLDATASIZE LT PUSH2 0x173 JUMPI PUSH1 0x0 CALLDATALOAD PUSH1 0xE0 SHR DUP1 PUSH4 0x715018A6 GT PUSH2 0xDE JUMPI DUP1 PUSH4 0xA0712D68 GT PUSH2 0x97 JUMPI DUP1 PUSH4 0xAA271E1A GT PUSH2 0x71 JUMPI DUP1 PUSH4 0xAA271E1A EQ PUSH2 0x7D9 JUMPI DUP1 PUSH4 0xD5ABEB01 EQ PUSH2 0x833 JUMPI DUP1 PUSH4 0xDD62ED3E EQ PUSH2 0x851 JUMPI DUP1 PUSH4 0xF2FDE38B EQ PUSH2 0x8C9 JUMPI PUSH2 0x173 JUMP JUMPDEST DUP1 PUSH4 0xA0712D68 EQ PUSH2 0x6CD JUMPI DUP1 PUSH4 0xA457C2D7 EQ PUSH2 0x711 JUMPI DUP1 PUSH4 0xA9059CBB EQ PUSH2 0x775 JUMPI PUSH2 0x173 JUMP JUMPDEST DUP1 PUSH4 0x715018A6 EQ PUSH2 0x530 JUMPI DUP1 PUSH4 0x79CC6790 EQ PUSH2 0x53A JUMPI DUP1 PUSH4 0x893D20E8 EQ PUSH2 0x588 JUMPI DUP1 PUSH4 0x8DA5CB5B EQ PUSH2 0x5BC JUMPI DUP1 PUSH4 0x95D89B41 EQ PUSH2 0x5F0 JUMPI DUP1 PUSH4 0x983B2D56 EQ PUSH2 0x673 JUMPI PUSH2 0x173 JUMP JUMPDEST DUP1 PUSH4 0x23B872DD GT PUSH2 0x130 JUMPI DUP1 PUSH4 0x23B872DD EQ PUSH2 0x313 JUMPI DUP1 PUSH4 0x313CE567 EQ PUSH2 0x397 JUMPI DUP1 PUSH4 0x39509351 EQ PUSH2 0x3B8 JUMPI DUP1 PUSH4 0x40C10F19 EQ PUSH2 0x41C JUMPI DUP1 PUSH4 0x5B7121F8 EQ PUSH2 0x480 JUMPI DUP1 PUSH4 0x70A08231 EQ PUSH2 0x4D8 JUMPI PUSH2 0x173 JUMP JUMPDEST DUP1 PUSH4 0x323AAC7 EQ PUSH2 0x178 JUMPI DUP1 PUSH4 0x6FDDE03 EQ PUSH2 0x196 JUMPI DUP1 PUSH4 0x95EA7B3 EQ PUSH2 0x219 JUMPI DUP1 PUSH4 0xC16EA83 EQ PUSH2 0x27D JUMPI DUP1 PUSH4 0x18160DDD EQ PUSH2 0x29B JUMPI DUP1 PUSH4 0x23338B88 EQ PUSH2 0x2B9 JUMPI JUMPDEST PUSH1 0x0 DUP1 REVERT JUMPDEST PUSH2 0x180 PUSH2 0x90D JUMP JUMPDEST PUSH1 0x40 MLOAD DUP1 DUP3 DUP2 MSTORE PUSH1 0x20 ADD SWAP2 POP POP PUSH1 0x40 MLOAD DUP1 SWAP2 SUB SWAP1 RETURN JUMPDEST PUSH2 0x19E PUSH2 0x91E JUMP JUMPDEST PUSH1 0x40 MLOAD DUP1 DUP1 PUSH1 0x20 ADD DUP3 DUP2 SUB DUP3 MSTORE DUP4 DUP2 DUP2 MLOAD DUP2 MSTORE PUSH1 0x20 ADD SWAP2 POP DUP1 MLOAD SWAP1 PUSH1 0x20 ADD SWAP1 DUP1 DUP4 DUP4 PUSH1 0x0 JUMPDEST DUP4 DUP2 LT ISZERO PUSH2 0x1DE JUMPI DUP1 DUP3 ADD MLOAD DUP2 DUP5 ADD MSTORE PUSH1 0x20 DUP2 ADD SWAP1 POP PUSH2 0x1C3 JUMP JUMPDEST POP POP POP POP SWAP1 POP SWAP1 DUP2 ADD SWAP1 PUSH1 0x1F AND DUP1 ISZERO PUSH2 0x20B JUMPI DUP1 DUP3 SUB DUP1 MLOAD PUSH1 0x1 DUP4 PUSH1 0x20 SUB PUSH2 0x100 EXP SUB NOT AND DUP2 MSTORE PUSH1 0x20 ADD SWAP2 POP JUMPDEST POP SWAP3 POP POP POP PUSH1 0x40 MLOAD DUP1 SWAP2 SUB SWAP1 RETURN JUMPDEST PUSH2 0x265 PUSH1 0x4 DUP1 CALLDATASIZE SUB PUSH1 0x40 DUP2 LT ISZERO PUSH2 0x22F JUMPI PUSH1 0x0 DUP1 REVERT JUMPDEST DUP2 ADD SWAP1 DUP1 DUP1 CALLDATALOAD PUSH20 0xFFFFFFFFFFFFFFFFFFFFFFFFFFFFFFFFFFFFFFFF AND SWAP1 PUSH1 0x20 ADD SWAP1 SWAP3 SWAP2 SWAP1 DUP1 CALLDATALOAD SWAP1 PUSH1 0x20 ADD SWAP1 SWAP3 SWAP2 SWAP1 POP POP POP PUSH2 0x9C0 JUMP JUMPDEST PUSH1 0x40 MLOAD DUP1 DUP3 ISZERO ISZERO DUP2 MSTORE PUSH1 0x20 ADD SWAP2 POP POP PUSH1 0x40 MLOAD DUP1 SWAP2 SUB SWAP1 RETURN JUMPDEST PUSH2 0x285 PUSH2 0x9DE JUMP JUMPDEST PUSH1 0x40 MLOAD DUP1 DUP3 DUP2 MSTORE PUSH1 0x20 ADD SWAP2 POP POP PUSH1 0x40 MLOAD DUP1 SWAP2 SUB SWAP1 RETURN JUMPDEST PUSH2 0x2A3 PUSH2 0x9F1 JUMP JUMPDEST PUSH1 0x40 MLOAD DUP1 DUP3 DUP2 MSTORE PUSH1 0x20 ADD SWAP2 POP POP PUSH1 0x40 MLOAD DUP1 SWAP2 SUB SWAP1 RETURN JUMPDEST PUSH2 0x2FB PUSH1 0x4 DUP1 CALLDATASIZE SUB PUSH1 0x20 DUP2 LT ISZERO PUSH2 0x2CF JUMPI PUSH1 0x0 DUP1 REVERT JUMPDEST DUP2 ADD SWAP1 DUP1 DUP1 CALLDATALOAD PUSH20 0xFFFFFFFFFFFFFFFFFFFFFFFFFFFFFFFFFFFFFFFF AND SWAP1 PUSH1 0x20 ADD SWAP1 SWAP3 SWAP2 SWAP1 POP POP POP PUSH2 0x9FB JUMP JUMPDEST PUSH1 0x40 MLOAD DUP1 DUP3 ISZERO ISZERO DUP2 MSTORE PUSH1 0x20 ADD SWAP2 POP POP PUSH1 0x40 MLOAD DUP1 SWAP2 SUB SWAP1 RETURN JUMPDEST PUSH2 0x37F PUSH1 0x4 DUP1 CALLDATASIZE SUB PUSH1 0x60 DUP2 LT ISZERO PUSH2 0x329 JUMPI PUSH1 0x0 DUP1 REVERT JUMPDEST DUP2 ADD SWAP1 DUP1 DUP1 CALLDATALOAD PUSH20 0xFFFFFFFFFFFFFFFFFFFFFFFFFFFFFFFFFFFFFFFF AND SWAP1 PUSH1 0x20 ADD SWAP1 SWAP3 SWAP2 SWAP1 DUP1 CALLDATALOAD PUSH20 0xFFFFFFFFFFFFFFFFFFFFFFFFFFFFFFFFFFFFFFFF AND SWAP1 PUSH1 0x20 ADD SWAP1 SWAP3 SWAP2 SWAP1 DUP1 CALLDATALOAD SWAP1 PUSH1 0x20 ADD SWAP1 SWAP3 SWAP2 SWAP1 POP POP POP PUSH2 0xB5D JUMP JUMPDEST PUSH1 0x40 MLOAD DUP1 DUP3 ISZERO ISZERO DUP2 MSTORE PUSH1 0x20 ADD SWAP2 POP POP PUSH1 0x40 MLOAD DUP1 SWAP2 SUB SWAP1 RETURN JUMPDEST PUSH2 0x39F PUSH2 0xC36 JUMP JUMPDEST PUSH1 0x40 MLOAD DUP1 DUP3 PUSH1 0xFF AND DUP2 MSTORE PUSH1 0x20 ADD SWAP2 POP POP PUSH1 0x40 MLOAD DUP1 SWAP2 SUB SWAP1 RETURN JUMPDEST PUSH2 0x404 PUSH1 0x4 DUP1 CALLDATASIZE SUB PUSH1 0x40 DUP2 LT ISZERO PUSH2 0x3CE JUMPI PUSH1 0x0 DUP1 REVERT JUMPDEST DUP2 ADD SWAP1 DUP1 DUP1 CALLDATALOAD PUSH20 0xFFFFFFFFFFFFFFFFFFFFFFFFFFFFFFFFFFFFFFFF AND SWAP1 PUSH1 0x20 ADD SWAP1 SWAP3 SWAP2 SWAP1 DUP1 CALLDATALOAD SWAP1 PUSH1 0x20 ADD SWAP1 SWAP3 SWAP2 SWAP1 POP POP POP PUSH2 0xC4D JUMP JUMPDEST PUSH1 0x40 MLOAD DUP1 DUP3 ISZERO ISZERO DUP2 MSTORE PUSH1 0x20 ADD SWAP2 POP POP PUSH1 0x40 MLOAD DUP1 SWAP2 SUB SWAP1 RETURN JUMPDEST PUSH2 0x468 PUSH1 0x4 DUP1 CALLDATASIZE SUB PUSH1 0x40 DUP2 LT ISZERO PUSH2 0x432 JUMPI PUSH1 0x0 DUP1 REVERT JUMPDEST DUP2 ADD SWAP1 DUP1 DUP1 CALLDATALOAD PUSH20 0xFFFFFFFFFFFFFFFFFFFFFFFFFFFFFFFFFFFFFFFF AND SWAP1 PUSH1 0x20 ADD SWAP1 SWAP3 SWAP2 SWAP1 DUP1 CALLDATALOAD SWAP1 PUSH1 0x20 ADD SWAP1 SWAP3 SWAP2 SWAP1 POP POP POP PUSH2 0xD00 JUMP JUMPDEST PUSH1 0x40 MLOAD DUP1 DUP3 ISZERO ISZERO DUP2 MSTORE PUSH1 0x20 ADD SWAP2 POP POP PUSH1 0x40 MLOAD DUP1 SWAP2 SUB SWAP1 RETURN JUMPDEST PUSH2 0x4AC PUSH1 0x4 DUP1 CALLDATASIZE SUB PUSH1 0x20 DUP2 LT ISZERO PUSH2 0x496 JUMPI PUSH1 0x0 DUP1 REVERT JUMPDEST DUP2 ADD SWAP1 DUP1 DUP1 CALLDATALOAD SWAP1 PUSH1 0x20 ADD SWAP1 SWAP3 SWAP2 SWAP1 POP POP POP PUSH2 0xD92 JUMP JUMPDEST PUSH1 0x40 MLOAD DUP1 DUP3 PUSH20 0xFFFFFFFFFFFFFFFFFFFFFFFFFFFFFFFFFFFFFFFF AND DUP2 MSTORE PUSH1 0x20 ADD SWAP2 POP POP PUSH1 0x40 MLOAD DUP1 SWAP2 SUB SWAP1 RETURN JUMPDEST PUSH2 0x51A PUSH1 0x4 DUP1 CALLDATASIZE SUB PUSH1 0x20 DUP2 LT ISZERO PUSH2 0x4EE JUMPI PUSH1 0x0 DUP1 REVERT JUMPDEST DUP2 ADD SWAP1 DUP1 DUP1 CALLDATALOAD PUSH20 0xFFFFFFFFFFFFFFFFFFFFFFFFFFFFFFFFFFFFFFFF AND SWAP1 PUSH1 0x20 ADD SWAP1 SWAP3 SWAP2 SWAP1 POP POP POP PUSH2 0xEEE JUMP JUMPDEST PUSH1 0x40 MLOAD DUP1 DUP3 DUP2 MSTORE PUSH1 0x20 ADD SWAP2 POP POP PUSH1 0x40 MLOAD DUP1 SWAP2 SUB SWAP1 RETURN JUMPDEST PUSH2 0x538 PUSH2 0xF37 JUMP JUMPDEST STOP JUMPDEST PUSH2 0x586 PUSH1 0x4 DUP1 CALLDATASIZE SUB PUSH1 0x40 DUP2 LT ISZERO PUSH2 0x550 JUMPI PUSH1 0x0 DUP1 REVERT JUMPDEST DUP2 ADD SWAP1 DUP1 DUP1 CALLDATALOAD PUSH20 0xFFFFFFFFFFFFFFFFFFFFFFFFFFFFFFFFFFFFFFFF AND SWAP1 PUSH1 0x20 ADD SWAP1 SWAP3 SWAP2 SWAP1 DUP1 CALLDATALOAD SWAP1 PUSH1 0x20 ADD SWAP1 SWAP3 SWAP2 SWAP1 POP POP POP PUSH2 0x10BD JUMP JUMPDEST STOP JUMPDEST PUSH2 0x590 PUSH2 0x10CB JUMP JUMPDEST PUSH1 0x40 MLOAD DUP1 DUP3 PUSH20 0xFFFFFFFFFFFFFFFFFFFFFFFFFFFFFFFFFFFFFFFF AND DUP2 MSTORE PUSH1 0x20 ADD SWAP2 POP POP PUSH1 0x40 MLOAD DUP1 SWAP2 SUB SWAP1 RETURN JUMPDEST PUSH2 0x5C4 PUSH2 0x10DA JUMP JUMPDEST PUSH1 0x40 MLOAD DUP1 DUP3 PUSH20 0xFFFFFFFFFFFFFFFFFFFFFFFFFFFFFFFFFFFFFFFF AND DUP2 MSTORE PUSH1 0x20 ADD SWAP2 POP POP PUSH1 0x40 MLOAD DUP1 SWAP2 SUB SWAP1 RETURN JUMPDEST PUSH2 0x5F8 PUSH2 0x1103 JUMP JUMPDEST PUSH1 0x40 MLOAD DUP1 DUP1 PUSH1 0x20 ADD DUP3 DUP2 SUB DUP3 MSTORE DUP4 DUP2 DUP2 MLOAD DUP2 MSTORE PUSH1 0x20 ADD SWAP2 POP DUP1 MLOAD SWAP1 PUSH1 0x20 ADD SWAP1 DUP1 DUP4 DUP4 PUSH1 0x0 JUMPDEST DUP4 DUP2 LT ISZERO PUSH2 0x638 JUMPI DUP1 DUP3 ADD MLOAD DUP2 DUP5 ADD MSTORE PUSH1 0x20 DUP2 ADD SWAP1 POP PUSH2 0x61D JUMP JUMPDEST POP POP POP POP SWAP1 POP SWAP1 DUP2 ADD SWAP1 PUSH1 0x1F AND DUP1 ISZERO PUSH2 0x665 JUMPI DUP1 DUP3 SUB DUP1 MLOAD PUSH1 0x1 DUP4 PUSH1 0x20 SUB PUSH2 0x100 EXP SUB NOT AND DUP2 MSTORE PUSH1 0x20 ADD SWAP2 POP JUMPDEST POP SWAP3 POP POP POP PUSH1 0x40 MLOAD DUP1 SWAP2 SUB SWAP1 RETURN JUMPDEST PUSH2 0x6B5 PUSH1 0x4 DUP1 CALLDATASIZE SUB PUSH1 0x20 DUP2 LT ISZERO PUSH2 0x689 JUMPI PUSH1 0x0 DUP1 REVERT JUMPDEST DUP2 ADD SWAP1 DUP1 DUP1 CALLDATALOAD PUSH20 0xFFFFFFFFFFFFFFFFFFFFFFFFFFFFFFFFFFFFFFFF AND SWAP1 PUSH1 0x20 ADD SWAP1 SWAP3 SWAP2 SWAP1 POP POP POP PUSH2 0x11A5 JUMP JUMPDEST PUSH1 0x40 MLOAD DUP1 DUP3 ISZERO ISZERO DUP2 MSTORE PUSH1 0x20 ADD SWAP2 POP POP PUSH1 0x40 MLOAD DUP1 SWAP2 SUB SWAP1 RETURN JUMPDEST PUSH2 0x6F9 PUSH1 0x4 DUP1 CALLDATASIZE SUB PUSH1 0x20 DUP2 LT ISZERO PUSH2 0x6E3 JUMPI PUSH1 0x0 DUP1 REVERT JUMPDEST DUP2 ADD SWAP1 DUP1 DUP1 CALLDATALOAD SWAP1 PUSH1 0x20 ADD SWAP1 SWAP3 SWAP2 SWAP1 POP POP POP PUSH2 0x1307 JUMP JUMPDEST PUSH1 0x40 MLOAD DUP1 DUP3 ISZERO ISZERO DUP2 MSTORE PUSH1 0x20 ADD SWAP2 POP POP PUSH1 0x40 MLOAD DUP1 SWAP2 SUB SWAP1 RETURN JUMPDEST PUSH2 0x75D PUSH1 0x4 DUP1 CALLDATASIZE SUB PUSH1 0x40 DUP2 LT ISZERO PUSH2 0x727 JUMPI PUSH1 0x0 DUP1 REVERT JUMPDEST DUP2 ADD SWAP1 DUP1 DUP1 CALLDATALOAD PUSH20 0xFFFFFFFFFFFFFFFFFFFFFFFFFFFFFFFFFFFFFFFF AND SWAP1 PUSH1 0x20 ADD SWAP1 SWAP3 SWAP2 SWAP1 DUP1 CALLDATALOAD SWAP1 PUSH1 0x20 ADD SWAP1 SWAP3 SWAP2 SWAP1 POP POP POP PUSH2 0x13EC JUMP JUMPDEST PUSH1 0x40 MLOAD DUP1 DUP3 ISZERO ISZERO DUP2 MSTORE PUSH1 0x20 ADD SWAP2 POP POP PUSH1 0x40 MLOAD DUP1 SWAP2 SUB SWAP1 RETURN JUMPDEST PUSH2 0x7C1 PUSH1 0x4 DUP1 CALLDATASIZE SUB PUSH1 0x40 DUP2 LT ISZERO PUSH2 0x78B JUMPI PUSH1 0x0 DUP1 REVERT JUMPDEST DUP2 ADD SWAP1 DUP1 DUP1 CALLDATALOAD PUSH20 0xFFFFFFFFFFFFFFFFFFFFFFFFFFFFFFFFFFFFFFFF AND SWAP1 PUSH1 0x20 ADD SWAP1 SWAP3 SWAP2 SWAP1 DUP1 CALLDATALOAD SWAP1 PUSH1 0x20 ADD SWAP1 SWAP3 SWAP2 SWAP1 POP POP POP PUSH2 0x14B9 JUMP JUMPDEST PUSH1 0x40 MLOAD DUP1 DUP3 ISZERO ISZERO DUP2 MSTORE PUSH1 0x20 ADD SWAP2 POP POP PUSH1 0x40 MLOAD DUP1 SWAP2 SUB SWAP1 RETURN JUMPDEST PUSH2 0x81B PUSH1 0x4 DUP1 CALLDATASIZE SUB PUSH1 0x20 DUP2 LT ISZERO PUSH2 0x7EF JUMPI PUSH1 0x0 DUP1 REVERT JUMPDEST DUP2 ADD SWAP1 DUP1 DUP1 CALLDATALOAD PUSH20 0xFFFFFFFFFFFFFFFFFFFFFFFFFFFFFFFFFFFFFFFF AND SWAP1 PUSH1 0x20 ADD SWAP1 SWAP3 SWAP2 SWAP1 POP POP POP PUSH2 0x14D7 JUMP JUMPDEST PUSH1 0x40 MLOAD DUP1 DUP3 ISZERO ISZERO DUP2 MSTORE PUSH1 0x20 ADD SWAP2 POP POP PUSH1 0x40 MLOAD DUP1 SWAP2 SUB SWAP1 RETURN JUMPDEST PUSH2 0x83B PUSH2 0x14EB JUMP JUMPDEST PUSH1 0x40 MLOAD DUP1 DUP3 DUP2 MSTORE PUSH1 0x20 ADD SWAP2 POP POP PUSH1 0x40 MLOAD DUP1 SWAP2 SUB SWAP1 RETURN JUMPDEST PUSH2 0x8B3 PUSH1 0x4 DUP1 CALLDATASIZE SUB PUSH1 0x40 DUP2 LT ISZERO PUSH2 0x867 JUMPI PUSH1 0x0 DUP1 REVERT JUMPDEST DUP2 ADD SWAP1 DUP1 DUP1 CALLDATALOAD PUSH20 0xFFFFFFFFFFFFFFFFFFFFFFFFFFFFFFFFFFFFFFFF AND SWAP1 PUSH1 0x20 ADD SWAP1 SWAP3 SWAP2 SWAP1 DUP1 CALLDATALOAD PUSH20 0xFFFFFFFFFFFFFFFFFFFFFFFFFFFFFFFFFFFFFFFF AND SWAP1 PUSH1 0x20 ADD SWAP1 SWAP3 SWAP2 SWAP1 POP POP POP PUSH2 0x14FE JUMP JUMPDEST PUSH1 0x40 MLOAD DUP1 DUP3 DUP2 MSTORE PUSH1 0x20 ADD SWAP2 POP POP PUSH1 0x40 MLOAD DUP1 SWAP2 SUB SWAP1 RETURN JUMPDEST PUSH2 0x90B PUSH1 0x4 DUP1 CALLDATASIZE SUB PUSH1 0x20 DUP2 LT ISZERO PUSH2 0x8DF JUMPI PUSH1 0x0 DUP1 REVERT JUMPDEST DUP2 ADD SWAP1 DUP1 DUP1 CALLDATALOAD PUSH20 0xFFFFFFFFFFFFFFFFFFFFFFFFFFFFFFFFFFFFFFFF AND SWAP1 PUSH1 0x20 ADD SWAP1 SWAP3 SWAP2 SWAP1 POP POP POP PUSH2 0x1585 JUMP JUMPDEST STOP JUMPDEST PUSH1 0x0 PUSH2 0x919 PUSH1 0x7 PUSH2 0x16E1 JUMP JUMPDEST SWAP1 POP SWAP1 JUMP JUMPDEST PUSH1 0x60 PUSH1 0x4 DUP1 SLOAD PUSH1 0x1 DUP2 PUSH1 0x1 AND ISZERO PUSH2 0x100 MUL SUB AND PUSH1 0x2 SWAP1 DIV DUP1 PUSH1 0x1F ADD PUSH1 0x20 DUP1 SWAP2 DIV MUL PUSH1 0x20 ADD PUSH1 0x40 MLOAD SWAP1 DUP2 ADD PUSH1 0x40 MSTORE DUP1 SWAP3 SWAP2 SWAP1 DUP2 DUP2 MSTORE PUSH1 0x20 ADD DUP3 DUP1 SLOAD PUSH1 0x1 DUP2 PUSH1 0x1 AND ISZERO PUSH2 0x100 MUL SUB AND PUSH1 0x2 SWAP1 DIV DUP1 ISZERO PUSH2 0x9B6 JUMPI DUP1 PUSH1 0x1F LT PUSH2 0x98B JUMPI PUSH2 0x100 DUP1 DUP4 SLOAD DIV MUL DUP4 MSTORE SWAP2 PUSH1 0x20 ADD SWAP2 PUSH2 0x9B6 JUMP JUMPDEST DUP3 ADD SWAP2 SWAP1 PUSH1 0x0 MSTORE PUSH1 0x20 PUSH1 0x0 KECCAK256 SWAP1 JUMPDEST DUP2 SLOAD DUP2 MSTORE SWAP1 PUSH1 0x1 ADD SWAP1 PUSH1 0x20 ADD DUP1 DUP4 GT PUSH2 0x999 JUMPI DUP3 SWAP1 SUB PUSH1 0x1F AND DUP3 ADD SWAP2 JUMPDEST POP POP POP POP POP SWAP1 POP SWAP1 JUMP JUMPDEST PUSH1 0x0 PUSH2 0x9D4 PUSH2 0x9CD PUSH2 0x16F6 JUMP JUMPDEST DUP5 DUP5 PUSH2 0x16FE JUMP JUMPDEST PUSH1 0x1 SWAP1 POP SWAP3 SWAP2 POP POP JUMP JUMPDEST PUSH1 0x0 PUSH11 0x4CC32A1490AFBD9000000 SWAP1 POP SWAP1 JUMP JUMPDEST PUSH1 0x0 PUSH1 0x3 SLOAD SWAP1 POP SWAP1 JUMP JUMPDEST PUSH1 0x0 PUSH2 0xA05 PUSH2 0x16F6 JUMP JUMPDEST PUSH20 0xFFFFFFFFFFFFFFFFFFFFFFFFFFFFFFFFFFFFFFFF AND PUSH1 0x0 DUP1 SLOAD SWAP1 PUSH2 0x100 EXP SWAP1 DIV PUSH20 0xFFFFFFFFFFFFFFFFFFFFFFFFFFFFFFFFFFFFFFFF AND PUSH20 0xFFFFFFFFFFFFFFFFFFFFFFFFFFFFFFFFFFFFFFFF AND EQ PUSH2 0xAC5 JUMPI PUSH1 0x40 MLOAD PUSH32 0x8C379A000000000000000000000000000000000000000000000000000000000 DUP2 MSTORE PUSH1 0x4 ADD DUP1 DUP1 PUSH1 0x20 ADD DUP3 DUP2 SUB DUP3 MSTORE PUSH1 0x20 DUP2 MSTORE PUSH1 0x20 ADD DUP1 PUSH32 0x4F776E61626C653A2063616C6C6572206973206E6F7420746865206F776E6572 DUP2 MSTORE POP PUSH1 0x20 ADD SWAP2 POP POP PUSH1 0x40 MLOAD DUP1 SWAP2 SUB SWAP1 REVERT JUMPDEST PUSH1 0x0 PUSH20 0xFFFFFFFFFFFFFFFFFFFFFFFFFFFFFFFFFFFFFFFF AND DUP3 PUSH20 0xFFFFFFFFFFFFFFFFFFFFFFFFFFFFFFFFFFFFFFFF AND EQ ISZERO PUSH2 0xB4B JUMPI PUSH1 0x40 MLOAD PUSH32 0x8C379A000000000000000000000000000000000000000000000000000000000 DUP2 MSTORE PUSH1 0x4 ADD DUP1 DUP1 PUSH1 0x20 ADD DUP3 DUP2 SUB DUP3 MSTORE PUSH1 0x23 DUP2 MSTORE PUSH1 0x20 ADD DUP1 PUSH2 0x2605 PUSH1 0x23 SWAP2 CODECOPY PUSH1 0x40 ADD SWAP2 POP POP PUSH1 0x40 MLOAD DUP1 SWAP2 SUB SWAP1 REVERT JUMPDEST PUSH2 0xB56 PUSH1 0x7 DUP4 PUSH2 0x18F5 JUMP JUMPDEST SWAP1 POP SWAP2 SWAP1 POP JUMP JUMPDEST PUSH1 0x0 PUSH2 0xB6A DUP5 DUP5 DUP5 PUSH2 0x1925 JUMP JUMPDEST PUSH2 0xC2B DUP5 PUSH2 0xB76 PUSH2 0x16F6 JUMP JUMPDEST PUSH2 0xC26 DUP6 PUSH1 0x40 MLOAD DUP1 PUSH1 0x60 ADD PUSH1 0x40 MSTORE DUP1 PUSH1 0x28 DUP2 MSTORE PUSH1 0x20 ADD PUSH2 0x2628 PUSH1 0x28 SWAP2 CODECOPY PUSH1 0x2 PUSH1 0x0 DUP12 PUSH20 0xFFFFFFFFFFFFFFFFFFFFFFFFFFFFFFFFFFFFFFFF AND PUSH20 0xFFFFFFFFFFFFFFFFFFFFFFFFFFFFFFFFFFFFFFFF AND DUP2 MSTORE PUSH1 0x20 ADD SWAP1 DUP2 MSTORE PUSH1 0x20 ADD PUSH1 0x0 KECCAK256 PUSH1 0x0 PUSH2 0xBDC PUSH2 0x16F6 JUMP JUMPDEST PUSH20 0xFFFFFFFFFFFFFFFFFFFFFFFFFFFFFFFFFFFFFFFF AND PUSH20 0xFFFFFFFFFFFFFFFFFFFFFFFFFFFFFFFFFFFFFFFF AND DUP2 MSTORE PUSH1 0x20 ADD SWAP1 DUP2 MSTORE PUSH1 0x20 ADD PUSH1 0x0 KECCAK256 SLOAD PUSH2 0x1BDF SWAP1 SWAP3 SWAP2 SWAP1 PUSH4 0xFFFFFFFF AND JUMP JUMPDEST PUSH2 0x16FE JUMP JUMPDEST PUSH1 0x1 SWAP1 POP SWAP4 SWAP3 POP POP POP JUMP JUMPDEST PUSH1 0x0 PUSH1 0x6 PUSH1 0x0 SWAP1 SLOAD SWAP1 PUSH2 0x100 EXP SWAP1 DIV PUSH1 0xFF AND SWAP1 POP SWAP1 JUMP JUMPDEST PUSH1 0x0 PUSH2 0xCF6 PUSH2 0xC5A PUSH2 0x16F6 JUMP JUMPDEST DUP5 PUSH2 0xCF1 DUP6 PUSH1 0x2 PUSH1 0x0 PUSH2 0xC6B PUSH2 0x16F6 JUMP JUMPDEST PUSH20 0xFFFFFFFFFFFFFFFFFFFFFFFFFFFFFFFFFFFFFFFF AND PUSH20 0xFFFFFFFFFFFFFFFFFFFFFFFFFFFFFFFFFFFFFFFF AND DUP2 MSTORE PUSH1 0x20 ADD SWAP1 DUP2 MSTORE PUSH1 0x20 ADD PUSH1 0x0 KECCAK256 PUSH1 0x0 DUP10 PUSH20 0xFFFFFFFFFFFFFFFFFFFFFFFFFFFFFFFFFFFFFFFF AND PUSH20 0xFFFFFFFFFFFFFFFFFFFFFFFFFFFFFFFFFFFFFFFF AND DUP2 MSTORE PUSH1 0x20 ADD SWAP1 DUP2 MSTORE PUSH1 0x20 ADD PUSH1 0x0 KECCAK256 SLOAD PUSH2 0x1659 SWAP1 SWAP2 SWAP1 PUSH4 0xFFFFFFFF AND JUMP JUMPDEST PUSH2 0x16FE JUMP JUMPDEST PUSH1 0x1 SWAP1 POP SWAP3 SWAP2 POP POP JUMP JUMPDEST PUSH1 0x0 PUSH2 0xD0B CALLER PUSH2 0x14D7 JUMP JUMPDEST PUSH2 0xD7D JUMPI PUSH1 0x40 MLOAD PUSH32 0x8C379A000000000000000000000000000000000000000000000000000000000 DUP2 MSTORE PUSH1 0x4 ADD DUP1 DUP1 PUSH1 0x20 ADD DUP3 DUP2 SUB DUP3 MSTORE PUSH1 0x18 DUP2 MSTORE PUSH1 0x20 ADD DUP1 PUSH32 0x63616C6C6572206973206E6F7420746865206D696E7465720000000000000000 DUP2 MSTORE POP PUSH1 0x20 ADD SWAP2 POP POP PUSH1 0x40 MLOAD DUP1 SWAP2 SUB SWAP1 REVERT JUMPDEST PUSH2 0xD87 DUP4 DUP4 PUSH2 0x1C9F JUMP JUMPDEST POP PUSH1 0x1 SWAP1 POP SWAP3 SWAP2 POP POP JUMP JUMPDEST PUSH1 0x0 PUSH2 0xD9C PUSH2 0x16F6 JUMP JUMPDEST PUSH20 0xFFFFFFFFFFFFFFFFFFFFFFFFFFFFFFFFFFFFFFFF AND PUSH1 0x0 DUP1 SLOAD SWAP1 PUSH2 0x100 EXP SWAP1 DIV PUSH20 0xFFFFFFFFFFFFFFFFFFFFFFFFFFFFFFFFFFFFFFFF AND PUSH20 0xFFFFFFFFFFFFFFFFFFFFFFFFFFFFFFFFFFFFFFFF AND EQ PUSH2 0xE5C JUMPI PUSH1 0x40 MLOAD PUSH32 0x8C379A000000000000000000000000000000000000000000000000000000000 DUP2 MSTORE PUSH1 0x4 ADD DUP1 DUP1 PUSH1 0x20 ADD DUP3 DUP2 SUB DUP3 MSTORE PUSH1 0x20 DUP2 MSTORE PUSH1 0x20 ADD DUP1 PUSH32 0x4F776E61626C653A2063616C6C6572206973206E6F7420746865206F776E6572 DUP2 MSTORE POP PUSH1 0x20 ADD SWAP2 POP POP PUSH1 0x40 MLOAD DUP1 SWAP2 SUB SWAP1 REVERT JUMPDEST PUSH1 0x1 PUSH2 0xE66 PUSH2 0x90D JUMP JUMPDEST SUB DUP3 GT ISZERO PUSH2 0xEDC JUMPI PUSH1 0x40 MLOAD PUSH32 0x8C379A000000000000000000000000000000000000000000000000000000000 DUP2 MSTORE PUSH1 0x4 ADD DUP1 DUP1 PUSH1 0x20 ADD DUP3 DUP2 SUB DUP3 MSTORE PUSH1 0x18 DUP2 MSTORE PUSH1 0x20 ADD DUP1 PUSH32 0x4D4D463A20696E646578206F7574206F6620626F756E64730000000000000000 DUP2 MSTORE POP PUSH1 0x20 ADD SWAP2 POP POP PUSH1 0x40 MLOAD DUP1 SWAP2 SUB SWAP1 REVERT JUMPDEST PUSH2 0xEE7 PUSH1 0x7 DUP4 PUSH2 0x1E90 JUMP JUMPDEST SWAP1 POP SWAP2 SWAP1 POP JUMP JUMPDEST PUSH1 0x0 PUSH1 0x1 PUSH1 0x0 DUP4 PUSH20 0xFFFFFFFFFFFFFFFFFFFFFFFFFFFFFFFFFFFFFFFF AND PUSH20 0xFFFFFFFFFFFFFFFFFFFFFFFFFFFFFFFFFFFFFFFF AND DUP2 MSTORE PUSH1 0x20 ADD SWAP1 DUP2 MSTORE PUSH1 0x20 ADD PUSH1 0x0 KECCAK256 SLOAD SWAP1 POP SWAP2 SWAP1 POP JUMP JUMPDEST PUSH2 0xF3F PUSH2 0x16F6 JUMP JUMPDEST PUSH20 0xFFFFFFFFFFFFFFFFFFFFFFFFFFFFFFFFFFFFFFFF AND PUSH1 0x0 DUP1 SLOAD SWAP1 PUSH2 0x100 EXP SWAP1 DIV PUSH20 0xFFFFFFFFFFFFFFFFFFFFFFFFFFFFFFFFFFFFFFFF AND PUSH20 0xFFFFFFFFFFFFFFFFFFFFFFFFFFFFFFFFFFFFFFFF AND EQ PUSH2 0xFFF JUMPI PUSH1 0x40 MLOAD PUSH32 0x8C379A000000000000000000000000000000000000000000000000000000000 DUP2 MSTORE PUSH1 0x4 ADD DUP1 DUP1 PUSH1 0x20 ADD DUP3 DUP2 SUB DUP3 MSTORE PUSH1 0x20 DUP2 MSTORE PUSH1 0x20 ADD DUP1 PUSH32 0x4F776E61626C653A2063616C6C6572206973206E6F7420746865206F776E6572 DUP2 MSTORE POP PUSH1 0x20 ADD SWAP2 POP POP PUSH1 0x40 MLOAD DUP1 SWAP2 SUB SWAP1 REVERT JUMPDEST PUSH1 0x0 PUSH20 0xFFFFFFFFFFFFFFFFFFFFFFFFFFFFFFFFFFFFFFFF AND PUSH1 0x0 DUP1 SLOAD SWAP1 PUSH2 0x100 EXP SWAP1 DIV PUSH20 0xFFFFFFFFFFFFFFFFFFFFFFFFFFFFFFFFFFFFFFFF AND PUSH20 0xFFFFFFFFFFFFFFFFFFFFFFFFFFFFFFFFFFFFFFFF AND PUSH32 0x8BE0079C531659141344CD1FD0A4F28419497F9722A3DAAFE3B4186F6B6457E0 PUSH1 0x40 MLOAD PUSH1 0x40 MLOAD DUP1 SWAP2 SUB SWAP1 LOG3 PUSH1 0x0 DUP1 PUSH1 0x0 PUSH2 0x100 EXP DUP2 SLOAD DUP2 PUSH20 0xFFFFFFFFFFFFFFFFFFFFFFFFFFFFFFFFFFFFFFFF MUL NOT AND SWAP1 DUP4 PUSH20 0xFFFFFFFFFFFFFFFFFFFFFFFFFFFFFFFFFFFFFFFF AND MUL OR SWAP1 SSTORE POP JUMP JUMPDEST PUSH2 0x10C7 DUP3 DUP3 PUSH2 0x1EAA JUMP JUMPDEST POP POP JUMP JUMPDEST PUSH1 0x0 PUSH2 0x10D5 PUSH2 0x10DA JUMP JUMPDEST SWAP1 POP SWAP1 JUMP JUMPDEST PUSH1 0x0 DUP1 PUSH1 0x0 SWAP1 SLOAD SWAP1 PUSH2 0x100 EXP SWAP1 DIV PUSH20 0xFFFFFFFFFFFFFFFFFFFFFFFFFFFFFFFFFFFFFFFF AND SWAP1 POP SWAP1 JUMP JUMPDEST PUSH1 0x60 PUSH1 0x5 DUP1 SLOAD PUSH1 0x1 DUP2 PUSH1 0x1 AND ISZERO PUSH2 0x100 MUL SUB AND PUSH1 0x2 SWAP1 DIV DUP1 PUSH1 0x1F ADD PUSH1 0x20 DUP1 SWAP2 DIV MUL PUSH1 0x20 ADD PUSH1 0x40 MLOAD SWAP1 DUP2 ADD PUSH1 0x40 MSTORE DUP1 SWAP3 SWAP2 SWAP1 DUP2 DUP2 MSTORE PUSH1 0x20 ADD DUP3 DUP1 SLOAD PUSH1 0x1 DUP2 PUSH1 0x1 AND ISZERO PUSH2 0x100 MUL SUB AND PUSH1 0x2 SWAP1 DIV DUP1 ISZERO PUSH2 0x119B JUMPI DUP1 PUSH1 0x1F LT PUSH2 0x1170 JUMPI PUSH2 0x100 DUP1 DUP4 SLOAD DIV MUL DUP4 MSTORE SWAP2 PUSH1 0x20 ADD SWAP2 PUSH2 0x119B JUMP JUMPDEST DUP3 ADD SWAP2 SWAP1 PUSH1 0x0 MSTORE PUSH1 0x20 PUSH1 0x0 KECCAK256 SWAP1 JUMPDEST DUP2 SLOAD DUP2 MSTORE SWAP1 PUSH1 0x1 ADD SWAP1 PUSH1 0x20 ADD DUP1 DUP4 GT PUSH2 0x117E JUMPI DUP3 SWAP1 SUB PUSH1 0x1F AND DUP3 ADD SWAP2 JUMPDEST POP POP POP POP POP SWAP1 POP SWAP1 JUMP JUMPDEST PUSH1 0x0 PUSH2 0x11AF PUSH2 0x16F6 JUMP JUMPDEST PUSH20 0xFFFFFFFFFFFFFFFFFFFFFFFFFFFFFFFFFFFFFFFF AND PUSH1 0x0 DUP1 SLOAD SWAP1 PUSH2 0x100 EXP SWAP1 DIV PUSH20 0xFFFFFFFFFFFFFFFFFFFFFFFFFFFFFFFFFFFFFFFF AND PUSH20 0xFFFFFFFFFFFFFFFFFFFFFFFFFFFFFFFFFFFFFFFF AND EQ PUSH2 0x126F JUMPI PUSH1 0x40 MLOAD PUSH32 0x8C379A000000000000000000000000000000000000000000000000000000000 DUP2 MSTORE PUSH1 0x4 ADD DUP1 DUP1 PUSH1 0x20 ADD DUP3 DUP2 SUB DUP3 MSTORE PUSH1 0x20 DUP2 MSTORE PUSH1 0x20 ADD DUP1 PUSH32 0x4F776E61626C653A2063616C6C6572206973206E6F7420746865206F776E6572 DUP2 MSTORE POP PUSH1 0x20 ADD SWAP2 POP POP PUSH1 0x40 MLOAD DUP1 SWAP2 SUB SWAP1 REVERT JUMPDEST PUSH1 0x0 PUSH20 0xFFFFFFFFFFFFFFFFFFFFFFFFFFFFFFFFFFFFFFFF AND DUP3 PUSH20 0xFFFFFFFFFFFFFFFFFFFFFFFFFFFFFFFFFFFFFFFF AND EQ ISZERO PUSH2 0x12F5 JUMPI PUSH1 0x40 MLOAD PUSH32 0x8C379A000000000000000000000000000000000000000000000000000000000 DUP2 MSTORE PUSH1 0x4 ADD DUP1 DUP1 PUSH1 0x20 ADD DUP3 DUP2 SUB DUP3 MSTORE PUSH1 0x23 DUP2 MSTORE PUSH1 0x20 ADD DUP1 PUSH2 0x26BA PUSH1 0x23 SWAP2 CODECOPY PUSH1 0x40 ADD SWAP2 POP POP PUSH1 0x40 MLOAD DUP1 SWAP2 SUB SWAP1 REVERT JUMPDEST PUSH2 0x1300 PUSH1 0x7 DUP4 PUSH2 0x1F79 JUMP JUMPDEST SWAP1 POP SWAP2 SWAP1 POP JUMP JUMPDEST PUSH1 0x0 PUSH2 0x1311 PUSH2 0x16F6 JUMP JUMPDEST PUSH20 0xFFFFFFFFFFFFFFFFFFFFFFFFFFFFFFFFFFFFFFFF AND PUSH1 0x0 DUP1 SLOAD SWAP1 PUSH2 0x100 EXP SWAP1 DIV PUSH20 0xFFFFFFFFFFFFFFFFFFFFFFFFFFFFFFFFFFFFFFFF AND PUSH20 0xFFFFFFFFFFFFFFFFFFFFFFFFFFFFFFFFFFFFFFFF AND EQ PUSH2 0x13D1 JUMPI PUSH1 0x40 MLOAD PUSH32 0x8C379A000000000000000000000000000000000000000000000000000000000 DUP2 MSTORE PUSH1 0x4 ADD DUP1 DUP1 PUSH1 0x20 ADD DUP3 DUP2 SUB DUP3 MSTORE PUSH1 0x20 DUP2 MSTORE PUSH1 0x20 ADD DUP1 PUSH32 0x4F776E61626C653A2063616C6C6572206973206E6F7420746865206F776E6572 DUP2 MSTORE POP PUSH1 0x20 ADD SWAP2 POP POP PUSH1 0x40 MLOAD DUP1 SWAP2 SUB SWAP1 REVERT JUMPDEST PUSH2 0x13E2 PUSH2 0x13DC PUSH2 0x16F6 JUMP JUMPDEST DUP4 PUSH2 0x1C9F JUMP JUMPDEST POP PUSH1 0x1 SWAP1 POP SWAP2 SWAP1 POP JUMP JUMPDEST PUSH1 0x0 PUSH2 0x14AF PUSH2 0x13F9 PUSH2 0x16F6 JUMP JUMPDEST DUP5 PUSH2 0x14AA DUP6 PUSH1 0x40 MLOAD DUP1 PUSH1 0x60 ADD PUSH1 0x40 MSTORE DUP1 PUSH1 0x25 DUP2 MSTORE PUSH1 0x20 ADD PUSH2 0x2701 PUSH1 0x25 SWAP2 CODECOPY PUSH1 0x2 PUSH1 0x0 PUSH2 0x1423 PUSH2 0x16F6 JUMP JUMPDEST PUSH20 0xFFFFFFFFFFFFFFFFFFFFFFFFFFFFFFFFFFFFFFFF AND PUSH20 0xFFFFFFFFFFFFFFFFFFFFFFFFFFFFFFFFFFFFFFFF AND DUP2 MSTORE PUSH1 0x20 ADD SWAP1 DUP2 MSTORE PUSH1 0x20 ADD PUSH1 0x0 KECCAK256 PUSH1 0x0 DUP11 PUSH20 0xFFFFFFFFFFFFFFFFFFFFFFFFFFFFFFFFFFFFFFFF AND PUSH20 0xFFFFFFFFFFFFFFFFFFFFFFFFFFFFFFFFFFFFFFFF AND DUP2 MSTORE PUSH1 0x20 ADD SWAP1 DUP2 MSTORE PUSH1 0x20 ADD PUSH1 0x0 KECCAK256 SLOAD PUSH2 0x1BDF SWAP1 SWAP3 SWAP2 SWAP1 PUSH4 0xFFFFFFFF AND JUMP JUMPDEST PUSH2 0x16FE JUMP JUMPDEST PUSH1 0x1 SWAP1 POP SWAP3 SWAP2 POP POP JUMP JUMPDEST PUSH1 0x0 PUSH2 0x14CD PUSH2 0x14C6 PUSH2 0x16F6 JUMP JUMPDEST DUP5 DUP5 PUSH2 0x1925 JUMP JUMPDEST PUSH1 0x1 SWAP1 POP SWAP3 SWAP2 POP POP JUMP JUMPDEST PUSH1 0x0 PUSH2 0x14E4 PUSH1 0x7 DUP4 PUSH2 0x1FA9 JUMP JUMPDEST SWAP1 POP SWAP2 SWAP1 POP JUMP JUMPDEST PUSH1 0x0 PUSH11 0x84595161401484A000000 SWAP1 POP SWAP1 JUMP JUMPDEST PUSH1 0x0 PUSH1 0x2 PUSH1 0x0 DUP5 PUSH20 0xFFFFFFFFFFFFFFFFFFFFFFFFFFFFFFFFFFFFFFFF AND PUSH20 0xFFFFFFFFFFFFFFFFFFFFFFFFFFFFFFFFFFFFFFFF AND DUP2 MSTORE PUSH1 0x20 ADD SWAP1 DUP2 MSTORE PUSH1 0x20 ADD PUSH1 0x0 KECCAK256 PUSH1 0x0 DUP4 PUSH20 0xFFFFFFFFFFFFFFFFFFFFFFFFFFFFFFFFFFFFFFFF AND PUSH20 0xFFFFFFFFFFFFFFFFFFFFFFFFFFFFFFFFFFFFFFFF AND DUP2 MSTORE PUSH1 0x20 ADD SWAP1 DUP2 MSTORE PUSH1 0x20 ADD PUSH1 0x0 KECCAK256 SLOAD SWAP1 POP SWAP3 SWAP2 POP POP JUMP JUMPDEST PUSH2 0x158D PUSH2 0x16F6 JUMP JUMPDEST PUSH20 0xFFFFFFFFFFFFFFFFFFFFFFFFFFFFFFFFFFFFFFFF AND PUSH1 0x0 DUP1 SLOAD SWAP1 PUSH2 0x100 EXP SWAP1 DIV PUSH20 0xFFFFFFFFFFFFFFFFFFFFFFFFFFFFFFFFFFFFFFFF AND PUSH20 0xFFFFFFFFFFFFFFFFFFFFFFFFFFFFFFFFFFFFFFFF AND EQ PUSH2 0x164D JUMPI PUSH1 0x40 MLOAD PUSH32 0x8C379A000000000000000000000000000000000000000000000000000000000 DUP2 MSTORE PUSH1 0x4 ADD DUP1 DUP1 PUSH1 0x20 ADD DUP3 DUP2 SUB DUP3 MSTORE PUSH1 0x20 DUP2 MSTORE PUSH1 0x20 ADD DUP1 PUSH32 0x4F776E61626C653A2063616C6C6572206973206E6F7420746865206F776E6572 DUP2 MSTORE POP PUSH1 0x20 ADD SWAP2 POP POP PUSH1 0x40 MLOAD DUP1 SWAP2 SUB SWAP1 REVERT JUMPDEST PUSH2 0x1656 DUP2 PUSH2 0x1FD9 JUMP JUMPDEST POP JUMP JUMPDEST PUSH1 0x0 DUP1 DUP3 DUP5 ADD SWAP1 POP DUP4 DUP2 LT ISZERO PUSH2 0x16D7 JUMPI PUSH1 0x40 MLOAD PUSH32 0x8C379A000000000000000000000000000000000000000000000000000000000 DUP2 MSTORE PUSH1 0x4 ADD DUP1 DUP1 PUSH1 0x20 ADD DUP3 DUP2 SUB DUP3 MSTORE PUSH1 0x1B DUP2 MSTORE PUSH1 0x20 ADD DUP1 PUSH32 0x536166654D6174683A206164646974696F6E206F766572666C6F770000000000 DUP2 MSTORE POP PUSH1 0x20 ADD SWAP2 POP POP PUSH1 0x40 MLOAD DUP1 SWAP2 SUB SWAP1 REVERT JUMPDEST DUP1 SWAP2 POP POP SWAP3 SWAP2 POP POP JUMP JUMPDEST PUSH1 0x0 PUSH2 0x16EF DUP3 PUSH1 0x0 ADD PUSH2 0x211C JUMP JUMPDEST SWAP1 POP SWAP2 SWAP1 POP JUMP JUMPDEST PUSH1 0x0 CALLER SWAP1 POP SWAP1 JUMP JUMPDEST PUSH1 0x0 PUSH20 0xFFFFFFFFFFFFFFFFFFFFFFFFFFFFFFFFFFFFFFFF AND DUP4 PUSH20 0xFFFFFFFFFFFFFFFFFFFFFFFFFFFFFFFFFFFFFFFF AND EQ ISZERO PUSH2 0x1784 JUMPI PUSH1 0x40 MLOAD PUSH32 0x8C379A000000000000000000000000000000000000000000000000000000000 DUP2 MSTORE PUSH1 0x4 ADD DUP1 DUP1 PUSH1 0x20 ADD DUP3 DUP2 SUB DUP3 MSTORE PUSH1 0x24 DUP2 MSTORE PUSH1 0x20 ADD DUP1 PUSH2 0x26DD PUSH1 0x24 SWAP2 CODECOPY PUSH1 0x40 ADD SWAP2 POP POP PUSH1 0x40 MLOAD DUP1 SWAP2 SUB SWAP1 REVERT JUMPDEST PUSH1 0x0 PUSH20 0xFFFFFFFFFFFFFFFFFFFFFFFFFFFFFFFFFFFFFFFF AND DUP3 PUSH20 0xFFFFFFFFFFFFFFFFFFFFFFFFFFFFFFFFFFFFFFFF AND EQ ISZERO PUSH2 0x180A JUMPI PUSH1 0x40 MLOAD PUSH32 0x8C379A000000000000000000000000000000000000000000000000000000000 DUP2 MSTORE PUSH1 0x4 ADD DUP1 DUP1 PUSH1 0x20 ADD DUP3 DUP2 SUB DUP3 MSTORE PUSH1 0x22 DUP2 MSTORE PUSH1 0x20 ADD DUP1 PUSH2 0x25BD PUSH1 0x22 SWAP2 CODECOPY PUSH1 0x40 ADD SWAP2 POP POP PUSH1 0x40 MLOAD DUP1 SWAP2 SUB SWAP1 REVERT JUMPDEST DUP1 PUSH1 0x2 PUSH1 0x0 DUP6 PUSH20 0xFFFFFFFFFFFFFFFFFFFFFFFFFFFFFFFFFFFFFFFF AND PUSH20 0xFFFFFFFFFFFFFFFFFFFFFFFFFFFFFFFFFFFFFFFF AND DUP2 MSTORE PUSH1 0x20 ADD SWAP1 DUP2 MSTORE PUSH1 0x20 ADD PUSH1 0x0 KECCAK256 PUSH1 0x0 DUP5 PUSH20 0xFFFFFFFFFFFFFFFFFFFFFFFFFFFFFFFFFFFFFFFF AND PUSH20 0xFFFFFFFFFFFFFFFFFFFFFFFFFFFFFFFFFFFFFFFF AND DUP2 MSTORE PUSH1 0x20 ADD SWAP1 DUP2 MSTORE PUSH1 0x20 ADD PUSH1 0x0 KECCAK256 DUP2 SWAP1 SSTORE POP DUP2 PUSH20 0xFFFFFFFFFFFFFFFFFFFFFFFFFFFFFFFFFFFFFFFF AND DUP4 PUSH20 0xFFFFFFFFFFFFFFFFFFFFFFFFFFFFFFFFFFFFFFFF AND PUSH32 0x8C5BE1E5EBEC7D5BD14F71427D1E84F3DD0314C0F7B2291E5B200AC8C7C3B925 DUP4 PUSH1 0x40 MLOAD DUP1 DUP3 DUP2 MSTORE PUSH1 0x20 ADD SWAP2 POP POP PUSH1 0x40 MLOAD DUP1 SWAP2 SUB SWAP1 LOG3 POP POP POP JUMP JUMPDEST PUSH1 0x0 PUSH2 0x191D DUP4 PUSH1 0x0 ADD DUP4 PUSH20 0xFFFFFFFFFFFFFFFFFFFFFFFFFFFFFFFFFFFFFFFF AND PUSH1 0x0 SHL PUSH2 0x212D JUMP JUMPDEST SWAP1 POP SWAP3 SWAP2 POP POP JUMP JUMPDEST PUSH1 0x0 PUSH20 0xFFFFFFFFFFFFFFFFFFFFFFFFFFFFFFFFFFFFFFFF AND DUP4 PUSH20 0xFFFFFFFFFFFFFFFFFFFFFFFFFFFFFFFFFFFFFFFF AND EQ ISZERO PUSH2 0x19AB JUMPI PUSH1 0x40 MLOAD PUSH32 0x8C379A000000000000000000000000000000000000000000000000000000000 DUP2 MSTORE PUSH1 0x4 ADD DUP1 DUP1 PUSH1 0x20 ADD DUP3 DUP2 SUB DUP3 MSTORE PUSH1 0x25 DUP2 MSTORE PUSH1 0x20 ADD DUP1 PUSH2 0x2695 PUSH1 0x25 SWAP2 CODECOPY PUSH1 0x40 ADD SWAP2 POP POP PUSH1 0x40 MLOAD DUP1 SWAP2 SUB SWAP1 REVERT JUMPDEST PUSH1 0x0 PUSH20 0xFFFFFFFFFFFFFFFFFFFFFFFFFFFFFFFFFFFFFFFF AND DUP3 PUSH20 0xFFFFFFFFFFFFFFFFFFFFFFFFFFFFFFFFFFFFFFFF AND EQ ISZERO PUSH2 0x1A31 JUMPI PUSH1 0x40 MLOAD PUSH32 0x8C379A000000000000000000000000000000000000000000000000000000000 DUP2 MSTORE PUSH1 0x4 ADD DUP1 DUP1 PUSH1 0x20 ADD DUP3 DUP2 SUB DUP3 MSTORE PUSH1 0x23 DUP2 MSTORE PUSH1 0x20 ADD DUP1 PUSH2 0x2552 PUSH1 0x23 SWAP2 CODECOPY PUSH1 0x40 ADD SWAP2 POP POP PUSH1 0x40 MLOAD DUP1 SWAP2 SUB SWAP1 REVERT JUMPDEST PUSH2 0x1A9D DUP2 PUSH1 0x40 MLOAD DUP1 PUSH1 0x60 ADD PUSH1 0x40 MSTORE DUP1 PUSH1 0x26 DUP2 MSTORE PUSH1 0x20 ADD PUSH2 0x25DF PUSH1 0x26 SWAP2 CODECOPY PUSH1 0x1 PUSH1 0x0 DUP8 PUSH20 0xFFFFFFFFFFFFFFFFFFFFFFFFFFFFFFFFFFFFFFFF AND PUSH20 0xFFFFFFFFFFFFFFFFFFFFFFFFFFFFFFFFFFFFFFFF AND DUP2 MSTORE PUSH1 0x20 ADD SWAP1 DUP2 MSTORE PUSH1 0x20 ADD PUSH1 0x0 KECCAK256 SLOAD PUSH2 0x1BDF SWAP1 SWAP3 SWAP2 SWAP1 PUSH4 0xFFFFFFFF AND JUMP JUMPDEST PUSH1 0x1 PUSH1 0x0 DUP6 PUSH20 0xFFFFFFFFFFFFFFFFFFFFFFFFFFFFFFFFFFFFFFFF AND PUSH20 0xFFFFFFFFFFFFFFFFFFFFFFFFFFFFFFFFFFFFFFFF AND DUP2 MSTORE PUSH1 0x20 ADD SWAP1 DUP2 MSTORE PUSH1 0x20 ADD PUSH1 0x0 KECCAK256 DUP2 SWAP1 SSTORE POP PUSH2 0x1B32 DUP2 PUSH1 0x1 PUSH1 0x0 DUP6 PUSH20 0xFFFFFFFFFFFFFFFFFFFFFFFFFFFFFFFFFFFFFFFF AND PUSH20 0xFFFFFFFFFFFFFFFFFFFFFFFFFFFFFFFFFFFFFFFF AND DUP2 MSTORE PUSH1 0x20 ADD SWAP1 DUP2 MSTORE PUSH1 0x20 ADD PUSH1 0x0 KECCAK256 SLOAD PUSH2 0x1659 SWAP1 SWAP2 SWAP1 PUSH4 0xFFFFFFFF AND JUMP JUMPDEST PUSH1 0x1 PUSH1 0x0 DUP5 PUSH20 0xFFFFFFFFFFFFFFFFFFFFFFFFFFFFFFFFFFFFFFFF AND PUSH20 0xFFFFFFFFFFFFFFFFFFFFFFFFFFFFFFFFFFFFFFFF AND DUP2 MSTORE PUSH1 0x20 ADD SWAP1 DUP2 MSTORE PUSH1 0x20 ADD PUSH1 0x0 KECCAK256 DUP2 SWAP1 SSTORE POP DUP2 PUSH20 0xFFFFFFFFFFFFFFFFFFFFFFFFFFFFFFFFFFFFFFFF AND DUP4 PUSH20 0xFFFFFFFFFFFFFFFFFFFFFFFFFFFFFFFFFFFFFFFF AND PUSH32 0xDDF252AD1BE2C89B69C2B068FC378DAA952BA7F163C4A11628F55A4DF523B3EF DUP4 PUSH1 0x40 MLOAD DUP1 DUP3 DUP2 MSTORE PUSH1 0x20 ADD SWAP2 POP POP PUSH1 0x40 MLOAD DUP1 SWAP2 SUB SWAP1 LOG3 POP POP POP JUMP JUMPDEST PUSH1 0x0 DUP4 DUP4 GT ISZERO DUP3 SWAP1 PUSH2 0x1C8C JUMPI PUSH1 0x40 MLOAD PUSH32 0x8C379A000000000000000000000000000000000000000000000000000000000 DUP2 MSTORE PUSH1 0x4 ADD DUP1 DUP1 PUSH1 0x20 ADD DUP3 DUP2 SUB DUP3 MSTORE DUP4 DUP2 DUP2 MLOAD DUP2 MSTORE PUSH1 0x20 ADD SWAP2 POP DUP1 MLOAD SWAP1 PUSH1 0x20 ADD SWAP1 DUP1 DUP4 DUP4 PUSH1 0x0 JUMPDEST DUP4 DUP2 LT ISZERO PUSH2 0x1C51 JUMPI DUP1 DUP3 ADD MLOAD DUP2 DUP5 ADD MSTORE PUSH1 0x20 DUP2 ADD SWAP1 POP PUSH2 0x1C36 JUMP JUMPDEST POP POP POP POP SWAP1 POP SWAP1 DUP2 ADD SWAP1 PUSH1 0x1F AND DUP1 ISZERO PUSH2 0x1C7E JUMPI DUP1 DUP3 SUB DUP1 MLOAD PUSH1 0x1 DUP4 PUSH1 0x20 SUB PUSH2 0x100 EXP SUB NOT AND DUP2 MSTORE PUSH1 0x20 ADD SWAP2 POP JUMPDEST POP SWAP3 POP POP POP PUSH1 0x40 MLOAD DUP1 SWAP2 SUB SWAP1 REVERT JUMPDEST POP PUSH1 0x0 DUP4 DUP6 SUB SWAP1 POP DUP1 SWAP2 POP POP SWAP4 SWAP3 POP POP POP JUMP JUMPDEST PUSH1 0x0 DUP1 PUSH20 0xFFFFFFFFFFFFFFFFFFFFFFFFFFFFFFFFFFFFFFFF AND DUP4 PUSH20 0xFFFFFFFFFFFFFFFFFFFFFFFFFFFFFFFFFFFFFFFF AND EQ ISZERO PUSH2 0x1D43 JUMPI PUSH1 0x40 MLOAD PUSH32 0x8C379A000000000000000000000000000000000000000000000000000000000 DUP2 MSTORE PUSH1 0x4 ADD DUP1 DUP1 PUSH1 0x20 ADD DUP3 DUP2 SUB DUP3 MSTORE PUSH1 0x1F DUP2 MSTORE PUSH1 0x20 ADD DUP1 PUSH32 0x45524332303A206D696E7420746F20746865207A65726F206164647265737300 DUP2 MSTORE POP PUSH1 0x20 ADD SWAP2 POP POP PUSH1 0x40 MLOAD DUP1 SWAP2 SUB SWAP1 REVERT JUMPDEST PUSH11 0x84595161401484A000000 PUSH2 0x1D64 PUSH1 0x3 SLOAD DUP5 PUSH2 0x1659 SWAP1 SWAP2 SWAP1 PUSH4 0xFFFFFFFF AND JUMP JUMPDEST GT ISZERO PUSH2 0x1D73 JUMPI PUSH1 0x0 SWAP1 POP PUSH2 0x1E8A JUMP JUMPDEST PUSH2 0x1D88 DUP3 PUSH1 0x3 SLOAD PUSH2 0x1659 SWAP1 SWAP2 SWAP1 PUSH4 0xFFFFFFFF AND JUMP JUMPDEST PUSH1 0x3 DUP2 SWAP1 SSTORE POP PUSH2 0x1DE0 DUP3 PUSH1 0x1 PUSH1 0x0 DUP7 PUSH20 0xFFFFFFFFFFFFFFFFFFFFFFFFFFFFFFFFFFFFFFFF AND PUSH20 0xFFFFFFFFFFFFFFFFFFFFFFFFFFFFFFFFFFFFFFFF AND DUP2 MSTORE PUSH1 0x20 ADD SWAP1 DUP2 MSTORE PUSH1 0x20 ADD PUSH1 0x0 KECCAK256 SLOAD PUSH2 0x1659 SWAP1 SWAP2 SWAP1 PUSH4 0xFFFFFFFF AND JUMP JUMPDEST PUSH1 0x1 PUSH1 0x0 DUP6 PUSH20 0xFFFFFFFFFFFFFFFFFFFFFFFFFFFFFFFFFFFFFFFF AND PUSH20 0xFFFFFFFFFFFFFFFFFFFFFFFFFFFFFFFFFFFFFFFF AND DUP2 MSTORE PUSH1 0x20 ADD SWAP1 DUP2 MSTORE PUSH1 0x20 ADD PUSH1 0x0 KECCAK256 DUP2 SWAP1 SSTORE POP DUP3 PUSH20 0xFFFFFFFFFFFFFFFFFFFFFFFFFFFFFFFFFFFFFFFF AND PUSH1 0x0 PUSH20 0xFFFFFFFFFFFFFFFFFFFFFFFFFFFFFFFFFFFFFFFF AND PUSH32 0xDDF252AD1BE2C89B69C2B068FC378DAA952BA7F163C4A11628F55A4DF523B3EF DUP5 PUSH1 0x40 MLOAD DUP1 DUP3 DUP2 MSTORE PUSH1 0x20 ADD SWAP2 POP POP PUSH1 0x40 MLOAD DUP1 SWAP2 SUB SWAP1 LOG3 JUMPDEST SWAP3 SWAP2 POP POP JUMP JUMPDEST PUSH1 0x0 PUSH2 0x1E9F DUP4 PUSH1 0x0 ADD DUP4 PUSH2 0x2215 JUMP JUMPDEST PUSH1 0x0 SHR SWAP1 POP SWAP3 SWAP2 POP POP JUMP JUMPDEST PUSH2 0x1EB4 DUP3 DUP3 PUSH2 0x2298 JUMP JUMPDEST PUSH2 0x1F75 DUP3 PUSH2 0x1EC0 PUSH2 0x16F6 JUMP JUMPDEST PUSH2 0x1F70 DUP5 PUSH1 0x40 MLOAD DUP1 PUSH1 0x60 ADD PUSH1 0x40 MSTORE DUP1 PUSH1 0x24 DUP2 MSTORE PUSH1 0x20 ADD PUSH2 0x2650 PUSH1 0x24 SWAP2 CODECOPY PUSH1 0x2 PUSH1 0x0 DUP10 PUSH20 0xFFFFFFFFFFFFFFFFFFFFFFFFFFFFFFFFFFFFFFFF AND PUSH20 0xFFFFFFFFFFFFFFFFFFFFFFFFFFFFFFFFFFFFFFFF AND DUP2 MSTORE PUSH1 0x20 ADD SWAP1 DUP2 MSTORE PUSH1 0x20 ADD PUSH1 0x0 KECCAK256 PUSH1 0x0 PUSH2 0x1F26 PUSH2 0x16F6 JUMP JUMPDEST PUSH20 0xFFFFFFFFFFFFFFFFFFFFFFFFFFFFFFFFFFFFFFFF AND PUSH20 0xFFFFFFFFFFFFFFFFFFFFFFFFFFFFFFFFFFFFFFFF AND DUP2 MSTORE PUSH1 0x20 ADD SWAP1 DUP2 MSTORE PUSH1 0x20 ADD PUSH1 0x0 KECCAK256 SLOAD PUSH2 0x1BDF SWAP1 SWAP3 SWAP2 SWAP1 PUSH4 0xFFFFFFFF AND JUMP JUMPDEST PUSH2 0x16FE JUMP JUMPDEST POP POP JUMP JUMPDEST PUSH1 0x0 PUSH2 0x1FA1 DUP4 PUSH1 0x0 ADD DUP4 PUSH20 0xFFFFFFFFFFFFFFFFFFFFFFFFFFFFFFFFFFFFFFFF AND PUSH1 0x0 SHL PUSH2 0x2452 JUMP JUMPDEST SWAP1 POP SWAP3 SWAP2 POP POP JUMP JUMPDEST PUSH1 0x0 PUSH2 0x1FD1 DUP4 PUSH1 0x0 ADD DUP4 PUSH20 0xFFFFFFFFFFFFFFFFFFFFFFFFFFFFFFFFFFFFFFFF AND PUSH1 0x0 SHL PUSH2 0x24C2 JUMP JUMPDEST SWAP1 POP SWAP3 SWAP2 POP POP JUMP JUMPDEST PUSH1 0x0 PUSH20 0xFFFFFFFFFFFFFFFFFFFFFFFFFFFFFFFFFFFFFFFF AND DUP2 PUSH20 0xFFFFFFFFFFFFFFFFFFFFFFFFFFFFFFFFFFFFFFFF AND EQ ISZERO PUSH2 0x205F JUMPI PUSH1 0x40 MLOAD PUSH32 0x8C379A000000000000000000000000000000000000000000000000000000000 DUP2 MSTORE PUSH1 0x4 ADD DUP1 DUP1 PUSH1 0x20 ADD DUP3 DUP2 SUB DUP3 MSTORE PUSH1 0x26 DUP2 MSTORE PUSH1 0x20 ADD DUP1 PUSH2 0x2597 PUSH1 0x26 SWAP2 CODECOPY PUSH1 0x40 ADD SWAP2 POP POP PUSH1 0x40 MLOAD DUP1 SWAP2 SUB SWAP1 REVERT JUMPDEST DUP1 PUSH20 0xFFFFFFFFFFFFFFFFFFFFFFFFFFFFFFFFFFFFFFFF AND PUSH1 0x0 DUP1 SLOAD SWAP1 PUSH2 0x100 EXP SWAP1 DIV PUSH20 0xFFFFFFFFFFFFFFFFFFFFFFFFFFFFFFFFFFFFFFFF AND PUSH20 0xFFFFFFFFFFFFFFFFFFFFFFFFFFFFFFFFFFFFFFFF AND PUSH32 0x8BE0079C531659141344CD1FD0A4F28419497F9722A3DAAFE3B4186F6B6457E0 PUSH1 0x40 MLOAD PUSH1 0x40 MLOAD DUP1 SWAP2 SUB SWAP1 LOG3 DUP1 PUSH1 0x0 DUP1 PUSH2 0x100 EXP DUP2 SLOAD DUP2 PUSH20 0xFFFFFFFFFFFFFFFFFFFFFFFFFFFFFFFFFFFFFFFF MUL NOT AND SWAP1 DUP4 PUSH20 0xFFFFFFFFFFFFFFFFFFFFFFFFFFFFFFFFFFFFFFFF AND MUL OR SWAP1 SSTORE POP POP JUMP JUMPDEST PUSH1 0x0 DUP2 PUSH1 0x0 ADD DUP1 SLOAD SWAP1 POP SWAP1 POP SWAP2 SWAP1 POP JUMP JUMPDEST PUSH1 0x0 DUP1 DUP4 PUSH1 0x1 ADD PUSH1 0x0 DUP5 DUP2 MSTORE PUSH1 0x20 ADD SWAP1 DUP2 MSTORE PUSH1 0x20 ADD PUSH1 0x0 KECCAK256 SLOAD SWAP1 POP PUSH1 0x0 DUP2 EQ PUSH2 0x2209 JUMPI PUSH1 0x0 PUSH1 0x1 DUP3 SUB SWAP1 POP PUSH1 0x0 PUSH1 0x1 DUP7 PUSH1 0x0 ADD DUP1 SLOAD SWAP1 POP SUB SWAP1 POP PUSH1 0x0 DUP7 PUSH1 0x0 ADD DUP3 DUP2 SLOAD DUP2 LT PUSH2 0x2178 JUMPI INVALID JUMPDEST SWAP1 PUSH1 0x0 MSTORE PUSH1 0x20 PUSH1 0x0 KECCAK256 ADD SLOAD SWAP1 POP DUP1 DUP8 PUSH1 0x0 ADD DUP5 DUP2 SLOAD DUP2 LT PUSH2 0x2195 JUMPI INVALID JUMPDEST SWAP1 PUSH1 0x0 MSTORE PUSH1 0x20 PUSH1 0x0 KECCAK256 ADD DUP2 SWAP1 SSTORE POP PUSH1 0x1 DUP4 ADD DUP8 PUSH1 0x1 ADD PUSH1 0x0 DUP4 DUP2 MSTORE PUSH1 0x20 ADD SWAP1 DUP2 MSTORE PUSH1 0x20 ADD PUSH1 0x0 KECCAK256 DUP2 SWAP1 SSTORE POP DUP7 PUSH1 0x0 ADD DUP1 SLOAD DUP1 PUSH2 0x21CD JUMPI INVALID JUMPDEST PUSH1 0x1 SWAP1 SUB DUP2 DUP2 SWAP1 PUSH1 0x0 MSTORE PUSH1 0x20 PUSH1 0x0 KECCAK256 ADD PUSH1 0x0 SWAP1 SSTORE SWAP1 SSTORE DUP7 PUSH1 0x1 ADD PUSH1 0x0 DUP8 DUP2 MSTORE PUSH1 0x20 ADD SWAP1 DUP2 MSTORE PUSH1 0x20 ADD PUSH1 0x0 KECCAK256 PUSH1 0x0 SWAP1 SSTORE PUSH1 0x1 SWAP5 POP POP POP POP POP PUSH2 0x220F JUMP JUMPDEST PUSH1 0x0 SWAP2 POP POP JUMPDEST SWAP3 SWAP2 POP POP JUMP JUMPDEST PUSH1 0x0 DUP2 DUP4 PUSH1 0x0 ADD DUP1 SLOAD SWAP1 POP GT PUSH2 0x2276 JUMPI PUSH1 0x40 MLOAD PUSH32 0x8C379A000000000000000000000000000000000000000000000000000000000 DUP2 MSTORE PUSH1 0x4 ADD DUP1 DUP1 PUSH1 0x20 ADD DUP3 DUP2 SUB DUP3 MSTORE PUSH1 0x22 DUP2 MSTORE PUSH1 0x20 ADD DUP1 PUSH2 0x2530 PUSH1 0x22 SWAP2 CODECOPY PUSH1 0x40 ADD SWAP2 POP POP PUSH1 0x40 MLOAD DUP1 SWAP2 SUB SWAP1 REVERT JUMPDEST DUP3 PUSH1 0x0 ADD DUP3 DUP2 SLOAD DUP2 LT PUSH2 0x2285 JUMPI INVALID JUMPDEST SWAP1 PUSH1 0x0 MSTORE PUSH1 0x20 PUSH1 0x0 KECCAK256 ADD SLOAD SWAP1 POP SWAP3 SWAP2 POP POP JUMP JUMPDEST PUSH1 0x0 PUSH20 0xFFFFFFFFFFFFFFFFFFFFFFFFFFFFFFFFFFFFFFFF AND DUP3 PUSH20 0xFFFFFFFFFFFFFFFFFFFFFFFFFFFFFFFFFFFFFFFF AND EQ ISZERO PUSH2 0x231E JUMPI PUSH1 0x40 MLOAD PUSH32 0x8C379A000000000000000000000000000000000000000000000000000000000 DUP2 MSTORE PUSH1 0x4 ADD DUP1 DUP1 PUSH1 0x20 ADD DUP3 DUP2 SUB DUP3 MSTORE PUSH1 0x21 DUP2 MSTORE PUSH1 0x20 ADD DUP1 PUSH2 0x2674 PUSH1 0x21 SWAP2 CODECOPY PUSH1 0x40 ADD SWAP2 POP POP PUSH1 0x40 MLOAD DUP1 SWAP2 SUB SWAP1 REVERT JUMPDEST PUSH2 0x238A DUP2 PUSH1 0x40 MLOAD DUP1 PUSH1 0x60 ADD PUSH1 0x40 MSTORE DUP1 PUSH1 0x22 DUP2 MSTORE PUSH1 0x20 ADD PUSH2 0x2575 PUSH1 0x22 SWAP2 CODECOPY PUSH1 0x1 PUSH1 0x0 DUP7 PUSH20 0xFFFFFFFFFFFFFFFFFFFFFFFFFFFFFFFFFFFFFFFF AND PUSH20 0xFFFFFFFFFFFFFFFFFFFFFFFFFFFFFFFFFFFFFFFF AND DUP2 MSTORE PUSH1 0x20 ADD SWAP1 DUP2 MSTORE PUSH1 0x20 ADD PUSH1 0x0 KECCAK256 SLOAD PUSH2 0x1BDF SWAP1 SWAP3 SWAP2 SWAP1 PUSH4 0xFFFFFFFF AND JUMP JUMPDEST PUSH1 0x1 PUSH1 0x0 DUP5 PUSH20 0xFFFFFFFFFFFFFFFFFFFFFFFFFFFFFFFFFFFFFFFF AND PUSH20 0xFFFFFFFFFFFFFFFFFFFFFFFFFFFFFFFFFFFFFFFF AND DUP2 MSTORE PUSH1 0x20 ADD SWAP1 DUP2 MSTORE PUSH1 0x20 ADD PUSH1 0x0 KECCAK256 DUP2 SWAP1 SSTORE POP PUSH2 0x23E2 DUP2 PUSH1 0x3 SLOAD PUSH2 0x24E5 SWAP1 SWAP2 SWAP1 PUSH4 0xFFFFFFFF AND JUMP JUMPDEST PUSH1 0x3 DUP2 SWAP1 SSTORE POP PUSH1 0x0 PUSH20 0xFFFFFFFFFFFFFFFFFFFFFFFFFFFFFFFFFFFFFFFF AND DUP3 PUSH20 0xFFFFFFFFFFFFFFFFFFFFFFFFFFFFFFFFFFFFFFFF AND PUSH32 0xDDF252AD1BE2C89B69C2B068FC378DAA952BA7F163C4A11628F55A4DF523B3EF DUP4 PUSH1 0x40 MLOAD DUP1 DUP3 DUP2 MSTORE PUSH1 0x20 ADD SWAP2 POP POP PUSH1 0x40 MLOAD DUP1 SWAP2 SUB SWAP1 LOG3 POP POP JUMP JUMPDEST PUSH1 0x0 PUSH2 0x245E DUP4 DUP4 PUSH2 0x24C2 JUMP JUMPDEST PUSH2 0x24B7 JUMPI DUP3 PUSH1 0x0 ADD DUP3 SWAP1 DUP1 PUSH1 0x1 DUP2 SLOAD ADD DUP1 DUP3 SSTORE DUP1 SWAP2 POP POP PUSH1 0x1 SWAP1 SUB SWAP1 PUSH1 0x0 MSTORE PUSH1 0x20 PUSH1 0x0 KECCAK256 ADD PUSH1 0x0 SWAP1 SWAP2 SWAP1 SWAP2 SWAP1 SWAP2 POP SSTORE DUP3 PUSH1 0x0 ADD DUP1 SLOAD SWAP1 POP DUP4 PUSH1 0x1 ADD PUSH1 0x0 DUP5 DUP2 MSTORE PUSH1 0x20 ADD SWAP1 DUP2 MSTORE PUSH1 0x20 ADD PUSH1 0x0 KECCAK256 DUP2 SWAP1 SSTORE POP PUSH1 0x1 SWAP1 POP PUSH2 0x24BC JUMP JUMPDEST PUSH1 0x0 SWAP1 POP JUMPDEST SWAP3 SWAP2 POP POP JUMP JUMPDEST PUSH1 0x0 DUP1 DUP4 PUSH1 0x1 ADD PUSH1 0x0 DUP5 DUP2 MSTORE PUSH1 0x20 ADD SWAP1 DUP2 MSTORE PUSH1 0x20 ADD PUSH1 0x0 KECCAK256 SLOAD EQ ISZERO SWAP1 POP SWAP3 SWAP2 POP POP JUMP JUMPDEST PUSH1 0x0 PUSH2 0x2527 DUP4 DUP4 PUSH1 0x40 MLOAD DUP1 PUSH1 0x40 ADD PUSH1 0x40 MSTORE DUP1 PUSH1 0x1E DUP2 MSTORE PUSH1 0x20 ADD PUSH32 0x536166654D6174683A207375627472616374696F6E206F766572666C6F770000 DUP2 MSTORE POP PUSH2 0x1BDF JUMP JUMPDEST SWAP1 POP SWAP3 SWAP2 POP POP JUMP INVALID GASLIMIT PUSH15 0x756D657261626C655365743A20696E PUSH5 0x6578206F75 PUSH21 0x206F6620626F756E647345524332303A207472616E PUSH20 0x66657220746F20746865207A65726F2061646472 PUSH6 0x737345524332 ADDRESS GASPRICE KECCAK256 PUSH3 0x75726E KECCAK256 PUSH2 0x6D6F PUSH22 0x6E7420657863656564732062616C616E63654F776E61 PUSH3 0x6C653A KECCAK256 PUSH15 0x6577206F776E657220697320746865 KECCAK256 PUSH27 0x65726F206164647265737345524332303A20617070726F76652074 PUSH16 0x20746865207A65726F20616464726573 PUSH20 0x45524332303A207472616E7366657220616D6F75 PUSH15 0x7420657863656564732062616C616E PUSH4 0x654D4D46 GASPRICE KECCAK256 0x5F PUSH5 0x656C4D696E PUSH21 0x657220697320746865207A65726F20616464726573 PUSH20 0x45524332303A207472616E7366657220616D6F75 PUSH15 0x74206578636565647320616C6C6F77 PUSH2 0x6E63 PUSH6 0x45524332303A KECCAK256 PUSH3 0x75726E KECCAK256 PUSH2 0x6D6F PUSH22 0x6E74206578636565647320616C6C6F77616E63654552 NUMBER ORIGIN ADDRESS GASPRICE KECCAK256 PUSH3 0x75726E KECCAK256 PUSH7 0x726F6D20746865 KECCAK256 PUSH27 0x65726F206164647265737345524332303A207472616E7366657220 PUSH7 0x726F6D20746865 KECCAK256 PUSH27 0x65726F20616464726573734D4D463A205F6164644D696E74657220 PUSH10 0x7320746865207A65726F KECCAK256 PUSH2 0x6464 PUSH19 0x65737345524332303A20617070726F76652066 PUSH19 0x6F6D20746865207A65726F2061646472657373 GASLIMIT MSTORE NUMBER ORIGIN ADDRESS GASPRICE KECCAK256 PUSH5 0x6563726561 PUSH20 0x656420616C6C6F77616E63652062656C6F77207A PUSH6 0x726FA2646970 PUSH7 0x7358221220BD9C CODECOPY 0x27 TIMESTAMP SDIV RETURNDATACOPY 0xC1 JUMPDEST 0xF7 0x2C KECCAK256 SWAP3 0x5F 0x5E 0x4C 0xD4 SHL 0xC1 BALANCE EQ EXTCODEHASH PUSH2 0x13A5 PUSH3 0x8A913D SWAP3 DUP10 0x26 PUSH5 0x736F6C6343 STOP MOD 0xC STOP CALLER "
				},
				"gasEstimates": {
					"creation": {
						"codeDepositCost": "2015000",
						"executionCost": "infinite",
						"totalCost": "infinite"
					},
					"external": {
						"addMinter(address)": "infinite",
						"allowance(address,address)": "1409",
						"approve(address,uint256)": "infinite",
						"balanceOf(address)": "1329",
						"burnFrom(address,uint256)": "infinite",
						"decimals()": "1100",
						"decreaseAllowance(address,uint256)": "infinite",
						"delMinter(address)": "infinite",
						"getMinter(uint256)": "infinite",
						"getMinterLength()": "1143",
						"getOwner()": "1157",
						"increaseAllowance(address,uint256)": "infinite",
						"isMinter(address)": "1363",
						"maxSupply()": "279",
						"mint(address,uint256)": "infinite",
						"mint(uint256)": "infinite",
						"name()": "infinite",
						"owner()": "1144",
						"preMineSupply()": "303",
						"renounceOwnership()": "24314",
						"symbol()": "infinite",
						"totalSupply()": "1125",
						"transfer(address,uint256)": "infinite",
						"transferFrom(address,address,uint256)": "infinite",
						"transferOwnership(address)": "infinite"
					}
				},
				"methodIdentifiers": {
					"addMinter(address)": "983b2d56",
					"allowance(address,address)": "dd62ed3e",
					"approve(address,uint256)": "095ea7b3",
					"balanceOf(address)": "70a08231",
					"burnFrom(address,uint256)": "79cc6790",
					"decimals()": "313ce567",
					"decreaseAllowance(address,uint256)": "a457c2d7",
					"delMinter(address)": "23338b88",
					"getMinter(uint256)": "5b7121f8",
					"getMinterLength()": "0323aac7",
					"getOwner()": "893d20e8",
					"increaseAllowance(address,uint256)": "39509351",
					"isMinter(address)": "aa271e1a",
					"maxSupply()": "d5abeb01",
					"mint(address,uint256)": "40c10f19",
					"mint(uint256)": "a0712d68",
					"name()": "06fdde03",
					"owner()": "8da5cb5b",
					"preMineSupply()": "0c16ea83",
					"renounceOwnership()": "715018a6",
					"symbol()": "95d89b41",
					"totalSupply()": "18160ddd",
					"transfer(address,uint256)": "a9059cbb",
					"transferFrom(address,address,uint256)": "23b872dd",
					"transferOwnership(address)": "f2fde38b"
				}
			},
			"storageLayout": {
				"storage": [
					{
						"astId": 30,
						"contract": "token/SWORD.sol:eZKaliburToken",
						"label": "_owner",
						"offset": 0,
						"slot": "0",
						"type": "t_address"
					},
					{
						"astId": 744,
						"contract": "token/SWORD.sol:eZKaliburToken",
						"label": "_balances",
						"offset": 0,
						"slot": "1",
						"type": "t_mapping(t_address,t_uint256)"
					},
					{
						"astId": 750,
						"contract": "token/SWORD.sol:eZKaliburToken",
						"label": "_allowances",
						"offset": 0,
						"slot": "2",
						"type": "t_mapping(t_address,t_mapping(t_address,t_uint256))"
					},
					{
						"astId": 752,
						"contract": "token/SWORD.sol:eZKaliburToken",
						"label": "_totalSupply",
						"offset": 0,
						"slot": "3",
						"type": "t_uint256"
					},
					{
						"astId": 754,
						"contract": "token/SWORD.sol:eZKaliburToken",
						"label": "_name",
						"offset": 0,
						"slot": "4",
						"type": "t_string_storage"
					},
					{
						"astId": 756,
						"contract": "token/SWORD.sol:eZKaliburToken",
						"label": "_symbol",
						"offset": 0,
						"slot": "5",
						"type": "t_string_storage"
					},
					{
						"astId": 758,
						"contract": "token/SWORD.sol:eZKaliburToken",
						"label": "_decimals",
						"offset": 0,
						"slot": "6",
						"type": "t_uint8"
					},
					{
						"astId": 1684,
						"contract": "token/SWORD.sol:eZKaliburToken",
						"label": "_minters",
						"offset": 0,
						"slot": "7",
						"type": "t_struct(AddressSet)1471_storage"
					}
				],
				"types": {
					"t_address": {
						"encoding": "inplace",
						"label": "address",
						"numberOfBytes": "20"
					},
					"t_array(t_bytes32)dyn_storage": {
						"base": "t_bytes32",
						"encoding": "dynamic_array",
						"label": "bytes32[]",
						"numberOfBytes": "32"
					},
					"t_bytes32": {
						"encoding": "inplace",
						"label": "bytes32",
						"numberOfBytes": "32"
					},
					"t_mapping(t_address,t_mapping(t_address,t_uint256))": {
						"encoding": "mapping",
						"key": "t_address",
						"label": "mapping(address => mapping(address => uint256))",
						"numberOfBytes": "32",
						"value": "t_mapping(t_address,t_uint256)"
					},
					"t_mapping(t_address,t_uint256)": {
						"encoding": "mapping",
						"key": "t_address",
						"label": "mapping(address => uint256)",
						"numberOfBytes": "32",
						"value": "t_uint256"
					},
					"t_mapping(t_bytes32,t_uint256)": {
						"encoding": "mapping",
						"key": "t_bytes32",
						"label": "mapping(bytes32 => uint256)",
						"numberOfBytes": "32",
						"value": "t_uint256"
					},
					"t_string_storage": {
						"encoding": "bytes",
						"label": "string",
						"numberOfBytes": "32"
					},
					"t_struct(AddressSet)1471_storage": {
						"encoding": "inplace",
						"label": "struct EnumerableSet.AddressSet",
						"members": [
							{
								"astId": 1470,
								"contract": "token/SWORD.sol:eZKaliburToken",
								"label": "_inner",
								"offset": 0,
								"slot": "0",
								"type": "t_struct(Set)1291_storage"
							}
						],
						"numberOfBytes": "64"
					},
					"t_struct(Set)1291_storage": {
						"encoding": "inplace",
						"label": "struct EnumerableSet.Set",
						"members": [
							{
								"astId": 1286,
								"contract": "token/SWORD.sol:eZKaliburToken",
								"label": "_values",
								"offset": 0,
								"slot": "0",
								"type": "t_array(t_bytes32)dyn_storage"
							},
							{
								"astId": 1290,
								"contract": "token/SWORD.sol:eZKaliburToken",
								"label": "_indexes",
								"offset": 0,
								"slot": "1",
								"type": "t_mapping(t_bytes32,t_uint256)"
							}
						],
						"numberOfBytes": "64"
					},
					"t_uint256": {
						"encoding": "inplace",
						"label": "uint256",
						"numberOfBytes": "32"
					},
					"t_uint8": {
						"encoding": "inplace",
						"label": "uint8",
						"numberOfBytes": "1"
					}
				}
			},
			"userdoc": {
				"kind": "user",
				"methods": {
					"mint(address,uint256)": {
						"notice": "Creates `_amount` token to `_to`."
					}
				},
				"version": 1
			}
		}
	}
}