{
	"token/xSWORD.sol": {
		"xeZKaliburToken": {
			"abi": [
				{
					"inputs": [
						{
							"internalType": "contract xeZKaliburToken",
							"name": "_mmf",
							"type": "address"
						}
					],
					"stateMutability": "nonpayable",
					"type": "constructor"
				},
				{
					"anonymous": false,
					"inputs": [
						{
							"indexed": true,
							"internalType": "address",
							"name": "owner",
							"type": "address"
						},
						{
							"indexed": true,
							"internalType": "address",
							"name": "spender",
							"type": "address"
						},
						{
							"indexed": false,
							"internalType": "uint256",
							"name": "value",
							"type": "uint256"
						}
					],
					"name": "Approval",
					"type": "event"
				},
				{
					"anonymous": false,
					"inputs": [
						{
							"indexed": true,
							"internalType": "address",
							"name": "previousOwner",
							"type": "address"
						},
						{
							"indexed": true,
							"internalType": "address",
							"name": "newOwner",
							"type": "address"
						}
					],
					"name": "OwnershipTransferred",
					"type": "event"
				},
				{
					"anonymous": false,
					"inputs": [
						{
							"indexed": true,
							"internalType": "address",
							"name": "from",
							"type": "address"
						},
						{
							"indexed": true,
							"internalType": "address",
							"name": "to",
							"type": "address"
						},
						{
							"indexed": false,
							"internalType": "uint256",
							"name": "value",
							"type": "uint256"
						}
					],
					"name": "Transfer",
					"type": "event"
				},
				{
					"inputs": [
						{
							"internalType": "address",
							"name": "_addMinter",
							"type": "address"
						}
					],
					"name": "addMinter",
					"outputs": [
						{
							"internalType": "bool",
							"name": "",
							"type": "bool"
						}
					],
					"stateMutability": "nonpayable",
					"type": "function"
				},
				{
					"inputs": [
						{
							"internalType": "address",
							"name": "owner",
							"type": "address"
						},
						{
							"internalType": "address",
							"name": "spender",
							"type": "address"
						}
					],
					"name": "allowance",
					"outputs": [
						{
							"internalType": "uint256",
							"name": "",
							"type": "uint256"
						}
					],
					"stateMutability": "view",
					"type": "function"
				},
				{
					"inputs": [
						{
							"internalType": "address",
							"name": "spender",
							"type": "address"
						},
						{
							"internalType": "uint256",
							"name": "amount",
							"type": "uint256"
						}
					],
					"name": "approve",
					"outputs": [
						{
							"internalType": "bool",
							"name": "",
							"type": "bool"
						}
					],
					"stateMutability": "nonpayable",
					"type": "function"
				},
				{
					"inputs": [
						{
							"internalType": "address",
							"name": "account",
							"type": "address"
						}
					],
					"name": "balanceOf",
					"outputs": [
						{
							"internalType": "uint256",
							"name": "",
							"type": "uint256"
						}
					],
					"stateMutability": "view",
					"type": "function"
				},
				{
					"inputs": [
						{
							"internalType": "address",
							"name": "account",
							"type": "address"
						},
						{
							"internalType": "uint256",
							"name": "amount",
							"type": "uint256"
						}
					],
					"name": "burnFrom",
					"outputs": [],
					"stateMutability": "nonpayable",
					"type": "function"
				},
				{
					"inputs": [],
					"name": "decimals",
					"outputs": [
						{
							"internalType": "uint8",
							"name": "",
							"type": "uint8"
						}
					],
					"stateMutability": "view",
					"type": "function"
				},
				{
					"inputs": [
						{
							"internalType": "address",
							"name": "spender",
							"type": "address"
						},
						{
							"internalType": "uint256",
							"name": "subtractedValue",
							"type": "uint256"
						}
					],
					"name": "decreaseAllowance",
					"outputs": [
						{
							"internalType": "bool",
							"name": "",
							"type": "bool"
						}
					],
					"stateMutability": "nonpayable",
					"type": "function"
				},
				{
					"inputs": [
						{
							"internalType": "address",
							"name": "_delMinter",
							"type": "address"
						}
					],
					"name": "delMinter",
					"outputs": [
						{
							"internalType": "bool",
							"name": "",
							"type": "bool"
						}
					],
					"stateMutability": "nonpayable",
					"type": "function"
				},
				{
					"inputs": [
						{
							"internalType": "uint256",
							"name": "_index",
							"type": "uint256"
						}
					],
					"name": "getMinter",
					"outputs": [
						{
							"internalType": "address",
							"name": "",
							"type": "address"
						}
					],
					"stateMutability": "view",
					"type": "function"
				},
				{
					"inputs": [],
					"name": "getMinterLength",
					"outputs": [
						{
							"internalType": "uint256",
							"name": "",
							"type": "uint256"
						}
					],
					"stateMutability": "view",
					"type": "function"
				},
				{
					"inputs": [],
					"name": "getOwner",
					"outputs": [
						{
							"internalType": "address",
							"name": "",
							"type": "address"
						}
					],
					"stateMutability": "view",
					"type": "function"
				},
				{
					"inputs": [
						{
							"internalType": "address",
							"name": "spender",
							"type": "address"
						},
						{
							"internalType": "uint256",
							"name": "addedValue",
							"type": "uint256"
						}
					],
					"name": "increaseAllowance",
					"outputs": [
						{
							"internalType": "bool",
							"name": "",
							"type": "bool"
						}
					],
					"stateMutability": "nonpayable",
					"type": "function"
				},
				{
					"inputs": [
						{
							"internalType": "address",
							"name": "account",
							"type": "address"
						}
					],
					"name": "isMinter",
					"outputs": [
						{
							"internalType": "bool",
							"name": "",
							"type": "bool"
						}
					],
					"stateMutability": "view",
					"type": "function"
				},
				{
					"inputs": [
						{
							"internalType": "uint256",
							"name": "_amount",
							"type": "uint256"
						}
					],
					"name": "lock",
					"outputs": [],
					"stateMutability": "nonpayable",
					"type": "function"
				},
				{
					"inputs": [],
					"name": "maxSupply",
					"outputs": [
						{
							"internalType": "uint256",
							"name": "",
							"type": "uint256"
						}
					],
					"stateMutability": "view",
					"type": "function"
				},
				{
					"inputs": [
						{
							"internalType": "address",
							"name": "_to",
							"type": "address"
						},
						{
							"internalType": "uint256",
							"name": "_amount",
							"type": "uint256"
						}
					],
					"name": "mint",
					"outputs": [
						{
							"internalType": "bool",
							"name": "",
							"type": "bool"
						}
					],
					"stateMutability": "nonpayable",
					"type": "function"
				},
				{
					"inputs": [
						{
							"internalType": "uint256",
							"name": "amount",
							"type": "uint256"
						}
					],
					"name": "mint",
					"outputs": [
						{
							"internalType": "bool",
							"name": "",
							"type": "bool"
						}
					],
					"stateMutability": "nonpayable",
					"type": "function"
				},
				{
					"inputs": [],
					"name": "name",
					"outputs": [
						{
							"internalType": "string",
							"name": "",
							"type": "string"
						}
					],
					"stateMutability": "view",
					"type": "function"
				},
				{
					"inputs": [],
					"name": "owner",
					"outputs": [
						{
							"internalType": "address",
							"name": "",
							"type": "address"
						}
					],
					"stateMutability": "view",
					"type": "function"
				},
				{
					"inputs": [
						{
							"internalType": "uint256",
							"name": "_amount",
							"type": "uint256"
						}
					],
					"name": "redeem",
					"outputs": [],
					"stateMutability": "nonpayable",
					"type": "function"
				},
				{
					"inputs": [],
					"name": "renounceOwnership",
					"outputs": [],
					"stateMutability": "nonpayable",
					"type": "function"
				},
				{
					"inputs": [],
					"name": "symbol",
					"outputs": [
						{
							"internalType": "string",
							"name": "",
							"type": "string"
						}
					],
					"stateMutability": "view",
					"type": "function"
				},
				{
					"inputs": [],
					"name": "totalSupply",
					"outputs": [
						{
							"internalType": "uint256",
							"name": "",
							"type": "uint256"
						}
					],
					"stateMutability": "view",
					"type": "function"
				},
				{
					"inputs": [
						{
							"internalType": "address",
							"name": "recipient",
							"type": "address"
						},
						{
							"internalType": "uint256",
							"name": "amount",
							"type": "uint256"
						}
					],
					"name": "transfer",
					"outputs": [
						{
							"internalType": "bool",
							"name": "",
							"type": "bool"
						}
					],
					"stateMutability": "nonpayable",
					"type": "function"
				},
				{
					"inputs": [
						{
							"internalType": "address",
							"name": "sender",
							"type": "address"
						},
						{
							"internalType": "address",
							"name": "recipient",
							"type": "address"
						},
						{
							"internalType": "uint256",
							"name": "amount",
							"type": "uint256"
						}
					],
					"name": "transferFrom",
					"outputs": [
						{
							"internalType": "bool",
							"name": "",
							"type": "bool"
						}
					],
					"stateMutability": "nonpayable",
					"type": "function"
				},
				{
					"inputs": [
						{
							"internalType": "address",
							"name": "newOwner",
							"type": "address"
						}
					],
					"name": "transferOwnership",
					"outputs": [],
					"stateMutability": "nonpayable",
					"type": "function"
				}
			],
			"devdoc": {
				"kind": "dev",
				"methods": {
					"allowance(address,address)": {
						"details": "See {ERC20-allowance}."
					},
					"approve(address,uint256)": {
						"details": "See {ERC20-approve}. Requirements: - `spender` cannot be the zero address."
					},
					"balanceOf(address)": {
						"details": "See {ERC20-balanceOf}."
					},
					"decimals()": {
						"details": "Returns the token decimals."
					},
					"decreaseAllowance(address,uint256)": {
						"details": "Atomically decreases the allowance granted to `spender` by the caller. This is an alternative to {approve} that can be used as a mitigation for problems described in {ERC20-approve}. Emits an {Approval} event indicating the updated allowance. Requirements: - `spender` cannot be the zero address. - `spender` must have allowance for the caller of at least `subtractedValue`."
					},
					"getOwner()": {
						"details": "Returns the bep token owner."
					},
					"increaseAllowance(address,uint256)": {
						"details": "Atomically increases the allowance granted to `spender` by the caller. This is an alternative to {approve} that can be used as a mitigation for problems described in {ERC20-approve}. Emits an {Approval} event indicating the updated allowance. Requirements: - `spender` cannot be the zero address."
					},
					"mint(uint256)": {
						"details": "Creates `amount` tokens and assigns them to `msg.sender`, increasing the total supply. Requirements - `msg.sender` must be the token owner"
					},
					"name()": {
						"details": "Returns the token name."
					},
					"owner()": {
						"details": "Returns the address of the current owner."
					},
					"renounceOwnership()": {
						"details": "Leaves the contract without owner. It will not be possible to call `onlyOwner` functions anymore. Can only be called by the current owner. NOTE: Renouncing ownership will leave the contract without an owner, thereby removing any functionality that is only available to the owner."
					},
					"symbol()": {
						"details": "Returns the token symbol."
					},
					"totalSupply()": {
						"details": "See {ERC20-totalSupply}."
					},
					"transfer(address,uint256)": {
						"details": "See {ERC20-transfer}. Requirements: - `recipient` cannot be the zero address. - the caller must have a balance of at least `amount`."
					},
					"transferFrom(address,address,uint256)": {
						"details": "See {ERC20-transferFrom}. Emits an {Approval} event indicating the updated allowance. This is not required by the EIP. See the note at the beginning of {ERC20}; Requirements: - `sender` and `recipient` cannot be the zero address. - `sender` must have a balance of at least `amount`. - the caller must have allowance for `sender`'s tokens of at least `amount`."
					},
					"transferOwnership(address)": {
						"details": "Transfers ownership of the contract to a new account (`newOwner`). Can only be called by the current owner."
					}
				},
				"version": 1
			},
			"evm": {
				"assembly": "    /* \"token/xSWORD.sol\":33834:35899  contract xeZKaliburToken is ERC20('eZKalibur escrowed Token', 'xSWORD') {\r... */\n  mstore(0x40, 0x80)\n    /* \"token/xSWORD.sol\":34052:34122  constructor(xeZKaliburToken _mmf) public {\r... */\n  callvalue\n  dup1\n  iszero\n  tag_1\n  jumpi\n  0x00\n  dup1\n  revert\ntag_1:\n  pop\n  mload(0x40)\n  sub(codesize, bytecodeSize)\n  dup1\n  bytecodeSize\n  dup4\n  codecopy\n  dup2\n  dup2\n  add\n  0x40\n  mstore\n  0x20\n  dup2\n  lt\n  iszero\n  tag_2\n  jumpi\n  0x00\n  dup1\n  revert\ntag_2:\n  dup2\n  add\n  swap1\n  dup1\n  dup1\n  mload\n  swap1\n  0x20\n  add\n  swap1\n  swap3\n  swap2\n  swap1\n  pop\n  pop\n  pop\n    /* \"token/xSWORD.sol\":18091:18235  constructor(string memory name, string memory symbol) public {\r... */\n  mload(0x40)\n  dup1\n  0x40\n  add\n  0x40\n  mstore\n  dup1\n  0x18\n  dup2\n  mstore\n  0x20\n  add\n  0x655a4b616c6962757220657363726f77656420546f6b656e0000000000000000\n  dup2\n  mstore\n  pop\n  mload(0x40)\n  dup1\n  0x40\n  add\n  0x40\n  mstore\n  dup1\n  0x06\n  dup2\n  mstore\n  0x20\n  add\n  0x7853574f52440000000000000000000000000000000000000000000000000000\n  dup2\n  mstore\n  pop\n    /* \"token/xSWORD.sol\":900:917  address msgSender */\n  0x00\n    /* \"token/xSWORD.sol\":920:932  _msgSender() */\n  tag_9\n    /* \"token/xSWORD.sol\":920:930  _msgSender */\n  shl(0x20, tag_10)\n    /* \"token/xSWORD.sol\":920:932  _msgSender() */\n  0x20\n  shr\n  jump\t// in\ntag_9:\n    /* \"token/xSWORD.sol\":900:932  address msgSender = _msgSender() */\n  swap1\n  pop\n    /* \"token/xSWORD.sol\":952:961  msgSender */\n  dup1\n    /* \"token/xSWORD.sol\":943:949  _owner */\n  0x00\n  dup1\n    /* \"token/xSWORD.sol\":943:961  _owner = msgSender */\n  0x0100\n  exp\n  dup2\n  sload\n  dup2\n  0xffffffffffffffffffffffffffffffffffffffff\n  mul\n  not\n  and\n  swap1\n  dup4\n  0xffffffffffffffffffffffffffffffffffffffff\n  and\n  mul\n  or\n  swap1\n  sstore\n  pop\n    /* \"token/xSWORD.sol\":1010:1019  msgSender */\n  dup1\n    /* \"token/xSWORD.sol\":977:1020  OwnershipTransferred(address(0), msgSender) */\n  0xffffffffffffffffffffffffffffffffffffffff\n  and\n    /* \"token/xSWORD.sol\":1006:1007  0 */\n  0x00\n    /* \"token/xSWORD.sol\":977:1020  OwnershipTransferred(address(0), msgSender) */\n  0xffffffffffffffffffffffffffffffffffffffff\n  and\n  0x8be0079c531659141344cd1fd0a4f28419497f9722a3daafe3b4186f6b6457e0\n  mload(0x40)\n  mload(0x40)\n  dup1\n  swap2\n  sub\n  swap1\n  log3\n    /* \"token/xSWORD.sol\":866:1028  constructor() internal {\r... */\n  pop\n    /* \"token/xSWORD.sol\":18171:18175  name */\n  dup2\n    /* \"token/xSWORD.sol\":18163:18168  _name */\n  0x04\n    /* \"token/xSWORD.sol\":18163:18175  _name = name */\n  swap1\n  dup1\n  mload\n  swap1\n  0x20\n  add\n  swap1\n  tag_12\n  swap3\n  swap2\n  swap1\n  tag_13\n  jump\t// in\ntag_12:\n  pop\n    /* \"token/xSWORD.sol\":18196:18202  symbol */\n  dup1\n    /* \"token/xSWORD.sol\":18186:18193  _symbol */\n  0x05\n    /* \"token/xSWORD.sol\":18186:18202  _symbol = symbol */\n  swap1\n  dup1\n  mload\n  swap1\n  0x20\n  add\n  swap1\n  tag_14\n  swap3\n  swap2\n  swap1\n  tag_13\n  jump\t// in\ntag_14:\n  pop\n    /* \"token/xSWORD.sol\":18225:18227  18 */\n  0x12\n    /* \"token/xSWORD.sol\":18213:18222  _decimals */\n  0x06\n  0x00\n    /* \"token/xSWORD.sol\":18213:18227  _decimals = 18 */\n  0x0100\n  exp\n  dup2\n  sload\n  dup2\n  0xff\n  mul\n  not\n  and\n  swap1\n  dup4\n  0xff\n  and\n  mul\n  or\n  swap1\n  sstore\n  pop\n    /* \"token/xSWORD.sol\":18091:18235  constructor(string memory name, string memory symbol) public {\r... */\n  pop\n  pop\n    /* \"token/xSWORD.sol\":34110:34114  _mmf */\n  dup1\n    /* \"token/xSWORD.sol\":34104:34107  MMF */\n  0x09\n  0x00\n    /* \"token/xSWORD.sol\":34104:34114  MMF = _mmf */\n  0x0100\n  exp\n  dup2\n  sload\n  dup2\n  0xffffffffffffffffffffffffffffffffffffffff\n  mul\n  not\n  and\n  swap1\n  dup4\n  0xffffffffffffffffffffffffffffffffffffffff\n  and\n  mul\n  or\n  swap1\n  sstore\n  pop\n    /* \"token/xSWORD.sol\":34052:34122  constructor(xeZKaliburToken _mmf) public {\r... */\n  pop\n    /* \"token/xSWORD.sol\":33834:35899  contract xeZKaliburToken is ERC20('eZKalibur escrowed Token', 'xSWORD') {\r... */\n  jump(tag_16)\n    /* \"token/xSWORD.sol\":273:371  function _msgSender() internal view returns (address payable) {\r... */\ntag_10:\n    /* \"token/xSWORD.sol\":318:333  address payable */\n  0x00\n    /* \"token/xSWORD.sol\":353:363  msg.sender */\n  caller\n    /* \"token/xSWORD.sol\":346:363  return msg.sender */\n  swap1\n  pop\n    /* \"token/xSWORD.sol\":273:371  function _msgSender() internal view returns (address payable) {\r... */\n  swap1\n  jump\t// out\n    /* \"token/xSWORD.sol\":33834:35899  contract xeZKaliburToken is ERC20('eZKalibur escrowed Token', 'xSWORD') {\r... */\ntag_13:\n  dup3\n  dup1\n  sload\n  0x01\n  dup2\n  0x01\n  and\n  iszero\n  0x0100\n  mul\n  sub\n  and\n  0x02\n  swap1\n  div\n  swap1\n  0x00\n  mstore\n  keccak256(0x00, 0x20)\n  swap1\n  0x1f\n  add\n  0x20\n  swap1\n  div\n  dup2\n  add\n  swap3\n  dup3\n  0x1f\n  lt\n  tag_19\n  jumpi\n  dup1\n  mload\n  not(0xff)\n  and\n  dup4\n  dup1\n  add\n  or\n  dup6\n  sstore\n  jump(tag_18)\ntag_19:\n  dup3\n  dup1\n  add\n  0x01\n  add\n  dup6\n  sstore\n  dup3\n  iszero\n  tag_18\n  jumpi\n  swap2\n  dup3\n  add\ntag_20:\n  dup3\n  dup2\n  gt\n  iszero\n  tag_21\n  jumpi\n  dup3\n  mload\n  dup3\n  sstore\n  swap2\n  0x20\n  add\n  swap2\n  swap1\n  0x01\n  add\n  swap1\n  jump(tag_20)\ntag_21:\ntag_18:\n  pop\n  swap1\n  pop\n  tag_22\n  swap2\n  swap1\n  tag_23\n  jump\t// in\ntag_22:\n  pop\n  swap1\n  jump\t// out\ntag_23:\ntag_24:\n  dup1\n  dup3\n  gt\n  iszero\n  tag_25\n  jumpi\n  0x00\n  dup2\n  0x00\n  swap1\n  sstore\n  pop\n  0x01\n  add\n  jump(tag_24)\ntag_25:\n  pop\n  swap1\n  jump\t// out\ntag_16:\n  dataSize(sub_0)\n  dup1\n  dataOffset(sub_0)\n  0x00\n  codecopy\n  0x00\n  return\nstop\n\nsub_0: assembly {\n        /* \"token/xSWORD.sol\":33834:35899  contract xeZKaliburToken is ERC20('eZKalibur escrowed Token', 'xSWORD') {\r... */\n      mstore(0x40, 0x80)\n      callvalue\n      dup1\n      iszero\n      tag_1\n      jumpi\n      0x00\n      dup1\n      revert\n    tag_1:\n      pop\n      jumpi(tag_2, lt(calldatasize, 0x04))\n      shr(0xe0, calldataload(0x00))\n      dup1\n      0x893d20e8\n      gt\n      tag_29\n      jumpi\n      dup1\n      0xa9059cbb\n      gt\n      tag_30\n      jumpi\n      dup1\n      0xdb006a75\n      gt\n      tag_31\n      jumpi\n      dup1\n      0xdb006a75\n      eq\n      tag_25\n      jumpi\n      dup1\n      0xdd467064\n      eq\n      tag_26\n      jumpi\n      dup1\n      0xdd62ed3e\n      eq\n      tag_27\n      jumpi\n      dup1\n      0xf2fde38b\n      eq\n      tag_28\n      jumpi\n      jump(tag_2)\n    tag_31:\n      dup1\n      0xa9059cbb\n      eq\n      tag_22\n      jumpi\n      dup1\n      0xaa271e1a\n      eq\n      tag_23\n      jumpi\n      dup1\n      0xd5abeb01\n      eq\n      tag_24\n      jumpi\n      jump(tag_2)\n    tag_30:\n      dup1\n      0x893d20e8\n      eq\n      tag_16\n      jumpi\n      dup1\n      0x8da5cb5b\n      eq\n      tag_17\n      jumpi\n      dup1\n      0x95d89b41\n      eq\n      tag_18\n      jumpi\n      dup1\n      0x983b2d56\n      eq\n      tag_19\n      jumpi\n      dup1\n      0xa0712d68\n      eq\n      tag_20\n      jumpi\n      dup1\n      0xa457c2d7\n      eq\n      tag_21\n      jumpi\n      jump(tag_2)\n    tag_29:\n      dup1\n      0x313ce567\n      gt\n      tag_32\n      jumpi\n      dup1\n      0x5b7121f8\n      gt\n      tag_33\n      jumpi\n      dup1\n      0x5b7121f8\n      eq\n      tag_12\n      jumpi\n      dup1\n      0x70a08231\n      eq\n      tag_13\n      jumpi\n      dup1\n      0x715018a6\n      eq\n      tag_14\n      jumpi\n      dup1\n      0x79cc6790\n      eq\n      tag_15\n      jumpi\n      jump(tag_2)\n    tag_33:\n      dup1\n      0x313ce567\n      eq\n      tag_9\n      jumpi\n      dup1\n      0x39509351\n      eq\n      tag_10\n      jumpi\n      dup1\n      0x40c10f19\n      eq\n      tag_11\n      jumpi\n      jump(tag_2)\n    tag_32:\n      dup1\n      0x0323aac7\n      eq\n      tag_3\n      jumpi\n      dup1\n      0x06fdde03\n      eq\n      tag_4\n      jumpi\n      dup1\n      0x095ea7b3\n      eq\n      tag_5\n      jumpi\n      dup1\n      0x18160ddd\n      eq\n      tag_6\n      jumpi\n      dup1\n      0x23338b88\n      eq\n      tag_7\n      jumpi\n      dup1\n      0x23b872dd\n      eq\n      tag_8\n      jumpi\n    tag_2:\n      0x00\n      dup1\n      revert\n        /* \"token/xSWORD.sol\":35271:35384  function getMinterLength() public view returns (uint256) {\r... */\n    tag_3:\n      tag_34\n      tag_35\n      jump\t// in\n    tag_34:\n      mload(0x40)\n      dup1\n      dup3\n      dup2\n      mstore\n      0x20\n      add\n      swap2\n      pop\n      pop\n      mload(0x40)\n      dup1\n      swap2\n      sub\n      swap1\n      return\n        /* \"token/xSWORD.sol\":18460:18552  function name() public override view returns (string memory) {\r... */\n    tag_4:\n      tag_36\n      tag_37\n      jump\t// in\n    tag_36:\n      mload(0x40)\n      dup1\n      dup1\n      0x20\n      add\n      dup3\n      dup2\n      sub\n      dup3\n      mstore\n      dup4\n      dup2\n      dup2\n      mload\n      dup2\n      mstore\n      0x20\n      add\n      swap2\n      pop\n      dup1\n      mload\n      swap1\n      0x20\n      add\n      swap1\n      dup1\n      dup4\n      dup4\n      0x00\n    tag_38:\n      dup4\n      dup2\n      lt\n      iszero\n      tag_40\n      jumpi\n      dup1\n      dup3\n      add\n      mload\n      dup2\n      dup5\n      add\n      mstore\n      0x20\n      dup2\n      add\n      swap1\n      pop\n      jump(tag_38)\n    tag_40:\n      pop\n      pop\n      pop\n      pop\n      swap1\n      pop\n      swap1\n      dup2\n      add\n      swap1\n      0x1f\n      and\n      dup1\n      iszero\n      tag_41\n      jumpi\n      dup1\n      dup3\n      sub\n      dup1\n      mload\n      0x01\n      dup4\n      0x20\n      sub\n      0x0100\n      exp\n      sub\n      not\n      and\n      dup2\n      mstore\n      0x20\n      add\n      swap2\n      pop\n    tag_41:\n      pop\n      swap3\n      pop\n      pop\n      pop\n      mload(0x40)\n      dup1\n      swap2\n      sub\n      swap1\n      return\n        /* \"token/xSWORD.sol\":20051:20212  function approve(address spender, uint256 amount) public override returns (bool) {\r... */\n    tag_5:\n      tag_42\n      0x04\n      dup1\n      calldatasize\n      sub\n      0x40\n      dup2\n      lt\n      iszero\n      tag_43\n      jumpi\n      0x00\n      dup1\n      revert\n    tag_43:\n      dup2\n      add\n      swap1\n      dup1\n      dup1\n      calldataload\n      0xffffffffffffffffffffffffffffffffffffffff\n      and\n      swap1\n      0x20\n      add\n      swap1\n      swap3\n      swap2\n      swap1\n      dup1\n      calldataload\n      swap1\n      0x20\n      add\n      swap1\n      swap3\n      swap2\n      swap1\n      pop\n      pop\n      pop\n      tag_44\n      jump\t// in\n    tag_42:\n      mload(0x40)\n      dup1\n      dup3\n      iszero\n      iszero\n      dup2\n      mstore\n      0x20\n      add\n      swap2\n      pop\n      pop\n      mload(0x40)\n      dup1\n      swap2\n      sub\n      swap1\n      return\n        /* \"token/xSWORD.sol\":18936:19036  function totalSupply() public override view returns (uint256) {\r... */\n    tag_6:\n      tag_45\n      tag_46\n      jump\t// in\n    tag_45:\n      mload(0x40)\n      dup1\n      dup3\n      dup2\n      mstore\n      0x20\n      add\n      swap2\n      pop\n      pop\n      mload(0x40)\n      dup1\n      swap2\n      sub\n      swap1\n      return\n        /* \"token/xSWORD.sol\":35040:35263  function delMinter(address _delMinter) public onlyOwner returns (bool) {\r... */\n    tag_7:\n      tag_47\n      0x04\n      dup1\n      calldatasize\n      sub\n      0x20\n      dup2\n      lt\n      iszero\n      tag_48\n      jumpi\n      0x00\n      dup1\n      revert\n    tag_48:\n      dup2\n      add\n      swap1\n      dup1\n      dup1\n      calldataload\n      0xffffffffffffffffffffffffffffffffffffffff\n      and\n      swap1\n      0x20\n      add\n      swap1\n      swap3\n      swap2\n      swap1\n      pop\n      pop\n      pop\n      tag_49\n      jump\t// in\n    tag_47:\n      mload(0x40)\n      dup1\n      dup3\n      iszero\n      iszero\n      dup2\n      mstore\n      0x20\n      add\n      swap2\n      pop\n      pop\n      mload(0x40)\n      dup1\n      swap2\n      sub\n      swap1\n      return\n        /* \"token/xSWORD.sol\":20683:21080  function transferFrom(\r... */\n    tag_8:\n      tag_50\n      0x04\n      dup1\n      calldatasize\n      sub\n      0x60\n      dup2\n      lt\n      iszero\n      tag_51\n      jumpi\n      0x00\n      dup1\n      revert\n    tag_51:\n      dup2\n      add\n      swap1\n      dup1\n      dup1\n      calldataload\n      0xffffffffffffffffffffffffffffffffffffffff\n      and\n      swap1\n      0x20\n      add\n      swap1\n      swap3\n      swap2\n      swap1\n      dup1\n      calldataload\n      0xffffffffffffffffffffffffffffffffffffffff\n      and\n      swap1\n      0x20\n      add\n      swap1\n      swap3\n      swap2\n      swap1\n      dup1\n      calldataload\n      swap1\n      0x20\n      add\n      swap1\n      swap3\n      swap2\n      swap1\n      pop\n      pop\n      pop\n      tag_52\n      jump\t// in\n    tag_50:\n      mload(0x40)\n      dup1\n      dup3\n      iszero\n      iszero\n      dup2\n      mstore\n      0x20\n      add\n      swap2\n      pop\n      pop\n      mload(0x40)\n      dup1\n      swap2\n      sub\n      swap1\n      return\n        /* \"token/xSWORD.sol\":18619:18711  function decimals() public override view returns (uint8) {\r... */\n    tag_9:\n      tag_53\n      tag_54\n      jump\t// in\n    tag_53:\n      mload(0x40)\n      dup1\n      dup3\n      0xff\n      and\n      dup2\n      mstore\n      0x20\n      add\n      swap2\n      pop\n      pop\n      mload(0x40)\n      dup1\n      swap2\n      sub\n      swap1\n      return\n        /* \"token/xSWORD.sol\":21488:21698  function increaseAllowance(address spender, uint256 addedValue) public returns (bool) {\r... */\n    tag_10:\n      tag_55\n      0x04\n      dup1\n      calldatasize\n      sub\n      0x40\n      dup2\n      lt\n      iszero\n      tag_56\n      jumpi\n      0x00\n      dup1\n      revert\n    tag_56:\n      dup2\n      add\n      swap1\n      dup1\n      dup1\n      calldataload\n      0xffffffffffffffffffffffffffffffffffffffff\n      and\n      swap1\n      0x20\n      add\n      swap1\n      swap3\n      swap2\n      swap1\n      dup1\n      calldataload\n      swap1\n      0x20\n      add\n      swap1\n      swap3\n      swap2\n      swap1\n      pop\n      pop\n      pop\n      tag_57\n      jump\t// in\n    tag_55:\n      mload(0x40)\n      dup1\n      dup3\n      iszero\n      iszero\n      dup2\n      mstore\n      0x20\n      add\n      swap2\n      pop\n      pop\n      mload(0x40)\n      dup1\n      swap2\n      sub\n      swap1\n      return\n        /* \"token/xSWORD.sol\":34181:34360  function mint(address _to, uint256 _amount) public onlyMinter returns(bool) {\r... */\n    tag_11:\n      tag_58\n      0x04\n      dup1\n      calldatasize\n      sub\n      0x40\n      dup2\n      lt\n      iszero\n      tag_59\n      jumpi\n      0x00\n      dup1\n      revert\n    tag_59:\n      dup2\n      add\n      swap1\n      dup1\n      dup1\n      calldataload\n      0xffffffffffffffffffffffffffffffffffffffff\n      and\n      swap1\n      0x20\n      add\n      swap1\n      swap3\n      swap2\n      swap1\n      dup1\n      calldataload\n      swap1\n      0x20\n      add\n      swap1\n      swap3\n      swap2\n      swap1\n      pop\n      pop\n      pop\n      tag_60\n      jump\t// in\n    tag_58:\n      mload(0x40)\n      dup1\n      dup3\n      iszero\n      iszero\n      dup2\n      mstore\n      0x20\n      add\n      swap2\n      pop\n      pop\n      mload(0x40)\n      dup1\n      swap2\n      sub\n      swap1\n      return\n        /* \"token/xSWORD.sol\":35529:35743  function getMinter(uint256 _index) public view onlyOwner returns (address){\r... */\n    tag_12:\n      tag_61\n      0x04\n      dup1\n      calldatasize\n      sub\n      0x20\n      dup2\n      lt\n      iszero\n      tag_62\n      jumpi\n      0x00\n      dup1\n      revert\n    tag_62:\n      dup2\n      add\n      swap1\n      dup1\n      dup1\n      calldataload\n      swap1\n      0x20\n      add\n      swap1\n      swap3\n      swap2\n      swap1\n      pop\n      pop\n      pop\n      tag_63\n      jump\t// in\n    tag_61:\n      mload(0x40)\n      dup1\n      dup3\n      0xffffffffffffffffffffffffffffffffffffffff\n      and\n      dup2\n      mstore\n      0x20\n      add\n      swap2\n      pop\n      pop\n      mload(0x40)\n      dup1\n      swap2\n      sub\n      swap1\n      return\n        /* \"token/xSWORD.sol\":19202:19321  function balanceOf(address account) public override view returns (uint256) {\r... */\n    tag_13:\n      tag_64\n      0x04\n      dup1\n      calldatasize\n      sub\n      0x20\n      dup2\n      lt\n      iszero\n      tag_65\n      jumpi\n      0x00\n      dup1\n      revert\n    tag_65:\n      dup2\n      add\n      swap1\n      dup1\n      dup1\n      calldataload\n      0xffffffffffffffffffffffffffffffffffffffff\n      and\n      swap1\n      0x20\n      add\n      swap1\n      swap3\n      swap2\n      swap1\n      pop\n      pop\n      pop\n      tag_66\n      jump\t// in\n    tag_64:\n      mload(0x40)\n      dup1\n      dup3\n      dup2\n      mstore\n      0x20\n      add\n      swap2\n      pop\n      pop\n      mload(0x40)\n      dup1\n      swap2\n      sub\n      swap1\n      return\n        /* \"token/xSWORD.sol\":1751:1891  function renounceOwnership() public onlyOwner {\r... */\n    tag_14:\n      tag_67\n      tag_68\n      jump\t// in\n    tag_67:\n      stop\n        /* \"token/xSWORD.sol\":34699:34804  function burnFrom(address account, uint256 amount) external {\r... */\n    tag_15:\n      tag_69\n      0x04\n      dup1\n      calldatasize\n      sub\n      0x40\n      dup2\n      lt\n      iszero\n      tag_70\n      jumpi\n      0x00\n      dup1\n      revert\n    tag_70:\n      dup2\n      add\n      swap1\n      dup1\n      dup1\n      calldataload\n      0xffffffffffffffffffffffffffffffffffffffff\n      and\n      swap1\n      0x20\n      add\n      swap1\n      swap3\n      swap2\n      swap1\n      dup1\n      calldataload\n      swap1\n      0x20\n      add\n      swap1\n      swap3\n      swap2\n      swap1\n      pop\n      pop\n      pop\n      tag_71\n      jump\t// in\n    tag_69:\n      stop\n        /* \"token/xSWORD.sol\":18303:18397  function getOwner() external override view returns (address) {\r... */\n    tag_16:\n      tag_72\n      tag_73\n      jump\t// in\n    tag_72:\n      mload(0x40)\n      dup1\n      dup3\n      0xffffffffffffffffffffffffffffffffffffffff\n      and\n      dup2\n      mstore\n      0x20\n      add\n      swap2\n      pop\n      pop\n      mload(0x40)\n      dup1\n      swap2\n      sub\n      swap1\n      return\n        /* \"token/xSWORD.sol\":1109:1188  function owner() public view returns (address) {\r... */\n    tag_17:\n      tag_74\n      tag_75\n      jump\t// in\n    tag_74:\n      mload(0x40)\n      dup1\n      dup3\n      0xffffffffffffffffffffffffffffffffffffffff\n      and\n      dup2\n      mstore\n      0x20\n      add\n      swap2\n      pop\n      pop\n      mload(0x40)\n      dup1\n      swap2\n      sub\n      swap1\n      return\n        /* \"token/xSWORD.sol\":18776:18872  function symbol() public override view returns (string memory) {\r... */\n    tag_18:\n      tag_76\n      tag_77\n      jump\t// in\n    tag_76:\n      mload(0x40)\n      dup1\n      dup1\n      0x20\n      add\n      dup3\n      dup2\n      sub\n      dup3\n      mstore\n      dup4\n      dup2\n      dup2\n      mload\n      dup2\n      mstore\n      0x20\n      add\n      swap2\n      pop\n      dup1\n      mload\n      swap1\n      0x20\n      add\n      swap1\n      dup1\n      dup4\n      dup4\n      0x00\n    tag_78:\n      dup4\n      dup2\n      lt\n      iszero\n      tag_80\n      jumpi\n      dup1\n      dup3\n      add\n      mload\n      dup2\n      dup5\n      add\n      mstore\n      0x20\n      dup2\n      add\n      swap1\n      pop\n      jump(tag_78)\n    tag_80:\n      pop\n      pop\n      pop\n      pop\n      swap1\n      pop\n      swap1\n      dup2\n      add\n      swap1\n      0x1f\n      and\n      dup1\n      iszero\n      tag_81\n      jumpi\n      dup1\n      dup3\n      sub\n      dup1\n      mload\n      0x01\n      dup4\n      0x20\n      sub\n      0x0100\n      exp\n      sub\n      not\n      and\n      dup2\n      mstore\n      0x20\n      add\n      swap2\n      pop\n    tag_81:\n      pop\n      swap3\n      pop\n      pop\n      pop\n      mload(0x40)\n      dup1\n      swap2\n      sub\n      swap1\n      return\n        /* \"token/xSWORD.sol\":34812:35032  function addMinter(address _addMinter) public onlyOwner returns (bool) {\r... */\n    tag_19:\n      tag_82\n      0x04\n      dup1\n      calldatasize\n      sub\n      0x20\n      dup2\n      lt\n      iszero\n      tag_83\n      jumpi\n      0x00\n      dup1\n      revert\n    tag_83:\n      dup2\n      add\n      swap1\n      dup1\n      dup1\n      calldataload\n      0xffffffffffffffffffffffffffffffffffffffff\n      and\n      swap1\n      0x20\n      add\n      swap1\n      swap3\n      swap2\n      swap1\n      pop\n      pop\n      pop\n      tag_84\n      jump\t// in\n    tag_82:\n      mload(0x40)\n      dup1\n      dup3\n      iszero\n      iszero\n      dup2\n      mstore\n      0x20\n      add\n      swap2\n      pop\n      pop\n      mload(0x40)\n      dup1\n      swap2\n      sub\n      swap1\n      return\n        /* \"token/xSWORD.sol\":22729:22859  function mint(uint256 amount) public onlyOwner returns (bool) {\r... */\n    tag_20:\n      tag_85\n      0x04\n      dup1\n      calldatasize\n      sub\n      0x20\n      dup2\n      lt\n      iszero\n      tag_86\n      jumpi\n      0x00\n      dup1\n      revert\n    tag_86:\n      dup2\n      add\n      swap1\n      dup1\n      dup1\n      calldataload\n      swap1\n      0x20\n      add\n      swap1\n      swap3\n      swap2\n      swap1\n      pop\n      pop\n      pop\n      tag_87\n      jump\t// in\n    tag_85:\n      mload(0x40)\n      dup1\n      dup3\n      iszero\n      iszero\n      dup2\n      mstore\n      0x20\n      add\n      swap2\n      pop\n      pop\n      mload(0x40)\n      dup1\n      swap2\n      sub\n      swap1\n      return\n        /* \"token/xSWORD.sol\":22200:22511  function decreaseAllowance(address spender, uint256 subtractedValue) public returns (bool) {\r... */\n    tag_21:\n      tag_88\n      0x04\n      dup1\n      calldatasize\n      sub\n      0x40\n      dup2\n      lt\n      iszero\n      tag_89\n      jumpi\n      0x00\n      dup1\n      revert\n    tag_89:\n      dup2\n      add\n      swap1\n      dup1\n      dup1\n      calldataload\n      0xffffffffffffffffffffffffffffffffffffffff\n      and\n      swap1\n      0x20\n      add\n      swap1\n      swap3\n      swap2\n      swap1\n      dup1\n      calldataload\n      swap1\n      0x20\n      add\n      swap1\n      swap3\n      swap2\n      swap1\n      pop\n      pop\n      pop\n      tag_90\n      jump\t// in\n    tag_88:\n      mload(0x40)\n      dup1\n      dup3\n      iszero\n      iszero\n      dup2\n      mstore\n      0x20\n      add\n      swap2\n      pop\n      pop\n      mload(0x40)\n      dup1\n      swap2\n      sub\n      swap1\n      return\n        /* \"token/xSWORD.sol\":19533:19700  function transfer(address recipient, uint256 amount) public override returns (bool) {\r... */\n    tag_22:\n      tag_91\n      0x04\n      dup1\n      calldatasize\n      sub\n      0x40\n      dup2\n      lt\n      iszero\n      tag_92\n      jumpi\n      0x00\n      dup1\n      revert\n    tag_92:\n      dup2\n      add\n      swap1\n      dup1\n      dup1\n      calldataload\n      0xffffffffffffffffffffffffffffffffffffffff\n      and\n      swap1\n      0x20\n      add\n      swap1\n      swap3\n      swap2\n      swap1\n      dup1\n      calldataload\n      swap1\n      0x20\n      add\n      swap1\n      swap3\n      swap2\n      swap1\n      pop\n      pop\n      pop\n      tag_93\n      jump\t// in\n    tag_91:\n      mload(0x40)\n      dup1\n      dup3\n      iszero\n      iszero\n      dup2\n      mstore\n      0x20\n      add\n      swap2\n      pop\n      pop\n      mload(0x40)\n      dup1\n      swap2\n      sub\n      swap1\n      return\n        /* \"token/xSWORD.sol\":35392:35521  function isMinter(address account) public view returns (bool) {\r... */\n    tag_23:\n      tag_94\n      0x04\n      dup1\n      calldatasize\n      sub\n      0x20\n      dup2\n      lt\n      iszero\n      tag_95\n      jumpi\n      0x00\n      dup1\n      revert\n    tag_95:\n      dup2\n      add\n      swap1\n      dup1\n      dup1\n      calldataload\n      0xffffffffffffffffffffffffffffffffffffffff\n      and\n      swap1\n      0x20\n      add\n      swap1\n      swap3\n      swap2\n      swap1\n      pop\n      pop\n      pop\n      tag_96\n      jump\t// in\n    tag_94:\n      mload(0x40)\n      dup1\n      dup3\n      iszero\n      iszero\n      dup2\n      mstore\n      0x20\n      add\n      swap2\n      pop\n      pop\n      mload(0x40)\n      dup1\n      swap2\n      sub\n      swap1\n      return\n        /* \"token/xSWORD.sol\":19044:19140  function maxSupply() public override view returns (uint256) {\r... */\n    tag_24:\n      tag_97\n      tag_98\n      jump\t// in\n    tag_97:\n      mload(0x40)\n      dup1\n      dup3\n      dup2\n      mstore\n      0x20\n      add\n      swap2\n      pop\n      pop\n      mload(0x40)\n      dup1\n      swap2\n      sub\n      swap1\n      return\n        /* \"token/xSWORD.sol\":34542:34691  function redeem(uint256 _amount) public onlyMinter {\r... */\n    tag_25:\n      tag_99\n      0x04\n      dup1\n      calldatasize\n      sub\n      0x20\n      dup2\n      lt\n      iszero\n      tag_100\n      jumpi\n      0x00\n      dup1\n      revert\n    tag_100:\n      dup2\n      add\n      swap1\n      dup1\n      dup1\n      calldataload\n      swap1\n      0x20\n      add\n      swap1\n      swap3\n      swap2\n      swap1\n      pop\n      pop\n      pop\n      tag_101\n      jump\t// in\n    tag_99:\n      stop\n        /* \"token/xSWORD.sol\":34368:34534  function lock(uint256 _amount) public onlyMinter {\r... */\n    tag_26:\n      tag_102\n      0x04\n      dup1\n      calldatasize\n      sub\n      0x20\n      dup2\n      lt\n      iszero\n      tag_103\n      jumpi\n      0x00\n      dup1\n      revert\n    tag_103:\n      dup2\n      add\n      swap1\n      dup1\n      dup1\n      calldataload\n      swap1\n      0x20\n      add\n      swap1\n      swap3\n      swap2\n      swap1\n      pop\n      pop\n      pop\n      tag_104\n      jump\t// in\n    tag_102:\n      stop\n        /* \"token/xSWORD.sol\":19762:19905  function allowance(address owner, address spender) public override view returns (uint256) {\r... */\n    tag_27:\n      tag_105\n      0x04\n      dup1\n      calldatasize\n      sub\n      0x40\n      dup2\n      lt\n      iszero\n      tag_106\n      jumpi\n      0x00\n      dup1\n      revert\n    tag_106:\n      dup2\n      add\n      swap1\n      dup1\n      dup1\n      calldataload\n      0xffffffffffffffffffffffffffffffffffffffff\n      and\n      swap1\n      0x20\n      add\n      swap1\n      swap3\n      swap2\n      swap1\n      dup1\n      calldataload\n      0xffffffffffffffffffffffffffffffffffffffff\n      and\n      swap1\n      0x20\n      add\n      swap1\n      swap3\n      swap2\n      swap1\n      pop\n      pop\n      pop\n      tag_107\n      jump\t// in\n    tag_105:\n      mload(0x40)\n      dup1\n      dup3\n      dup2\n      mstore\n      0x20\n      add\n      swap2\n      pop\n      pop\n      mload(0x40)\n      dup1\n      swap2\n      sub\n      swap1\n      return\n        /* \"token/xSWORD.sol\":2046:2155  function transferOwnership(address newOwner) public onlyOwner {\r... */\n    tag_28:\n      tag_108\n      0x04\n      dup1\n      calldatasize\n      sub\n      0x20\n      dup2\n      lt\n      iszero\n      tag_109\n      jumpi\n      0x00\n      dup1\n      revert\n    tag_109:\n      dup2\n      add\n      swap1\n      dup1\n      dup1\n      calldataload\n      0xffffffffffffffffffffffffffffffffffffffff\n      and\n      swap1\n      0x20\n      add\n      swap1\n      swap3\n      swap2\n      swap1\n      pop\n      pop\n      pop\n      tag_110\n      jump\t// in\n    tag_108:\n      stop\n        /* \"token/xSWORD.sol\":35271:35384  function getMinterLength() public view returns (uint256) {\r... */\n    tag_35:\n        /* \"token/xSWORD.sol\":35319:35326  uint256 */\n      0x00\n        /* \"token/xSWORD.sol\":35346:35376  EnumerableSet.length(_minters) */\n      tag_112\n        /* \"token/xSWORD.sol\":35367:35375  _minters */\n      0x07\n        /* \"token/xSWORD.sol\":35346:35366  EnumerableSet.length */\n      tag_113\n        /* \"token/xSWORD.sol\":35346:35376  EnumerableSet.length(_minters) */\n      jump\t// in\n    tag_112:\n        /* \"token/xSWORD.sol\":35339:35376  return EnumerableSet.length(_minters) */\n      swap1\n      pop\n        /* \"token/xSWORD.sol\":35271:35384  function getMinterLength() public view returns (uint256) {\r... */\n      swap1\n      jump\t// out\n        /* \"token/xSWORD.sol\":18460:18552  function name() public override view returns (string memory) {\r... */\n    tag_37:\n        /* \"token/xSWORD.sol\":18506:18519  string memory */\n      0x60\n        /* \"token/xSWORD.sol\":18539:18544  _name */\n      0x04\n        /* \"token/xSWORD.sol\":18532:18544  return _name */\n      dup1\n      sload\n      0x01\n      dup2\n      0x01\n      and\n      iszero\n      0x0100\n      mul\n      sub\n      and\n      0x02\n      swap1\n      div\n      dup1\n      0x1f\n      add\n      0x20\n      dup1\n      swap2\n      div\n      mul\n      0x20\n      add\n      mload(0x40)\n      swap1\n      dup2\n      add\n      0x40\n      mstore\n      dup1\n      swap3\n      swap2\n      swap1\n      dup2\n      dup2\n      mstore\n      0x20\n      add\n      dup3\n      dup1\n      sload\n      0x01\n      dup2\n      0x01\n      and\n      iszero\n      0x0100\n      mul\n      sub\n      and\n      0x02\n      swap1\n      div\n      dup1\n      iszero\n      tag_115\n      jumpi\n      dup1\n      0x1f\n      lt\n      tag_116\n      jumpi\n      0x0100\n      dup1\n      dup4\n      sload\n      div\n      mul\n      dup4\n      mstore\n      swap2\n      0x20\n      add\n      swap2\n      jump(tag_115)\n    tag_116:\n      dup3\n      add\n      swap2\n      swap1\n      0x00\n      mstore\n      keccak256(0x00, 0x20)\n      swap1\n    tag_117:\n      dup2\n      sload\n      dup2\n      mstore\n      swap1\n      0x01\n      add\n      swap1\n      0x20\n      add\n      dup1\n      dup4\n      gt\n      tag_117\n      jumpi\n      dup3\n      swap1\n      sub\n      0x1f\n      and\n      dup3\n      add\n      swap2\n    tag_115:\n      pop\n      pop\n      pop\n      pop\n      pop\n      swap1\n      pop\n        /* \"token/xSWORD.sol\":18460:18552  function name() public override view returns (string memory) {\r... */\n      swap1\n      jump\t// out\n        /* \"token/xSWORD.sol\":20051:20212  function approve(address spender, uint256 amount) public override returns (bool) {\r... */\n    tag_44:\n        /* \"token/xSWORD.sol\":20126:20130  bool */\n      0x00\n        /* \"token/xSWORD.sol\":20143:20182  _approve(_msgSender(), spender, amount) */\n      tag_119\n        /* \"token/xSWORD.sol\":20152:20164  _msgSender() */\n      tag_120\n        /* \"token/xSWORD.sol\":20152:20162  _msgSender */\n      tag_121\n        /* \"token/xSWORD.sol\":20152:20164  _msgSender() */\n      jump\t// in\n    tag_120:\n        /* \"token/xSWORD.sol\":20166:20173  spender */\n      dup5\n        /* \"token/xSWORD.sol\":20175:20181  amount */\n      dup5\n        /* \"token/xSWORD.sol\":20143:20151  _approve */\n      tag_122\n        /* \"token/xSWORD.sol\":20143:20182  _approve(_msgSender(), spender, amount) */\n      jump\t// in\n    tag_119:\n        /* \"token/xSWORD.sol\":20200:20204  true */\n      0x01\n        /* \"token/xSWORD.sol\":20193:20204  return true */\n      swap1\n      pop\n        /* \"token/xSWORD.sol\":20051:20212  function approve(address spender, uint256 amount) public override returns (bool) {\r... */\n      swap3\n      swap2\n      pop\n      pop\n      jump\t// out\n        /* \"token/xSWORD.sol\":18936:19036  function totalSupply() public override view returns (uint256) {\r... */\n    tag_46:\n        /* \"token/xSWORD.sol\":18989:18996  uint256 */\n      0x00\n        /* \"token/xSWORD.sol\":19016:19028  _totalSupply */\n      sload(0x03)\n        /* \"token/xSWORD.sol\":19009:19028  return _totalSupply */\n      swap1\n      pop\n        /* \"token/xSWORD.sol\":18936:19036  function totalSupply() public override view returns (uint256) {\r... */\n      swap1\n      jump\t// out\n        /* \"token/xSWORD.sol\":35040:35263  function delMinter(address _delMinter) public onlyOwner returns (bool) {\r... */\n    tag_49:\n        /* \"token/xSWORD.sol\":35105:35109  bool */\n      0x00\n        /* \"token/xSWORD.sol\":1331:1343  _msgSender() */\n      tag_125\n        /* \"token/xSWORD.sol\":1331:1341  _msgSender */\n      tag_121\n        /* \"token/xSWORD.sol\":1331:1343  _msgSender() */\n      jump\t// in\n    tag_125:\n        /* \"token/xSWORD.sol\":1321:1343  _owner == _msgSender() */\n      0xffffffffffffffffffffffffffffffffffffffff\n      and\n        /* \"token/xSWORD.sol\":1321:1327  _owner */\n      0x00\n      dup1\n      sload\n      swap1\n      0x0100\n      exp\n      swap1\n      div\n      0xffffffffffffffffffffffffffffffffffffffff\n      and\n        /* \"token/xSWORD.sol\":1321:1343  _owner == _msgSender() */\n      0xffffffffffffffffffffffffffffffffffffffff\n      and\n      eq\n        /* \"token/xSWORD.sol\":1313:1380  require(_owner == _msgSender(), 'Ownable: caller is not the owner') */\n      tag_126\n      jumpi\n      mload(0x40)\n      0x08c379a000000000000000000000000000000000000000000000000000000000\n      dup2\n      mstore\n      0x04\n      add\n      dup1\n      dup1\n      0x20\n      add\n      dup3\n      dup2\n      sub\n      dup3\n      mstore\n      0x20\n      dup2\n      mstore\n      0x20\n      add\n      dup1\n      0x4f776e61626c653a2063616c6c6572206973206e6f7420746865206f776e6572\n      dup2\n      mstore\n      pop\n      0x20\n      add\n      swap2\n      pop\n      pop\n      mload(0x40)\n      dup1\n      swap2\n      sub\n      swap1\n      revert\n    tag_126:\n        /* \"token/xSWORD.sol\":35152:35153  0 */\n      0x00\n        /* \"token/xSWORD.sol\":35130:35154  _delMinter != address(0) */\n      0xffffffffffffffffffffffffffffffffffffffff\n      and\n        /* \"token/xSWORD.sol\":35130:35140  _delMinter */\n      dup3\n        /* \"token/xSWORD.sol\":35130:35154  _delMinter != address(0) */\n      0xffffffffffffffffffffffffffffffffffffffff\n      and\n      eq\n      iszero\n        /* \"token/xSWORD.sol\":35122:35195  require(_delMinter != address(0), \"xMMF: _delMinter is the zero address\") */\n      tag_128\n      jumpi\n      mload(0x40)\n      0x08c379a000000000000000000000000000000000000000000000000000000000\n      dup2\n      mstore\n      0x04\n      add\n      dup1\n      dup1\n      0x20\n      add\n      dup3\n      dup2\n      sub\n      dup3\n      mstore\n      0x24\n      dup2\n      mstore\n      0x20\n      add\n      dup1\n      data_12366718bb4bdba5cd8e334c3d70de8a909c9e34fa37049e38ad9c00f68bada9\n      0x24\n      swap2\n      codecopy\n      0x40\n      add\n      swap2\n      pop\n      pop\n      mload(0x40)\n      dup1\n      swap2\n      sub\n      swap1\n      revert\n    tag_128:\n        /* \"token/xSWORD.sol\":35213:35255  EnumerableSet.remove(_minters, _delMinter) */\n      tag_129\n        /* \"token/xSWORD.sol\":35234:35242  _minters */\n      0x07\n        /* \"token/xSWORD.sol\":35244:35254  _delMinter */\n      dup4\n        /* \"token/xSWORD.sol\":35213:35233  EnumerableSet.remove */\n      tag_130\n        /* \"token/xSWORD.sol\":35213:35255  EnumerableSet.remove(_minters, _delMinter) */\n      jump\t// in\n    tag_129:\n        /* \"token/xSWORD.sol\":35206:35255  return EnumerableSet.remove(_minters, _delMinter) */\n      swap1\n      pop\n        /* \"token/xSWORD.sol\":35040:35263  function delMinter(address _delMinter) public onlyOwner returns (bool) {\r... */\n      swap2\n      swap1\n      pop\n      jump\t// out\n        /* \"token/xSWORD.sol\":20683:21080  function transferFrom(\r... */\n    tag_52:\n        /* \"token/xSWORD.sol\":20815:20819  bool */\n      0x00\n        /* \"token/xSWORD.sol\":20832:20868  _transfer(sender, recipient, amount) */\n      tag_132\n        /* \"token/xSWORD.sol\":20842:20848  sender */\n      dup5\n        /* \"token/xSWORD.sol\":20850:20859  recipient */\n      dup5\n        /* \"token/xSWORD.sol\":20861:20867  amount */\n      dup5\n        /* \"token/xSWORD.sol\":20832:20841  _transfer */\n      tag_133\n        /* \"token/xSWORD.sol\":20832:20868  _transfer(sender, recipient, amount) */\n      jump\t// in\n    tag_132:\n        /* \"token/xSWORD.sol\":20879:21050  _approve(\r... */\n      tag_134\n        /* \"token/xSWORD.sol\":20902:20908  sender */\n      dup5\n        /* \"token/xSWORD.sol\":20923:20935  _msgSender() */\n      tag_135\n        /* \"token/xSWORD.sol\":20923:20933  _msgSender */\n      tag_121\n        /* \"token/xSWORD.sol\":20923:20935  _msgSender() */\n      jump\t// in\n    tag_135:\n        /* \"token/xSWORD.sol\":20950:21039  _allowances[sender][_msgSender()].sub(amount, 'ERC20: transfer amount exceeds allowance') */\n      tag_136\n        /* \"token/xSWORD.sol\":20988:20994  amount */\n      dup6\n        /* \"token/xSWORD.sol\":20950:21039  _allowances[sender][_msgSender()].sub(amount, 'ERC20: transfer amount exceeds allowance') */\n      mload(0x40)\n      dup1\n      0x60\n      add\n      0x40\n      mstore\n      dup1\n      0x28\n      dup2\n      mstore\n      0x20\n      add\n      data_974d1b4421da69cc60b481194f0dad36a5bb4e23da810da7a7fb30cdba178330\n      0x28\n      swap2\n      codecopy\n        /* \"token/xSWORD.sol\":20950:20961  _allowances */\n      0x02\n        /* \"token/xSWORD.sol\":20950:20969  _allowances[sender] */\n      0x00\n        /* \"token/xSWORD.sol\":20962:20968  sender */\n      dup12\n        /* \"token/xSWORD.sol\":20950:20969  _allowances[sender] */\n      0xffffffffffffffffffffffffffffffffffffffff\n      and\n      0xffffffffffffffffffffffffffffffffffffffff\n      and\n      dup2\n      mstore\n      0x20\n      add\n      swap1\n      dup2\n      mstore\n      0x20\n      add\n      0x00\n      keccak256\n        /* \"token/xSWORD.sol\":20950:20983  _allowances[sender][_msgSender()] */\n      0x00\n        /* \"token/xSWORD.sol\":20970:20982  _msgSender() */\n      tag_137\n        /* \"token/xSWORD.sol\":20970:20980  _msgSender */\n      tag_121\n        /* \"token/xSWORD.sol\":20970:20982  _msgSender() */\n      jump\t// in\n    tag_137:\n        /* \"token/xSWORD.sol\":20950:20983  _allowances[sender][_msgSender()] */\n      0xffffffffffffffffffffffffffffffffffffffff\n      and\n      0xffffffffffffffffffffffffffffffffffffffff\n      and\n      dup2\n      mstore\n      0x20\n      add\n      swap1\n      dup2\n      mstore\n      0x20\n      add\n      0x00\n      keccak256\n      sload\n        /* \"token/xSWORD.sol\":20950:20987  _allowances[sender][_msgSender()].sub */\n      tag_138\n      swap1\n        /* \"token/xSWORD.sol\":20950:21039  _allowances[sender][_msgSender()].sub(amount, 'ERC20: transfer amount exceeds allowance') */\n      swap3\n      swap2\n      swap1\n      0xffffffff\n      and\n      jump\t// in\n    tag_136:\n        /* \"token/xSWORD.sol\":20879:20887  _approve */\n      tag_122\n        /* \"token/xSWORD.sol\":20879:21050  _approve(\r... */\n      jump\t// in\n    tag_134:\n        /* \"token/xSWORD.sol\":21068:21072  true */\n      0x01\n        /* \"token/xSWORD.sol\":21061:21072  return true */\n      swap1\n      pop\n        /* \"token/xSWORD.sol\":20683:21080  function transferFrom(\r... */\n      swap4\n      swap3\n      pop\n      pop\n      pop\n      jump\t// out\n        /* \"token/xSWORD.sol\":18619:18711  function decimals() public override view returns (uint8) {\r... */\n    tag_54:\n        /* \"token/xSWORD.sol\":18669:18674  uint8 */\n      0x00\n        /* \"token/xSWORD.sol\":18694:18703  _decimals */\n      0x06\n      0x00\n      swap1\n      sload\n      swap1\n      0x0100\n      exp\n      swap1\n      div\n      0xff\n      and\n        /* \"token/xSWORD.sol\":18687:18703  return _decimals */\n      swap1\n      pop\n        /* \"token/xSWORD.sol\":18619:18711  function decimals() public override view returns (uint8) {\r... */\n      swap1\n      jump\t// out\n        /* \"token/xSWORD.sol\":21488:21698  function increaseAllowance(address spender, uint256 addedValue) public returns (bool) {\r... */\n    tag_57:\n        /* \"token/xSWORD.sol\":21568:21572  bool */\n      0x00\n        /* \"token/xSWORD.sol\":21585:21668  _approve(_msgSender(), spender, _allowances[_msgSender()][spender].add(addedValue)) */\n      tag_141\n        /* \"token/xSWORD.sol\":21594:21606  _msgSender() */\n      tag_142\n        /* \"token/xSWORD.sol\":21594:21604  _msgSender */\n      tag_121\n        /* \"token/xSWORD.sol\":21594:21606  _msgSender() */\n      jump\t// in\n    tag_142:\n        /* \"token/xSWORD.sol\":21608:21615  spender */\n      dup5\n        /* \"token/xSWORD.sol\":21617:21667  _allowances[_msgSender()][spender].add(addedValue) */\n      tag_143\n        /* \"token/xSWORD.sol\":21656:21666  addedValue */\n      dup6\n        /* \"token/xSWORD.sol\":21617:21628  _allowances */\n      0x02\n        /* \"token/xSWORD.sol\":21617:21642  _allowances[_msgSender()] */\n      0x00\n        /* \"token/xSWORD.sol\":21629:21641  _msgSender() */\n      tag_144\n        /* \"token/xSWORD.sol\":21629:21639  _msgSender */\n      tag_121\n        /* \"token/xSWORD.sol\":21629:21641  _msgSender() */\n      jump\t// in\n    tag_144:\n        /* \"token/xSWORD.sol\":21617:21642  _allowances[_msgSender()] */\n      0xffffffffffffffffffffffffffffffffffffffff\n      and\n      0xffffffffffffffffffffffffffffffffffffffff\n      and\n      dup2\n      mstore\n      0x20\n      add\n      swap1\n      dup2\n      mstore\n      0x20\n      add\n      0x00\n      keccak256\n        /* \"token/xSWORD.sol\":21617:21651  _allowances[_msgSender()][spender] */\n      0x00\n        /* \"token/xSWORD.sol\":21643:21650  spender */\n      dup10\n        /* \"token/xSWORD.sol\":21617:21651  _allowances[_msgSender()][spender] */\n      0xffffffffffffffffffffffffffffffffffffffff\n      and\n      0xffffffffffffffffffffffffffffffffffffffff\n      and\n      dup2\n      mstore\n      0x20\n      add\n      swap1\n      dup2\n      mstore\n      0x20\n      add\n      0x00\n      keccak256\n      sload\n        /* \"token/xSWORD.sol\":21617:21655  _allowances[_msgSender()][spender].add */\n      tag_145\n      swap1\n        /* \"token/xSWORD.sol\":21617:21667  _allowances[_msgSender()][spender].add(addedValue) */\n      swap2\n      swap1\n      0xffffffff\n      and\n      jump\t// in\n    tag_143:\n        /* \"token/xSWORD.sol\":21585:21593  _approve */\n      tag_122\n        /* \"token/xSWORD.sol\":21585:21668  _approve(_msgSender(), spender, _allowances[_msgSender()][spender].add(addedValue)) */\n      jump\t// in\n    tag_141:\n        /* \"token/xSWORD.sol\":21686:21690  true */\n      0x01\n        /* \"token/xSWORD.sol\":21679:21690  return true */\n      swap1\n      pop\n        /* \"token/xSWORD.sol\":21488:21698  function increaseAllowance(address spender, uint256 addedValue) public returns (bool) {\r... */\n      swap3\n      swap2\n      pop\n      pop\n      jump\t// out\n        /* \"token/xSWORD.sol\":34181:34360  function mint(address _to, uint256 _amount) public onlyMinter returns(bool) {\r... */\n    tag_60:\n        /* \"token/xSWORD.sol\":34251:34255  bool */\n      0x00\n        /* \"token/xSWORD.sol\":35827:35847  isMinter(msg.sender) */\n      tag_147\n        /* \"token/xSWORD.sol\":35836:35846  msg.sender */\n      caller\n        /* \"token/xSWORD.sol\":35827:35835  isMinter */\n      tag_96\n        /* \"token/xSWORD.sol\":35827:35847  isMinter(msg.sender) */\n      jump\t// in\n    tag_147:\n        /* \"token/xSWORD.sol\":35819:35876  require(isMinter(msg.sender), \"caller is not the minter\") */\n      tag_148\n      jumpi\n      mload(0x40)\n      0x08c379a000000000000000000000000000000000000000000000000000000000\n      dup2\n      mstore\n      0x04\n      add\n      dup1\n      dup1\n      0x20\n      add\n      dup3\n      dup2\n      sub\n      dup3\n      mstore\n      0x18\n      dup2\n      mstore\n      0x20\n      add\n      dup1\n      0x63616c6c6572206973206e6f7420746865206d696e7465720000000000000000\n      dup2\n      mstore\n      pop\n      0x20\n      add\n      swap2\n      pop\n      pop\n      mload(0x40)\n      dup1\n      swap2\n      sub\n      swap1\n      revert\n    tag_148:\n        /* \"token/xSWORD.sol\":34268:34271  MMF */\n      0x09\n      0x00\n      swap1\n      sload\n      swap1\n      0x0100\n      exp\n      swap1\n      div\n      0xffffffffffffffffffffffffffffffffffffffff\n      and\n        /* \"token/xSWORD.sol\":34268:34276  MMF.mint */\n      0xffffffffffffffffffffffffffffffffffffffff\n      and\n      0x40c10f19\n        /* \"token/xSWORD.sol\":34285:34289  this */\n      address\n        /* \"token/xSWORD.sol\":34292:34299  _amount */\n      dup5\n        /* \"token/xSWORD.sol\":34268:34300  MMF.mint(address(this), _amount) */\n      mload(0x40)\n      dup4\n      0xffffffff\n      and\n      0xe0\n      shl\n      dup2\n      mstore\n      0x04\n      add\n      dup1\n      dup4\n      0xffffffffffffffffffffffffffffffffffffffff\n      and\n      dup2\n      mstore\n      0x20\n      add\n      dup3\n      dup2\n      mstore\n      0x20\n      add\n      swap3\n      pop\n      pop\n      pop\n      0x20\n      mload(0x40)\n      dup1\n      dup4\n      sub\n      dup2\n      0x00\n      dup8\n      dup1\n      extcodesize\n      iszero\n      dup1\n      iszero\n      tag_150\n      jumpi\n      0x00\n      dup1\n      revert\n    tag_150:\n      pop\n      gas\n      call\n      iszero\n      dup1\n      iszero\n      tag_152\n      jumpi\n      returndatasize\n      0x00\n      dup1\n      returndatacopy\n      revert(0x00, returndatasize)\n    tag_152:\n      pop\n      pop\n      pop\n      pop\n      mload(0x40)\n      returndatasize\n      0x20\n      dup2\n      lt\n      iszero\n      tag_153\n      jumpi\n      0x00\n      dup1\n      revert\n    tag_153:\n      dup2\n      add\n      swap1\n      dup1\n      dup1\n      mload\n      swap1\n      0x20\n      add\n      swap1\n      swap3\n      swap2\n      swap1\n      pop\n      pop\n      pop\n      pop\n        /* \"token/xSWORD.sol\":34311:34330  _mint(_to, _amount) */\n      tag_154\n        /* \"token/xSWORD.sol\":34317:34320  _to */\n      dup4\n        /* \"token/xSWORD.sol\":34322:34329  _amount */\n      dup4\n        /* \"token/xSWORD.sol\":34311:34316  _mint */\n      tag_155\n        /* \"token/xSWORD.sol\":34311:34330  _mint(_to, _amount) */\n      jump\t// in\n    tag_154:\n      pop\n        /* \"token/xSWORD.sol\":34348:34352  true */\n      0x01\n        /* \"token/xSWORD.sol\":34341:34352  return true */\n      swap1\n      pop\n        /* \"token/xSWORD.sol\":34181:34360  function mint(address _to, uint256 _amount) public onlyMinter returns(bool) {\r... */\n      swap3\n      swap2\n      pop\n      pop\n      jump\t// out\n        /* \"token/xSWORD.sol\":35529:35743  function getMinter(uint256 _index) public view onlyOwner returns (address){\r... */\n    tag_63:\n        /* \"token/xSWORD.sol\":35595:35602  address */\n      0x00\n        /* \"token/xSWORD.sol\":1331:1343  _msgSender() */\n      tag_157\n        /* \"token/xSWORD.sol\":1331:1341  _msgSender */\n      tag_121\n        /* \"token/xSWORD.sol\":1331:1343  _msgSender() */\n      jump\t// in\n    tag_157:\n        /* \"token/xSWORD.sol\":1321:1343  _owner == _msgSender() */\n      0xffffffffffffffffffffffffffffffffffffffff\n      and\n        /* \"token/xSWORD.sol\":1321:1327  _owner */\n      0x00\n      dup1\n      sload\n      swap1\n      0x0100\n      exp\n      swap1\n      div\n      0xffffffffffffffffffffffffffffffffffffffff\n      and\n        /* \"token/xSWORD.sol\":1321:1343  _owner == _msgSender() */\n      0xffffffffffffffffffffffffffffffffffffffff\n      and\n      eq\n        /* \"token/xSWORD.sol\":1313:1380  require(_owner == _msgSender(), 'Ownable: caller is not the owner') */\n      tag_158\n      jumpi\n      mload(0x40)\n      0x08c379a000000000000000000000000000000000000000000000000000000000\n      dup2\n      mstore\n      0x04\n      add\n      dup1\n      dup1\n      0x20\n      add\n      dup3\n      dup2\n      sub\n      dup3\n      mstore\n      0x20\n      dup2\n      mstore\n      0x20\n      add\n      dup1\n      0x4f776e61626c653a2063616c6c6572206973206e6f7420746865206f776e6572\n      dup2\n      mstore\n      pop\n      0x20\n      add\n      swap2\n      pop\n      pop\n      mload(0x40)\n      dup1\n      swap2\n      sub\n      swap1\n      revert\n    tag_158:\n        /* \"token/xSWORD.sol\":35652:35653  1 */\n      0x01\n        /* \"token/xSWORD.sol\":35632:35649  getMinterLength() */\n      tag_160\n        /* \"token/xSWORD.sol\":35632:35647  getMinterLength */\n      tag_35\n        /* \"token/xSWORD.sol\":35632:35649  getMinterLength() */\n      jump\t// in\n    tag_160:\n        /* \"token/xSWORD.sol\":35632:35653  getMinterLength() - 1 */\n      sub\n        /* \"token/xSWORD.sol\":35622:35628  _index */\n      dup3\n        /* \"token/xSWORD.sol\":35622:35653  _index <= getMinterLength() - 1 */\n      gt\n      iszero\n        /* \"token/xSWORD.sol\":35614:35683  require(_index <= getMinterLength() - 1, \"xMMF: index out of bounds\") */\n      tag_161\n      jumpi\n      mload(0x40)\n      0x08c379a000000000000000000000000000000000000000000000000000000000\n      dup2\n      mstore\n      0x04\n      add\n      dup1\n      dup1\n      0x20\n      add\n      dup3\n      dup2\n      sub\n      dup3\n      mstore\n      0x19\n      dup2\n      mstore\n      0x20\n      add\n      dup1\n      0x784d4d463a20696e646578206f7574206f6620626f756e647300000000000000\n      dup2\n      mstore\n      pop\n      0x20\n      add\n      swap2\n      pop\n      pop\n      mload(0x40)\n      dup1\n      swap2\n      sub\n      swap1\n      revert\n    tag_161:\n        /* \"token/xSWORD.sol\":35701:35735  EnumerableSet.at(_minters, _index) */\n      tag_162\n        /* \"token/xSWORD.sol\":35718:35726  _minters */\n      0x07\n        /* \"token/xSWORD.sol\":35728:35734  _index */\n      dup4\n        /* \"token/xSWORD.sol\":35701:35717  EnumerableSet.at */\n      tag_163\n        /* \"token/xSWORD.sol\":35701:35735  EnumerableSet.at(_minters, _index) */\n      jump\t// in\n    tag_162:\n        /* \"token/xSWORD.sol\":35694:35735  return EnumerableSet.at(_minters, _index) */\n      swap1\n      pop\n        /* \"token/xSWORD.sol\":35529:35743  function getMinter(uint256 _index) public view onlyOwner returns (address){\r... */\n      swap2\n      swap1\n      pop\n      jump\t// out\n        /* \"token/xSWORD.sol\":19202:19321  function balanceOf(address account) public override view returns (uint256) {\r... */\n    tag_66:\n        /* \"token/xSWORD.sol\":19268:19275  uint256 */\n      0x00\n        /* \"token/xSWORD.sol\":19295:19304  _balances */\n      0x01\n        /* \"token/xSWORD.sol\":19295:19313  _balances[account] */\n      0x00\n        /* \"token/xSWORD.sol\":19305:19312  account */\n      dup4\n        /* \"token/xSWORD.sol\":19295:19313  _balances[account] */\n      0xffffffffffffffffffffffffffffffffffffffff\n      and\n      0xffffffffffffffffffffffffffffffffffffffff\n      and\n      dup2\n      mstore\n      0x20\n      add\n      swap1\n      dup2\n      mstore\n      0x20\n      add\n      0x00\n      keccak256\n      sload\n        /* \"token/xSWORD.sol\":19288:19313  return _balances[account] */\n      swap1\n      pop\n        /* \"token/xSWORD.sol\":19202:19321  function balanceOf(address account) public override view returns (uint256) {\r... */\n      swap2\n      swap1\n      pop\n      jump\t// out\n        /* \"token/xSWORD.sol\":1751:1891  function renounceOwnership() public onlyOwner {\r... */\n    tag_68:\n        /* \"token/xSWORD.sol\":1331:1343  _msgSender() */\n      tag_166\n        /* \"token/xSWORD.sol\":1331:1341  _msgSender */\n      tag_121\n        /* \"token/xSWORD.sol\":1331:1343  _msgSender() */\n      jump\t// in\n    tag_166:\n        /* \"token/xSWORD.sol\":1321:1343  _owner == _msgSender() */\n      0xffffffffffffffffffffffffffffffffffffffff\n      and\n        /* \"token/xSWORD.sol\":1321:1327  _owner */\n      0x00\n      dup1\n      sload\n      swap1\n      0x0100\n      exp\n      swap1\n      div\n      0xffffffffffffffffffffffffffffffffffffffff\n      and\n        /* \"token/xSWORD.sol\":1321:1343  _owner == _msgSender() */\n      0xffffffffffffffffffffffffffffffffffffffff\n      and\n      eq\n        /* \"token/xSWORD.sol\":1313:1380  require(_owner == _msgSender(), 'Ownable: caller is not the owner') */\n      tag_167\n      jumpi\n      mload(0x40)\n      0x08c379a000000000000000000000000000000000000000000000000000000000\n      dup2\n      mstore\n      0x04\n      add\n      dup1\n      dup1\n      0x20\n      add\n      dup3\n      dup2\n      sub\n      dup3\n      mstore\n      0x20\n      dup2\n      mstore\n      0x20\n      add\n      dup1\n      0x4f776e61626c653a2063616c6c6572206973206e6f7420746865206f776e6572\n      dup2\n      mstore\n      pop\n      0x20\n      add\n      swap2\n      pop\n      pop\n      mload(0x40)\n      dup1\n      swap2\n      sub\n      swap1\n      revert\n    tag_167:\n        /* \"token/xSWORD.sol\":1850:1851  0 */\n      0x00\n        /* \"token/xSWORD.sol\":1813:1853  OwnershipTransferred(_owner, address(0)) */\n      0xffffffffffffffffffffffffffffffffffffffff\n      and\n        /* \"token/xSWORD.sol\":1834:1840  _owner */\n      0x00\n      dup1\n      sload\n      swap1\n      0x0100\n      exp\n      swap1\n      div\n      0xffffffffffffffffffffffffffffffffffffffff\n      and\n        /* \"token/xSWORD.sol\":1813:1853  OwnershipTransferred(_owner, address(0)) */\n      0xffffffffffffffffffffffffffffffffffffffff\n      and\n      0x8be0079c531659141344cd1fd0a4f28419497f9722a3daafe3b4186f6b6457e0\n      mload(0x40)\n      mload(0x40)\n      dup1\n      swap2\n      sub\n      swap1\n      log3\n        /* \"token/xSWORD.sol\":1881:1882  0 */\n      0x00\n        /* \"token/xSWORD.sol\":1864:1870  _owner */\n      dup1\n      0x00\n        /* \"token/xSWORD.sol\":1864:1883  _owner = address(0) */\n      0x0100\n      exp\n      dup2\n      sload\n      dup2\n      0xffffffffffffffffffffffffffffffffffffffff\n      mul\n      not\n      and\n      swap1\n      dup4\n      0xffffffffffffffffffffffffffffffffffffffff\n      and\n      mul\n      or\n      swap1\n      sstore\n      pop\n        /* \"token/xSWORD.sol\":1751:1891  function renounceOwnership() public onlyOwner {\r... */\n      jump\t// out\n        /* \"token/xSWORD.sol\":34699:34804  function burnFrom(address account, uint256 amount) external {\r... */\n    tag_71:\n        /* \"token/xSWORD.sol\":34770:34796  _burnFrom(account, amount) */\n      tag_170\n        /* \"token/xSWORD.sol\":34780:34787  account */\n      dup3\n        /* \"token/xSWORD.sol\":34789:34795  amount */\n      dup3\n        /* \"token/xSWORD.sol\":34770:34779  _burnFrom */\n      tag_171\n        /* \"token/xSWORD.sol\":34770:34796  _burnFrom(account, amount) */\n      jump\t// in\n    tag_170:\n        /* \"token/xSWORD.sol\":34699:34804  function burnFrom(address account, uint256 amount) external {\r... */\n      pop\n      pop\n      jump\t// out\n        /* \"token/xSWORD.sol\":18303:18397  function getOwner() external override view returns (address) {\r... */\n    tag_73:\n        /* \"token/xSWORD.sol\":18355:18362  address */\n      0x00\n        /* \"token/xSWORD.sol\":18382:18389  owner() */\n      tag_173\n        /* \"token/xSWORD.sol\":18382:18387  owner */\n      tag_75\n        /* \"token/xSWORD.sol\":18382:18389  owner() */\n      jump\t// in\n    tag_173:\n        /* \"token/xSWORD.sol\":18375:18389  return owner() */\n      swap1\n      pop\n        /* \"token/xSWORD.sol\":18303:18397  function getOwner() external override view returns (address) {\r... */\n      swap1\n      jump\t// out\n        /* \"token/xSWORD.sol\":1109:1188  function owner() public view returns (address) {\r... */\n    tag_75:\n        /* \"token/xSWORD.sol\":1147:1154  address */\n      0x00\n        /* \"token/xSWORD.sol\":1174:1180  _owner */\n      dup1\n      0x00\n      swap1\n      sload\n      swap1\n      0x0100\n      exp\n      swap1\n      div\n      0xffffffffffffffffffffffffffffffffffffffff\n      and\n        /* \"token/xSWORD.sol\":1167:1180  return _owner */\n      swap1\n      pop\n        /* \"token/xSWORD.sol\":1109:1188  function owner() public view returns (address) {\r... */\n      swap1\n      jump\t// out\n        /* \"token/xSWORD.sol\":18776:18872  function symbol() public override view returns (string memory) {\r... */\n    tag_77:\n        /* \"token/xSWORD.sol\":18824:18837  string memory */\n      0x60\n        /* \"token/xSWORD.sol\":18857:18864  _symbol */\n      0x05\n        /* \"token/xSWORD.sol\":18850:18864  return _symbol */\n      dup1\n      sload\n      0x01\n      dup2\n      0x01\n      and\n      iszero\n      0x0100\n      mul\n      sub\n      and\n      0x02\n      swap1\n      div\n      dup1\n      0x1f\n      add\n      0x20\n      dup1\n      swap2\n      div\n      mul\n      0x20\n      add\n      mload(0x40)\n      swap1\n      dup2\n      add\n      0x40\n      mstore\n      dup1\n      swap3\n      swap2\n      swap1\n      dup2\n      dup2\n      mstore\n      0x20\n      add\n      dup3\n      dup1\n      sload\n      0x01\n      dup2\n      0x01\n      and\n      iszero\n      0x0100\n      mul\n      sub\n      and\n      0x02\n      swap1\n      div\n      dup1\n      iszero\n      tag_176\n      jumpi\n      dup1\n      0x1f\n      lt\n      tag_177\n      jumpi\n      0x0100\n      dup1\n      dup4\n      sload\n      div\n      mul\n      dup4\n      mstore\n      swap2\n      0x20\n      add\n      swap2\n      jump(tag_176)\n    tag_177:\n      dup3\n      add\n      swap2\n      swap1\n      0x00\n      mstore\n      keccak256(0x00, 0x20)\n      swap1\n    tag_178:\n      dup2\n      sload\n      dup2\n      mstore\n      swap1\n      0x01\n      add\n      swap1\n      0x20\n      add\n      dup1\n      dup4\n      gt\n      tag_178\n      jumpi\n      dup3\n      swap1\n      sub\n      0x1f\n      and\n      dup3\n      add\n      swap2\n    tag_176:\n      pop\n      pop\n      pop\n      pop\n      pop\n      swap1\n      pop\n        /* \"token/xSWORD.sol\":18776:18872  function symbol() public override view returns (string memory) {\r... */\n      swap1\n      jump\t// out\n        /* \"token/xSWORD.sol\":34812:35032  function addMinter(address _addMinter) public onlyOwner returns (bool) {\r... */\n    tag_84:\n        /* \"token/xSWORD.sol\":34877:34881  bool */\n      0x00\n        /* \"token/xSWORD.sol\":1331:1343  _msgSender() */\n      tag_180\n        /* \"token/xSWORD.sol\":1331:1341  _msgSender */\n      tag_121\n        /* \"token/xSWORD.sol\":1331:1343  _msgSender() */\n      jump\t// in\n    tag_180:\n        /* \"token/xSWORD.sol\":1321:1343  _owner == _msgSender() */\n      0xffffffffffffffffffffffffffffffffffffffff\n      and\n        /* \"token/xSWORD.sol\":1321:1327  _owner */\n      0x00\n      dup1\n      sload\n      swap1\n      0x0100\n      exp\n      swap1\n      div\n      0xffffffffffffffffffffffffffffffffffffffff\n      and\n        /* \"token/xSWORD.sol\":1321:1343  _owner == _msgSender() */\n      0xffffffffffffffffffffffffffffffffffffffff\n      and\n      eq\n        /* \"token/xSWORD.sol\":1313:1380  require(_owner == _msgSender(), 'Ownable: caller is not the owner') */\n      tag_181\n      jumpi\n      mload(0x40)\n      0x08c379a000000000000000000000000000000000000000000000000000000000\n      dup2\n      mstore\n      0x04\n      add\n      dup1\n      dup1\n      0x20\n      add\n      dup3\n      dup2\n      sub\n      dup3\n      mstore\n      0x20\n      dup2\n      mstore\n      0x20\n      add\n      dup1\n      0x4f776e61626c653a2063616c6c6572206973206e6f7420746865206f776e6572\n      dup2\n      mstore\n      pop\n      0x20\n      add\n      swap2\n      pop\n      pop\n      mload(0x40)\n      dup1\n      swap2\n      sub\n      swap1\n      revert\n    tag_181:\n        /* \"token/xSWORD.sol\":34924:34925  0 */\n      0x00\n        /* \"token/xSWORD.sol\":34902:34926  _addMinter != address(0) */\n      0xffffffffffffffffffffffffffffffffffffffff\n      and\n        /* \"token/xSWORD.sol\":34902:34912  _addMinter */\n      dup3\n        /* \"token/xSWORD.sol\":34902:34926  _addMinter != address(0) */\n      0xffffffffffffffffffffffffffffffffffffffff\n      and\n      eq\n      iszero\n        /* \"token/xSWORD.sol\":34894:34967  require(_addMinter != address(0), \"xMMF: _addMinter is the zero address\") */\n      tag_183\n      jumpi\n      mload(0x40)\n      0x08c379a000000000000000000000000000000000000000000000000000000000\n      dup2\n      mstore\n      0x04\n      add\n      dup1\n      dup1\n      0x20\n      add\n      dup3\n      dup2\n      sub\n      dup3\n      mstore\n      0x24\n      dup2\n      mstore\n      0x20\n      add\n      dup1\n      data_605d3324af8f3831fc628a1c8b7c29d23e726c6ab52b45e6faf53e8a7c6ce3ce\n      0x24\n      swap2\n      codecopy\n      0x40\n      add\n      swap2\n      pop\n      pop\n      mload(0x40)\n      dup1\n      swap2\n      sub\n      swap1\n      revert\n    tag_183:\n        /* \"token/xSWORD.sol\":34985:35024  EnumerableSet.add(_minters, _addMinter) */\n      tag_184\n        /* \"token/xSWORD.sol\":35003:35011  _minters */\n      0x07\n        /* \"token/xSWORD.sol\":35013:35023  _addMinter */\n      dup4\n        /* \"token/xSWORD.sol\":34985:35002  EnumerableSet.add */\n      tag_185\n        /* \"token/xSWORD.sol\":34985:35024  EnumerableSet.add(_minters, _addMinter) */\n      jump\t// in\n    tag_184:\n        /* \"token/xSWORD.sol\":34978:35024  return EnumerableSet.add(_minters, _addMinter) */\n      swap1\n      pop\n        /* \"token/xSWORD.sol\":34812:35032  function addMinter(address _addMinter) public onlyOwner returns (bool) {\r... */\n      swap2\n      swap1\n      pop\n      jump\t// out\n        /* \"token/xSWORD.sol\":22729:22859  function mint(uint256 amount) public onlyOwner returns (bool) {\r... */\n    tag_87:\n        /* \"token/xSWORD.sol\":22785:22789  bool */\n      0x00\n        /* \"token/xSWORD.sol\":1331:1343  _msgSender() */\n      tag_187\n        /* \"token/xSWORD.sol\":1331:1341  _msgSender */\n      tag_121\n        /* \"token/xSWORD.sol\":1331:1343  _msgSender() */\n      jump\t// in\n    tag_187:\n        /* \"token/xSWORD.sol\":1321:1343  _owner == _msgSender() */\n      0xffffffffffffffffffffffffffffffffffffffff\n      and\n        /* \"token/xSWORD.sol\":1321:1327  _owner */\n      0x00\n      dup1\n      sload\n      swap1\n      0x0100\n      exp\n      swap1\n      div\n      0xffffffffffffffffffffffffffffffffffffffff\n      and\n        /* \"token/xSWORD.sol\":1321:1343  _owner == _msgSender() */\n      0xffffffffffffffffffffffffffffffffffffffff\n      and\n      eq\n        /* \"token/xSWORD.sol\":1313:1380  require(_owner == _msgSender(), 'Ownable: caller is not the owner') */\n      tag_188\n      jumpi\n      mload(0x40)\n      0x08c379a000000000000000000000000000000000000000000000000000000000\n      dup2\n      mstore\n      0x04\n      add\n      dup1\n      dup1\n      0x20\n      add\n      dup3\n      dup2\n      sub\n      dup3\n      mstore\n      0x20\n      dup2\n      mstore\n      0x20\n      add\n      dup1\n      0x4f776e61626c653a2063616c6c6572206973206e6f7420746865206f776e6572\n      dup2\n      mstore\n      pop\n      0x20\n      add\n      swap2\n      pop\n      pop\n      mload(0x40)\n      dup1\n      swap2\n      sub\n      swap1\n      revert\n    tag_188:\n        /* \"token/xSWORD.sol\":22802:22829  _mint(_msgSender(), amount) */\n      tag_190\n        /* \"token/xSWORD.sol\":22808:22820  _msgSender() */\n      tag_191\n        /* \"token/xSWORD.sol\":22808:22818  _msgSender */\n      tag_121\n        /* \"token/xSWORD.sol\":22808:22820  _msgSender() */\n      jump\t// in\n    tag_191:\n        /* \"token/xSWORD.sol\":22822:22828  amount */\n      dup4\n        /* \"token/xSWORD.sol\":22802:22807  _mint */\n      tag_155\n        /* \"token/xSWORD.sol\":22802:22829  _mint(_msgSender(), amount) */\n      jump\t// in\n    tag_190:\n      pop\n        /* \"token/xSWORD.sol\":22847:22851  true */\n      0x01\n        /* \"token/xSWORD.sol\":22840:22851  return true */\n      swap1\n      pop\n        /* \"token/xSWORD.sol\":22729:22859  function mint(uint256 amount) public onlyOwner returns (bool) {\r... */\n      swap2\n      swap1\n      pop\n      jump\t// out\n        /* \"token/xSWORD.sol\":22200:22511  function decreaseAllowance(address spender, uint256 subtractedValue) public returns (bool) {\r... */\n    tag_90:\n        /* \"token/xSWORD.sol\":22285:22289  bool */\n      0x00\n        /* \"token/xSWORD.sol\":22302:22481  _approve(\r... */\n      tag_193\n        /* \"token/xSWORD.sol\":22325:22337  _msgSender() */\n      tag_194\n        /* \"token/xSWORD.sol\":22325:22335  _msgSender */\n      tag_121\n        /* \"token/xSWORD.sol\":22325:22337  _msgSender() */\n      jump\t// in\n    tag_194:\n        /* \"token/xSWORD.sol\":22352:22359  spender */\n      dup5\n        /* \"token/xSWORD.sol\":22374:22470  _allowances[_msgSender()][spender].sub(subtractedValue, 'ERC20: decreased allowance below zero') */\n      tag_195\n        /* \"token/xSWORD.sol\":22413:22428  subtractedValue */\n      dup6\n        /* \"token/xSWORD.sol\":22374:22470  _allowances[_msgSender()][spender].sub(subtractedValue, 'ERC20: decreased allowance below zero') */\n      mload(0x40)\n      dup1\n      0x60\n      add\n      0x40\n      mstore\n      dup1\n      0x25\n      dup2\n      mstore\n      0x20\n      add\n      data_f8b476f7d28209d77d4a4ac1fe36b9f8259aa1bb6bddfa6e89de7e51615cf8a8\n      0x25\n      swap2\n      codecopy\n        /* \"token/xSWORD.sol\":22374:22385  _allowances */\n      0x02\n        /* \"token/xSWORD.sol\":22374:22399  _allowances[_msgSender()] */\n      0x00\n        /* \"token/xSWORD.sol\":22386:22398  _msgSender() */\n      tag_196\n        /* \"token/xSWORD.sol\":22386:22396  _msgSender */\n      tag_121\n        /* \"token/xSWORD.sol\":22386:22398  _msgSender() */\n      jump\t// in\n    tag_196:\n        /* \"token/xSWORD.sol\":22374:22399  _allowances[_msgSender()] */\n      0xffffffffffffffffffffffffffffffffffffffff\n      and\n      0xffffffffffffffffffffffffffffffffffffffff\n      and\n      dup2\n      mstore\n      0x20\n      add\n      swap1\n      dup2\n      mstore\n      0x20\n      add\n      0x00\n      keccak256\n        /* \"token/xSWORD.sol\":22374:22408  _allowances[_msgSender()][spender] */\n      0x00\n        /* \"token/xSWORD.sol\":22400:22407  spender */\n      dup11\n        /* \"token/xSWORD.sol\":22374:22408  _allowances[_msgSender()][spender] */\n      0xffffffffffffffffffffffffffffffffffffffff\n      and\n      0xffffffffffffffffffffffffffffffffffffffff\n      and\n      dup2\n      mstore\n      0x20\n      add\n      swap1\n      dup2\n      mstore\n      0x20\n      add\n      0x00\n      keccak256\n      sload\n        /* \"token/xSWORD.sol\":22374:22412  _allowances[_msgSender()][spender].sub */\n      tag_138\n      swap1\n        /* \"token/xSWORD.sol\":22374:22470  _allowances[_msgSender()][spender].sub(subtractedValue, 'ERC20: decreased allowance below zero') */\n      swap3\n      swap2\n      swap1\n      0xffffffff\n      and\n      jump\t// in\n    tag_195:\n        /* \"token/xSWORD.sol\":22302:22310  _approve */\n      tag_122\n        /* \"token/xSWORD.sol\":22302:22481  _approve(\r... */\n      jump\t// in\n    tag_193:\n        /* \"token/xSWORD.sol\":22499:22503  true */\n      0x01\n        /* \"token/xSWORD.sol\":22492:22503  return true */\n      swap1\n      pop\n        /* \"token/xSWORD.sol\":22200:22511  function decreaseAllowance(address spender, uint256 subtractedValue) public returns (bool) {\r... */\n      swap3\n      swap2\n      pop\n      pop\n      jump\t// out\n        /* \"token/xSWORD.sol\":19533:19700  function transfer(address recipient, uint256 amount) public override returns (bool) {\r... */\n    tag_93:\n        /* \"token/xSWORD.sol\":19611:19615  bool */\n      0x00\n        /* \"token/xSWORD.sol\":19628:19670  _transfer(_msgSender(), recipient, amount) */\n      tag_198\n        /* \"token/xSWORD.sol\":19638:19650  _msgSender() */\n      tag_199\n        /* \"token/xSWORD.sol\":19638:19648  _msgSender */\n      tag_121\n        /* \"token/xSWORD.sol\":19638:19650  _msgSender() */\n      jump\t// in\n    tag_199:\n        /* \"token/xSWORD.sol\":19652:19661  recipient */\n      dup5\n        /* \"token/xSWORD.sol\":19663:19669  amount */\n      dup5\n        /* \"token/xSWORD.sol\":19628:19637  _transfer */\n      tag_133\n        /* \"token/xSWORD.sol\":19628:19670  _transfer(_msgSender(), recipient, amount) */\n      jump\t// in\n    tag_198:\n        /* \"token/xSWORD.sol\":19688:19692  true */\n      0x01\n        /* \"token/xSWORD.sol\":19681:19692  return true */\n      swap1\n      pop\n        /* \"token/xSWORD.sol\":19533:19700  function transfer(address recipient, uint256 amount) public override returns (bool) {\r... */\n      swap3\n      swap2\n      pop\n      pop\n      jump\t// out\n        /* \"token/xSWORD.sol\":35392:35521  function isMinter(address account) public view returns (bool) {\r... */\n    tag_96:\n        /* \"token/xSWORD.sol\":35448:35452  bool */\n      0x00\n        /* \"token/xSWORD.sol\":35472:35513  EnumerableSet.contains(_minters, account) */\n      tag_201\n        /* \"token/xSWORD.sol\":35495:35503  _minters */\n      0x07\n        /* \"token/xSWORD.sol\":35505:35512  account */\n      dup4\n        /* \"token/xSWORD.sol\":35472:35494  EnumerableSet.contains */\n      tag_202\n        /* \"token/xSWORD.sol\":35472:35513  EnumerableSet.contains(_minters, account) */\n      jump\t// in\n    tag_201:\n        /* \"token/xSWORD.sol\":35465:35513  return EnumerableSet.contains(_minters, account) */\n      swap1\n      pop\n        /* \"token/xSWORD.sol\":35392:35521  function isMinter(address account) public view returns (bool) {\r... */\n      swap2\n      swap1\n      pop\n      jump\t// out\n        /* \"token/xSWORD.sol\":19044:19140  function maxSupply() public override view returns (uint256) {\r... */\n    tag_98:\n        /* \"token/xSWORD.sol\":19095:19102  uint256 */\n      0x00\n        /* \"token/xSWORD.sol\":17419:17434  10000000 * 1e18 */\n      0x084595161401484a000000\n        /* \"token/xSWORD.sol\":19115:19132  return _maxSupply */\n      swap1\n      pop\n        /* \"token/xSWORD.sol\":19044:19140  function maxSupply() public override view returns (uint256) {\r... */\n      swap1\n      jump\t// out\n        /* \"token/xSWORD.sol\":34542:34691  function redeem(uint256 _amount) public onlyMinter {\r... */\n    tag_101:\n        /* \"token/xSWORD.sol\":35827:35847  isMinter(msg.sender) */\n      tag_205\n        /* \"token/xSWORD.sol\":35836:35846  msg.sender */\n      caller\n        /* \"token/xSWORD.sol\":35827:35835  isMinter */\n      tag_96\n        /* \"token/xSWORD.sol\":35827:35847  isMinter(msg.sender) */\n      jump\t// in\n    tag_205:\n        /* \"token/xSWORD.sol\":35819:35876  require(isMinter(msg.sender), \"caller is not the minter\") */\n      tag_206\n      jumpi\n      mload(0x40)\n      0x08c379a000000000000000000000000000000000000000000000000000000000\n      dup2\n      mstore\n      0x04\n      add\n      dup1\n      dup1\n      0x20\n      add\n      dup3\n      dup2\n      sub\n      dup3\n      mstore\n      0x18\n      dup2\n      mstore\n      0x20\n      add\n      dup1\n      0x63616c6c6572206973206e6f7420746865206d696e7465720000000000000000\n      dup2\n      mstore\n      pop\n      0x20\n      add\n      swap2\n      pop\n      pop\n      mload(0x40)\n      dup1\n      swap2\n      sub\n      swap1\n      revert\n    tag_206:\n        /* \"token/xSWORD.sol\":34612:34615  MMF */\n      0x09\n      0x00\n      swap1\n      sload\n      swap1\n      0x0100\n      exp\n      swap1\n      div\n      0xffffffffffffffffffffffffffffffffffffffff\n      and\n        /* \"token/xSWORD.sol\":34612:34624  MMF.transfer */\n      0xffffffffffffffffffffffffffffffffffffffff\n      and\n      0xa9059cbb\n        /* \"token/xSWORD.sol\":34625:34635  msg.sender */\n      caller\n        /* \"token/xSWORD.sol\":34637:34644  _amount */\n      dup4\n        /* \"token/xSWORD.sol\":34612:34645  MMF.transfer(msg.sender, _amount) */\n      mload(0x40)\n      dup4\n      0xffffffff\n      and\n      0xe0\n      shl\n      dup2\n      mstore\n      0x04\n      add\n      dup1\n      dup4\n      0xffffffffffffffffffffffffffffffffffffffff\n      and\n      dup2\n      mstore\n      0x20\n      add\n      dup3\n      dup2\n      mstore\n      0x20\n      add\n      swap3\n      pop\n      pop\n      pop\n      0x20\n      mload(0x40)\n      dup1\n      dup4\n      sub\n      dup2\n      0x00\n      dup8\n      dup1\n      extcodesize\n      iszero\n      dup1\n      iszero\n      tag_208\n      jumpi\n      0x00\n      dup1\n      revert\n    tag_208:\n      pop\n      gas\n      call\n      iszero\n      dup1\n      iszero\n      tag_210\n      jumpi\n      returndatasize\n      0x00\n      dup1\n      returndatacopy\n      revert(0x00, returndatasize)\n    tag_210:\n      pop\n      pop\n      pop\n      pop\n      mload(0x40)\n      returndatasize\n      0x20\n      dup2\n      lt\n      iszero\n      tag_211\n      jumpi\n      0x00\n      dup1\n      revert\n    tag_211:\n      dup2\n      add\n      swap1\n      dup1\n      dup1\n      mload\n      swap1\n      0x20\n      add\n      swap1\n      swap3\n      swap2\n      swap1\n      pop\n      pop\n      pop\n        /* \"token/xSWORD.sol\":34604:34646  require(MMF.transfer(msg.sender, _amount)) */\n      tag_212\n      jumpi\n      0x00\n      dup1\n      revert\n    tag_212:\n        /* \"token/xSWORD.sol\":34657:34683  _burn(msg.sender, _amount) */\n      tag_213\n        /* \"token/xSWORD.sol\":34663:34673  msg.sender */\n      caller\n        /* \"token/xSWORD.sol\":34675:34682  _amount */\n      dup3\n        /* \"token/xSWORD.sol\":34657:34662  _burn */\n      tag_214\n        /* \"token/xSWORD.sol\":34657:34683  _burn(msg.sender, _amount) */\n      jump\t// in\n    tag_213:\n        /* \"token/xSWORD.sol\":34542:34691  function redeem(uint256 _amount) public onlyMinter {\r... */\n      pop\n      jump\t// out\n        /* \"token/xSWORD.sol\":34368:34534  function lock(uint256 _amount) public onlyMinter {\r... */\n    tag_104:\n        /* \"token/xSWORD.sol\":35827:35847  isMinter(msg.sender) */\n      tag_216\n        /* \"token/xSWORD.sol\":35836:35846  msg.sender */\n      caller\n        /* \"token/xSWORD.sol\":35827:35835  isMinter */\n      tag_96\n        /* \"token/xSWORD.sol\":35827:35847  isMinter(msg.sender) */\n      jump\t// in\n    tag_216:\n        /* \"token/xSWORD.sol\":35819:35876  require(isMinter(msg.sender), \"caller is not the minter\") */\n      tag_217\n      jumpi\n      mload(0x40)\n      0x08c379a000000000000000000000000000000000000000000000000000000000\n      dup2\n      mstore\n      0x04\n      add\n      dup1\n      dup1\n      0x20\n      add\n      dup3\n      dup2\n      sub\n      dup3\n      mstore\n      0x18\n      dup2\n      mstore\n      0x20\n      add\n      dup1\n      0x63616c6c6572206973206e6f7420746865206d696e7465720000000000000000\n      dup2\n      mstore\n      pop\n      0x20\n      add\n      swap2\n      pop\n      pop\n      mload(0x40)\n      dup1\n      swap2\n      sub\n      swap1\n      revert\n    tag_217:\n        /* \"token/xSWORD.sol\":34436:34439  MMF */\n      0x09\n      0x00\n      swap1\n      sload\n      swap1\n      0x0100\n      exp\n      swap1\n      div\n      0xffffffffffffffffffffffffffffffffffffffff\n      and\n        /* \"token/xSWORD.sol\":34436:34452  MMF.transferFrom */\n      0xffffffffffffffffffffffffffffffffffffffff\n      and\n      0x23b872dd\n        /* \"token/xSWORD.sol\":34453:34463  msg.sender */\n      caller\n        /* \"token/xSWORD.sol\":34473:34477  this */\n      address\n        /* \"token/xSWORD.sol\":34480:34487  _amount */\n      dup5\n        /* \"token/xSWORD.sol\":34436:34488  MMF.transferFrom(msg.sender, address(this), _amount) */\n      mload(0x40)\n      dup5\n      0xffffffff\n      and\n      0xe0\n      shl\n      dup2\n      mstore\n      0x04\n      add\n      dup1\n      dup5\n      0xffffffffffffffffffffffffffffffffffffffff\n      and\n      dup2\n      mstore\n      0x20\n      add\n      dup4\n      0xffffffffffffffffffffffffffffffffffffffff\n      and\n      dup2\n      mstore\n      0x20\n      add\n      dup3\n      dup2\n      mstore\n      0x20\n      add\n      swap4\n      pop\n      pop\n      pop\n      pop\n      0x20\n      mload(0x40)\n      dup1\n      dup4\n      sub\n      dup2\n      0x00\n      dup8\n      dup1\n      extcodesize\n      iszero\n      dup1\n      iszero\n      tag_219\n      jumpi\n      0x00\n      dup1\n      revert\n    tag_219:\n      pop\n      gas\n      call\n      iszero\n      dup1\n      iszero\n      tag_221\n      jumpi\n      returndatasize\n      0x00\n      dup1\n      returndatacopy\n      revert(0x00, returndatasize)\n    tag_221:\n      pop\n      pop\n      pop\n      pop\n      mload(0x40)\n      returndatasize\n      0x20\n      dup2\n      lt\n      iszero\n      tag_222\n      jumpi\n      0x00\n      dup1\n      revert\n    tag_222:\n      dup2\n      add\n      swap1\n      dup1\n      dup1\n      mload\n      swap1\n      0x20\n      add\n      swap1\n      swap3\n      swap2\n      swap1\n      pop\n      pop\n      pop\n        /* \"token/xSWORD.sol\":34428:34489  require(MMF.transferFrom(msg.sender, address(this), _amount)) */\n      tag_223\n      jumpi\n      0x00\n      dup1\n      revert\n    tag_223:\n        /* \"token/xSWORD.sol\":34500:34526  _mint(msg.sender, _amount) */\n      tag_224\n        /* \"token/xSWORD.sol\":34506:34516  msg.sender */\n      caller\n        /* \"token/xSWORD.sol\":34518:34525  _amount */\n      dup3\n        /* \"token/xSWORD.sol\":34500:34505  _mint */\n      tag_155\n        /* \"token/xSWORD.sol\":34500:34526  _mint(msg.sender, _amount) */\n      jump\t// in\n    tag_224:\n      pop\n        /* \"token/xSWORD.sol\":34368:34534  function lock(uint256 _amount) public onlyMinter {\r... */\n      pop\n      jump\t// out\n        /* \"token/xSWORD.sol\":19762:19905  function allowance(address owner, address spender) public override view returns (uint256) {\r... */\n    tag_107:\n        /* \"token/xSWORD.sol\":19843:19850  uint256 */\n      0x00\n        /* \"token/xSWORD.sol\":19870:19881  _allowances */\n      0x02\n        /* \"token/xSWORD.sol\":19870:19888  _allowances[owner] */\n      0x00\n        /* \"token/xSWORD.sol\":19882:19887  owner */\n      dup5\n        /* \"token/xSWORD.sol\":19870:19888  _allowances[owner] */\n      0xffffffffffffffffffffffffffffffffffffffff\n      and\n      0xffffffffffffffffffffffffffffffffffffffff\n      and\n      dup2\n      mstore\n      0x20\n      add\n      swap1\n      dup2\n      mstore\n      0x20\n      add\n      0x00\n      keccak256\n        /* \"token/xSWORD.sol\":19870:19897  _allowances[owner][spender] */\n      0x00\n        /* \"token/xSWORD.sol\":19889:19896  spender */\n      dup4\n        /* \"token/xSWORD.sol\":19870:19897  _allowances[owner][spender] */\n      0xffffffffffffffffffffffffffffffffffffffff\n      and\n      0xffffffffffffffffffffffffffffffffffffffff\n      and\n      dup2\n      mstore\n      0x20\n      add\n      swap1\n      dup2\n      mstore\n      0x20\n      add\n      0x00\n      keccak256\n      sload\n        /* \"token/xSWORD.sol\":19863:19897  return _allowances[owner][spender] */\n      swap1\n      pop\n        /* \"token/xSWORD.sol\":19762:19905  function allowance(address owner, address spender) public override view returns (uint256) {\r... */\n      swap3\n      swap2\n      pop\n      pop\n      jump\t// out\n        /* \"token/xSWORD.sol\":2046:2155  function transferOwnership(address newOwner) public onlyOwner {\r... */\n    tag_110:\n        /* \"token/xSWORD.sol\":1331:1343  _msgSender() */\n      tag_227\n        /* \"token/xSWORD.sol\":1331:1341  _msgSender */\n      tag_121\n        /* \"token/xSWORD.sol\":1331:1343  _msgSender() */\n      jump\t// in\n    tag_227:\n        /* \"token/xSWORD.sol\":1321:1343  _owner == _msgSender() */\n      0xffffffffffffffffffffffffffffffffffffffff\n      and\n        /* \"token/xSWORD.sol\":1321:1327  _owner */\n      0x00\n      dup1\n      sload\n      swap1\n      0x0100\n      exp\n      swap1\n      div\n      0xffffffffffffffffffffffffffffffffffffffff\n      and\n        /* \"token/xSWORD.sol\":1321:1343  _owner == _msgSender() */\n      0xffffffffffffffffffffffffffffffffffffffff\n      and\n      eq\n        /* \"token/xSWORD.sol\":1313:1380  require(_owner == _msgSender(), 'Ownable: caller is not the owner') */\n      tag_228\n      jumpi\n      mload(0x40)\n      0x08c379a000000000000000000000000000000000000000000000000000000000\n      dup2\n      mstore\n      0x04\n      add\n      dup1\n      dup1\n      0x20\n      add\n      dup3\n      dup2\n      sub\n      dup3\n      mstore\n      0x20\n      dup2\n      mstore\n      0x20\n      add\n      dup1\n      0x4f776e61626c653a2063616c6c6572206973206e6f7420746865206f776e6572\n      dup2\n      mstore\n      pop\n      0x20\n      add\n      swap2\n      pop\n      pop\n      mload(0x40)\n      dup1\n      swap2\n      sub\n      swap1\n      revert\n    tag_228:\n        /* \"token/xSWORD.sol\":2119:2147  _transferOwnership(newOwner) */\n      tag_230\n        /* \"token/xSWORD.sol\":2138:2146  newOwner */\n      dup2\n        /* \"token/xSWORD.sol\":2119:2137  _transferOwnership */\n      tag_231\n        /* \"token/xSWORD.sol\":2119:2147  _transferOwnership(newOwner) */\n      jump\t// in\n    tag_230:\n        /* \"token/xSWORD.sol\":2046:2155  function transferOwnership(address newOwner) public onlyOwner {\r... */\n      pop\n      jump\t// out\n        /* \"token/xSWORD.sol\":31592:31709  function length(AddressSet storage set) internal view returns (uint256) {\r... */\n    tag_113:\n        /* \"token/xSWORD.sol\":31655:31662  uint256 */\n      0x00\n        /* \"token/xSWORD.sol\":31682:31701  _length(set._inner) */\n      tag_233\n        /* \"token/xSWORD.sol\":31690:31693  set */\n      dup3\n        /* \"token/xSWORD.sol\":31690:31700  set._inner */\n      0x00\n      add\n        /* \"token/xSWORD.sol\":31682:31689  _length */\n      tag_234\n        /* \"token/xSWORD.sol\":31682:31701  _length(set._inner) */\n      jump\t// in\n    tag_233:\n        /* \"token/xSWORD.sol\":31675:31701  return _length(set._inner) */\n      swap1\n      pop\n        /* \"token/xSWORD.sol\":31592:31709  function length(AddressSet storage set) internal view returns (uint256) {\r... */\n      swap2\n      swap1\n      pop\n      jump\t// out\n        /* \"token/xSWORD.sol\":273:371  function _msgSender() internal view returns (address payable) {\r... */\n    tag_121:\n        /* \"token/xSWORD.sol\":318:333  address payable */\n      0x00\n        /* \"token/xSWORD.sol\":353:363  msg.sender */\n      caller\n        /* \"token/xSWORD.sol\":346:363  return msg.sender */\n      swap1\n      pop\n        /* \"token/xSWORD.sol\":273:371  function _msgSender() internal view returns (address payable) {\r... */\n      swap1\n      jump\t// out\n        /* \"token/xSWORD.sol\":25669:26041  function _approve(\r... */\n    tag_122:\n        /* \"token/xSWORD.sol\":25814:25815  0 */\n      0x00\n        /* \"token/xSWORD.sol\":25797:25816  owner != address(0) */\n      0xffffffffffffffffffffffffffffffffffffffff\n      and\n        /* \"token/xSWORD.sol\":25797:25802  owner */\n      dup4\n        /* \"token/xSWORD.sol\":25797:25816  owner != address(0) */\n      0xffffffffffffffffffffffffffffffffffffffff\n      and\n      eq\n      iszero\n        /* \"token/xSWORD.sol\":25789:25857  require(owner != address(0), 'ERC20: approve from the zero address') */\n      tag_237\n      jumpi\n      mload(0x40)\n      0x08c379a000000000000000000000000000000000000000000000000000000000\n      dup2\n      mstore\n      0x04\n      add\n      dup1\n      dup1\n      0x20\n      add\n      dup3\n      dup2\n      sub\n      dup3\n      mstore\n      0x24\n      dup2\n      mstore\n      0x20\n      add\n      dup1\n      data_c953f4879035ed60e766b34720f656aab5c697b141d924c283124ecedb91c208\n      0x24\n      swap2\n      codecopy\n      0x40\n      add\n      swap2\n      pop\n      pop\n      mload(0x40)\n      dup1\n      swap2\n      sub\n      swap1\n      revert\n    tag_237:\n        /* \"token/xSWORD.sol\":25895:25896  0 */\n      0x00\n        /* \"token/xSWORD.sol\":25876:25897  spender != address(0) */\n      0xffffffffffffffffffffffffffffffffffffffff\n      and\n        /* \"token/xSWORD.sol\":25876:25883  spender */\n      dup3\n        /* \"token/xSWORD.sol\":25876:25897  spender != address(0) */\n      0xffffffffffffffffffffffffffffffffffffffff\n      and\n      eq\n      iszero\n        /* \"token/xSWORD.sol\":25868:25936  require(spender != address(0), 'ERC20: approve to the zero address') */\n      tag_238\n      jumpi\n      mload(0x40)\n      0x08c379a000000000000000000000000000000000000000000000000000000000\n      dup2\n      mstore\n      0x04\n      add\n      dup1\n      dup1\n      0x20\n      add\n      dup3\n      dup2\n      sub\n      dup3\n      mstore\n      0x22\n      dup2\n      mstore\n      0x20\n      add\n      dup1\n      data_24883cc5fe64ace9d0df1893501ecb93c77180f0ff69cca79affb3c316dc8029\n      0x22\n      swap2\n      codecopy\n      0x40\n      add\n      swap2\n      pop\n      pop\n      mload(0x40)\n      dup1\n      swap2\n      sub\n      swap1\n      revert\n    tag_238:\n        /* \"token/xSWORD.sol\":25979:25985  amount */\n      dup1\n        /* \"token/xSWORD.sol\":25949:25960  _allowances */\n      0x02\n        /* \"token/xSWORD.sol\":25949:25967  _allowances[owner] */\n      0x00\n        /* \"token/xSWORD.sol\":25961:25966  owner */\n      dup6\n        /* \"token/xSWORD.sol\":25949:25967  _allowances[owner] */\n      0xffffffffffffffffffffffffffffffffffffffff\n      and\n      0xffffffffffffffffffffffffffffffffffffffff\n      and\n      dup2\n      mstore\n      0x20\n      add\n      swap1\n      dup2\n      mstore\n      0x20\n      add\n      0x00\n      keccak256\n        /* \"token/xSWORD.sol\":25949:25976  _allowances[owner][spender] */\n      0x00\n        /* \"token/xSWORD.sol\":25968:25975  spender */\n      dup5\n        /* \"token/xSWORD.sol\":25949:25976  _allowances[owner][spender] */\n      0xffffffffffffffffffffffffffffffffffffffff\n      and\n      0xffffffffffffffffffffffffffffffffffffffff\n      and\n      dup2\n      mstore\n      0x20\n      add\n      swap1\n      dup2\n      mstore\n      0x20\n      add\n      0x00\n      keccak256\n        /* \"token/xSWORD.sol\":25949:25985  _allowances[owner][spender] = amount */\n      dup2\n      swap1\n      sstore\n      pop\n        /* \"token/xSWORD.sol\":26017:26024  spender */\n      dup2\n        /* \"token/xSWORD.sol\":26001:26033  Approval(owner, spender, amount) */\n      0xffffffffffffffffffffffffffffffffffffffff\n      and\n        /* \"token/xSWORD.sol\":26010:26015  owner */\n      dup4\n        /* \"token/xSWORD.sol\":26001:26033  Approval(owner, spender, amount) */\n      0xffffffffffffffffffffffffffffffffffffffff\n      and\n      0x8c5be1e5ebec7d5bd14f71427d1e84f3dd0314c0f7b2291e5b200ac8c7c3b925\n        /* \"token/xSWORD.sol\":26026:26032  amount */\n      dup4\n        /* \"token/xSWORD.sol\":26001:26033  Approval(owner, spender, amount) */\n      mload(0x40)\n      dup1\n      dup3\n      dup2\n      mstore\n      0x20\n      add\n      swap2\n      pop\n      pop\n      mload(0x40)\n      dup1\n      swap2\n      sub\n      swap1\n      log3\n        /* \"token/xSWORD.sol\":25669:26041  function _approve(\r... */\n      pop\n      pop\n      pop\n      jump\t// out\n        /* \"token/xSWORD.sol\":31113:31262  function remove(AddressSet storage set, address value) internal returns (bool) {\r... */\n    tag_130:\n        /* \"token/xSWORD.sol\":31186:31190  bool */\n      0x00\n        /* \"token/xSWORD.sol\":31210:31254  _remove(set._inner, bytes32(uint256(value))) */\n      tag_240\n        /* \"token/xSWORD.sol\":31218:31221  set */\n      dup4\n        /* \"token/xSWORD.sol\":31218:31228  set._inner */\n      0x00\n      add\n        /* \"token/xSWORD.sol\":31246:31251  value */\n      dup4\n        /* \"token/xSWORD.sol\":31238:31252  uint256(value) */\n      0xffffffffffffffffffffffffffffffffffffffff\n      and\n        /* \"token/xSWORD.sol\":31230:31253  bytes32(uint256(value)) */\n      0x00\n      shl\n        /* \"token/xSWORD.sol\":31210:31217  _remove */\n      tag_241\n        /* \"token/xSWORD.sol\":31210:31254  _remove(set._inner, bytes32(uint256(value))) */\n      jump\t// in\n    tag_240:\n        /* \"token/xSWORD.sol\":31203:31254  return _remove(set._inner, bytes32(uint256(value))) */\n      swap1\n      pop\n        /* \"token/xSWORD.sol\":31113:31262  function remove(AddressSet storage set, address value) internal returns (bool) {\r... */\n      swap3\n      swap2\n      pop\n      pop\n      jump\t// out\n        /* \"token/xSWORD.sol\":23349:23854  function _transfer(\r... */\n    tag_133:\n        /* \"token/xSWORD.sol\":23499:23500  0 */\n      0x00\n        /* \"token/xSWORD.sol\":23481:23501  sender != address(0) */\n      0xffffffffffffffffffffffffffffffffffffffff\n      and\n        /* \"token/xSWORD.sol\":23481:23487  sender */\n      dup4\n        /* \"token/xSWORD.sol\":23481:23501  sender != address(0) */\n      0xffffffffffffffffffffffffffffffffffffffff\n      and\n      eq\n      iszero\n        /* \"token/xSWORD.sol\":23473:23543  require(sender != address(0), 'ERC20: transfer from the zero address') */\n      tag_243\n      jumpi\n      mload(0x40)\n      0x08c379a000000000000000000000000000000000000000000000000000000000\n      dup2\n      mstore\n      0x04\n      add\n      dup1\n      dup1\n      0x20\n      add\n      dup3\n      dup2\n      sub\n      dup3\n      mstore\n      0x25\n      dup2\n      mstore\n      0x20\n      add\n      dup1\n      data_baecc556b46f4ed0f2b4cb599d60785ac8563dd2dc0a5bf12edea1c39e5e1fea\n      0x25\n      swap2\n      codecopy\n      0x40\n      add\n      swap2\n      pop\n      pop\n      mload(0x40)\n      dup1\n      swap2\n      sub\n      swap1\n      revert\n    tag_243:\n        /* \"token/xSWORD.sol\":23583:23584  0 */\n      0x00\n        /* \"token/xSWORD.sol\":23562:23585  recipient != address(0) */\n      0xffffffffffffffffffffffffffffffffffffffff\n      and\n        /* \"token/xSWORD.sol\":23562:23571  recipient */\n      dup3\n        /* \"token/xSWORD.sol\":23562:23585  recipient != address(0) */\n      0xffffffffffffffffffffffffffffffffffffffff\n      and\n      eq\n      iszero\n        /* \"token/xSWORD.sol\":23554:23625  require(recipient != address(0), 'ERC20: transfer to the zero address') */\n      tag_244\n      jumpi\n      mload(0x40)\n      0x08c379a000000000000000000000000000000000000000000000000000000000\n      dup2\n      mstore\n      0x04\n      add\n      dup1\n      dup1\n      0x20\n      add\n      dup3\n      dup2\n      sub\n      dup3\n      mstore\n      0x23\n      dup2\n      mstore\n      0x20\n      add\n      dup1\n      data_0557e210f7a69a685100a7e4e3d0a7024c546085cee28910fd17d0b081d9516f\n      0x23\n      swap2\n      codecopy\n      0x40\n      add\n      swap2\n      pop\n      pop\n      mload(0x40)\n      dup1\n      swap2\n      sub\n      swap1\n      revert\n    tag_244:\n        /* \"token/xSWORD.sol\":23658:23729  _balances[sender].sub(amount, 'ERC20: transfer amount exceeds balance') */\n      tag_245\n        /* \"token/xSWORD.sol\":23680:23686  amount */\n      dup2\n        /* \"token/xSWORD.sol\":23658:23729  _balances[sender].sub(amount, 'ERC20: transfer amount exceeds balance') */\n      mload(0x40)\n      dup1\n      0x60\n      add\n      0x40\n      mstore\n      dup1\n      0x26\n      dup2\n      mstore\n      0x20\n      add\n      data_4107e8a8b9e94bf8ff83080ddec1c0bffe897ebc2241b89d44f66b3d274088b6\n      0x26\n      swap2\n      codecopy\n        /* \"token/xSWORD.sol\":23658:23667  _balances */\n      0x01\n        /* \"token/xSWORD.sol\":23658:23675  _balances[sender] */\n      0x00\n        /* \"token/xSWORD.sol\":23668:23674  sender */\n      dup8\n        /* \"token/xSWORD.sol\":23658:23675  _balances[sender] */\n      0xffffffffffffffffffffffffffffffffffffffff\n      and\n      0xffffffffffffffffffffffffffffffffffffffff\n      and\n      dup2\n      mstore\n      0x20\n      add\n      swap1\n      dup2\n      mstore\n      0x20\n      add\n      0x00\n      keccak256\n      sload\n        /* \"token/xSWORD.sol\":23658:23679  _balances[sender].sub */\n      tag_138\n      swap1\n        /* \"token/xSWORD.sol\":23658:23729  _balances[sender].sub(amount, 'ERC20: transfer amount exceeds balance') */\n      swap3\n      swap2\n      swap1\n      0xffffffff\n      and\n      jump\t// in\n    tag_245:\n        /* \"token/xSWORD.sol\":23638:23647  _balances */\n      0x01\n        /* \"token/xSWORD.sol\":23638:23655  _balances[sender] */\n      0x00\n        /* \"token/xSWORD.sol\":23648:23654  sender */\n      dup6\n        /* \"token/xSWORD.sol\":23638:23655  _balances[sender] */\n      0xffffffffffffffffffffffffffffffffffffffff\n      and\n      0xffffffffffffffffffffffffffffffffffffffff\n      and\n      dup2\n      mstore\n      0x20\n      add\n      swap1\n      dup2\n      mstore\n      0x20\n      add\n      0x00\n      keccak256\n        /* \"token/xSWORD.sol\":23638:23729  _balances[sender] = _balances[sender].sub(amount, 'ERC20: transfer amount exceeds balance') */\n      dup2\n      swap1\n      sstore\n      pop\n        /* \"token/xSWORD.sol\":23763:23795  _balances[recipient].add(amount) */\n      tag_246\n        /* \"token/xSWORD.sol\":23788:23794  amount */\n      dup2\n        /* \"token/xSWORD.sol\":23763:23772  _balances */\n      0x01\n        /* \"token/xSWORD.sol\":23763:23783  _balances[recipient] */\n      0x00\n        /* \"token/xSWORD.sol\":23773:23782  recipient */\n      dup6\n        /* \"token/xSWORD.sol\":23763:23783  _balances[recipient] */\n      0xffffffffffffffffffffffffffffffffffffffff\n      and\n      0xffffffffffffffffffffffffffffffffffffffff\n      and\n      dup2\n      mstore\n      0x20\n      add\n      swap1\n      dup2\n      mstore\n      0x20\n      add\n      0x00\n      keccak256\n      sload\n        /* \"token/xSWORD.sol\":23763:23787  _balances[recipient].add */\n      tag_145\n      swap1\n        /* \"token/xSWORD.sol\":23763:23795  _balances[recipient].add(amount) */\n      swap2\n      swap1\n      0xffffffff\n      and\n      jump\t// in\n    tag_246:\n        /* \"token/xSWORD.sol\":23740:23749  _balances */\n      0x01\n        /* \"token/xSWORD.sol\":23740:23760  _balances[recipient] */\n      0x00\n        /* \"token/xSWORD.sol\":23750:23759  recipient */\n      dup5\n        /* \"token/xSWORD.sol\":23740:23760  _balances[recipient] */\n      0xffffffffffffffffffffffffffffffffffffffff\n      and\n      0xffffffffffffffffffffffffffffffffffffffff\n      and\n      dup2\n      mstore\n      0x20\n      add\n      swap1\n      dup2\n      mstore\n      0x20\n      add\n      0x00\n      keccak256\n        /* \"token/xSWORD.sol\":23740:23795  _balances[recipient] = _balances[recipient].add(amount) */\n      dup2\n      swap1\n      sstore\n      pop\n        /* \"token/xSWORD.sol\":23828:23837  recipient */\n      dup2\n        /* \"token/xSWORD.sol\":23811:23846  Transfer(sender, recipient, amount) */\n      0xffffffffffffffffffffffffffffffffffffffff\n      and\n        /* \"token/xSWORD.sol\":23820:23826  sender */\n      dup4\n        /* \"token/xSWORD.sol\":23811:23846  Transfer(sender, recipient, amount) */\n      0xffffffffffffffffffffffffffffffffffffffff\n      and\n      0xddf252ad1be2c89b69c2b068fc378daa952ba7f163c4a11628f55a4df523b3ef\n        /* \"token/xSWORD.sol\":23839:23845  amount */\n      dup4\n        /* \"token/xSWORD.sol\":23811:23846  Transfer(sender, recipient, amount) */\n      mload(0x40)\n      dup1\n      dup3\n      dup2\n      mstore\n      0x20\n      add\n      swap2\n      pop\n      pop\n      mload(0x40)\n      dup1\n      swap2\n      sub\n      swap1\n      log3\n        /* \"token/xSWORD.sol\":23349:23854  function _transfer(\r... */\n      pop\n      pop\n      pop\n      jump\t// out\n        /* \"token/xSWORD.sol\":6869:7095  function sub(\r... */\n    tag_138:\n        /* \"token/xSWORD.sol\":6989:6996  uint256 */\n      0x00\n        /* \"token/xSWORD.sol\":7022:7023  a */\n      dup4\n        /* \"token/xSWORD.sol\":7017:7018  b */\n      dup4\n        /* \"token/xSWORD.sol\":7017:7023  b <= a */\n      gt\n      iszero\n        /* \"token/xSWORD.sol\":7025:7037  errorMessage */\n      dup3\n        /* \"token/xSWORD.sol\":7009:7038  require(b <= a, errorMessage) */\n      swap1\n      tag_248\n      jumpi\n      mload(0x40)\n      0x08c379a000000000000000000000000000000000000000000000000000000000\n      dup2\n      mstore\n      0x04\n      add\n      dup1\n      dup1\n      0x20\n      add\n      dup3\n      dup2\n      sub\n      dup3\n      mstore\n      dup4\n      dup2\n      dup2\n      mload\n      dup2\n      mstore\n      0x20\n      add\n      swap2\n      pop\n      dup1\n      mload\n      swap1\n      0x20\n      add\n      swap1\n      dup1\n      dup4\n      dup4\n      0x00\n    tag_249:\n      dup4\n      dup2\n      lt\n      iszero\n      tag_251\n      jumpi\n      dup1\n      dup3\n      add\n      mload\n      dup2\n      dup5\n      add\n      mstore\n      0x20\n      dup2\n      add\n      swap1\n      pop\n      jump(tag_249)\n    tag_251:\n      pop\n      pop\n      pop\n      pop\n      swap1\n      pop\n      swap1\n      dup2\n      add\n      swap1\n      0x1f\n      and\n      dup1\n      iszero\n      tag_252\n      jumpi\n      dup1\n      dup3\n      sub\n      dup1\n      mload\n      0x01\n      dup4\n      0x20\n      sub\n      0x0100\n      exp\n      sub\n      not\n      and\n      dup2\n      mstore\n      0x20\n      add\n      swap2\n      pop\n    tag_252:\n      pop\n      swap3\n      pop\n      pop\n      pop\n      mload(0x40)\n      dup1\n      swap2\n      sub\n      swap1\n      revert\n    tag_248:\n      pop\n        /* \"token/xSWORD.sol\":7049:7058  uint256 c */\n      0x00\n        /* \"token/xSWORD.sol\":7065:7066  b */\n      dup4\n        /* \"token/xSWORD.sol\":7061:7062  a */\n      dup6\n        /* \"token/xSWORD.sol\":7061:7066  a - b */\n      sub\n        /* \"token/xSWORD.sol\":7049:7066  uint256 c = a - b */\n      swap1\n      pop\n        /* \"token/xSWORD.sol\":7086:7087  c */\n      dup1\n        /* \"token/xSWORD.sol\":7079:7087  return c */\n      swap2\n      pop\n      pop\n        /* \"token/xSWORD.sol\":6869:7095  function sub(\r... */\n      swap4\n      swap3\n      pop\n      pop\n      pop\n      jump\t// out\n        /* \"token/xSWORD.sol\":5966:6147  function add(uint256 a, uint256 b) internal pure returns (uint256) {\r... */\n    tag_145:\n        /* \"token/xSWORD.sol\":6024:6031  uint256 */\n      0x00\n        /* \"token/xSWORD.sol\":6044:6053  uint256 c */\n      dup1\n        /* \"token/xSWORD.sol\":6060:6061  b */\n      dup3\n        /* \"token/xSWORD.sol\":6056:6057  a */\n      dup5\n        /* \"token/xSWORD.sol\":6056:6061  a + b */\n      add\n        /* \"token/xSWORD.sol\":6044:6061  uint256 c = a + b */\n      swap1\n      pop\n        /* \"token/xSWORD.sol\":6085:6086  a */\n      dup4\n        /* \"token/xSWORD.sol\":6080:6081  c */\n      dup2\n        /* \"token/xSWORD.sol\":6080:6086  c >= a */\n      lt\n      iszero\n        /* \"token/xSWORD.sol\":6072:6118  require(c >= a, 'SafeMath: addition overflow') */\n      tag_254\n      jumpi\n      mload(0x40)\n      0x08c379a000000000000000000000000000000000000000000000000000000000\n      dup2\n      mstore\n      0x04\n      add\n      dup1\n      dup1\n      0x20\n      add\n      dup3\n      dup2\n      sub\n      dup3\n      mstore\n      0x1b\n      dup2\n      mstore\n      0x20\n      add\n      dup1\n      0x536166654d6174683a206164646974696f6e206f766572666c6f770000000000\n      dup2\n      mstore\n      pop\n      0x20\n      add\n      swap2\n      pop\n      pop\n      mload(0x40)\n      dup1\n      swap2\n      sub\n      swap1\n      revert\n    tag_254:\n        /* \"token/xSWORD.sol\":6138:6139  c */\n      dup1\n        /* \"token/xSWORD.sol\":6131:6139  return c */\n      swap2\n      pop\n      pop\n        /* \"token/xSWORD.sol\":5966:6147  function add(uint256 a, uint256 b) internal pure returns (uint256) {\r... */\n      swap3\n      swap2\n      pop\n      pop\n      jump\t// out\n        /* \"token/xSWORD.sol\":24135:24549  function _mint(address account, uint256 amount) internal returns(bool) {\r... */\n    tag_155:\n        /* \"token/xSWORD.sol\":24200:24204  bool */\n      0x00\n        /* \"token/xSWORD.sol\":24244:24245  0 */\n      dup1\n        /* \"token/xSWORD.sol\":24225:24246  account != address(0) */\n      0xffffffffffffffffffffffffffffffffffffffff\n      and\n        /* \"token/xSWORD.sol\":24225:24232  account */\n      dup4\n        /* \"token/xSWORD.sol\":24225:24246  account != address(0) */\n      0xffffffffffffffffffffffffffffffffffffffff\n      and\n      eq\n      iszero\n        /* \"token/xSWORD.sol\":24217:24282  require(account != address(0), 'ERC20: mint to the zero address') */\n      tag_256\n      jumpi\n      mload(0x40)\n      0x08c379a000000000000000000000000000000000000000000000000000000000\n      dup2\n      mstore\n      0x04\n      add\n      dup1\n      dup1\n      0x20\n      add\n      dup3\n      dup2\n      sub\n      dup3\n      mstore\n      0x1f\n      dup2\n      mstore\n      0x20\n      add\n      dup1\n      0x45524332303a206d696e7420746f20746865207a65726f206164647265737300\n      dup2\n      mstore\n      pop\n      0x20\n      add\n      swap2\n      pop\n      pop\n      mload(0x40)\n      dup1\n      swap2\n      sub\n      swap1\n      revert\n    tag_256:\n        /* \"token/xSWORD.sol\":17419:17434  10000000 * 1e18 */\n      0x084595161401484a000000\n        /* \"token/xSWORD.sol\":24297:24321  amount.add(_totalSupply) */\n      tag_257\n        /* \"token/xSWORD.sol\":24308:24320  _totalSupply */\n      sload(0x03)\n        /* \"token/xSWORD.sol\":24297:24303  amount */\n      dup5\n        /* \"token/xSWORD.sol\":24297:24307  amount.add */\n      tag_145\n      swap1\n        /* \"token/xSWORD.sol\":24297:24321  amount.add(_totalSupply) */\n      swap2\n      swap1\n      0xffffffff\n      and\n      jump\t// in\n    tag_257:\n        /* \"token/xSWORD.sol\":24297:24334  amount.add(_totalSupply) > _maxSupply */\n      gt\n        /* \"token/xSWORD.sol\":24293:24375  if (amount.add(_totalSupply) > _maxSupply) {\r... */\n      iszero\n      tag_258\n      jumpi\n        /* \"token/xSWORD.sol\":24358:24363  false */\n      0x00\n        /* \"token/xSWORD.sol\":24351:24363  return false */\n      swap1\n      pop\n      jump(tag_255)\n        /* \"token/xSWORD.sol\":24293:24375  if (amount.add(_totalSupply) > _maxSupply) {\r... */\n    tag_258:\n        /* \"token/xSWORD.sol\":24402:24426  _totalSupply.add(amount) */\n      tag_259\n        /* \"token/xSWORD.sol\":24419:24425  amount */\n      dup3\n        /* \"token/xSWORD.sol\":24402:24414  _totalSupply */\n      sload(0x03)\n        /* \"token/xSWORD.sol\":24402:24418  _totalSupply.add */\n      tag_145\n      swap1\n        /* \"token/xSWORD.sol\":24402:24426  _totalSupply.add(amount) */\n      swap2\n      swap1\n      0xffffffff\n      and\n      jump\t// in\n    tag_259:\n        /* \"token/xSWORD.sol\":24387:24399  _totalSupply */\n      0x03\n        /* \"token/xSWORD.sol\":24387:24426  _totalSupply = _totalSupply.add(amount) */\n      dup2\n      swap1\n      sstore\n      pop\n        /* \"token/xSWORD.sol\":24458:24488  _balances[account].add(amount) */\n      tag_260\n        /* \"token/xSWORD.sol\":24481:24487  amount */\n      dup3\n        /* \"token/xSWORD.sol\":24458:24467  _balances */\n      0x01\n        /* \"token/xSWORD.sol\":24458:24476  _balances[account] */\n      0x00\n        /* \"token/xSWORD.sol\":24468:24475  account */\n      dup7\n        /* \"token/xSWORD.sol\":24458:24476  _balances[account] */\n      0xffffffffffffffffffffffffffffffffffffffff\n      and\n      0xffffffffffffffffffffffffffffffffffffffff\n      and\n      dup2\n      mstore\n      0x20\n      add\n      swap1\n      dup2\n      mstore\n      0x20\n      add\n      0x00\n      keccak256\n      sload\n        /* \"token/xSWORD.sol\":24458:24480  _balances[account].add */\n      tag_145\n      swap1\n        /* \"token/xSWORD.sol\":24458:24488  _balances[account].add(amount) */\n      swap2\n      swap1\n      0xffffffff\n      and\n      jump\t// in\n    tag_260:\n        /* \"token/xSWORD.sol\":24437:24446  _balances */\n      0x01\n        /* \"token/xSWORD.sol\":24437:24455  _balances[account] */\n      0x00\n        /* \"token/xSWORD.sol\":24447:24454  account */\n      dup6\n        /* \"token/xSWORD.sol\":24437:24455  _balances[account] */\n      0xffffffffffffffffffffffffffffffffffffffff\n      and\n      0xffffffffffffffffffffffffffffffffffffffff\n      and\n      dup2\n      mstore\n      0x20\n      add\n      swap1\n      dup2\n      mstore\n      0x20\n      add\n      0x00\n      keccak256\n        /* \"token/xSWORD.sol\":24437:24488  _balances[account] = _balances[account].add(amount) */\n      dup2\n      swap1\n      sstore\n      pop\n        /* \"token/xSWORD.sol\":24525:24532  account */\n      dup3\n        /* \"token/xSWORD.sol\":24504:24541  Transfer(address(0), account, amount) */\n      0xffffffffffffffffffffffffffffffffffffffff\n      and\n        /* \"token/xSWORD.sol\":24521:24522  0 */\n      0x00\n        /* \"token/xSWORD.sol\":24504:24541  Transfer(address(0), account, amount) */\n      0xffffffffffffffffffffffffffffffffffffffff\n      and\n      0xddf252ad1be2c89b69c2b068fc378daa952ba7f163c4a11628f55a4df523b3ef\n        /* \"token/xSWORD.sol\":24534:24540  amount */\n      dup5\n        /* \"token/xSWORD.sol\":24504:24541  Transfer(address(0), account, amount) */\n      mload(0x40)\n      dup1\n      dup3\n      dup2\n      mstore\n      0x20\n      add\n      swap2\n      pop\n      pop\n      mload(0x40)\n      dup1\n      swap2\n      sub\n      swap1\n      log3\n        /* \"token/xSWORD.sol\":24135:24549  function _mint(address account, uint256 amount) internal returns(bool) {\r... */\n    tag_255:\n      swap3\n      swap2\n      pop\n      pop\n      jump\t// out\n        /* \"token/xSWORD.sol\":32063:32212  function at(AddressSet storage set, uint256 index) internal view returns (address) {\r... */\n    tag_163:\n        /* \"token/xSWORD.sol\":32137:32144  address */\n      0x00\n        /* \"token/xSWORD.sol\":32180:32202  _at(set._inner, index) */\n      tag_262\n        /* \"token/xSWORD.sol\":32184:32187  set */\n      dup4\n        /* \"token/xSWORD.sol\":32184:32194  set._inner */\n      0x00\n      add\n        /* \"token/xSWORD.sol\":32196:32201  index */\n      dup4\n        /* \"token/xSWORD.sol\":32180:32183  _at */\n      tag_263\n        /* \"token/xSWORD.sol\":32180:32202  _at(set._inner, index) */\n      jump\t// in\n    tag_262:\n        /* \"token/xSWORD.sol\":32172:32203  uint256(_at(set._inner, index)) */\n      0x00\n      shr\n        /* \"token/xSWORD.sol\":32157:32204  return address(uint256(_at(set._inner, index))) */\n      swap1\n      pop\n        /* \"token/xSWORD.sol\":32063:32212  function at(AddressSet storage set, uint256 index) internal view returns (address) {\r... */\n      swap3\n      swap2\n      pop\n      pop\n      jump\t// out\n        /* \"token/xSWORD.sol\":26227:26509  function _burnFrom(address account, uint256 amount) internal {\r... */\n    tag_171:\n        /* \"token/xSWORD.sol\":26299:26321  _burn(account, amount) */\n      tag_265\n        /* \"token/xSWORD.sol\":26305:26312  account */\n      dup3\n        /* \"token/xSWORD.sol\":26314:26320  amount */\n      dup3\n        /* \"token/xSWORD.sol\":26299:26304  _burn */\n      tag_214\n        /* \"token/xSWORD.sol\":26299:26321  _burn(account, amount) */\n      jump\t// in\n    tag_265:\n        /* \"token/xSWORD.sol\":26332:26501  _approve(\r... */\n      tag_266\n        /* \"token/xSWORD.sol\":26355:26362  account */\n      dup3\n        /* \"token/xSWORD.sol\":26377:26389  _msgSender() */\n      tag_267\n        /* \"token/xSWORD.sol\":26377:26387  _msgSender */\n      tag_121\n        /* \"token/xSWORD.sol\":26377:26389  _msgSender() */\n      jump\t// in\n    tag_267:\n        /* \"token/xSWORD.sol\":26404:26490  _allowances[account][_msgSender()].sub(amount, 'ERC20: burn amount exceeds allowance') */\n      tag_268\n        /* \"token/xSWORD.sol\":26443:26449  amount */\n      dup5\n        /* \"token/xSWORD.sol\":26404:26490  _allowances[account][_msgSender()].sub(amount, 'ERC20: burn amount exceeds allowance') */\n      mload(0x40)\n      dup1\n      0x60\n      add\n      0x40\n      mstore\n      dup1\n      0x24\n      dup2\n      mstore\n      0x20\n      add\n      data_a287c363786607a1457a2d9d12fa61c0073358e02d76b4035fc2c2d86a19c0db\n      0x24\n      swap2\n      codecopy\n        /* \"token/xSWORD.sol\":26404:26415  _allowances */\n      0x02\n        /* \"token/xSWORD.sol\":26404:26424  _allowances[account] */\n      0x00\n        /* \"token/xSWORD.sol\":26416:26423  account */\n      dup10\n        /* \"token/xSWORD.sol\":26404:26424  _allowances[account] */\n      0xffffffffffffffffffffffffffffffffffffffff\n      and\n      0xffffffffffffffffffffffffffffffffffffffff\n      and\n      dup2\n      mstore\n      0x20\n      add\n      swap1\n      dup2\n      mstore\n      0x20\n      add\n      0x00\n      keccak256\n        /* \"token/xSWORD.sol\":26404:26438  _allowances[account][_msgSender()] */\n      0x00\n        /* \"token/xSWORD.sol\":26425:26437  _msgSender() */\n      tag_269\n        /* \"token/xSWORD.sol\":26425:26435  _msgSender */\n      tag_121\n        /* \"token/xSWORD.sol\":26425:26437  _msgSender() */\n      jump\t// in\n    tag_269:\n        /* \"token/xSWORD.sol\":26404:26438  _allowances[account][_msgSender()] */\n      0xffffffffffffffffffffffffffffffffffffffff\n      and\n      0xffffffffffffffffffffffffffffffffffffffff\n      and\n      dup2\n      mstore\n      0x20\n      add\n      swap1\n      dup2\n      mstore\n      0x20\n      add\n      0x00\n      keccak256\n      sload\n        /* \"token/xSWORD.sol\":26404:26442  _allowances[account][_msgSender()].sub */\n      tag_138\n      swap1\n        /* \"token/xSWORD.sol\":26404:26490  _allowances[account][_msgSender()].sub(amount, 'ERC20: burn amount exceeds allowance') */\n      swap3\n      swap2\n      swap1\n      0xffffffff\n      and\n      jump\t// in\n    tag_268:\n        /* \"token/xSWORD.sol\":26332:26340  _approve */\n      tag_122\n        /* \"token/xSWORD.sol\":26332:26501  _approve(\r... */\n      jump\t// in\n    tag_266:\n        /* \"token/xSWORD.sol\":26227:26509  function _burnFrom(address account, uint256 amount) internal {\r... */\n      pop\n      pop\n      jump\t// out\n        /* \"token/xSWORD.sol\":30794:30937  function add(AddressSet storage set, address value) internal returns (bool) {\r... */\n    tag_185:\n        /* \"token/xSWORD.sol\":30864:30868  bool */\n      0x00\n        /* \"token/xSWORD.sol\":30888:30929  _add(set._inner, bytes32(uint256(value))) */\n      tag_271\n        /* \"token/xSWORD.sol\":30893:30896  set */\n      dup4\n        /* \"token/xSWORD.sol\":30893:30903  set._inner */\n      0x00\n      add\n        /* \"token/xSWORD.sol\":30921:30926  value */\n      dup4\n        /* \"token/xSWORD.sol\":30913:30927  uint256(value) */\n      0xffffffffffffffffffffffffffffffffffffffff\n      and\n        /* \"token/xSWORD.sol\":30905:30928  bytes32(uint256(value)) */\n      0x00\n      shl\n        /* \"token/xSWORD.sol\":30888:30892  _add */\n      tag_272\n        /* \"token/xSWORD.sol\":30888:30929  _add(set._inner, bytes32(uint256(value))) */\n      jump\t// in\n    tag_271:\n        /* \"token/xSWORD.sol\":30881:30929  return _add(set._inner, bytes32(uint256(value))) */\n      swap1\n      pop\n        /* \"token/xSWORD.sol\":30794:30937  function add(AddressSet storage set, address value) internal returns (bool) {\r... */\n      swap3\n      swap2\n      pop\n      pop\n      jump\t// out\n        /* \"token/xSWORD.sol\":31348:31506  function contains(AddressSet storage set, address value) internal view returns (bool) {\r... */\n    tag_202:\n        /* \"token/xSWORD.sol\":31428:31432  bool */\n      0x00\n        /* \"token/xSWORD.sol\":31452:31498  _contains(set._inner, bytes32(uint256(value))) */\n      tag_274\n        /* \"token/xSWORD.sol\":31462:31465  set */\n      dup4\n        /* \"token/xSWORD.sol\":31462:31472  set._inner */\n      0x00\n      add\n        /* \"token/xSWORD.sol\":31490:31495  value */\n      dup4\n        /* \"token/xSWORD.sol\":31482:31496  uint256(value) */\n      0xffffffffffffffffffffffffffffffffffffffff\n      and\n        /* \"token/xSWORD.sol\":31474:31497  bytes32(uint256(value)) */\n      0x00\n      shl\n        /* \"token/xSWORD.sol\":31452:31461  _contains */\n      tag_275\n        /* \"token/xSWORD.sol\":31452:31498  _contains(set._inner, bytes32(uint256(value))) */\n      jump\t// in\n    tag_274:\n        /* \"token/xSWORD.sol\":31445:31498  return _contains(set._inner, bytes32(uint256(value))) */\n      swap1\n      pop\n        /* \"token/xSWORD.sol\":31348:31506  function contains(AddressSet storage set, address value) internal view returns (bool) {\r... */\n      swap3\n      swap2\n      pop\n      pop\n      jump\t// out\n        /* \"token/xSWORD.sol\":24881:25229  function _burn(address account, uint256 amount) internal {\r... */\n    tag_214:\n        /* \"token/xSWORD.sol\":24976:24977  0 */\n      0x00\n        /* \"token/xSWORD.sol\":24957:24978  account != address(0) */\n      0xffffffffffffffffffffffffffffffffffffffff\n      and\n        /* \"token/xSWORD.sol\":24957:24964  account */\n      dup3\n        /* \"token/xSWORD.sol\":24957:24978  account != address(0) */\n      0xffffffffffffffffffffffffffffffffffffffff\n      and\n      eq\n      iszero\n        /* \"token/xSWORD.sol\":24949:25016  require(account != address(0), 'ERC20: burn from the zero address') */\n      tag_277\n      jumpi\n      mload(0x40)\n      0x08c379a000000000000000000000000000000000000000000000000000000000\n      dup2\n      mstore\n      0x04\n      add\n      dup1\n      dup1\n      0x20\n      add\n      dup3\n      dup2\n      sub\n      dup3\n      mstore\n      0x21\n      dup2\n      mstore\n      0x20\n      add\n      dup1\n      data_b16788493b576042bb52c50ed56189e0b250db113c7bfb1c3897d25cf9632d7f\n      0x21\n      swap2\n      codecopy\n      0x40\n      add\n      swap2\n      pop\n      pop\n      mload(0x40)\n      dup1\n      swap2\n      sub\n      swap1\n      revert\n    tag_277:\n        /* \"token/xSWORD.sol\":25050:25118  _balances[account].sub(amount, 'ERC20: burn amount exceeds balance') */\n      tag_278\n        /* \"token/xSWORD.sol\":25073:25079  amount */\n      dup2\n        /* \"token/xSWORD.sol\":25050:25118  _balances[account].sub(amount, 'ERC20: burn amount exceeds balance') */\n      mload(0x40)\n      dup1\n      0x60\n      add\n      0x40\n      mstore\n      dup1\n      0x22\n      dup2\n      mstore\n      0x20\n      add\n      data_149b126e7125232b4200af45303d04fba8b74653b1a295a6a561a528c33fefdd\n      0x22\n      swap2\n      codecopy\n        /* \"token/xSWORD.sol\":25050:25059  _balances */\n      0x01\n        /* \"token/xSWORD.sol\":25050:25068  _balances[account] */\n      0x00\n        /* \"token/xSWORD.sol\":25060:25067  account */\n      dup7\n        /* \"token/xSWORD.sol\":25050:25068  _balances[account] */\n      0xffffffffffffffffffffffffffffffffffffffff\n      and\n      0xffffffffffffffffffffffffffffffffffffffff\n      and\n      dup2\n      mstore\n      0x20\n      add\n      swap1\n      dup2\n      mstore\n      0x20\n      add\n      0x00\n      keccak256\n      sload\n        /* \"token/xSWORD.sol\":25050:25072  _balances[account].sub */\n      tag_138\n      swap1\n        /* \"token/xSWORD.sol\":25050:25118  _balances[account].sub(amount, 'ERC20: burn amount exceeds balance') */\n      swap3\n      swap2\n      swap1\n      0xffffffff\n      and\n      jump\t// in\n    tag_278:\n        /* \"token/xSWORD.sol\":25029:25038  _balances */\n      0x01\n        /* \"token/xSWORD.sol\":25029:25047  _balances[account] */\n      0x00\n        /* \"token/xSWORD.sol\":25039:25046  account */\n      dup5\n        /* \"token/xSWORD.sol\":25029:25047  _balances[account] */\n      0xffffffffffffffffffffffffffffffffffffffff\n      and\n      0xffffffffffffffffffffffffffffffffffffffff\n      and\n      dup2\n      mstore\n      0x20\n      add\n      swap1\n      dup2\n      mstore\n      0x20\n      add\n      0x00\n      keccak256\n        /* \"token/xSWORD.sol\":25029:25118  _balances[account] = _balances[account].sub(amount, 'ERC20: burn amount exceeds balance') */\n      dup2\n      swap1\n      sstore\n      pop\n        /* \"token/xSWORD.sol\":25144:25168  _totalSupply.sub(amount) */\n      tag_279\n        /* \"token/xSWORD.sol\":25161:25167  amount */\n      dup2\n        /* \"token/xSWORD.sol\":25144:25156  _totalSupply */\n      sload(0x03)\n        /* \"token/xSWORD.sol\":25144:25160  _totalSupply.sub */\n      tag_280\n      swap1\n        /* \"token/xSWORD.sol\":25144:25168  _totalSupply.sub(amount) */\n      swap2\n      swap1\n      0xffffffff\n      and\n      jump\t// in\n    tag_279:\n        /* \"token/xSWORD.sol\":25129:25141  _totalSupply */\n      0x03\n        /* \"token/xSWORD.sol\":25129:25168  _totalSupply = _totalSupply.sub(amount) */\n      dup2\n      swap1\n      sstore\n      pop\n        /* \"token/xSWORD.sol\":25210:25211  0 */\n      0x00\n        /* \"token/xSWORD.sol\":25184:25221  Transfer(account, address(0), amount) */\n      0xffffffffffffffffffffffffffffffffffffffff\n      and\n        /* \"token/xSWORD.sol\":25193:25200  account */\n      dup3\n        /* \"token/xSWORD.sol\":25184:25221  Transfer(account, address(0), amount) */\n      0xffffffffffffffffffffffffffffffffffffffff\n      and\n      0xddf252ad1be2c89b69c2b068fc378daa952ba7f163c4a11628f55a4df523b3ef\n        /* \"token/xSWORD.sol\":25214:25220  amount */\n      dup4\n        /* \"token/xSWORD.sol\":25184:25221  Transfer(account, address(0), amount) */\n      mload(0x40)\n      dup1\n      dup3\n      dup2\n      mstore\n      0x20\n      add\n      swap2\n      pop\n      pop\n      mload(0x40)\n      dup1\n      swap2\n      sub\n      swap1\n      log3\n        /* \"token/xSWORD.sol\":24881:25229  function _burn(address account, uint256 amount) internal {\r... */\n      pop\n      pop\n      jump\t// out\n        /* \"token/xSWORD.sol\":2261:2490  function _transferOwnership(address newOwner) internal {\r... */\n    tag_231:\n        /* \"token/xSWORD.sol\":2355:2356  0 */\n      0x00\n        /* \"token/xSWORD.sol\":2335:2357  newOwner != address(0) */\n      0xffffffffffffffffffffffffffffffffffffffff\n      and\n        /* \"token/xSWORD.sol\":2335:2343  newOwner */\n      dup2\n        /* \"token/xSWORD.sol\":2335:2357  newOwner != address(0) */\n      0xffffffffffffffffffffffffffffffffffffffff\n      and\n      eq\n      iszero\n        /* \"token/xSWORD.sol\":2327:2400  require(newOwner != address(0), 'Ownable: new owner is the zero address') */\n      tag_282\n      jumpi\n      mload(0x40)\n      0x08c379a000000000000000000000000000000000000000000000000000000000\n      dup2\n      mstore\n      0x04\n      add\n      dup1\n      dup1\n      0x20\n      add\n      dup3\n      dup2\n      sub\n      dup3\n      mstore\n      0x26\n      dup2\n      mstore\n      0x20\n      add\n      dup1\n      data_245f15ff17f551913a7a18385165551503906a406f905ac1c2437281a7cd0cfe\n      0x26\n      swap2\n      codecopy\n      0x40\n      add\n      swap2\n      pop\n      pop\n      mload(0x40)\n      dup1\n      swap2\n      sub\n      swap1\n      revert\n    tag_282:\n        /* \"token/xSWORD.sol\":2445:2453  newOwner */\n      dup1\n        /* \"token/xSWORD.sol\":2416:2454  OwnershipTransferred(_owner, newOwner) */\n      0xffffffffffffffffffffffffffffffffffffffff\n      and\n        /* \"token/xSWORD.sol\":2437:2443  _owner */\n      0x00\n      dup1\n      sload\n      swap1\n      0x0100\n      exp\n      swap1\n      div\n      0xffffffffffffffffffffffffffffffffffffffff\n      and\n        /* \"token/xSWORD.sol\":2416:2454  OwnershipTransferred(_owner, newOwner) */\n      0xffffffffffffffffffffffffffffffffffffffff\n      and\n      0x8be0079c531659141344cd1fd0a4f28419497f9722a3daafe3b4186f6b6457e0\n      mload(0x40)\n      mload(0x40)\n      dup1\n      swap2\n      sub\n      swap1\n      log3\n        /* \"token/xSWORD.sol\":2474:2482  newOwner */\n      dup1\n        /* \"token/xSWORD.sol\":2465:2471  _owner */\n      0x00\n      dup1\n        /* \"token/xSWORD.sol\":2465:2482  _owner = newOwner */\n      0x0100\n      exp\n      dup2\n      sload\n      dup2\n      0xffffffffffffffffffffffffffffffffffffffff\n      mul\n      not\n      and\n      swap1\n      dup4\n      0xffffffffffffffffffffffffffffffffffffffff\n      and\n      mul\n      or\n      swap1\n      sstore\n      pop\n        /* \"token/xSWORD.sol\":2261:2490  function _transferOwnership(address newOwner) internal {\r... */\n      pop\n      jump\t// out\n        /* \"token/xSWORD.sol\":29873:29982  function _length(Set storage set) private view returns (uint256) {\r... */\n    tag_234:\n        /* \"token/xSWORD.sol\":29929:29936  uint256 */\n      0x00\n        /* \"token/xSWORD.sol\":29956:29959  set */\n      dup2\n        /* \"token/xSWORD.sol\":29956:29967  set._values */\n      0x00\n      add\n        /* \"token/xSWORD.sol\":29956:29974  set._values.length */\n      dup1\n      sload\n      swap1\n      pop\n        /* \"token/xSWORD.sol\":29949:29974  return set._values.length */\n      swap1\n      pop\n        /* \"token/xSWORD.sol\":29873:29982  function _length(Set storage set) private view returns (uint256) {\r... */\n      swap2\n      swap1\n      pop\n      jump\t// out\n        /* \"token/xSWORD.sol\":28015:29572  function _remove(Set storage set, bytes32 value) private returns (bool) {\r... */\n    tag_241:\n        /* \"token/xSWORD.sol\":28081:28085  bool */\n      0x00\n        /* \"token/xSWORD.sol\":28199:28217  uint256 valueIndex */\n      dup1\n        /* \"token/xSWORD.sol\":28220:28223  set */\n      dup4\n        /* \"token/xSWORD.sol\":28220:28232  set._indexes */\n      0x01\n      add\n        /* \"token/xSWORD.sol\":28220:28239  set._indexes[value] */\n      0x00\n        /* \"token/xSWORD.sol\":28233:28238  value */\n      dup5\n        /* \"token/xSWORD.sol\":28220:28239  set._indexes[value] */\n      dup2\n      mstore\n      0x20\n      add\n      swap1\n      dup2\n      mstore\n      0x20\n      add\n      0x00\n      keccak256\n      sload\n        /* \"token/xSWORD.sol\":28199:28239  uint256 valueIndex = set._indexes[value] */\n      swap1\n      pop\n        /* \"token/xSWORD.sol\":28270:28271  0 */\n      0x00\n        /* \"token/xSWORD.sol\":28256:28266  valueIndex */\n      dup2\n        /* \"token/xSWORD.sol\":28256:28271  valueIndex != 0 */\n      eq\n        /* \"token/xSWORD.sol\":28252:29565  if (valueIndex != 0) {\r... */\n      tag_285\n      jumpi\n        /* \"token/xSWORD.sol\":28631:28652  uint256 toDeleteIndex */\n      0x00\n        /* \"token/xSWORD.sol\":28668:28669  1 */\n      0x01\n        /* \"token/xSWORD.sol\":28655:28665  valueIndex */\n      dup3\n        /* \"token/xSWORD.sol\":28655:28669  valueIndex - 1 */\n      sub\n        /* \"token/xSWORD.sol\":28631:28669  uint256 toDeleteIndex = valueIndex - 1 */\n      swap1\n      pop\n        /* \"token/xSWORD.sol\":28684:28701  uint256 lastIndex */\n      0x00\n        /* \"token/xSWORD.sol\":28725:28726  1 */\n      0x01\n        /* \"token/xSWORD.sol\":28704:28707  set */\n      dup7\n        /* \"token/xSWORD.sol\":28704:28715  set._values */\n      0x00\n      add\n        /* \"token/xSWORD.sol\":28704:28722  set._values.length */\n      dup1\n      sload\n      swap1\n      pop\n        /* \"token/xSWORD.sol\":28704:28726  set._values.length - 1 */\n      sub\n        /* \"token/xSWORD.sol\":28684:28726  uint256 lastIndex = set._values.length - 1 */\n      swap1\n      pop\n        /* \"token/xSWORD.sol\":28971:28988  bytes32 lastvalue */\n      0x00\n        /* \"token/xSWORD.sol\":28991:28994  set */\n      dup7\n        /* \"token/xSWORD.sol\":28991:29002  set._values */\n      0x00\n      add\n        /* \"token/xSWORD.sol\":29003:29012  lastIndex */\n      dup3\n        /* \"token/xSWORD.sol\":28991:29013  set._values[lastIndex] */\n      dup2\n      sload\n      dup2\n      lt\n      tag_286\n      jumpi\n      invalid\n    tag_286:\n      swap1\n      0x00\n      mstore\n      keccak256(0x00, 0x20)\n      add\n      sload\n        /* \"token/xSWORD.sol\":28971:29013  bytes32 lastvalue = set._values[lastIndex] */\n      swap1\n      pop\n        /* \"token/xSWORD.sol\":29137:29146  lastvalue */\n      dup1\n        /* \"token/xSWORD.sol\":29108:29111  set */\n      dup8\n        /* \"token/xSWORD.sol\":29108:29119  set._values */\n      0x00\n      add\n        /* \"token/xSWORD.sol\":29120:29133  toDeleteIndex */\n      dup5\n        /* \"token/xSWORD.sol\":29108:29134  set._values[toDeleteIndex] */\n      dup2\n      sload\n      dup2\n      lt\n      tag_288\n      jumpi\n      invalid\n    tag_288:\n      swap1\n      0x00\n      mstore\n      keccak256(0x00, 0x20)\n      add\n        /* \"token/xSWORD.sol\":29108:29146  set._values[toDeleteIndex] = lastvalue */\n      dup2\n      swap1\n      sstore\n      pop\n        /* \"token/xSWORD.sol\":29256:29257  1 */\n      0x01\n        /* \"token/xSWORD.sol\":29240:29253  toDeleteIndex */\n      dup4\n        /* \"token/xSWORD.sol\":29240:29257  toDeleteIndex + 1 */\n      add\n        /* \"token/xSWORD.sol\":29214:29217  set */\n      dup8\n        /* \"token/xSWORD.sol\":29214:29226  set._indexes */\n      0x01\n      add\n        /* \"token/xSWORD.sol\":29214:29237  set._indexes[lastvalue] */\n      0x00\n        /* \"token/xSWORD.sol\":29227:29236  lastvalue */\n      dup4\n        /* \"token/xSWORD.sol\":29214:29237  set._indexes[lastvalue] */\n      dup2\n      mstore\n      0x20\n      add\n      swap1\n      dup2\n      mstore\n      0x20\n      add\n      0x00\n      keccak256\n        /* \"token/xSWORD.sol\":29214:29257  set._indexes[lastvalue] = toDeleteIndex + 1 */\n      dup2\n      swap1\n      sstore\n      pop\n        /* \"token/xSWORD.sol\":29366:29369  set */\n      dup7\n        /* \"token/xSWORD.sol\":29366:29377  set._values */\n      0x00\n      add\n        /* \"token/xSWORD.sol\":29366:29383  set._values.pop() */\n      dup1\n      sload\n      dup1\n      tag_290\n      jumpi\n      invalid\n    tag_290:\n      0x01\n      swap1\n      sub\n      dup2\n      dup2\n      swap1\n      0x00\n      mstore\n      keccak256(0x00, 0x20)\n      add\n      0x00\n      swap1\n      sstore\n      swap1\n      sstore\n        /* \"token/xSWORD.sol\":29461:29464  set */\n      dup7\n        /* \"token/xSWORD.sol\":29461:29473  set._indexes */\n      0x01\n      add\n        /* \"token/xSWORD.sol\":29461:29480  set._indexes[value] */\n      0x00\n        /* \"token/xSWORD.sol\":29474:29479  value */\n      dup8\n        /* \"token/xSWORD.sol\":29461:29480  set._indexes[value] */\n      dup2\n      mstore\n      0x20\n      add\n      swap1\n      dup2\n      mstore\n      0x20\n      add\n      0x00\n      keccak256\n        /* \"token/xSWORD.sol\":29454:29480  delete set._indexes[value] */\n      0x00\n      swap1\n      sstore\n        /* \"token/xSWORD.sol\":29504:29508  true */\n      0x01\n        /* \"token/xSWORD.sol\":29497:29508  return true */\n      swap5\n      pop\n      pop\n      pop\n      pop\n      pop\n      jump(tag_284)\n        /* \"token/xSWORD.sol\":28252:29565  if (valueIndex != 0) {\r... */\n    tag_285:\n        /* \"token/xSWORD.sol\":29548:29553  false */\n      0x00\n        /* \"token/xSWORD.sol\":29541:29553  return false */\n      swap2\n      pop\n      pop\n        /* \"token/xSWORD.sol\":28015:29572  function _remove(Set storage set, bytes32 value) private returns (bool) {\r... */\n    tag_284:\n      swap3\n      swap2\n      pop\n      pop\n      jump\t// out\n        /* \"token/xSWORD.sol\":30336:30540  function _at(Set storage set, uint256 index) private view returns (bytes32) {\r... */\n    tag_263:\n        /* \"token/xSWORD.sol\":30403:30410  bytes32 */\n      0x00\n        /* \"token/xSWORD.sol\":30452:30457  index */\n      dup2\n        /* \"token/xSWORD.sol\":30431:30434  set */\n      dup4\n        /* \"token/xSWORD.sol\":30431:30442  set._values */\n      0x00\n      add\n        /* \"token/xSWORD.sol\":30431:30449  set._values.length */\n      dup1\n      sload\n      swap1\n      pop\n        /* \"token/xSWORD.sol\":30431:30457  set._values.length > index */\n      gt\n        /* \"token/xSWORD.sol\":30423:30496  require(set._values.length > index, 'EnumerableSet: index out of bounds') */\n      tag_294\n      jumpi\n      mload(0x40)\n      0x08c379a000000000000000000000000000000000000000000000000000000000\n      dup2\n      mstore\n      0x04\n      add\n      dup1\n      dup1\n      0x20\n      add\n      dup3\n      dup2\n      sub\n      dup3\n      mstore\n      0x22\n      dup2\n      mstore\n      0x20\n      add\n      dup1\n      data_045d6834e6193a687012a3ad777f612279e549b6945364d9d2324f48610d3cbb\n      0x22\n      swap2\n      codecopy\n      0x40\n      add\n      swap2\n      pop\n      pop\n      mload(0x40)\n      dup1\n      swap2\n      sub\n      swap1\n      revert\n    tag_294:\n        /* \"token/xSWORD.sol\":30514:30517  set */\n      dup3\n        /* \"token/xSWORD.sol\":30514:30525  set._values */\n      0x00\n      add\n        /* \"token/xSWORD.sol\":30526:30531  index */\n      dup3\n        /* \"token/xSWORD.sol\":30514:30532  set._values[index] */\n      dup2\n      sload\n      dup2\n      lt\n      tag_295\n      jumpi\n      invalid\n    tag_295:\n      swap1\n      0x00\n      mstore\n      keccak256(0x00, 0x20)\n      add\n      sload\n        /* \"token/xSWORD.sol\":30507:30532  return set._values[index] */\n      swap1\n      pop\n        /* \"token/xSWORD.sol\":30336:30540  function _at(Set storage set, uint256 index) private view returns (bytes32) {\r... */\n      swap3\n      swap2\n      pop\n      pop\n      jump\t// out\n        /* \"token/xSWORD.sol\":27425:27839  function _add(Set storage set, bytes32 value) private returns (bool) {\r... */\n    tag_272:\n        /* \"token/xSWORD.sol\":27488:27492  bool */\n      0x00\n        /* \"token/xSWORD.sol\":27510:27531  _contains(set, value) */\n      tag_298\n        /* \"token/xSWORD.sol\":27520:27523  set */\n      dup4\n        /* \"token/xSWORD.sol\":27525:27530  value */\n      dup4\n        /* \"token/xSWORD.sol\":27510:27519  _contains */\n      tag_275\n        /* \"token/xSWORD.sol\":27510:27531  _contains(set, value) */\n      jump\t// in\n    tag_298:\n        /* \"token/xSWORD.sol\":27505:27832  if (!_contains(set, value)) {\r... */\n      tag_299\n      jumpi\n        /* \"token/xSWORD.sol\":27548:27551  set */\n      dup3\n        /* \"token/xSWORD.sol\":27548:27559  set._values */\n      0x00\n      add\n        /* \"token/xSWORD.sol\":27565:27570  value */\n      dup3\n        /* \"token/xSWORD.sol\":27548:27571  set._values.push(value) */\n      swap1\n      dup1\n      0x01\n      dup2\n      sload\n      add\n      dup1\n      dup3\n      sstore\n      dup1\n      swap2\n      pop\n      pop\n      0x01\n      swap1\n      sub\n      swap1\n      0x00\n      mstore\n      keccak256(0x00, 0x20)\n      add\n      0x00\n      swap1\n      swap2\n      swap1\n      swap2\n      swap1\n      swap2\n      pop\n      sstore\n        /* \"token/xSWORD.sol\":27731:27734  set */\n      dup3\n        /* \"token/xSWORD.sol\":27731:27742  set._values */\n      0x00\n      add\n        /* \"token/xSWORD.sol\":27731:27749  set._values.length */\n      dup1\n      sload\n      swap1\n      pop\n        /* \"token/xSWORD.sol\":27709:27712  set */\n      dup4\n        /* \"token/xSWORD.sol\":27709:27721  set._indexes */\n      0x01\n      add\n        /* \"token/xSWORD.sol\":27709:27728  set._indexes[value] */\n      0x00\n        /* \"token/xSWORD.sol\":27722:27727  value */\n      dup5\n        /* \"token/xSWORD.sol\":27709:27728  set._indexes[value] */\n      dup2\n      mstore\n      0x20\n      add\n      swap1\n      dup2\n      mstore\n      0x20\n      add\n      0x00\n      keccak256\n        /* \"token/xSWORD.sol\":27709:27749  set._indexes[value] = set._values.length */\n      dup2\n      swap1\n      sstore\n      pop\n        /* \"token/xSWORD.sol\":27771:27775  true */\n      0x01\n        /* \"token/xSWORD.sol\":27764:27775  return true */\n      swap1\n      pop\n      jump(tag_297)\n        /* \"token/xSWORD.sol\":27505:27832  if (!_contains(set, value)) {\r... */\n    tag_299:\n        /* \"token/xSWORD.sol\":27815:27820  false */\n      0x00\n        /* \"token/xSWORD.sol\":27808:27820  return false */\n      swap1\n      pop\n        /* \"token/xSWORD.sol\":27425:27839  function _add(Set storage set, bytes32 value) private returns (bool) {\r... */\n    tag_297:\n      swap3\n      swap2\n      pop\n      pop\n      jump\t// out\n        /* \"token/xSWORD.sol\":29658:29787  function _contains(Set storage set, bytes32 value) private view returns (bool) {\r... */\n    tag_275:\n        /* \"token/xSWORD.sol\":29731:29735  bool */\n      0x00\n        /* \"token/xSWORD.sol\":29778:29779  0 */\n      dup1\n        /* \"token/xSWORD.sol\":29755:29758  set */\n      dup4\n        /* \"token/xSWORD.sol\":29755:29767  set._indexes */\n      0x01\n      add\n        /* \"token/xSWORD.sol\":29755:29774  set._indexes[value] */\n      0x00\n        /* \"token/xSWORD.sol\":29768:29773  value */\n      dup5\n        /* \"token/xSWORD.sol\":29755:29774  set._indexes[value] */\n      dup2\n      mstore\n      0x20\n      add\n      swap1\n      dup2\n      mstore\n      0x20\n      add\n      0x00\n      keccak256\n      sload\n        /* \"token/xSWORD.sol\":29755:29779  set._indexes[value] != 0 */\n      eq\n      iszero\n        /* \"token/xSWORD.sol\":29748:29779  return set._indexes[value] != 0 */\n      swap1\n      pop\n        /* \"token/xSWORD.sol\":29658:29787  function _contains(Set storage set, bytes32 value) private view returns (bool) {\r... */\n      swap3\n      swap2\n      pop\n      pop\n      jump\t// out\n        /* \"token/xSWORD.sol\":6430:6566  function sub(uint256 a, uint256 b) internal pure returns (uint256) {\r... */\n    tag_280:\n        /* \"token/xSWORD.sol\":6488:6495  uint256 */\n      0x00\n        /* \"token/xSWORD.sol\":6515:6558  sub(a, b, 'SafeMath: subtraction overflow') */\n      tag_304\n        /* \"token/xSWORD.sol\":6519:6520  a */\n      dup4\n        /* \"token/xSWORD.sol\":6522:6523  b */\n      dup4\n        /* \"token/xSWORD.sol\":6515:6558  sub(a, b, 'SafeMath: subtraction overflow') */\n      mload(0x40)\n      dup1\n      0x40\n      add\n      0x40\n      mstore\n      dup1\n      0x1e\n      dup2\n      mstore\n      0x20\n      add\n      0x536166654d6174683a207375627472616374696f6e206f766572666c6f770000\n      dup2\n      mstore\n      pop\n        /* \"token/xSWORD.sol\":6515:6518  sub */\n      tag_138\n        /* \"token/xSWORD.sol\":6515:6558  sub(a, b, 'SafeMath: subtraction overflow') */\n      jump\t// in\n    tag_304:\n        /* \"token/xSWORD.sol\":6508:6558  return sub(a, b, 'SafeMath: subtraction overflow') */\n      swap1\n      pop\n        /* \"token/xSWORD.sol\":6430:6566  function sub(uint256 a, uint256 b) internal pure returns (uint256) {\r... */\n      swap3\n      swap2\n      pop\n      pop\n      jump\t// out\n    stop\n    data_045d6834e6193a687012a3ad777f612279e549b6945364d9d2324f48610d3cbb 456e756d657261626c655365743a20696e646578206f7574206f6620626f756e6473\n    data_0557e210f7a69a685100a7e4e3d0a7024c546085cee28910fd17d0b081d9516f 45524332303a207472616e7366657220746f20746865207a65726f2061646472657373\n    data_12366718bb4bdba5cd8e334c3d70de8a909c9e34fa37049e38ad9c00f68bada9 784d4d463a205f64656c4d696e74657220697320746865207a65726f2061646472657373\n    data_149b126e7125232b4200af45303d04fba8b74653b1a295a6a561a528c33fefdd 45524332303a206275726e20616d6f756e7420657863656564732062616c616e6365\n    data_245f15ff17f551913a7a18385165551503906a406f905ac1c2437281a7cd0cfe 4f776e61626c653a206e6577206f776e657220697320746865207a65726f2061646472657373\n    data_24883cc5fe64ace9d0df1893501ecb93c77180f0ff69cca79affb3c316dc8029 45524332303a20617070726f766520746f20746865207a65726f2061646472657373\n    data_4107e8a8b9e94bf8ff83080ddec1c0bffe897ebc2241b89d44f66b3d274088b6 45524332303a207472616e7366657220616d6f756e7420657863656564732062616c616e6365\n    data_605d3324af8f3831fc628a1c8b7c29d23e726c6ab52b45e6faf53e8a7c6ce3ce 784d4d463a205f6164644d696e74657220697320746865207a65726f2061646472657373\n    data_974d1b4421da69cc60b481194f0dad36a5bb4e23da810da7a7fb30cdba178330 45524332303a207472616e7366657220616d6f756e74206578636565647320616c6c6f77616e6365\n    data_a287c363786607a1457a2d9d12fa61c0073358e02d76b4035fc2c2d86a19c0db 45524332303a206275726e20616d6f756e74206578636565647320616c6c6f77616e6365\n    data_b16788493b576042bb52c50ed56189e0b250db113c7bfb1c3897d25cf9632d7f 45524332303a206275726e2066726f6d20746865207a65726f2061646472657373\n    data_baecc556b46f4ed0f2b4cb599d60785ac8563dd2dc0a5bf12edea1c39e5e1fea 45524332303a207472616e736665722066726f6d20746865207a65726f2061646472657373\n    data_c953f4879035ed60e766b34720f656aab5c697b141d924c283124ecedb91c208 45524332303a20617070726f76652066726f6d20746865207a65726f2061646472657373\n    data_f8b476f7d28209d77d4a4ac1fe36b9f8259aa1bb6bddfa6e89de7e51615cf8a8 45524332303a2064656372656173656420616c6c6f77616e63652062656c6f77207a65726f\n\n    auxdata: 0xa26469706673582212203f5d9fb7a6560b9fdba077d883f151db413a68ddce6a6bc51b3bc457ad130cf764736f6c634300060c0033\n}\n",
				"bytecode": {
					"linkReferences": {},
					"object": "60806040523480156200001157600080fd5b5060405162002e0938038062002e09833981810160405260208110156200003757600080fd5b81019080805190602001909291905050506040518060400160405280601881526020017f655a4b616c6962757220657363726f77656420546f6b656e00000000000000008152506040518060400160405280600681526020017f7853574f524400000000000000000000000000000000000000000000000000008152506000620000c6620001fc60201b60201c565b9050806000806101000a81548173ffffffffffffffffffffffffffffffffffffffff021916908373ffffffffffffffffffffffffffffffffffffffff1602179055508073ffffffffffffffffffffffffffffffffffffffff16600073ffffffffffffffffffffffffffffffffffffffff167f8be0079c531659141344cd1fd0a4f28419497f9722a3daafe3b4186f6b6457e060405160405180910390a35081600490805190602001906200017c92919062000204565b5080600590805190602001906200019592919062000204565b506012600660006101000a81548160ff021916908360ff160217905550505080600960006101000a81548173ffffffffffffffffffffffffffffffffffffffff021916908373ffffffffffffffffffffffffffffffffffffffff16021790555050620002aa565b600033905090565b828054600181600116156101000203166002900490600052602060002090601f016020900481019282601f106200024757805160ff191683800117855562000278565b8280016001018555821562000278579182015b82811115620002775782518255916020019190600101906200025a565b5b5090506200028791906200028b565b5090565b5b80821115620002a65760008160009055506001016200028c565b5090565b612b4f80620002ba6000396000f3fe608060405234801561001057600080fd5b506004361061018e5760003560e01c8063893d20e8116100de578063a9059cbb11610097578063db006a7511610071578063db006a751461084e578063dd4670641461087c578063dd62ed3e146108aa578063f2fde38b146109225761018e565b8063a9059cbb14610772578063aa271e1a146107d6578063d5abeb01146108305761018e565b8063893d20e8146105855780638da5cb5b146105b957806395d89b41146105ed578063983b2d5614610670578063a0712d68146106ca578063a457c2d71461070e5761018e565b8063313ce5671161014b5780635b7121f8116101255780635b7121f81461047d57806370a08231146104d5578063715018a61461052d57806379cc6790146105375761018e565b8063313ce5671461039457806339509351146103b557806340c10f19146104195761018e565b80630323aac71461019357806306fdde03146101b1578063095ea7b31461023457806318160ddd1461029857806323338b88146102b657806323b872dd14610310575b600080fd5b61019b610966565b6040518082815260200191505060405180910390f35b6101b9610977565b6040518080602001828103825283818151815260200191508051906020019080838360005b838110156101f95780820151818401526020810190506101de565b50505050905090810190601f1680156102265780820380516001836020036101000a031916815260200191505b509250505060405180910390f35b6102806004803603604081101561024a57600080fd5b81019080803573ffffffffffffffffffffffffffffffffffffffff16906020019092919080359060200190929190505050610a19565b60405180821515815260200191505060405180910390f35b6102a0610a37565b6040518082815260200191505060405180910390f35b6102f8600480360360208110156102cc57600080fd5b81019080803573ffffffffffffffffffffffffffffffffffffffff169060200190929190505050610a41565b60405180821515815260200191505060405180910390f35b61037c6004803603606081101561032657600080fd5b81019080803573ffffffffffffffffffffffffffffffffffffffff169060200190929190803573ffffffffffffffffffffffffffffffffffffffff16906020019092919080359060200190929190505050610ba3565b60405180821515815260200191505060405180910390f35b61039c610c7c565b604051808260ff16815260200191505060405180910390f35b610401600480360360408110156103cb57600080fd5b81019080803573ffffffffffffffffffffffffffffffffffffffff16906020019092919080359060200190929190505050610c93565b60405180821515815260200191505060405180910390f35b6104656004803603604081101561042f57600080fd5b81019080803573ffffffffffffffffffffffffffffffffffffffff16906020019092919080359060200190929190505050610d46565b60405180821515815260200191505060405180910390f35b6104a96004803603602081101561049357600080fd5b8101908080359060200190929190505050610ea7565b604051808273ffffffffffffffffffffffffffffffffffffffff16815260200191505060405180910390f35b610517600480360360208110156104eb57600080fd5b81019080803573ffffffffffffffffffffffffffffffffffffffff169060200190929190505050611003565b6040518082815260200191505060405180910390f35b61053561104c565b005b6105836004803603604081101561054d57600080fd5b81019080803573ffffffffffffffffffffffffffffffffffffffff169060200190929190803590602001909291905050506111d2565b005b61058d6111e0565b604051808273ffffffffffffffffffffffffffffffffffffffff16815260200191505060405180910390f35b6105c16111ef565b604051808273ffffffffffffffffffffffffffffffffffffffff16815260200191505060405180910390f35b6105f5611218565b6040518080602001828103825283818151815260200191508051906020019080838360005b8381101561063557808201518184015260208101905061061a565b50505050905090810190601f1680156106625780820380516001836020036101000a031916815260200191505b509250505060405180910390f35b6106b26004803603602081101561068657600080fd5b81019080803573ffffffffffffffffffffffffffffffffffffffff1690602001909291905050506112ba565b60405180821515815260200191505060405180910390f35b6106f6600480360360208110156106e057600080fd5b810190808035906020019092919050505061141c565b60405180821515815260200191505060405180910390f35b61075a6004803603604081101561072457600080fd5b81019080803573ffffffffffffffffffffffffffffffffffffffff16906020019092919080359060200190929190505050611501565b60405180821515815260200191505060405180910390f35b6107be6004803603604081101561078857600080fd5b81019080803573ffffffffffffffffffffffffffffffffffffffff169060200190929190803590602001909291905050506115ce565b60405180821515815260200191505060405180910390f35b610818600480360360208110156107ec57600080fd5b81019080803573ffffffffffffffffffffffffffffffffffffffff1690602001909291905050506115ec565b60405180821515815260200191505060405180910390f35b610838611600565b6040518082815260200191505060405180910390f35b61087a6004803603602081101561086457600080fd5b8101908080359060200190929190505050611613565b005b6108a86004803603602081101561089257600080fd5b8101908080359060200190929190505050611772565b005b61090c600480360360408110156108c057600080fd5b81019080803573ffffffffffffffffffffffffffffffffffffffff169060200190929190803573ffffffffffffffffffffffffffffffffffffffff1690602001909291905050506118f0565b6040518082815260200191505060405180910390f35b6109646004803603602081101561093857600080fd5b81019080803573ffffffffffffffffffffffffffffffffffffffff169060200190929190505050611977565b005b60006109726007611a4b565b905090565b606060048054600181600116156101000203166002900480601f016020809104026020016040519081016040528092919081815260200182805460018160011615610100020316600290048015610a0f5780601f106109e457610100808354040283529160200191610a0f565b820191906000526020600020905b8154815290600101906020018083116109f257829003601f168201915b5050505050905090565b6000610a2d610a26611a60565b8484611a68565b6001905092915050565b6000600354905090565b6000610a4b611a60565b73ffffffffffffffffffffffffffffffffffffffff1660008054906101000a900473ffffffffffffffffffffffffffffffffffffffff1673ffffffffffffffffffffffffffffffffffffffff1614610b0b576040517f08c379a00000000000000000000000000000000000000000000000000000000081526004018080602001828103825260208152602001807f4f776e61626c653a2063616c6c6572206973206e6f7420746865206f776e657281525060200191505060405180910390fd5b600073ffffffffffffffffffffffffffffffffffffffff168273ffffffffffffffffffffffffffffffffffffffff161415610b91576040517f08c379a00000000000000000000000000000000000000000000000000000000081526004018080602001828103825260248152602001806129676024913960400191505060405180910390fd5b610b9c600783611c5f565b9050919050565b6000610bb0848484611c8f565b610c7184610bbc611a60565b610c6c85604051806060016040528060288152602001612a3f60289139600260008b73ffffffffffffffffffffffffffffffffffffffff1673ffffffffffffffffffffffffffffffffffffffff1681526020019081526020016000206000610c22611a60565b73ffffffffffffffffffffffffffffffffffffffff1673ffffffffffffffffffffffffffffffffffffffff16815260200190815260200160002054611f499092919063ffffffff16565b611a68565b600190509392505050565b6000600660009054906101000a900460ff16905090565b6000610d3c610ca0611a60565b84610d378560026000610cb1611a60565b73ffffffffffffffffffffffffffffffffffffffff1673ffffffffffffffffffffffffffffffffffffffff16815260200190815260200160002060008973ffffffffffffffffffffffffffffffffffffffff1673ffffffffffffffffffffffffffffffffffffffff1681526020019081526020016000205461200990919063ffffffff16565b611a68565b6001905092915050565b6000610d51336115ec565b610dc3576040517f08c379a00000000000000000000000000000000000000000000000000000000081526004018080602001828103825260188152602001807f63616c6c6572206973206e6f7420746865206d696e746572000000000000000081525060200191505060405180910390fd5b600960009054906101000a900473ffffffffffffffffffffffffffffffffffffffff1673ffffffffffffffffffffffffffffffffffffffff166340c10f1930846040518363ffffffff1660e01b8152600401808373ffffffffffffffffffffffffffffffffffffffff16815260200182815260200192505050602060405180830381600087803b158015610e5657600080fd5b505af1158015610e6a573d6000803e3d6000fd5b505050506040513d6020811015610e8057600080fd5b810190808051906020019092919050505050610e9c8383612091565b506001905092915050565b6000610eb1611a60565b73ffffffffffffffffffffffffffffffffffffffff1660008054906101000a900473ffffffffffffffffffffffffffffffffffffffff1673ffffffffffffffffffffffffffffffffffffffff1614610f71576040517f08c379a00000000000000000000000000000000000000000000000000000000081526004018080602001828103825260208152602001807f4f776e61626c653a2063616c6c6572206973206e6f7420746865206f776e657281525060200191505060405180910390fd5b6001610f7b610966565b03821115610ff1576040517f08c379a00000000000000000000000000000000000000000000000000000000081526004018080602001828103825260198152602001807f784d4d463a20696e646578206f7574206f6620626f756e64730000000000000081525060200191505060405180910390fd5b610ffc600783612282565b9050919050565b6000600160008373ffffffffffffffffffffffffffffffffffffffff1673ffffffffffffffffffffffffffffffffffffffff168152602001908152602001600020549050919050565b611054611a60565b73ffffffffffffffffffffffffffffffffffffffff1660008054906101000a900473ffffffffffffffffffffffffffffffffffffffff1673ffffffffffffffffffffffffffffffffffffffff1614611114576040517f08c379a00000000000000000000000000000000000000000000000000000000081526004018080602001828103825260208152602001807f4f776e61626c653a2063616c6c6572206973206e6f7420746865206f776e657281525060200191505060405180910390fd5b600073ffffffffffffffffffffffffffffffffffffffff1660008054906101000a900473ffffffffffffffffffffffffffffffffffffffff1673ffffffffffffffffffffffffffffffffffffffff167f8be0079c531659141344cd1fd0a4f28419497f9722a3daafe3b4186f6b6457e060405160405180910390a360008060006101000a81548173ffffffffffffffffffffffffffffffffffffffff021916908373ffffffffffffffffffffffffffffffffffffffff160217905550565b6111dc828261229c565b5050565b60006111ea6111ef565b905090565b60008060009054906101000a900473ffffffffffffffffffffffffffffffffffffffff16905090565b606060058054600181600116156101000203166002900480601f0160208091040260200160405190810160405280929190818152602001828054600181600116156101000203166002900480156112b05780601f10611285576101008083540402835291602001916112b0565b820191906000526020600020905b81548152906001019060200180831161129357829003601f168201915b5050505050905090565b60006112c4611a60565b73ffffffffffffffffffffffffffffffffffffffff1660008054906101000a900473ffffffffffffffffffffffffffffffffffffffff1673ffffffffffffffffffffffffffffffffffffffff1614611384576040517f08c379a00000000000000000000000000000000000000000000000000000000081526004018080602001828103825260208152602001807f4f776e61626c653a2063616c6c6572206973206e6f7420746865206f776e657281525060200191505060405180910390fd5b600073ffffffffffffffffffffffffffffffffffffffff168273ffffffffffffffffffffffffffffffffffffffff16141561140a576040517f08c379a0000000000000000000000000000000000000000000000000000000008152600401808060200182810382526024815260200180612a1b6024913960400191505060405180910390fd5b61141560078361236b565b9050919050565b6000611426611a60565b73ffffffffffffffffffffffffffffffffffffffff1660008054906101000a900473ffffffffffffffffffffffffffffffffffffffff1673ffffffffffffffffffffffffffffffffffffffff16146114e6576040517f08c379a00000000000000000000000000000000000000000000000000000000081526004018080602001828103825260208152602001807f4f776e61626c653a2063616c6c6572206973206e6f7420746865206f776e657281525060200191505060405180910390fd5b6114f76114f1611a60565b83612091565b5060019050919050565b60006115c461150e611a60565b846115bf85604051806060016040528060258152602001612af56025913960026000611538611a60565b73ffffffffffffffffffffffffffffffffffffffff1673ffffffffffffffffffffffffffffffffffffffff16815260200190815260200160002060008a73ffffffffffffffffffffffffffffffffffffffff1673ffffffffffffffffffffffffffffffffffffffff16815260200190815260200160002054611f499092919063ffffffff16565b611a68565b6001905092915050565b60006115e26115db611a60565b8484611c8f565b6001905092915050565b60006115f960078361239b565b9050919050565b60006a084595161401484a000000905090565b61161c336115ec565b61168e576040517f08c379a00000000000000000000000000000000000000000000000000000000081526004018080602001828103825260188152602001807f63616c6c6572206973206e6f7420746865206d696e746572000000000000000081525060200191505060405180910390fd5b600960009054906101000a900473ffffffffffffffffffffffffffffffffffffffff1673ffffffffffffffffffffffffffffffffffffffff1663a9059cbb33836040518363ffffffff1660e01b8152600401808373ffffffffffffffffffffffffffffffffffffffff16815260200182815260200192505050602060405180830381600087803b15801561172157600080fd5b505af1158015611735573d6000803e3d6000fd5b505050506040513d602081101561174b57600080fd5b810190808051906020019092919050505061176557600080fd5b61176f33826123cb565b50565b61177b336115ec565b6117ed576040517f08c379a00000000000000000000000000000000000000000000000000000000081526004018080602001828103825260188152602001807f63616c6c6572206973206e6f7420746865206d696e746572000000000000000081525060200191505060405180910390fd5b600960009054906101000a900473ffffffffffffffffffffffffffffffffffffffff1673ffffffffffffffffffffffffffffffffffffffff166323b872dd3330846040518463ffffffff1660e01b8152600401808473ffffffffffffffffffffffffffffffffffffffff1681526020018373ffffffffffffffffffffffffffffffffffffffff1681526020018281526020019350505050602060405180830381600087803b15801561189e57600080fd5b505af11580156118b2573d6000803e3d6000fd5b505050506040513d60208110156118c857600080fd5b81019080805190602001909291905050506118e257600080fd5b6118ec3382612091565b5050565b6000600260008473ffffffffffffffffffffffffffffffffffffffff1673ffffffffffffffffffffffffffffffffffffffff16815260200190815260200160002060008373ffffffffffffffffffffffffffffffffffffffff1673ffffffffffffffffffffffffffffffffffffffff16815260200190815260200160002054905092915050565b61197f611a60565b73ffffffffffffffffffffffffffffffffffffffff1660008054906101000a900473ffffffffffffffffffffffffffffffffffffffff1673ffffffffffffffffffffffffffffffffffffffff1614611a3f576040517f08c379a00000000000000000000000000000000000000000000000000000000081526004018080602001828103825260208152602001807f4f776e61626c653a2063616c6c6572206973206e6f7420746865206f776e657281525060200191505060405180910390fd5b611a4881612585565b50565b6000611a59826000016126c8565b9050919050565b600033905090565b600073ffffffffffffffffffffffffffffffffffffffff168373ffffffffffffffffffffffffffffffffffffffff161415611aee576040517f08c379a0000000000000000000000000000000000000000000000000000000008152600401808060200182810382526024815260200180612ad16024913960400191505060405180910390fd5b600073ffffffffffffffffffffffffffffffffffffffff168273ffffffffffffffffffffffffffffffffffffffff161415611b74576040517f08c379a00000000000000000000000000000000000000000000000000000000081526004018080602001828103825260228152602001806129d36022913960400191505060405180910390fd5b80600260008573ffffffffffffffffffffffffffffffffffffffff1673ffffffffffffffffffffffffffffffffffffffff16815260200190815260200160002060008473ffffffffffffffffffffffffffffffffffffffff1673ffffffffffffffffffffffffffffffffffffffff168152602001908152602001600020819055508173ffffffffffffffffffffffffffffffffffffffff168373ffffffffffffffffffffffffffffffffffffffff167f8c5be1e5ebec7d5bd14f71427d1e84f3dd0314c0f7b2291e5b200ac8c7c3b925836040518082815260200191505060405180910390a3505050565b6000611c87836000018373ffffffffffffffffffffffffffffffffffffffff1660001b6126d9565b905092915050565b600073ffffffffffffffffffffffffffffffffffffffff168373ffffffffffffffffffffffffffffffffffffffff161415611d15576040517f08c379a0000000000000000000000000000000000000000000000000000000008152600401808060200182810382526025815260200180612aac6025913960400191505060405180910390fd5b600073ffffffffffffffffffffffffffffffffffffffff168273ffffffffffffffffffffffffffffffffffffffff161415611d9b576040517f08c379a00000000000000000000000000000000000000000000000000000000081526004018080602001828103825260238152602001806129446023913960400191505060405180910390fd5b611e07816040518060600160405280602681526020016129f560269139600160008773ffffffffffffffffffffffffffffffffffffffff1673ffffffffffffffffffffffffffffffffffffffff16815260200190815260200160002054611f499092919063ffffffff16565b600160008573ffffffffffffffffffffffffffffffffffffffff1673ffffffffffffffffffffffffffffffffffffffff16815260200190815260200160002081905550611e9c81600160008573ffffffffffffffffffffffffffffffffffffffff1673ffffffffffffffffffffffffffffffffffffffff1681526020019081526020016000205461200990919063ffffffff16565b600160008473ffffffffffffffffffffffffffffffffffffffff1673ffffffffffffffffffffffffffffffffffffffff168152602001908152602001600020819055508173ffffffffffffffffffffffffffffffffffffffff168373ffffffffffffffffffffffffffffffffffffffff167fddf252ad1be2c89b69c2b068fc378daa952ba7f163c4a11628f55a4df523b3ef836040518082815260200191505060405180910390a3505050565b6000838311158290611ff6576040517f08c379a00000000000000000000000000000000000000000000000000000000081526004018080602001828103825283818151815260200191508051906020019080838360005b83811015611fbb578082015181840152602081019050611fa0565b50505050905090810190601f168015611fe85780820380516001836020036101000a031916815260200191505b509250505060405180910390fd5b5060008385039050809150509392505050565b600080828401905083811015612087576040517f08c379a000000000000000000000000000000000000000000000000000000000815260040180806020018281038252601b8152602001807f536166654d6174683a206164646974696f6e206f766572666c6f77000000000081525060200191505060405180910390fd5b8091505092915050565b60008073ffffffffffffffffffffffffffffffffffffffff168373ffffffffffffffffffffffffffffffffffffffff161415612135576040517f08c379a000000000000000000000000000000000000000000000000000000000815260040180806020018281038252601f8152602001807f45524332303a206d696e7420746f20746865207a65726f20616464726573730081525060200191505060405180910390fd5b6a084595161401484a0000006121566003548461200990919063ffffffff16565b1115612165576000905061227c565b61217a8260035461200990919063ffffffff16565b6003819055506121d282600160008673ffffffffffffffffffffffffffffffffffffffff1673ffffffffffffffffffffffffffffffffffffffff1681526020019081526020016000205461200990919063ffffffff16565b600160008573ffffffffffffffffffffffffffffffffffffffff1673ffffffffffffffffffffffffffffffffffffffff168152602001908152602001600020819055508273ffffffffffffffffffffffffffffffffffffffff16600073ffffffffffffffffffffffffffffffffffffffff167fddf252ad1be2c89b69c2b068fc378daa952ba7f163c4a11628f55a4df523b3ef846040518082815260200191505060405180910390a35b92915050565b600061229183600001836127c1565b60001c905092915050565b6122a682826123cb565b612367826122b2611a60565b61236284604051806060016040528060248152602001612a6760249139600260008973ffffffffffffffffffffffffffffffffffffffff1673ffffffffffffffffffffffffffffffffffffffff1681526020019081526020016000206000612318611a60565b73ffffffffffffffffffffffffffffffffffffffff1673ffffffffffffffffffffffffffffffffffffffff16815260200190815260200160002054611f499092919063ffffffff16565b611a68565b5050565b6000612393836000018373ffffffffffffffffffffffffffffffffffffffff1660001b612844565b905092915050565b60006123c3836000018373ffffffffffffffffffffffffffffffffffffffff1660001b6128b4565b905092915050565b600073ffffffffffffffffffffffffffffffffffffffff168273ffffffffffffffffffffffffffffffffffffffff161415612451576040517f08c379a0000000000000000000000000000000000000000000000000000000008152600401808060200182810382526021815260200180612a8b6021913960400191505060405180910390fd5b6124bd8160405180606001604052806022815260200161298b60229139600160008673ffffffffffffffffffffffffffffffffffffffff1673ffffffffffffffffffffffffffffffffffffffff16815260200190815260200160002054611f499092919063ffffffff16565b600160008473ffffffffffffffffffffffffffffffffffffffff1673ffffffffffffffffffffffffffffffffffffffff16815260200190815260200160002081905550612515816003546128d790919063ffffffff16565b600381905550600073ffffffffffffffffffffffffffffffffffffffff168273ffffffffffffffffffffffffffffffffffffffff167fddf252ad1be2c89b69c2b068fc378daa952ba7f163c4a11628f55a4df523b3ef836040518082815260200191505060405180910390a35050565b600073ffffffffffffffffffffffffffffffffffffffff168173ffffffffffffffffffffffffffffffffffffffff16141561260b576040517f08c379a00000000000000000000000000000000000000000000000000000000081526004018080602001828103825260268152602001806129ad6026913960400191505060405180910390fd5b8073ffffffffffffffffffffffffffffffffffffffff1660008054906101000a900473ffffffffffffffffffffffffffffffffffffffff1673ffffffffffffffffffffffffffffffffffffffff167f8be0079c531659141344cd1fd0a4f28419497f9722a3daafe3b4186f6b6457e060405160405180910390a3806000806101000a81548173ffffffffffffffffffffffffffffffffffffffff021916908373ffffffffffffffffffffffffffffffffffffffff16021790555050565b600081600001805490509050919050565b600080836001016000848152602001908152602001600020549050600081146127b5576000600182039050600060018660000180549050039050600086600001828154811061272457fe5b906000526020600020015490508087600001848154811061274157fe5b906000526020600020018190555060018301876001016000838152602001908152602001600020819055508660000180548061277957fe5b600190038181906000526020600020016000905590558660010160008781526020019081526020016000206000905560019450505050506127bb565b60009150505b92915050565b600081836000018054905011612822576040517f08c379a00000000000000000000000000000000000000000000000000000000081526004018080602001828103825260228152602001806129226022913960400191505060405180910390fd5b82600001828154811061283157fe5b9060005260206000200154905092915050565b600061285083836128b4565b6128a95782600001829080600181540180825580915050600190039060005260206000200160009091909190915055826000018054905083600101600084815260200190815260200160002081905550600190506128ae565b600090505b92915050565b600080836001016000848152602001908152602001600020541415905092915050565b600061291983836040518060400160405280601e81526020017f536166654d6174683a207375627472616374696f6e206f766572666c6f770000815250611f49565b90509291505056fe456e756d657261626c655365743a20696e646578206f7574206f6620626f756e647345524332303a207472616e7366657220746f20746865207a65726f2061646472657373784d4d463a205f64656c4d696e74657220697320746865207a65726f206164647265737345524332303a206275726e20616d6f756e7420657863656564732062616c616e63654f776e61626c653a206e6577206f776e657220697320746865207a65726f206164647265737345524332303a20617070726f766520746f20746865207a65726f206164647265737345524332303a207472616e7366657220616d6f756e7420657863656564732062616c616e6365784d4d463a205f6164644d696e74657220697320746865207a65726f206164647265737345524332303a207472616e7366657220616d6f756e74206578636565647320616c6c6f77616e636545524332303a206275726e20616d6f756e74206578636565647320616c6c6f77616e636545524332303a206275726e2066726f6d20746865207a65726f206164647265737345524332303a207472616e736665722066726f6d20746865207a65726f206164647265737345524332303a20617070726f76652066726f6d20746865207a65726f206164647265737345524332303a2064656372656173656420616c6c6f77616e63652062656c6f77207a65726fa26469706673582212203f5d9fb7a6560b9fdba077d883f151db413a68ddce6a6bc51b3bc457ad130cf764736f6c634300060c0033",
					"opcodes": "PUSH1 0x80 PUSH1 0x40 MSTORE CALLVALUE DUP1 ISZERO PUSH3 0x11 JUMPI PUSH1 0x0 DUP1 REVERT JUMPDEST POP PUSH1 0x40 MLOAD PUSH3 0x2E09 CODESIZE SUB DUP1 PUSH3 0x2E09 DUP4 CODECOPY DUP2 DUP2 ADD PUSH1 0x40 MSTORE PUSH1 0x20 DUP2 LT ISZERO PUSH3 0x37 JUMPI PUSH1 0x0 DUP1 REVERT JUMPDEST DUP2 ADD SWAP1 DUP1 DUP1 MLOAD SWAP1 PUSH1 0x20 ADD SWAP1 SWAP3 SWAP2 SWAP1 POP POP POP PUSH1 0x40 MLOAD DUP1 PUSH1 0x40 ADD PUSH1 0x40 MSTORE DUP1 PUSH1 0x18 DUP2 MSTORE PUSH1 0x20 ADD PUSH32 0x655A4B616C6962757220657363726F77656420546F6B656E0000000000000000 DUP2 MSTORE POP PUSH1 0x40 MLOAD DUP1 PUSH1 0x40 ADD PUSH1 0x40 MSTORE DUP1 PUSH1 0x6 DUP2 MSTORE PUSH1 0x20 ADD PUSH32 0x7853574F52440000000000000000000000000000000000000000000000000000 DUP2 MSTORE POP PUSH1 0x0 PUSH3 0xC6 PUSH3 0x1FC PUSH1 0x20 SHL PUSH1 0x20 SHR JUMP JUMPDEST SWAP1 POP DUP1 PUSH1 0x0 DUP1 PUSH2 0x100 EXP DUP2 SLOAD DUP2 PUSH20 0xFFFFFFFFFFFFFFFFFFFFFFFFFFFFFFFFFFFFFFFF MUL NOT AND SWAP1 DUP4 PUSH20 0xFFFFFFFFFFFFFFFFFFFFFFFFFFFFFFFFFFFFFFFF AND MUL OR SWAP1 SSTORE POP DUP1 PUSH20 0xFFFFFFFFFFFFFFFFFFFFFFFFFFFFFFFFFFFFFFFF AND PUSH1 0x0 PUSH20 0xFFFFFFFFFFFFFFFFFFFFFFFFFFFFFFFFFFFFFFFF AND PUSH32 0x8BE0079C531659141344CD1FD0A4F28419497F9722A3DAAFE3B4186F6B6457E0 PUSH1 0x40 MLOAD PUSH1 0x40 MLOAD DUP1 SWAP2 SUB SWAP1 LOG3 POP DUP2 PUSH1 0x4 SWAP1 DUP1 MLOAD SWAP1 PUSH1 0x20 ADD SWAP1 PUSH3 0x17C SWAP3 SWAP2 SWAP1 PUSH3 0x204 JUMP JUMPDEST POP DUP1 PUSH1 0x5 SWAP1 DUP1 MLOAD SWAP1 PUSH1 0x20 ADD SWAP1 PUSH3 0x195 SWAP3 SWAP2 SWAP1 PUSH3 0x204 JUMP JUMPDEST POP PUSH1 0x12 PUSH1 0x6 PUSH1 0x0 PUSH2 0x100 EXP DUP2 SLOAD DUP2 PUSH1 0xFF MUL NOT AND SWAP1 DUP4 PUSH1 0xFF AND MUL OR SWAP1 SSTORE POP POP POP DUP1 PUSH1 0x9 PUSH1 0x0 PUSH2 0x100 EXP DUP2 SLOAD DUP2 PUSH20 0xFFFFFFFFFFFFFFFFFFFFFFFFFFFFFFFFFFFFFFFF MUL NOT AND SWAP1 DUP4 PUSH20 0xFFFFFFFFFFFFFFFFFFFFFFFFFFFFFFFFFFFFFFFF AND MUL OR SWAP1 SSTORE POP POP PUSH3 0x2AA JUMP JUMPDEST PUSH1 0x0 CALLER SWAP1 POP SWAP1 JUMP JUMPDEST DUP3 DUP1 SLOAD PUSH1 0x1 DUP2 PUSH1 0x1 AND ISZERO PUSH2 0x100 MUL SUB AND PUSH1 0x2 SWAP1 DIV SWAP1 PUSH1 0x0 MSTORE PUSH1 0x20 PUSH1 0x0 KECCAK256 SWAP1 PUSH1 0x1F ADD PUSH1 0x20 SWAP1 DIV DUP2 ADD SWAP3 DUP3 PUSH1 0x1F LT PUSH3 0x247 JUMPI DUP1 MLOAD PUSH1 0xFF NOT AND DUP4 DUP1 ADD OR DUP6 SSTORE PUSH3 0x278 JUMP JUMPDEST DUP3 DUP1 ADD PUSH1 0x1 ADD DUP6 SSTORE DUP3 ISZERO PUSH3 0x278 JUMPI SWAP2 DUP3 ADD JUMPDEST DUP3 DUP2 GT ISZERO PUSH3 0x277 JUMPI DUP3 MLOAD DUP3 SSTORE SWAP2 PUSH1 0x20 ADD SWAP2 SWAP1 PUSH1 0x1 ADD SWAP1 PUSH3 0x25A JUMP JUMPDEST JUMPDEST POP SWAP1 POP PUSH3 0x287 SWAP2 SWAP1 PUSH3 0x28B JUMP JUMPDEST POP SWAP1 JUMP JUMPDEST JUMPDEST DUP1 DUP3 GT ISZERO PUSH3 0x2A6 JUMPI PUSH1 0x0 DUP2 PUSH1 0x0 SWAP1 SSTORE POP PUSH1 0x1 ADD PUSH3 0x28C JUMP JUMPDEST POP SWAP1 JUMP JUMPDEST PUSH2 0x2B4F DUP1 PUSH3 0x2BA PUSH1 0x0 CODECOPY PUSH1 0x0 RETURN INVALID PUSH1 0x80 PUSH1 0x40 MSTORE CALLVALUE DUP1 ISZERO PUSH2 0x10 JUMPI PUSH1 0x0 DUP1 REVERT JUMPDEST POP PUSH1 0x4 CALLDATASIZE LT PUSH2 0x18E JUMPI PUSH1 0x0 CALLDATALOAD PUSH1 0xE0 SHR DUP1 PUSH4 0x893D20E8 GT PUSH2 0xDE JUMPI DUP1 PUSH4 0xA9059CBB GT PUSH2 0x97 JUMPI DUP1 PUSH4 0xDB006A75 GT PUSH2 0x71 JUMPI DUP1 PUSH4 0xDB006A75 EQ PUSH2 0x84E JUMPI DUP1 PUSH4 0xDD467064 EQ PUSH2 0x87C JUMPI DUP1 PUSH4 0xDD62ED3E EQ PUSH2 0x8AA JUMPI DUP1 PUSH4 0xF2FDE38B EQ PUSH2 0x922 JUMPI PUSH2 0x18E JUMP JUMPDEST DUP1 PUSH4 0xA9059CBB EQ PUSH2 0x772 JUMPI DUP1 PUSH4 0xAA271E1A EQ PUSH2 0x7D6 JUMPI DUP1 PUSH4 0xD5ABEB01 EQ PUSH2 0x830 JUMPI PUSH2 0x18E JUMP JUMPDEST DUP1 PUSH4 0x893D20E8 EQ PUSH2 0x585 JUMPI DUP1 PUSH4 0x8DA5CB5B EQ PUSH2 0x5B9 JUMPI DUP1 PUSH4 0x95D89B41 EQ PUSH2 0x5ED JUMPI DUP1 PUSH4 0x983B2D56 EQ PUSH2 0x670 JUMPI DUP1 PUSH4 0xA0712D68 EQ PUSH2 0x6CA JUMPI DUP1 PUSH4 0xA457C2D7 EQ PUSH2 0x70E JUMPI PUSH2 0x18E JUMP JUMPDEST DUP1 PUSH4 0x313CE567 GT PUSH2 0x14B JUMPI DUP1 PUSH4 0x5B7121F8 GT PUSH2 0x125 JUMPI DUP1 PUSH4 0x5B7121F8 EQ PUSH2 0x47D JUMPI DUP1 PUSH4 0x70A08231 EQ PUSH2 0x4D5 JUMPI DUP1 PUSH4 0x715018A6 EQ PUSH2 0x52D JUMPI DUP1 PUSH4 0x79CC6790 EQ PUSH2 0x537 JUMPI PUSH2 0x18E JUMP JUMPDEST DUP1 PUSH4 0x313CE567 EQ PUSH2 0x394 JUMPI DUP1 PUSH4 0x39509351 EQ PUSH2 0x3B5 JUMPI DUP1 PUSH4 0x40C10F19 EQ PUSH2 0x419 JUMPI PUSH2 0x18E JUMP JUMPDEST DUP1 PUSH4 0x323AAC7 EQ PUSH2 0x193 JUMPI DUP1 PUSH4 0x6FDDE03 EQ PUSH2 0x1B1 JUMPI DUP1 PUSH4 0x95EA7B3 EQ PUSH2 0x234 JUMPI DUP1 PUSH4 0x18160DDD EQ PUSH2 0x298 JUMPI DUP1 PUSH4 0x23338B88 EQ PUSH2 0x2B6 JUMPI DUP1 PUSH4 0x23B872DD EQ PUSH2 0x310 JUMPI JUMPDEST PUSH1 0x0 DUP1 REVERT JUMPDEST PUSH2 0x19B PUSH2 0x966 JUMP JUMPDEST PUSH1 0x40 MLOAD DUP1 DUP3 DUP2 MSTORE PUSH1 0x20 ADD SWAP2 POP POP PUSH1 0x40 MLOAD DUP1 SWAP2 SUB SWAP1 RETURN JUMPDEST PUSH2 0x1B9 PUSH2 0x977 JUMP JUMPDEST PUSH1 0x40 MLOAD DUP1 DUP1 PUSH1 0x20 ADD DUP3 DUP2 SUB DUP3 MSTORE DUP4 DUP2 DUP2 MLOAD DUP2 MSTORE PUSH1 0x20 ADD SWAP2 POP DUP1 MLOAD SWAP1 PUSH1 0x20 ADD SWAP1 DUP1 DUP4 DUP4 PUSH1 0x0 JUMPDEST DUP4 DUP2 LT ISZERO PUSH2 0x1F9 JUMPI DUP1 DUP3 ADD MLOAD DUP2 DUP5 ADD MSTORE PUSH1 0x20 DUP2 ADD SWAP1 POP PUSH2 0x1DE JUMP JUMPDEST POP POP POP POP SWAP1 POP SWAP1 DUP2 ADD SWAP1 PUSH1 0x1F AND DUP1 ISZERO PUSH2 0x226 JUMPI DUP1 DUP3 SUB DUP1 MLOAD PUSH1 0x1 DUP4 PUSH1 0x20 SUB PUSH2 0x100 EXP SUB NOT AND DUP2 MSTORE PUSH1 0x20 ADD SWAP2 POP JUMPDEST POP SWAP3 POP POP POP PUSH1 0x40 MLOAD DUP1 SWAP2 SUB SWAP1 RETURN JUMPDEST PUSH2 0x280 PUSH1 0x4 DUP1 CALLDATASIZE SUB PUSH1 0x40 DUP2 LT ISZERO PUSH2 0x24A JUMPI PUSH1 0x0 DUP1 REVERT JUMPDEST DUP2 ADD SWAP1 DUP1 DUP1 CALLDATALOAD PUSH20 0xFFFFFFFFFFFFFFFFFFFFFFFFFFFFFFFFFFFFFFFF AND SWAP1 PUSH1 0x20 ADD SWAP1 SWAP3 SWAP2 SWAP1 DUP1 CALLDATALOAD SWAP1 PUSH1 0x20 ADD SWAP1 SWAP3 SWAP2 SWAP1 POP POP POP PUSH2 0xA19 JUMP JUMPDEST PUSH1 0x40 MLOAD DUP1 DUP3 ISZERO ISZERO DUP2 MSTORE PUSH1 0x20 ADD SWAP2 POP POP PUSH1 0x40 MLOAD DUP1 SWAP2 SUB SWAP1 RETURN JUMPDEST PUSH2 0x2A0 PUSH2 0xA37 JUMP JUMPDEST PUSH1 0x40 MLOAD DUP1 DUP3 DUP2 MSTORE PUSH1 0x20 ADD SWAP2 POP POP PUSH1 0x40 MLOAD DUP1 SWAP2 SUB SWAP1 RETURN JUMPDEST PUSH2 0x2F8 PUSH1 0x4 DUP1 CALLDATASIZE SUB PUSH1 0x20 DUP2 LT ISZERO PUSH2 0x2CC JUMPI PUSH1 0x0 DUP1 REVERT JUMPDEST DUP2 ADD SWAP1 DUP1 DUP1 CALLDATALOAD PUSH20 0xFFFFFFFFFFFFFFFFFFFFFFFFFFFFFFFFFFFFFFFF AND SWAP1 PUSH1 0x20 ADD SWAP1 SWAP3 SWAP2 SWAP1 POP POP POP PUSH2 0xA41 JUMP JUMPDEST PUSH1 0x40 MLOAD DUP1 DUP3 ISZERO ISZERO DUP2 MSTORE PUSH1 0x20 ADD SWAP2 POP POP PUSH1 0x40 MLOAD DUP1 SWAP2 SUB SWAP1 RETURN JUMPDEST PUSH2 0x37C PUSH1 0x4 DUP1 CALLDATASIZE SUB PUSH1 0x60 DUP2 LT ISZERO PUSH2 0x326 JUMPI PUSH1 0x0 DUP1 REVERT JUMPDEST DUP2 ADD SWAP1 DUP1 DUP1 CALLDATALOAD PUSH20 0xFFFFFFFFFFFFFFFFFFFFFFFFFFFFFFFFFFFFFFFF AND SWAP1 PUSH1 0x20 ADD SWAP1 SWAP3 SWAP2 SWAP1 DUP1 CALLDATALOAD PUSH20 0xFFFFFFFFFFFFFFFFFFFFFFFFFFFFFFFFFFFFFFFF AND SWAP1 PUSH1 0x20 ADD SWAP1 SWAP3 SWAP2 SWAP1 DUP1 CALLDATALOAD SWAP1 PUSH1 0x20 ADD SWAP1 SWAP3 SWAP2 SWAP1 POP POP POP PUSH2 0xBA3 JUMP JUMPDEST PUSH1 0x40 MLOAD DUP1 DUP3 ISZERO ISZERO DUP2 MSTORE PUSH1 0x20 ADD SWAP2 POP POP PUSH1 0x40 MLOAD DUP1 SWAP2 SUB SWAP1 RETURN JUMPDEST PUSH2 0x39C PUSH2 0xC7C JUMP JUMPDEST PUSH1 0x40 MLOAD DUP1 DUP3 PUSH1 0xFF AND DUP2 MSTORE PUSH1 0x20 ADD SWAP2 POP POP PUSH1 0x40 MLOAD DUP1 SWAP2 SUB SWAP1 RETURN JUMPDEST PUSH2 0x401 PUSH1 0x4 DUP1 CALLDATASIZE SUB PUSH1 0x40 DUP2 LT ISZERO PUSH2 0x3CB JUMPI PUSH1 0x0 DUP1 REVERT JUMPDEST DUP2 ADD SWAP1 DUP1 DUP1 CALLDATALOAD PUSH20 0xFFFFFFFFFFFFFFFFFFFFFFFFFFFFFFFFFFFFFFFF AND SWAP1 PUSH1 0x20 ADD SWAP1 SWAP3 SWAP2 SWAP1 DUP1 CALLDATALOAD SWAP1 PUSH1 0x20 ADD SWAP1 SWAP3 SWAP2 SWAP1 POP POP POP PUSH2 0xC93 JUMP JUMPDEST PUSH1 0x40 MLOAD DUP1 DUP3 ISZERO ISZERO DUP2 MSTORE PUSH1 0x20 ADD SWAP2 POP POP PUSH1 0x40 MLOAD DUP1 SWAP2 SUB SWAP1 RETURN JUMPDEST PUSH2 0x465 PUSH1 0x4 DUP1 CALLDATASIZE SUB PUSH1 0x40 DUP2 LT ISZERO PUSH2 0x42F JUMPI PUSH1 0x0 DUP1 REVERT JUMPDEST DUP2 ADD SWAP1 DUP1 DUP1 CALLDATALOAD PUSH20 0xFFFFFFFFFFFFFFFFFFFFFFFFFFFFFFFFFFFFFFFF AND SWAP1 PUSH1 0x20 ADD SWAP1 SWAP3 SWAP2 SWAP1 DUP1 CALLDATALOAD SWAP1 PUSH1 0x20 ADD SWAP1 SWAP3 SWAP2 SWAP1 POP POP POP PUSH2 0xD46 JUMP JUMPDEST PUSH1 0x40 MLOAD DUP1 DUP3 ISZERO ISZERO DUP2 MSTORE PUSH1 0x20 ADD SWAP2 POP POP PUSH1 0x40 MLOAD DUP1 SWAP2 SUB SWAP1 RETURN JUMPDEST PUSH2 0x4A9 PUSH1 0x4 DUP1 CALLDATASIZE SUB PUSH1 0x20 DUP2 LT ISZERO PUSH2 0x493 JUMPI PUSH1 0x0 DUP1 REVERT JUMPDEST DUP2 ADD SWAP1 DUP1 DUP1 CALLDATALOAD SWAP1 PUSH1 0x20 ADD SWAP1 SWAP3 SWAP2 SWAP1 POP POP POP PUSH2 0xEA7 JUMP JUMPDEST PUSH1 0x40 MLOAD DUP1 DUP3 PUSH20 0xFFFFFFFFFFFFFFFFFFFFFFFFFFFFFFFFFFFFFFFF AND DUP2 MSTORE PUSH1 0x20 ADD SWAP2 POP POP PUSH1 0x40 MLOAD DUP1 SWAP2 SUB SWAP1 RETURN JUMPDEST PUSH2 0x517 PUSH1 0x4 DUP1 CALLDATASIZE SUB PUSH1 0x20 DUP2 LT ISZERO PUSH2 0x4EB JUMPI PUSH1 0x0 DUP1 REVERT JUMPDEST DUP2 ADD SWAP1 DUP1 DUP1 CALLDATALOAD PUSH20 0xFFFFFFFFFFFFFFFFFFFFFFFFFFFFFFFFFFFFFFFF AND SWAP1 PUSH1 0x20 ADD SWAP1 SWAP3 SWAP2 SWAP1 POP POP POP PUSH2 0x1003 JUMP JUMPDEST PUSH1 0x40 MLOAD DUP1 DUP3 DUP2 MSTORE PUSH1 0x20 ADD SWAP2 POP POP PUSH1 0x40 MLOAD DUP1 SWAP2 SUB SWAP1 RETURN JUMPDEST PUSH2 0x535 PUSH2 0x104C JUMP JUMPDEST STOP JUMPDEST PUSH2 0x583 PUSH1 0x4 DUP1 CALLDATASIZE SUB PUSH1 0x40 DUP2 LT ISZERO PUSH2 0x54D JUMPI PUSH1 0x0 DUP1 REVERT JUMPDEST DUP2 ADD SWAP1 DUP1 DUP1 CALLDATALOAD PUSH20 0xFFFFFFFFFFFFFFFFFFFFFFFFFFFFFFFFFFFFFFFF AND SWAP1 PUSH1 0x20 ADD SWAP1 SWAP3 SWAP2 SWAP1 DUP1 CALLDATALOAD SWAP1 PUSH1 0x20 ADD SWAP1 SWAP3 SWAP2 SWAP1 POP POP POP PUSH2 0x11D2 JUMP JUMPDEST STOP JUMPDEST PUSH2 0x58D PUSH2 0x11E0 JUMP JUMPDEST PUSH1 0x40 MLOAD DUP1 DUP3 PUSH20 0xFFFFFFFFFFFFFFFFFFFFFFFFFFFFFFFFFFFFFFFF AND DUP2 MSTORE PUSH1 0x20 ADD SWAP2 POP POP PUSH1 0x40 MLOAD DUP1 SWAP2 SUB SWAP1 RETURN JUMPDEST PUSH2 0x5C1 PUSH2 0x11EF JUMP JUMPDEST PUSH1 0x40 MLOAD DUP1 DUP3 PUSH20 0xFFFFFFFFFFFFFFFFFFFFFFFFFFFFFFFFFFFFFFFF AND DUP2 MSTORE PUSH1 0x20 ADD SWAP2 POP POP PUSH1 0x40 MLOAD DUP1 SWAP2 SUB SWAP1 RETURN JUMPDEST PUSH2 0x5F5 PUSH2 0x1218 JUMP JUMPDEST PUSH1 0x40 MLOAD DUP1 DUP1 PUSH1 0x20 ADD DUP3 DUP2 SUB DUP3 MSTORE DUP4 DUP2 DUP2 MLOAD DUP2 MSTORE PUSH1 0x20 ADD SWAP2 POP DUP1 MLOAD SWAP1 PUSH1 0x20 ADD SWAP1 DUP1 DUP4 DUP4 PUSH1 0x0 JUMPDEST DUP4 DUP2 LT ISZERO PUSH2 0x635 JUMPI DUP1 DUP3 ADD MLOAD DUP2 DUP5 ADD MSTORE PUSH1 0x20 DUP2 ADD SWAP1 POP PUSH2 0x61A JUMP JUMPDEST POP POP POP POP SWAP1 POP SWAP1 DUP2 ADD SWAP1 PUSH1 0x1F AND DUP1 ISZERO PUSH2 0x662 JUMPI DUP1 DUP3 SUB DUP1 MLOAD PUSH1 0x1 DUP4 PUSH1 0x20 SUB PUSH2 0x100 EXP SUB NOT AND DUP2 MSTORE PUSH1 0x20 ADD SWAP2 POP JUMPDEST POP SWAP3 POP POP POP PUSH1 0x40 MLOAD DUP1 SWAP2 SUB SWAP1 RETURN JUMPDEST PUSH2 0x6B2 PUSH1 0x4 DUP1 CALLDATASIZE SUB PUSH1 0x20 DUP2 LT ISZERO PUSH2 0x686 JUMPI PUSH1 0x0 DUP1 REVERT JUMPDEST DUP2 ADD SWAP1 DUP1 DUP1 CALLDATALOAD PUSH20 0xFFFFFFFFFFFFFFFFFFFFFFFFFFFFFFFFFFFFFFFF AND SWAP1 PUSH1 0x20 ADD SWAP1 SWAP3 SWAP2 SWAP1 POP POP POP PUSH2 0x12BA JUMP JUMPDEST PUSH1 0x40 MLOAD DUP1 DUP3 ISZERO ISZERO DUP2 MSTORE PUSH1 0x20 ADD SWAP2 POP POP PUSH1 0x40 MLOAD DUP1 SWAP2 SUB SWAP1 RETURN JUMPDEST PUSH2 0x6F6 PUSH1 0x4 DUP1 CALLDATASIZE SUB PUSH1 0x20 DUP2 LT ISZERO PUSH2 0x6E0 JUMPI PUSH1 0x0 DUP1 REVERT JUMPDEST DUP2 ADD SWAP1 DUP1 DUP1 CALLDATALOAD SWAP1 PUSH1 0x20 ADD SWAP1 SWAP3 SWAP2 SWAP1 POP POP POP PUSH2 0x141C JUMP JUMPDEST PUSH1 0x40 MLOAD DUP1 DUP3 ISZERO ISZERO DUP2 MSTORE PUSH1 0x20 ADD SWAP2 POP POP PUSH1 0x40 MLOAD DUP1 SWAP2 SUB SWAP1 RETURN JUMPDEST PUSH2 0x75A PUSH1 0x4 DUP1 CALLDATASIZE SUB PUSH1 0x40 DUP2 LT ISZERO PUSH2 0x724 JUMPI PUSH1 0x0 DUP1 REVERT JUMPDEST DUP2 ADD SWAP1 DUP1 DUP1 CALLDATALOAD PUSH20 0xFFFFFFFFFFFFFFFFFFFFFFFFFFFFFFFFFFFFFFFF AND SWAP1 PUSH1 0x20 ADD SWAP1 SWAP3 SWAP2 SWAP1 DUP1 CALLDATALOAD SWAP1 PUSH1 0x20 ADD SWAP1 SWAP3 SWAP2 SWAP1 POP POP POP PUSH2 0x1501 JUMP JUMPDEST PUSH1 0x40 MLOAD DUP1 DUP3 ISZERO ISZERO DUP2 MSTORE PUSH1 0x20 ADD SWAP2 POP POP PUSH1 0x40 MLOAD DUP1 SWAP2 SUB SWAP1 RETURN JUMPDEST PUSH2 0x7BE PUSH1 0x4 DUP1 CALLDATASIZE SUB PUSH1 0x40 DUP2 LT ISZERO PUSH2 0x788 JUMPI PUSH1 0x0 DUP1 REVERT JUMPDEST DUP2 ADD SWAP1 DUP1 DUP1 CALLDATALOAD PUSH20 0xFFFFFFFFFFFFFFFFFFFFFFFFFFFFFFFFFFFFFFFF AND SWAP1 PUSH1 0x20 ADD SWAP1 SWAP3 SWAP2 SWAP1 DUP1 CALLDATALOAD SWAP1 PUSH1 0x20 ADD SWAP1 SWAP3 SWAP2 SWAP1 POP POP POP PUSH2 0x15CE JUMP JUMPDEST PUSH1 0x40 MLOAD DUP1 DUP3 ISZERO ISZERO DUP2 MSTORE PUSH1 0x20 ADD SWAP2 POP POP PUSH1 0x40 MLOAD DUP1 SWAP2 SUB SWAP1 RETURN JUMPDEST PUSH2 0x818 PUSH1 0x4 DUP1 CALLDATASIZE SUB PUSH1 0x20 DUP2 LT ISZERO PUSH2 0x7EC JUMPI PUSH1 0x0 DUP1 REVERT JUMPDEST DUP2 ADD SWAP1 DUP1 DUP1 CALLDATALOAD PUSH20 0xFFFFFFFFFFFFFFFFFFFFFFFFFFFFFFFFFFFFFFFF AND SWAP1 PUSH1 0x20 ADD SWAP1 SWAP3 SWAP2 SWAP1 POP POP POP PUSH2 0x15EC JUMP JUMPDEST PUSH1 0x40 MLOAD DUP1 DUP3 ISZERO ISZERO DUP2 MSTORE PUSH1 0x20 ADD SWAP2 POP POP PUSH1 0x40 MLOAD DUP1 SWAP2 SUB SWAP1 RETURN JUMPDEST PUSH2 0x838 PUSH2 0x1600 JUMP JUMPDEST PUSH1 0x40 MLOAD DUP1 DUP3 DUP2 MSTORE PUSH1 0x20 ADD SWAP2 POP POP PUSH1 0x40 MLOAD DUP1 SWAP2 SUB SWAP1 RETURN JUMPDEST PUSH2 0x87A PUSH1 0x4 DUP1 CALLDATASIZE SUB PUSH1 0x20 DUP2 LT ISZERO PUSH2 0x864 JUMPI PUSH1 0x0 DUP1 REVERT JUMPDEST DUP2 ADD SWAP1 DUP1 DUP1 CALLDATALOAD SWAP1 PUSH1 0x20 ADD SWAP1 SWAP3 SWAP2 SWAP1 POP POP POP PUSH2 0x1613 JUMP JUMPDEST STOP JUMPDEST PUSH2 0x8A8 PUSH1 0x4 DUP1 CALLDATASIZE SUB PUSH1 0x20 DUP2 LT ISZERO PUSH2 0x892 JUMPI PUSH1 0x0 DUP1 REVERT JUMPDEST DUP2 ADD SWAP1 DUP1 DUP1 CALLDATALOAD SWAP1 PUSH1 0x20 ADD SWAP1 SWAP3 SWAP2 SWAP1 POP POP POP PUSH2 0x1772 JUMP JUMPDEST STOP JUMPDEST PUSH2 0x90C PUSH1 0x4 DUP1 CALLDATASIZE SUB PUSH1 0x40 DUP2 LT ISZERO PUSH2 0x8C0 JUMPI PUSH1 0x0 DUP1 REVERT JUMPDEST DUP2 ADD SWAP1 DUP1 DUP1 CALLDATALOAD PUSH20 0xFFFFFFFFFFFFFFFFFFFFFFFFFFFFFFFFFFFFFFFF AND SWAP1 PUSH1 0x20 ADD SWAP1 SWAP3 SWAP2 SWAP1 DUP1 CALLDATALOAD PUSH20 0xFFFFFFFFFFFFFFFFFFFFFFFFFFFFFFFFFFFFFFFF AND SWAP1 PUSH1 0x20 ADD SWAP1 SWAP3 SWAP2 SWAP1 POP POP POP PUSH2 0x18F0 JUMP JUMPDEST PUSH1 0x40 MLOAD DUP1 DUP3 DUP2 MSTORE PUSH1 0x20 ADD SWAP2 POP POP PUSH1 0x40 MLOAD DUP1 SWAP2 SUB SWAP1 RETURN JUMPDEST PUSH2 0x964 PUSH1 0x4 DUP1 CALLDATASIZE SUB PUSH1 0x20 DUP2 LT ISZERO PUSH2 0x938 JUMPI PUSH1 0x0 DUP1 REVERT JUMPDEST DUP2 ADD SWAP1 DUP1 DUP1 CALLDATALOAD PUSH20 0xFFFFFFFFFFFFFFFFFFFFFFFFFFFFFFFFFFFFFFFF AND SWAP1 PUSH1 0x20 ADD SWAP1 SWAP3 SWAP2 SWAP1 POP POP POP PUSH2 0x1977 JUMP JUMPDEST STOP JUMPDEST PUSH1 0x0 PUSH2 0x972 PUSH1 0x7 PUSH2 0x1A4B JUMP JUMPDEST SWAP1 POP SWAP1 JUMP JUMPDEST PUSH1 0x60 PUSH1 0x4 DUP1 SLOAD PUSH1 0x1 DUP2 PUSH1 0x1 AND ISZERO PUSH2 0x100 MUL SUB AND PUSH1 0x2 SWAP1 DIV DUP1 PUSH1 0x1F ADD PUSH1 0x20 DUP1 SWAP2 DIV MUL PUSH1 0x20 ADD PUSH1 0x40 MLOAD SWAP1 DUP2 ADD PUSH1 0x40 MSTORE DUP1 SWAP3 SWAP2 SWAP1 DUP2 DUP2 MSTORE PUSH1 0x20 ADD DUP3 DUP1 SLOAD PUSH1 0x1 DUP2 PUSH1 0x1 AND ISZERO PUSH2 0x100 MUL SUB AND PUSH1 0x2 SWAP1 DIV DUP1 ISZERO PUSH2 0xA0F JUMPI DUP1 PUSH1 0x1F LT PUSH2 0x9E4 JUMPI PUSH2 0x100 DUP1 DUP4 SLOAD DIV MUL DUP4 MSTORE SWAP2 PUSH1 0x20 ADD SWAP2 PUSH2 0xA0F JUMP JUMPDEST DUP3 ADD SWAP2 SWAP1 PUSH1 0x0 MSTORE PUSH1 0x20 PUSH1 0x0 KECCAK256 SWAP1 JUMPDEST DUP2 SLOAD DUP2 MSTORE SWAP1 PUSH1 0x1 ADD SWAP1 PUSH1 0x20 ADD DUP1 DUP4 GT PUSH2 0x9F2 JUMPI DUP3 SWAP1 SUB PUSH1 0x1F AND DUP3 ADD SWAP2 JUMPDEST POP POP POP POP POP SWAP1 POP SWAP1 JUMP JUMPDEST PUSH1 0x0 PUSH2 0xA2D PUSH2 0xA26 PUSH2 0x1A60 JUMP JUMPDEST DUP5 DUP5 PUSH2 0x1A68 JUMP JUMPDEST PUSH1 0x1 SWAP1 POP SWAP3 SWAP2 POP POP JUMP JUMPDEST PUSH1 0x0 PUSH1 0x3 SLOAD SWAP1 POP SWAP1 JUMP JUMPDEST PUSH1 0x0 PUSH2 0xA4B PUSH2 0x1A60 JUMP JUMPDEST PUSH20 0xFFFFFFFFFFFFFFFFFFFFFFFFFFFFFFFFFFFFFFFF AND PUSH1 0x0 DUP1 SLOAD SWAP1 PUSH2 0x100 EXP SWAP1 DIV PUSH20 0xFFFFFFFFFFFFFFFFFFFFFFFFFFFFFFFFFFFFFFFF AND PUSH20 0xFFFFFFFFFFFFFFFFFFFFFFFFFFFFFFFFFFFFFFFF AND EQ PUSH2 0xB0B JUMPI PUSH1 0x40 MLOAD PUSH32 0x8C379A000000000000000000000000000000000000000000000000000000000 DUP2 MSTORE PUSH1 0x4 ADD DUP1 DUP1 PUSH1 0x20 ADD DUP3 DUP2 SUB DUP3 MSTORE PUSH1 0x20 DUP2 MSTORE PUSH1 0x20 ADD DUP1 PUSH32 0x4F776E61626C653A2063616C6C6572206973206E6F7420746865206F776E6572 DUP2 MSTORE POP PUSH1 0x20 ADD SWAP2 POP POP PUSH1 0x40 MLOAD DUP1 SWAP2 SUB SWAP1 REVERT JUMPDEST PUSH1 0x0 PUSH20 0xFFFFFFFFFFFFFFFFFFFFFFFFFFFFFFFFFFFFFFFF AND DUP3 PUSH20 0xFFFFFFFFFFFFFFFFFFFFFFFFFFFFFFFFFFFFFFFF AND EQ ISZERO PUSH2 0xB91 JUMPI PUSH1 0x40 MLOAD PUSH32 0x8C379A000000000000000000000000000000000000000000000000000000000 DUP2 MSTORE PUSH1 0x4 ADD DUP1 DUP1 PUSH1 0x20 ADD DUP3 DUP2 SUB DUP3 MSTORE PUSH1 0x24 DUP2 MSTORE PUSH1 0x20 ADD DUP1 PUSH2 0x2967 PUSH1 0x24 SWAP2 CODECOPY PUSH1 0x40 ADD SWAP2 POP POP PUSH1 0x40 MLOAD DUP1 SWAP2 SUB SWAP1 REVERT JUMPDEST PUSH2 0xB9C PUSH1 0x7 DUP4 PUSH2 0x1C5F JUMP JUMPDEST SWAP1 POP SWAP2 SWAP1 POP JUMP JUMPDEST PUSH1 0x0 PUSH2 0xBB0 DUP5 DUP5 DUP5 PUSH2 0x1C8F JUMP JUMPDEST PUSH2 0xC71 DUP5 PUSH2 0xBBC PUSH2 0x1A60 JUMP JUMPDEST PUSH2 0xC6C DUP6 PUSH1 0x40 MLOAD DUP1 PUSH1 0x60 ADD PUSH1 0x40 MSTORE DUP1 PUSH1 0x28 DUP2 MSTORE PUSH1 0x20 ADD PUSH2 0x2A3F PUSH1 0x28 SWAP2 CODECOPY PUSH1 0x2 PUSH1 0x0 DUP12 PUSH20 0xFFFFFFFFFFFFFFFFFFFFFFFFFFFFFFFFFFFFFFFF AND PUSH20 0xFFFFFFFFFFFFFFFFFFFFFFFFFFFFFFFFFFFFFFFF AND DUP2 MSTORE PUSH1 0x20 ADD SWAP1 DUP2 MSTORE PUSH1 0x20 ADD PUSH1 0x0 KECCAK256 PUSH1 0x0 PUSH2 0xC22 PUSH2 0x1A60 JUMP JUMPDEST PUSH20 0xFFFFFFFFFFFFFFFFFFFFFFFFFFFFFFFFFFFFFFFF AND PUSH20 0xFFFFFFFFFFFFFFFFFFFFFFFFFFFFFFFFFFFFFFFF AND DUP2 MSTORE PUSH1 0x20 ADD SWAP1 DUP2 MSTORE PUSH1 0x20 ADD PUSH1 0x0 KECCAK256 SLOAD PUSH2 0x1F49 SWAP1 SWAP3 SWAP2 SWAP1 PUSH4 0xFFFFFFFF AND JUMP JUMPDEST PUSH2 0x1A68 JUMP JUMPDEST PUSH1 0x1 SWAP1 POP SWAP4 SWAP3 POP POP POP JUMP JUMPDEST PUSH1 0x0 PUSH1 0x6 PUSH1 0x0 SWAP1 SLOAD SWAP1 PUSH2 0x100 EXP SWAP1 DIV PUSH1 0xFF AND SWAP1 POP SWAP1 JUMP JUMPDEST PUSH1 0x0 PUSH2 0xD3C PUSH2 0xCA0 PUSH2 0x1A60 JUMP JUMPDEST DUP5 PUSH2 0xD37 DUP6 PUSH1 0x2 PUSH1 0x0 PUSH2 0xCB1 PUSH2 0x1A60 JUMP JUMPDEST PUSH20 0xFFFFFFFFFFFFFFFFFFFFFFFFFFFFFFFFFFFFFFFF AND PUSH20 0xFFFFFFFFFFFFFFFFFFFFFFFFFFFFFFFFFFFFFFFF AND DUP2 MSTORE PUSH1 0x20 ADD SWAP1 DUP2 MSTORE PUSH1 0x20 ADD PUSH1 0x0 KECCAK256 PUSH1 0x0 DUP10 PUSH20 0xFFFFFFFFFFFFFFFFFFFFFFFFFFFFFFFFFFFFFFFF AND PUSH20 0xFFFFFFFFFFFFFFFFFFFFFFFFFFFFFFFFFFFFFFFF AND DUP2 MSTORE PUSH1 0x20 ADD SWAP1 DUP2 MSTORE PUSH1 0x20 ADD PUSH1 0x0 KECCAK256 SLOAD PUSH2 0x2009 SWAP1 SWAP2 SWAP1 PUSH4 0xFFFFFFFF AND JUMP JUMPDEST PUSH2 0x1A68 JUMP JUMPDEST PUSH1 0x1 SWAP1 POP SWAP3 SWAP2 POP POP JUMP JUMPDEST PUSH1 0x0 PUSH2 0xD51 CALLER PUSH2 0x15EC JUMP JUMPDEST PUSH2 0xDC3 JUMPI PUSH1 0x40 MLOAD PUSH32 0x8C379A000000000000000000000000000000000000000000000000000000000 DUP2 MSTORE PUSH1 0x4 ADD DUP1 DUP1 PUSH1 0x20 ADD DUP3 DUP2 SUB DUP3 MSTORE PUSH1 0x18 DUP2 MSTORE PUSH1 0x20 ADD DUP1 PUSH32 0x63616C6C6572206973206E6F7420746865206D696E7465720000000000000000 DUP2 MSTORE POP PUSH1 0x20 ADD SWAP2 POP POP PUSH1 0x40 MLOAD DUP1 SWAP2 SUB SWAP1 REVERT JUMPDEST PUSH1 0x9 PUSH1 0x0 SWAP1 SLOAD SWAP1 PUSH2 0x100 EXP SWAP1 DIV PUSH20 0xFFFFFFFFFFFFFFFFFFFFFFFFFFFFFFFFFFFFFFFF AND PUSH20 0xFFFFFFFFFFFFFFFFFFFFFFFFFFFFFFFFFFFFFFFF AND PUSH4 0x40C10F19 ADDRESS DUP5 PUSH1 0x40 MLOAD DUP4 PUSH4 0xFFFFFFFF AND PUSH1 0xE0 SHL DUP2 MSTORE PUSH1 0x4 ADD DUP1 DUP4 PUSH20 0xFFFFFFFFFFFFFFFFFFFFFFFFFFFFFFFFFFFFFFFF AND DUP2 MSTORE PUSH1 0x20 ADD DUP3 DUP2 MSTORE PUSH1 0x20 ADD SWAP3 POP POP POP PUSH1 0x20 PUSH1 0x40 MLOAD DUP1 DUP4 SUB DUP2 PUSH1 0x0 DUP8 DUP1 EXTCODESIZE ISZERO DUP1 ISZERO PUSH2 0xE56 JUMPI PUSH1 0x0 DUP1 REVERT JUMPDEST POP GAS CALL ISZERO DUP1 ISZERO PUSH2 0xE6A JUMPI RETURNDATASIZE PUSH1 0x0 DUP1 RETURNDATACOPY RETURNDATASIZE PUSH1 0x0 REVERT JUMPDEST POP POP POP POP PUSH1 0x40 MLOAD RETURNDATASIZE PUSH1 0x20 DUP2 LT ISZERO PUSH2 0xE80 JUMPI PUSH1 0x0 DUP1 REVERT JUMPDEST DUP2 ADD SWAP1 DUP1 DUP1 MLOAD SWAP1 PUSH1 0x20 ADD SWAP1 SWAP3 SWAP2 SWAP1 POP POP POP POP PUSH2 0xE9C DUP4 DUP4 PUSH2 0x2091 JUMP JUMPDEST POP PUSH1 0x1 SWAP1 POP SWAP3 SWAP2 POP POP JUMP JUMPDEST PUSH1 0x0 PUSH2 0xEB1 PUSH2 0x1A60 JUMP JUMPDEST PUSH20 0xFFFFFFFFFFFFFFFFFFFFFFFFFFFFFFFFFFFFFFFF AND PUSH1 0x0 DUP1 SLOAD SWAP1 PUSH2 0x100 EXP SWAP1 DIV PUSH20 0xFFFFFFFFFFFFFFFFFFFFFFFFFFFFFFFFFFFFFFFF AND PUSH20 0xFFFFFFFFFFFFFFFFFFFFFFFFFFFFFFFFFFFFFFFF AND EQ PUSH2 0xF71 JUMPI PUSH1 0x40 MLOAD PUSH32 0x8C379A000000000000000000000000000000000000000000000000000000000 DUP2 MSTORE PUSH1 0x4 ADD DUP1 DUP1 PUSH1 0x20 ADD DUP3 DUP2 SUB DUP3 MSTORE PUSH1 0x20 DUP2 MSTORE PUSH1 0x20 ADD DUP1 PUSH32 0x4F776E61626C653A2063616C6C6572206973206E6F7420746865206F776E6572 DUP2 MSTORE POP PUSH1 0x20 ADD SWAP2 POP POP PUSH1 0x40 MLOAD DUP1 SWAP2 SUB SWAP1 REVERT JUMPDEST PUSH1 0x1 PUSH2 0xF7B PUSH2 0x966 JUMP JUMPDEST SUB DUP3 GT ISZERO PUSH2 0xFF1 JUMPI PUSH1 0x40 MLOAD PUSH32 0x8C379A000000000000000000000000000000000000000000000000000000000 DUP2 MSTORE PUSH1 0x4 ADD DUP1 DUP1 PUSH1 0x20 ADD DUP3 DUP2 SUB DUP3 MSTORE PUSH1 0x19 DUP2 MSTORE PUSH1 0x20 ADD DUP1 PUSH32 0x784D4D463A20696E646578206F7574206F6620626F756E647300000000000000 DUP2 MSTORE POP PUSH1 0x20 ADD SWAP2 POP POP PUSH1 0x40 MLOAD DUP1 SWAP2 SUB SWAP1 REVERT JUMPDEST PUSH2 0xFFC PUSH1 0x7 DUP4 PUSH2 0x2282 JUMP JUMPDEST SWAP1 POP SWAP2 SWAP1 POP JUMP JUMPDEST PUSH1 0x0 PUSH1 0x1 PUSH1 0x0 DUP4 PUSH20 0xFFFFFFFFFFFFFFFFFFFFFFFFFFFFFFFFFFFFFFFF AND PUSH20 0xFFFFFFFFFFFFFFFFFFFFFFFFFFFFFFFFFFFFFFFF AND DUP2 MSTORE PUSH1 0x20 ADD SWAP1 DUP2 MSTORE PUSH1 0x20 ADD PUSH1 0x0 KECCAK256 SLOAD SWAP1 POP SWAP2 SWAP1 POP JUMP JUMPDEST PUSH2 0x1054 PUSH2 0x1A60 JUMP JUMPDEST PUSH20 0xFFFFFFFFFFFFFFFFFFFFFFFFFFFFFFFFFFFFFFFF AND PUSH1 0x0 DUP1 SLOAD SWAP1 PUSH2 0x100 EXP SWAP1 DIV PUSH20 0xFFFFFFFFFFFFFFFFFFFFFFFFFFFFFFFFFFFFFFFF AND PUSH20 0xFFFFFFFFFFFFFFFFFFFFFFFFFFFFFFFFFFFFFFFF AND EQ PUSH2 0x1114 JUMPI PUSH1 0x40 MLOAD PUSH32 0x8C379A000000000000000000000000000000000000000000000000000000000 DUP2 MSTORE PUSH1 0x4 ADD DUP1 DUP1 PUSH1 0x20 ADD DUP3 DUP2 SUB DUP3 MSTORE PUSH1 0x20 DUP2 MSTORE PUSH1 0x20 ADD DUP1 PUSH32 0x4F776E61626C653A2063616C6C6572206973206E6F7420746865206F776E6572 DUP2 MSTORE POP PUSH1 0x20 ADD SWAP2 POP POP PUSH1 0x40 MLOAD DUP1 SWAP2 SUB SWAP1 REVERT JUMPDEST PUSH1 0x0 PUSH20 0xFFFFFFFFFFFFFFFFFFFFFFFFFFFFFFFFFFFFFFFF AND PUSH1 0x0 DUP1 SLOAD SWAP1 PUSH2 0x100 EXP SWAP1 DIV PUSH20 0xFFFFFFFFFFFFFFFFFFFFFFFFFFFFFFFFFFFFFFFF AND PUSH20 0xFFFFFFFFFFFFFFFFFFFFFFFFFFFFFFFFFFFFFFFF AND PUSH32 0x8BE0079C531659141344CD1FD0A4F28419497F9722A3DAAFE3B4186F6B6457E0 PUSH1 0x40 MLOAD PUSH1 0x40 MLOAD DUP1 SWAP2 SUB SWAP1 LOG3 PUSH1 0x0 DUP1 PUSH1 0x0 PUSH2 0x100 EXP DUP2 SLOAD DUP2 PUSH20 0xFFFFFFFFFFFFFFFFFFFFFFFFFFFFFFFFFFFFFFFF MUL NOT AND SWAP1 DUP4 PUSH20 0xFFFFFFFFFFFFFFFFFFFFFFFFFFFFFFFFFFFFFFFF AND MUL OR SWAP1 SSTORE POP JUMP JUMPDEST PUSH2 0x11DC DUP3 DUP3 PUSH2 0x229C JUMP JUMPDEST POP POP JUMP JUMPDEST PUSH1 0x0 PUSH2 0x11EA PUSH2 0x11EF JUMP JUMPDEST SWAP1 POP SWAP1 JUMP JUMPDEST PUSH1 0x0 DUP1 PUSH1 0x0 SWAP1 SLOAD SWAP1 PUSH2 0x100 EXP SWAP1 DIV PUSH20 0xFFFFFFFFFFFFFFFFFFFFFFFFFFFFFFFFFFFFFFFF AND SWAP1 POP SWAP1 JUMP JUMPDEST PUSH1 0x60 PUSH1 0x5 DUP1 SLOAD PUSH1 0x1 DUP2 PUSH1 0x1 AND ISZERO PUSH2 0x100 MUL SUB AND PUSH1 0x2 SWAP1 DIV DUP1 PUSH1 0x1F ADD PUSH1 0x20 DUP1 SWAP2 DIV MUL PUSH1 0x20 ADD PUSH1 0x40 MLOAD SWAP1 DUP2 ADD PUSH1 0x40 MSTORE DUP1 SWAP3 SWAP2 SWAP1 DUP2 DUP2 MSTORE PUSH1 0x20 ADD DUP3 DUP1 SLOAD PUSH1 0x1 DUP2 PUSH1 0x1 AND ISZERO PUSH2 0x100 MUL SUB AND PUSH1 0x2 SWAP1 DIV DUP1 ISZERO PUSH2 0x12B0 JUMPI DUP1 PUSH1 0x1F LT PUSH2 0x1285 JUMPI PUSH2 0x100 DUP1 DUP4 SLOAD DIV MUL DUP4 MSTORE SWAP2 PUSH1 0x20 ADD SWAP2 PUSH2 0x12B0 JUMP JUMPDEST DUP3 ADD SWAP2 SWAP1 PUSH1 0x0 MSTORE PUSH1 0x20 PUSH1 0x0 KECCAK256 SWAP1 JUMPDEST DUP2 SLOAD DUP2 MSTORE SWAP1 PUSH1 0x1 ADD SWAP1 PUSH1 0x20 ADD DUP1 DUP4 GT PUSH2 0x1293 JUMPI DUP3 SWAP1 SUB PUSH1 0x1F AND DUP3 ADD SWAP2 JUMPDEST POP POP POP POP POP SWAP1 POP SWAP1 JUMP JUMPDEST PUSH1 0x0 PUSH2 0x12C4 PUSH2 0x1A60 JUMP JUMPDEST PUSH20 0xFFFFFFFFFFFFFFFFFFFFFFFFFFFFFFFFFFFFFFFF AND PUSH1 0x0 DUP1 SLOAD SWAP1 PUSH2 0x100 EXP SWAP1 DIV PUSH20 0xFFFFFFFFFFFFFFFFFFFFFFFFFFFFFFFFFFFFFFFF AND PUSH20 0xFFFFFFFFFFFFFFFFFFFFFFFFFFFFFFFFFFFFFFFF AND EQ PUSH2 0x1384 JUMPI PUSH1 0x40 MLOAD PUSH32 0x8C379A000000000000000000000000000000000000000000000000000000000 DUP2 MSTORE PUSH1 0x4 ADD DUP1 DUP1 PUSH1 0x20 ADD DUP3 DUP2 SUB DUP3 MSTORE PUSH1 0x20 DUP2 MSTORE PUSH1 0x20 ADD DUP1 PUSH32 0x4F776E61626C653A2063616C6C6572206973206E6F7420746865206F776E6572 DUP2 MSTORE POP PUSH1 0x20 ADD SWAP2 POP POP PUSH1 0x40 MLOAD DUP1 SWAP2 SUB SWAP1 REVERT JUMPDEST PUSH1 0x0 PUSH20 0xFFFFFFFFFFFFFFFFFFFFFFFFFFFFFFFFFFFFFFFF AND DUP3 PUSH20 0xFFFFFFFFFFFFFFFFFFFFFFFFFFFFFFFFFFFFFFFF AND EQ ISZERO PUSH2 0x140A JUMPI PUSH1 0x40 MLOAD PUSH32 0x8C379A000000000000000000000000000000000000000000000000000000000 DUP2 MSTORE PUSH1 0x4 ADD DUP1 DUP1 PUSH1 0x20 ADD DUP3 DUP2 SUB DUP3 MSTORE PUSH1 0x24 DUP2 MSTORE PUSH1 0x20 ADD DUP1 PUSH2 0x2A1B PUSH1 0x24 SWAP2 CODECOPY PUSH1 0x40 ADD SWAP2 POP POP PUSH1 0x40 MLOAD DUP1 SWAP2 SUB SWAP1 REVERT JUMPDEST PUSH2 0x1415 PUSH1 0x7 DUP4 PUSH2 0x236B JUMP JUMPDEST SWAP1 POP SWAP2 SWAP1 POP JUMP JUMPDEST PUSH1 0x0 PUSH2 0x1426 PUSH2 0x1A60 JUMP JUMPDEST PUSH20 0xFFFFFFFFFFFFFFFFFFFFFFFFFFFFFFFFFFFFFFFF AND PUSH1 0x0 DUP1 SLOAD SWAP1 PUSH2 0x100 EXP SWAP1 DIV PUSH20 0xFFFFFFFFFFFFFFFFFFFFFFFFFFFFFFFFFFFFFFFF AND PUSH20 0xFFFFFFFFFFFFFFFFFFFFFFFFFFFFFFFFFFFFFFFF AND EQ PUSH2 0x14E6 JUMPI PUSH1 0x40 MLOAD PUSH32 0x8C379A000000000000000000000000000000000000000000000000000000000 DUP2 MSTORE PUSH1 0x4 ADD DUP1 DUP1 PUSH1 0x20 ADD DUP3 DUP2 SUB DUP3 MSTORE PUSH1 0x20 DUP2 MSTORE PUSH1 0x20 ADD DUP1 PUSH32 0x4F776E61626C653A2063616C6C6572206973206E6F7420746865206F776E6572 DUP2 MSTORE POP PUSH1 0x20 ADD SWAP2 POP POP PUSH1 0x40 MLOAD DUP1 SWAP2 SUB SWAP1 REVERT JUMPDEST PUSH2 0x14F7 PUSH2 0x14F1 PUSH2 0x1A60 JUMP JUMPDEST DUP4 PUSH2 0x2091 JUMP JUMPDEST POP PUSH1 0x1 SWAP1 POP SWAP2 SWAP1 POP JUMP JUMPDEST PUSH1 0x0 PUSH2 0x15C4 PUSH2 0x150E PUSH2 0x1A60 JUMP JUMPDEST DUP5 PUSH2 0x15BF DUP6 PUSH1 0x40 MLOAD DUP1 PUSH1 0x60 ADD PUSH1 0x40 MSTORE DUP1 PUSH1 0x25 DUP2 MSTORE PUSH1 0x20 ADD PUSH2 0x2AF5 PUSH1 0x25 SWAP2 CODECOPY PUSH1 0x2 PUSH1 0x0 PUSH2 0x1538 PUSH2 0x1A60 JUMP JUMPDEST PUSH20 0xFFFFFFFFFFFFFFFFFFFFFFFFFFFFFFFFFFFFFFFF AND PUSH20 0xFFFFFFFFFFFFFFFFFFFFFFFFFFFFFFFFFFFFFFFF AND DUP2 MSTORE PUSH1 0x20 ADD SWAP1 DUP2 MSTORE PUSH1 0x20 ADD PUSH1 0x0 KECCAK256 PUSH1 0x0 DUP11 PUSH20 0xFFFFFFFFFFFFFFFFFFFFFFFFFFFFFFFFFFFFFFFF AND PUSH20 0xFFFFFFFFFFFFFFFFFFFFFFFFFFFFFFFFFFFFFFFF AND DUP2 MSTORE PUSH1 0x20 ADD SWAP1 DUP2 MSTORE PUSH1 0x20 ADD PUSH1 0x0 KECCAK256 SLOAD PUSH2 0x1F49 SWAP1 SWAP3 SWAP2 SWAP1 PUSH4 0xFFFFFFFF AND JUMP JUMPDEST PUSH2 0x1A68 JUMP JUMPDEST PUSH1 0x1 SWAP1 POP SWAP3 SWAP2 POP POP JUMP JUMPDEST PUSH1 0x0 PUSH2 0x15E2 PUSH2 0x15DB PUSH2 0x1A60 JUMP JUMPDEST DUP5 DUP5 PUSH2 0x1C8F JUMP JUMPDEST PUSH1 0x1 SWAP1 POP SWAP3 SWAP2 POP POP JUMP JUMPDEST PUSH1 0x0 PUSH2 0x15F9 PUSH1 0x7 DUP4 PUSH2 0x239B JUMP JUMPDEST SWAP1 POP SWAP2 SWAP1 POP JUMP JUMPDEST PUSH1 0x0 PUSH11 0x84595161401484A000000 SWAP1 POP SWAP1 JUMP JUMPDEST PUSH2 0x161C CALLER PUSH2 0x15EC JUMP JUMPDEST PUSH2 0x168E JUMPI PUSH1 0x40 MLOAD PUSH32 0x8C379A000000000000000000000000000000000000000000000000000000000 DUP2 MSTORE PUSH1 0x4 ADD DUP1 DUP1 PUSH1 0x20 ADD DUP3 DUP2 SUB DUP3 MSTORE PUSH1 0x18 DUP2 MSTORE PUSH1 0x20 ADD DUP1 PUSH32 0x63616C6C6572206973206E6F7420746865206D696E7465720000000000000000 DUP2 MSTORE POP PUSH1 0x20 ADD SWAP2 POP POP PUSH1 0x40 MLOAD DUP1 SWAP2 SUB SWAP1 REVERT JUMPDEST PUSH1 0x9 PUSH1 0x0 SWAP1 SLOAD SWAP1 PUSH2 0x100 EXP SWAP1 DIV PUSH20 0xFFFFFFFFFFFFFFFFFFFFFFFFFFFFFFFFFFFFFFFF AND PUSH20 0xFFFFFFFFFFFFFFFFFFFFFFFFFFFFFFFFFFFFFFFF AND PUSH4 0xA9059CBB CALLER DUP4 PUSH1 0x40 MLOAD DUP4 PUSH4 0xFFFFFFFF AND PUSH1 0xE0 SHL DUP2 MSTORE PUSH1 0x4 ADD DUP1 DUP4 PUSH20 0xFFFFFFFFFFFFFFFFFFFFFFFFFFFFFFFFFFFFFFFF AND DUP2 MSTORE PUSH1 0x20 ADD DUP3 DUP2 MSTORE PUSH1 0x20 ADD SWAP3 POP POP POP PUSH1 0x20 PUSH1 0x40 MLOAD DUP1 DUP4 SUB DUP2 PUSH1 0x0 DUP8 DUP1 EXTCODESIZE ISZERO DUP1 ISZERO PUSH2 0x1721 JUMPI PUSH1 0x0 DUP1 REVERT JUMPDEST POP GAS CALL ISZERO DUP1 ISZERO PUSH2 0x1735 JUMPI RETURNDATASIZE PUSH1 0x0 DUP1 RETURNDATACOPY RETURNDATASIZE PUSH1 0x0 REVERT JUMPDEST POP POP POP POP PUSH1 0x40 MLOAD RETURNDATASIZE PUSH1 0x20 DUP2 LT ISZERO PUSH2 0x174B JUMPI PUSH1 0x0 DUP1 REVERT JUMPDEST DUP2 ADD SWAP1 DUP1 DUP1 MLOAD SWAP1 PUSH1 0x20 ADD SWAP1 SWAP3 SWAP2 SWAP1 POP POP POP PUSH2 0x1765 JUMPI PUSH1 0x0 DUP1 REVERT JUMPDEST PUSH2 0x176F CALLER DUP3 PUSH2 0x23CB JUMP JUMPDEST POP JUMP JUMPDEST PUSH2 0x177B CALLER PUSH2 0x15EC JUMP JUMPDEST PUSH2 0x17ED JUMPI PUSH1 0x40 MLOAD PUSH32 0x8C379A000000000000000000000000000000000000000000000000000000000 DUP2 MSTORE PUSH1 0x4 ADD DUP1 DUP1 PUSH1 0x20 ADD DUP3 DUP2 SUB DUP3 MSTORE PUSH1 0x18 DUP2 MSTORE PUSH1 0x20 ADD DUP1 PUSH32 0x63616C6C6572206973206E6F7420746865206D696E7465720000000000000000 DUP2 MSTORE POP PUSH1 0x20 ADD SWAP2 POP POP PUSH1 0x40 MLOAD DUP1 SWAP2 SUB SWAP1 REVERT JUMPDEST PUSH1 0x9 PUSH1 0x0 SWAP1 SLOAD SWAP1 PUSH2 0x100 EXP SWAP1 DIV PUSH20 0xFFFFFFFFFFFFFFFFFFFFFFFFFFFFFFFFFFFFFFFF AND PUSH20 0xFFFFFFFFFFFFFFFFFFFFFFFFFFFFFFFFFFFFFFFF AND PUSH4 0x23B872DD CALLER ADDRESS DUP5 PUSH1 0x40 MLOAD DUP5 PUSH4 0xFFFFFFFF AND PUSH1 0xE0 SHL DUP2 MSTORE PUSH1 0x4 ADD DUP1 DUP5 PUSH20 0xFFFFFFFFFFFFFFFFFFFFFFFFFFFFFFFFFFFFFFFF AND DUP2 MSTORE PUSH1 0x20 ADD DUP4 PUSH20 0xFFFFFFFFFFFFFFFFFFFFFFFFFFFFFFFFFFFFFFFF AND DUP2 MSTORE PUSH1 0x20 ADD DUP3 DUP2 MSTORE PUSH1 0x20 ADD SWAP4 POP POP POP POP PUSH1 0x20 PUSH1 0x40 MLOAD DUP1 DUP4 SUB DUP2 PUSH1 0x0 DUP8 DUP1 EXTCODESIZE ISZERO DUP1 ISZERO PUSH2 0x189E JUMPI PUSH1 0x0 DUP1 REVERT JUMPDEST POP GAS CALL ISZERO DUP1 ISZERO PUSH2 0x18B2 JUMPI RETURNDATASIZE PUSH1 0x0 DUP1 RETURNDATACOPY RETURNDATASIZE PUSH1 0x0 REVERT JUMPDEST POP POP POP POP PUSH1 0x40 MLOAD RETURNDATASIZE PUSH1 0x20 DUP2 LT ISZERO PUSH2 0x18C8 JUMPI PUSH1 0x0 DUP1 REVERT JUMPDEST DUP2 ADD SWAP1 DUP1 DUP1 MLOAD SWAP1 PUSH1 0x20 ADD SWAP1 SWAP3 SWAP2 SWAP1 POP POP POP PUSH2 0x18E2 JUMPI PUSH1 0x0 DUP1 REVERT JUMPDEST PUSH2 0x18EC CALLER DUP3 PUSH2 0x2091 JUMP JUMPDEST POP POP JUMP JUMPDEST PUSH1 0x0 PUSH1 0x2 PUSH1 0x0 DUP5 PUSH20 0xFFFFFFFFFFFFFFFFFFFFFFFFFFFFFFFFFFFFFFFF AND PUSH20 0xFFFFFFFFFFFFFFFFFFFFFFFFFFFFFFFFFFFFFFFF AND DUP2 MSTORE PUSH1 0x20 ADD SWAP1 DUP2 MSTORE PUSH1 0x20 ADD PUSH1 0x0 KECCAK256 PUSH1 0x0 DUP4 PUSH20 0xFFFFFFFFFFFFFFFFFFFFFFFFFFFFFFFFFFFFFFFF AND PUSH20 0xFFFFFFFFFFFFFFFFFFFFFFFFFFFFFFFFFFFFFFFF AND DUP2 MSTORE PUSH1 0x20 ADD SWAP1 DUP2 MSTORE PUSH1 0x20 ADD PUSH1 0x0 KECCAK256 SLOAD SWAP1 POP SWAP3 SWAP2 POP POP JUMP JUMPDEST PUSH2 0x197F PUSH2 0x1A60 JUMP JUMPDEST PUSH20 0xFFFFFFFFFFFFFFFFFFFFFFFFFFFFFFFFFFFFFFFF AND PUSH1 0x0 DUP1 SLOAD SWAP1 PUSH2 0x100 EXP SWAP1 DIV PUSH20 0xFFFFFFFFFFFFFFFFFFFFFFFFFFFFFFFFFFFFFFFF AND PUSH20 0xFFFFFFFFFFFFFFFFFFFFFFFFFFFFFFFFFFFFFFFF AND EQ PUSH2 0x1A3F JUMPI PUSH1 0x40 MLOAD PUSH32 0x8C379A000000000000000000000000000000000000000000000000000000000 DUP2 MSTORE PUSH1 0x4 ADD DUP1 DUP1 PUSH1 0x20 ADD DUP3 DUP2 SUB DUP3 MSTORE PUSH1 0x20 DUP2 MSTORE PUSH1 0x20 ADD DUP1 PUSH32 0x4F776E61626C653A2063616C6C6572206973206E6F7420746865206F776E6572 DUP2 MSTORE POP PUSH1 0x20 ADD SWAP2 POP POP PUSH1 0x40 MLOAD DUP1 SWAP2 SUB SWAP1 REVERT JUMPDEST PUSH2 0x1A48 DUP2 PUSH2 0x2585 JUMP JUMPDEST POP JUMP JUMPDEST PUSH1 0x0 PUSH2 0x1A59 DUP3 PUSH1 0x0 ADD PUSH2 0x26C8 JUMP JUMPDEST SWAP1 POP SWAP2 SWAP1 POP JUMP JUMPDEST PUSH1 0x0 CALLER SWAP1 POP SWAP1 JUMP JUMPDEST PUSH1 0x0 PUSH20 0xFFFFFFFFFFFFFFFFFFFFFFFFFFFFFFFFFFFFFFFF AND DUP4 PUSH20 0xFFFFFFFFFFFFFFFFFFFFFFFFFFFFFFFFFFFFFFFF AND EQ ISZERO PUSH2 0x1AEE JUMPI PUSH1 0x40 MLOAD PUSH32 0x8C379A000000000000000000000000000000000000000000000000000000000 DUP2 MSTORE PUSH1 0x4 ADD DUP1 DUP1 PUSH1 0x20 ADD DUP3 DUP2 SUB DUP3 MSTORE PUSH1 0x24 DUP2 MSTORE PUSH1 0x20 ADD DUP1 PUSH2 0x2AD1 PUSH1 0x24 SWAP2 CODECOPY PUSH1 0x40 ADD SWAP2 POP POP PUSH1 0x40 MLOAD DUP1 SWAP2 SUB SWAP1 REVERT JUMPDEST PUSH1 0x0 PUSH20 0xFFFFFFFFFFFFFFFFFFFFFFFFFFFFFFFFFFFFFFFF AND DUP3 PUSH20 0xFFFFFFFFFFFFFFFFFFFFFFFFFFFFFFFFFFFFFFFF AND EQ ISZERO PUSH2 0x1B74 JUMPI PUSH1 0x40 MLOAD PUSH32 0x8C379A000000000000000000000000000000000000000000000000000000000 DUP2 MSTORE PUSH1 0x4 ADD DUP1 DUP1 PUSH1 0x20 ADD DUP3 DUP2 SUB DUP3 MSTORE PUSH1 0x22 DUP2 MSTORE PUSH1 0x20 ADD DUP1 PUSH2 0x29D3 PUSH1 0x22 SWAP2 CODECOPY PUSH1 0x40 ADD SWAP2 POP POP PUSH1 0x40 MLOAD DUP1 SWAP2 SUB SWAP1 REVERT JUMPDEST DUP1 PUSH1 0x2 PUSH1 0x0 DUP6 PUSH20 0xFFFFFFFFFFFFFFFFFFFFFFFFFFFFFFFFFFFFFFFF AND PUSH20 0xFFFFFFFFFFFFFFFFFFFFFFFFFFFFFFFFFFFFFFFF AND DUP2 MSTORE PUSH1 0x20 ADD SWAP1 DUP2 MSTORE PUSH1 0x20 ADD PUSH1 0x0 KECCAK256 PUSH1 0x0 DUP5 PUSH20 0xFFFFFFFFFFFFFFFFFFFFFFFFFFFFFFFFFFFFFFFF AND PUSH20 0xFFFFFFFFFFFFFFFFFFFFFFFFFFFFFFFFFFFFFFFF AND DUP2 MSTORE PUSH1 0x20 ADD SWAP1 DUP2 MSTORE PUSH1 0x20 ADD PUSH1 0x0 KECCAK256 DUP2 SWAP1 SSTORE POP DUP2 PUSH20 0xFFFFFFFFFFFFFFFFFFFFFFFFFFFFFFFFFFFFFFFF AND DUP4 PUSH20 0xFFFFFFFFFFFFFFFFFFFFFFFFFFFFFFFFFFFFFFFF AND PUSH32 0x8C5BE1E5EBEC7D5BD14F71427D1E84F3DD0314C0F7B2291E5B200AC8C7C3B925 DUP4 PUSH1 0x40 MLOAD DUP1 DUP3 DUP2 MSTORE PUSH1 0x20 ADD SWAP2 POP POP PUSH1 0x40 MLOAD DUP1 SWAP2 SUB SWAP1 LOG3 POP POP POP JUMP JUMPDEST PUSH1 0x0 PUSH2 0x1C87 DUP4 PUSH1 0x0 ADD DUP4 PUSH20 0xFFFFFFFFFFFFFFFFFFFFFFFFFFFFFFFFFFFFFFFF AND PUSH1 0x0 SHL PUSH2 0x26D9 JUMP JUMPDEST SWAP1 POP SWAP3 SWAP2 POP POP JUMP JUMPDEST PUSH1 0x0 PUSH20 0xFFFFFFFFFFFFFFFFFFFFFFFFFFFFFFFFFFFFFFFF AND DUP4 PUSH20 0xFFFFFFFFFFFFFFFFFFFFFFFFFFFFFFFFFFFFFFFF AND EQ ISZERO PUSH2 0x1D15 JUMPI PUSH1 0x40 MLOAD PUSH32 0x8C379A000000000000000000000000000000000000000000000000000000000 DUP2 MSTORE PUSH1 0x4 ADD DUP1 DUP1 PUSH1 0x20 ADD DUP3 DUP2 SUB DUP3 MSTORE PUSH1 0x25 DUP2 MSTORE PUSH1 0x20 ADD DUP1 PUSH2 0x2AAC PUSH1 0x25 SWAP2 CODECOPY PUSH1 0x40 ADD SWAP2 POP POP PUSH1 0x40 MLOAD DUP1 SWAP2 SUB SWAP1 REVERT JUMPDEST PUSH1 0x0 PUSH20 0xFFFFFFFFFFFFFFFFFFFFFFFFFFFFFFFFFFFFFFFF AND DUP3 PUSH20 0xFFFFFFFFFFFFFFFFFFFFFFFFFFFFFFFFFFFFFFFF AND EQ ISZERO PUSH2 0x1D9B JUMPI PUSH1 0x40 MLOAD PUSH32 0x8C379A000000000000000000000000000000000000000000000000000000000 DUP2 MSTORE PUSH1 0x4 ADD DUP1 DUP1 PUSH1 0x20 ADD DUP3 DUP2 SUB DUP3 MSTORE PUSH1 0x23 DUP2 MSTORE PUSH1 0x20 ADD DUP1 PUSH2 0x2944 PUSH1 0x23 SWAP2 CODECOPY PUSH1 0x40 ADD SWAP2 POP POP PUSH1 0x40 MLOAD DUP1 SWAP2 SUB SWAP1 REVERT JUMPDEST PUSH2 0x1E07 DUP2 PUSH1 0x40 MLOAD DUP1 PUSH1 0x60 ADD PUSH1 0x40 MSTORE DUP1 PUSH1 0x26 DUP2 MSTORE PUSH1 0x20 ADD PUSH2 0x29F5 PUSH1 0x26 SWAP2 CODECOPY PUSH1 0x1 PUSH1 0x0 DUP8 PUSH20 0xFFFFFFFFFFFFFFFFFFFFFFFFFFFFFFFFFFFFFFFF AND PUSH20 0xFFFFFFFFFFFFFFFFFFFFFFFFFFFFFFFFFFFFFFFF AND DUP2 MSTORE PUSH1 0x20 ADD SWAP1 DUP2 MSTORE PUSH1 0x20 ADD PUSH1 0x0 KECCAK256 SLOAD PUSH2 0x1F49 SWAP1 SWAP3 SWAP2 SWAP1 PUSH4 0xFFFFFFFF AND JUMP JUMPDEST PUSH1 0x1 PUSH1 0x0 DUP6 PUSH20 0xFFFFFFFFFFFFFFFFFFFFFFFFFFFFFFFFFFFFFFFF AND PUSH20 0xFFFFFFFFFFFFFFFFFFFFFFFFFFFFFFFFFFFFFFFF AND DUP2 MSTORE PUSH1 0x20 ADD SWAP1 DUP2 MSTORE PUSH1 0x20 ADD PUSH1 0x0 KECCAK256 DUP2 SWAP1 SSTORE POP PUSH2 0x1E9C DUP2 PUSH1 0x1 PUSH1 0x0 DUP6 PUSH20 0xFFFFFFFFFFFFFFFFFFFFFFFFFFFFFFFFFFFFFFFF AND PUSH20 0xFFFFFFFFFFFFFFFFFFFFFFFFFFFFFFFFFFFFFFFF AND DUP2 MSTORE PUSH1 0x20 ADD SWAP1 DUP2 MSTORE PUSH1 0x20 ADD PUSH1 0x0 KECCAK256 SLOAD PUSH2 0x2009 SWAP1 SWAP2 SWAP1 PUSH4 0xFFFFFFFF AND JUMP JUMPDEST PUSH1 0x1 PUSH1 0x0 DUP5 PUSH20 0xFFFFFFFFFFFFFFFFFFFFFFFFFFFFFFFFFFFFFFFF AND PUSH20 0xFFFFFFFFFFFFFFFFFFFFFFFFFFFFFFFFFFFFFFFF AND DUP2 MSTORE PUSH1 0x20 ADD SWAP1 DUP2 MSTORE PUSH1 0x20 ADD PUSH1 0x0 KECCAK256 DUP2 SWAP1 SSTORE POP DUP2 PUSH20 0xFFFFFFFFFFFFFFFFFFFFFFFFFFFFFFFFFFFFFFFF AND DUP4 PUSH20 0xFFFFFFFFFFFFFFFFFFFFFFFFFFFFFFFFFFFFFFFF AND PUSH32 0xDDF252AD1BE2C89B69C2B068FC378DAA952BA7F163C4A11628F55A4DF523B3EF DUP4 PUSH1 0x40 MLOAD DUP1 DUP3 DUP2 MSTORE PUSH1 0x20 ADD SWAP2 POP POP PUSH1 0x40 MLOAD DUP1 SWAP2 SUB SWAP1 LOG3 POP POP POP JUMP JUMPDEST PUSH1 0x0 DUP4 DUP4 GT ISZERO DUP3 SWAP1 PUSH2 0x1FF6 JUMPI PUSH1 0x40 MLOAD PUSH32 0x8C379A000000000000000000000000000000000000000000000000000000000 DUP2 MSTORE PUSH1 0x4 ADD DUP1 DUP1 PUSH1 0x20 ADD DUP3 DUP2 SUB DUP3 MSTORE DUP4 DUP2 DUP2 MLOAD DUP2 MSTORE PUSH1 0x20 ADD SWAP2 POP DUP1 MLOAD SWAP1 PUSH1 0x20 ADD SWAP1 DUP1 DUP4 DUP4 PUSH1 0x0 JUMPDEST DUP4 DUP2 LT ISZERO PUSH2 0x1FBB JUMPI DUP1 DUP3 ADD MLOAD DUP2 DUP5 ADD MSTORE PUSH1 0x20 DUP2 ADD SWAP1 POP PUSH2 0x1FA0 JUMP JUMPDEST POP POP POP POP SWAP1 POP SWAP1 DUP2 ADD SWAP1 PUSH1 0x1F AND DUP1 ISZERO PUSH2 0x1FE8 JUMPI DUP1 DUP3 SUB DUP1 MLOAD PUSH1 0x1 DUP4 PUSH1 0x20 SUB PUSH2 0x100 EXP SUB NOT AND DUP2 MSTORE PUSH1 0x20 ADD SWAP2 POP JUMPDEST POP SWAP3 POP POP POP PUSH1 0x40 MLOAD DUP1 SWAP2 SUB SWAP1 REVERT JUMPDEST POP PUSH1 0x0 DUP4 DUP6 SUB SWAP1 POP DUP1 SWAP2 POP POP SWAP4 SWAP3 POP POP POP JUMP JUMPDEST PUSH1 0x0 DUP1 DUP3 DUP5 ADD SWAP1 POP DUP4 DUP2 LT ISZERO PUSH2 0x2087 JUMPI PUSH1 0x40 MLOAD PUSH32 0x8C379A000000000000000000000000000000000000000000000000000000000 DUP2 MSTORE PUSH1 0x4 ADD DUP1 DUP1 PUSH1 0x20 ADD DUP3 DUP2 SUB DUP3 MSTORE PUSH1 0x1B DUP2 MSTORE PUSH1 0x20 ADD DUP1 PUSH32 0x536166654D6174683A206164646974696F6E206F766572666C6F770000000000 DUP2 MSTORE POP PUSH1 0x20 ADD SWAP2 POP POP PUSH1 0x40 MLOAD DUP1 SWAP2 SUB SWAP1 REVERT JUMPDEST DUP1 SWAP2 POP POP SWAP3 SWAP2 POP POP JUMP JUMPDEST PUSH1 0x0 DUP1 PUSH20 0xFFFFFFFFFFFFFFFFFFFFFFFFFFFFFFFFFFFFFFFF AND DUP4 PUSH20 0xFFFFFFFFFFFFFFFFFFFFFFFFFFFFFFFFFFFFFFFF AND EQ ISZERO PUSH2 0x2135 JUMPI PUSH1 0x40 MLOAD PUSH32 0x8C379A000000000000000000000000000000000000000000000000000000000 DUP2 MSTORE PUSH1 0x4 ADD DUP1 DUP1 PUSH1 0x20 ADD DUP3 DUP2 SUB DUP3 MSTORE PUSH1 0x1F DUP2 MSTORE PUSH1 0x20 ADD DUP1 PUSH32 0x45524332303A206D696E7420746F20746865207A65726F206164647265737300 DUP2 MSTORE POP PUSH1 0x20 ADD SWAP2 POP POP PUSH1 0x40 MLOAD DUP1 SWAP2 SUB SWAP1 REVERT JUMPDEST PUSH11 0x84595161401484A000000 PUSH2 0x2156 PUSH1 0x3 SLOAD DUP5 PUSH2 0x2009 SWAP1 SWAP2 SWAP1 PUSH4 0xFFFFFFFF AND JUMP JUMPDEST GT ISZERO PUSH2 0x2165 JUMPI PUSH1 0x0 SWAP1 POP PUSH2 0x227C JUMP JUMPDEST PUSH2 0x217A DUP3 PUSH1 0x3 SLOAD PUSH2 0x2009 SWAP1 SWAP2 SWAP1 PUSH4 0xFFFFFFFF AND JUMP JUMPDEST PUSH1 0x3 DUP2 SWAP1 SSTORE POP PUSH2 0x21D2 DUP3 PUSH1 0x1 PUSH1 0x0 DUP7 PUSH20 0xFFFFFFFFFFFFFFFFFFFFFFFFFFFFFFFFFFFFFFFF AND PUSH20 0xFFFFFFFFFFFFFFFFFFFFFFFFFFFFFFFFFFFFFFFF AND DUP2 MSTORE PUSH1 0x20 ADD SWAP1 DUP2 MSTORE PUSH1 0x20 ADD PUSH1 0x0 KECCAK256 SLOAD PUSH2 0x2009 SWAP1 SWAP2 SWAP1 PUSH4 0xFFFFFFFF AND JUMP JUMPDEST PUSH1 0x1 PUSH1 0x0 DUP6 PUSH20 0xFFFFFFFFFFFFFFFFFFFFFFFFFFFFFFFFFFFFFFFF AND PUSH20 0xFFFFFFFFFFFFFFFFFFFFFFFFFFFFFFFFFFFFFFFF AND DUP2 MSTORE PUSH1 0x20 ADD SWAP1 DUP2 MSTORE PUSH1 0x20 ADD PUSH1 0x0 KECCAK256 DUP2 SWAP1 SSTORE POP DUP3 PUSH20 0xFFFFFFFFFFFFFFFFFFFFFFFFFFFFFFFFFFFFFFFF AND PUSH1 0x0 PUSH20 0xFFFFFFFFFFFFFFFFFFFFFFFFFFFFFFFFFFFFFFFF AND PUSH32 0xDDF252AD1BE2C89B69C2B068FC378DAA952BA7F163C4A11628F55A4DF523B3EF DUP5 PUSH1 0x40 MLOAD DUP1 DUP3 DUP2 MSTORE PUSH1 0x20 ADD SWAP2 POP POP PUSH1 0x40 MLOAD DUP1 SWAP2 SUB SWAP1 LOG3 JUMPDEST SWAP3 SWAP2 POP POP JUMP JUMPDEST PUSH1 0x0 PUSH2 0x2291 DUP4 PUSH1 0x0 ADD DUP4 PUSH2 0x27C1 JUMP JUMPDEST PUSH1 0x0 SHR SWAP1 POP SWAP3 SWAP2 POP POP JUMP JUMPDEST PUSH2 0x22A6 DUP3 DUP3 PUSH2 0x23CB JUMP JUMPDEST PUSH2 0x2367 DUP3 PUSH2 0x22B2 PUSH2 0x1A60 JUMP JUMPDEST PUSH2 0x2362 DUP5 PUSH1 0x40 MLOAD DUP1 PUSH1 0x60 ADD PUSH1 0x40 MSTORE DUP1 PUSH1 0x24 DUP2 MSTORE PUSH1 0x20 ADD PUSH2 0x2A67 PUSH1 0x24 SWAP2 CODECOPY PUSH1 0x2 PUSH1 0x0 DUP10 PUSH20 0xFFFFFFFFFFFFFFFFFFFFFFFFFFFFFFFFFFFFFFFF AND PUSH20 0xFFFFFFFFFFFFFFFFFFFFFFFFFFFFFFFFFFFFFFFF AND DUP2 MSTORE PUSH1 0x20 ADD SWAP1 DUP2 MSTORE PUSH1 0x20 ADD PUSH1 0x0 KECCAK256 PUSH1 0x0 PUSH2 0x2318 PUSH2 0x1A60 JUMP JUMPDEST PUSH20 0xFFFFFFFFFFFFFFFFFFFFFFFFFFFFFFFFFFFFFFFF AND PUSH20 0xFFFFFFFFFFFFFFFFFFFFFFFFFFFFFFFFFFFFFFFF AND DUP2 MSTORE PUSH1 0x20 ADD SWAP1 DUP2 MSTORE PUSH1 0x20 ADD PUSH1 0x0 KECCAK256 SLOAD PUSH2 0x1F49 SWAP1 SWAP3 SWAP2 SWAP1 PUSH4 0xFFFFFFFF AND JUMP JUMPDEST PUSH2 0x1A68 JUMP JUMPDEST POP POP JUMP JUMPDEST PUSH1 0x0 PUSH2 0x2393 DUP4 PUSH1 0x0 ADD DUP4 PUSH20 0xFFFFFFFFFFFFFFFFFFFFFFFFFFFFFFFFFFFFFFFF AND PUSH1 0x0 SHL PUSH2 0x2844 JUMP JUMPDEST SWAP1 POP SWAP3 SWAP2 POP POP JUMP JUMPDEST PUSH1 0x0 PUSH2 0x23C3 DUP4 PUSH1 0x0 ADD DUP4 PUSH20 0xFFFFFFFFFFFFFFFFFFFFFFFFFFFFFFFFFFFFFFFF AND PUSH1 0x0 SHL PUSH2 0x28B4 JUMP JUMPDEST SWAP1 POP SWAP3 SWAP2 POP POP JUMP JUMPDEST PUSH1 0x0 PUSH20 0xFFFFFFFFFFFFFFFFFFFFFFFFFFFFFFFFFFFFFFFF AND DUP3 PUSH20 0xFFFFFFFFFFFFFFFFFFFFFFFFFFFFFFFFFFFFFFFF AND EQ ISZERO PUSH2 0x2451 JUMPI PUSH1 0x40 MLOAD PUSH32 0x8C379A000000000000000000000000000000000000000000000000000000000 DUP2 MSTORE PUSH1 0x4 ADD DUP1 DUP1 PUSH1 0x20 ADD DUP3 DUP2 SUB DUP3 MSTORE PUSH1 0x21 DUP2 MSTORE PUSH1 0x20 ADD DUP1 PUSH2 0x2A8B PUSH1 0x21 SWAP2 CODECOPY PUSH1 0x40 ADD SWAP2 POP POP PUSH1 0x40 MLOAD DUP1 SWAP2 SUB SWAP1 REVERT JUMPDEST PUSH2 0x24BD DUP2 PUSH1 0x40 MLOAD DUP1 PUSH1 0x60 ADD PUSH1 0x40 MSTORE DUP1 PUSH1 0x22 DUP2 MSTORE PUSH1 0x20 ADD PUSH2 0x298B PUSH1 0x22 SWAP2 CODECOPY PUSH1 0x1 PUSH1 0x0 DUP7 PUSH20 0xFFFFFFFFFFFFFFFFFFFFFFFFFFFFFFFFFFFFFFFF AND PUSH20 0xFFFFFFFFFFFFFFFFFFFFFFFFFFFFFFFFFFFFFFFF AND DUP2 MSTORE PUSH1 0x20 ADD SWAP1 DUP2 MSTORE PUSH1 0x20 ADD PUSH1 0x0 KECCAK256 SLOAD PUSH2 0x1F49 SWAP1 SWAP3 SWAP2 SWAP1 PUSH4 0xFFFFFFFF AND JUMP JUMPDEST PUSH1 0x1 PUSH1 0x0 DUP5 PUSH20 0xFFFFFFFFFFFFFFFFFFFFFFFFFFFFFFFFFFFFFFFF AND PUSH20 0xFFFFFFFFFFFFFFFFFFFFFFFFFFFFFFFFFFFFFFFF AND DUP2 MSTORE PUSH1 0x20 ADD SWAP1 DUP2 MSTORE PUSH1 0x20 ADD PUSH1 0x0 KECCAK256 DUP2 SWAP1 SSTORE POP PUSH2 0x2515 DUP2 PUSH1 0x3 SLOAD PUSH2 0x28D7 SWAP1 SWAP2 SWAP1 PUSH4 0xFFFFFFFF AND JUMP JUMPDEST PUSH1 0x3 DUP2 SWAP1 SSTORE POP PUSH1 0x0 PUSH20 0xFFFFFFFFFFFFFFFFFFFFFFFFFFFFFFFFFFFFFFFF AND DUP3 PUSH20 0xFFFFFFFFFFFFFFFFFFFFFFFFFFFFFFFFFFFFFFFF AND PUSH32 0xDDF252AD1BE2C89B69C2B068FC378DAA952BA7F163C4A11628F55A4DF523B3EF DUP4 PUSH1 0x40 MLOAD DUP1 DUP3 DUP2 MSTORE PUSH1 0x20 ADD SWAP2 POP POP PUSH1 0x40 MLOAD DUP1 SWAP2 SUB SWAP1 LOG3 POP POP JUMP JUMPDEST PUSH1 0x0 PUSH20 0xFFFFFFFFFFFFFFFFFFFFFFFFFFFFFFFFFFFFFFFF AND DUP2 PUSH20 0xFFFFFFFFFFFFFFFFFFFFFFFFFFFFFFFFFFFFFFFF AND EQ ISZERO PUSH2 0x260B JUMPI PUSH1 0x40 MLOAD PUSH32 0x8C379A000000000000000000000000000000000000000000000000000000000 DUP2 MSTORE PUSH1 0x4 ADD DUP1 DUP1 PUSH1 0x20 ADD DUP3 DUP2 SUB DUP3 MSTORE PUSH1 0x26 DUP2 MSTORE PUSH1 0x20 ADD DUP1 PUSH2 0x29AD PUSH1 0x26 SWAP2 CODECOPY PUSH1 0x40 ADD SWAP2 POP POP PUSH1 0x40 MLOAD DUP1 SWAP2 SUB SWAP1 REVERT JUMPDEST DUP1 PUSH20 0xFFFFFFFFFFFFFFFFFFFFFFFFFFFFFFFFFFFFFFFF AND PUSH1 0x0 DUP1 SLOAD SWAP1 PUSH2 0x100 EXP SWAP1 DIV PUSH20 0xFFFFFFFFFFFFFFFFFFFFFFFFFFFFFFFFFFFFFFFF AND PUSH20 0xFFFFFFFFFFFFFFFFFFFFFFFFFFFFFFFFFFFFFFFF AND PUSH32 0x8BE0079C531659141344CD1FD0A4F28419497F9722A3DAAFE3B4186F6B6457E0 PUSH1 0x40 MLOAD PUSH1 0x40 MLOAD DUP1 SWAP2 SUB SWAP1 LOG3 DUP1 PUSH1 0x0 DUP1 PUSH2 0x100 EXP DUP2 SLOAD DUP2 PUSH20 0xFFFFFFFFFFFFFFFFFFFFFFFFFFFFFFFFFFFFFFFF MUL NOT AND SWAP1 DUP4 PUSH20 0xFFFFFFFFFFFFFFFFFFFFFFFFFFFFFFFFFFFFFFFF AND MUL OR SWAP1 SSTORE POP POP JUMP JUMPDEST PUSH1 0x0 DUP2 PUSH1 0x0 ADD DUP1 SLOAD SWAP1 POP SWAP1 POP SWAP2 SWAP1 POP JUMP JUMPDEST PUSH1 0x0 DUP1 DUP4 PUSH1 0x1 ADD PUSH1 0x0 DUP5 DUP2 MSTORE PUSH1 0x20 ADD SWAP1 DUP2 MSTORE PUSH1 0x20 ADD PUSH1 0x0 KECCAK256 SLOAD SWAP1 POP PUSH1 0x0 DUP2 EQ PUSH2 0x27B5 JUMPI PUSH1 0x0 PUSH1 0x1 DUP3 SUB SWAP1 POP PUSH1 0x0 PUSH1 0x1 DUP7 PUSH1 0x0 ADD DUP1 SLOAD SWAP1 POP SUB SWAP1 POP PUSH1 0x0 DUP7 PUSH1 0x0 ADD DUP3 DUP2 SLOAD DUP2 LT PUSH2 0x2724 JUMPI INVALID JUMPDEST SWAP1 PUSH1 0x0 MSTORE PUSH1 0x20 PUSH1 0x0 KECCAK256 ADD SLOAD SWAP1 POP DUP1 DUP8 PUSH1 0x0 ADD DUP5 DUP2 SLOAD DUP2 LT PUSH2 0x2741 JUMPI INVALID JUMPDEST SWAP1 PUSH1 0x0 MSTORE PUSH1 0x20 PUSH1 0x0 KECCAK256 ADD DUP2 SWAP1 SSTORE POP PUSH1 0x1 DUP4 ADD DUP8 PUSH1 0x1 ADD PUSH1 0x0 DUP4 DUP2 MSTORE PUSH1 0x20 ADD SWAP1 DUP2 MSTORE PUSH1 0x20 ADD PUSH1 0x0 KECCAK256 DUP2 SWAP1 SSTORE POP DUP7 PUSH1 0x0 ADD DUP1 SLOAD DUP1 PUSH2 0x2779 JUMPI INVALID JUMPDEST PUSH1 0x1 SWAP1 SUB DUP2 DUP2 SWAP1 PUSH1 0x0 MSTORE PUSH1 0x20 PUSH1 0x0 KECCAK256 ADD PUSH1 0x0 SWAP1 SSTORE SWAP1 SSTORE DUP7 PUSH1 0x1 ADD PUSH1 0x0 DUP8 DUP2 MSTORE PUSH1 0x20 ADD SWAP1 DUP2 MSTORE PUSH1 0x20 ADD PUSH1 0x0 KECCAK256 PUSH1 0x0 SWAP1 SSTORE PUSH1 0x1 SWAP5 POP POP POP POP POP PUSH2 0x27BB JUMP JUMPDEST PUSH1 0x0 SWAP2 POP POP JUMPDEST SWAP3 SWAP2 POP POP JUMP JUMPDEST PUSH1 0x0 DUP2 DUP4 PUSH1 0x0 ADD DUP1 SLOAD SWAP1 POP GT PUSH2 0x2822 JUMPI PUSH1 0x40 MLOAD PUSH32 0x8C379A000000000000000000000000000000000000000000000000000000000 DUP2 MSTORE PUSH1 0x4 ADD DUP1 DUP1 PUSH1 0x20 ADD DUP3 DUP2 SUB DUP3 MSTORE PUSH1 0x22 DUP2 MSTORE PUSH1 0x20 ADD DUP1 PUSH2 0x2922 PUSH1 0x22 SWAP2 CODECOPY PUSH1 0x40 ADD SWAP2 POP POP PUSH1 0x40 MLOAD DUP1 SWAP2 SUB SWAP1 REVERT JUMPDEST DUP3 PUSH1 0x0 ADD DUP3 DUP2 SLOAD DUP2 LT PUSH2 0x2831 JUMPI INVALID JUMPDEST SWAP1 PUSH1 0x0 MSTORE PUSH1 0x20 PUSH1 0x0 KECCAK256 ADD SLOAD SWAP1 POP SWAP3 SWAP2 POP POP JUMP JUMPDEST PUSH1 0x0 PUSH2 0x2850 DUP4 DUP4 PUSH2 0x28B4 JUMP JUMPDEST PUSH2 0x28A9 JUMPI DUP3 PUSH1 0x0 ADD DUP3 SWAP1 DUP1 PUSH1 0x1 DUP2 SLOAD ADD DUP1 DUP3 SSTORE DUP1 SWAP2 POP POP PUSH1 0x1 SWAP1 SUB SWAP1 PUSH1 0x0 MSTORE PUSH1 0x20 PUSH1 0x0 KECCAK256 ADD PUSH1 0x0 SWAP1 SWAP2 SWAP1 SWAP2 SWAP1 SWAP2 POP SSTORE DUP3 PUSH1 0x0 ADD DUP1 SLOAD SWAP1 POP DUP4 PUSH1 0x1 ADD PUSH1 0x0 DUP5 DUP2 MSTORE PUSH1 0x20 ADD SWAP1 DUP2 MSTORE PUSH1 0x20 ADD PUSH1 0x0 KECCAK256 DUP2 SWAP1 SSTORE POP PUSH1 0x1 SWAP1 POP PUSH2 0x28AE JUMP JUMPDEST PUSH1 0x0 SWAP1 POP JUMPDEST SWAP3 SWAP2 POP POP JUMP JUMPDEST PUSH1 0x0 DUP1 DUP4 PUSH1 0x1 ADD PUSH1 0x0 DUP5 DUP2 MSTORE PUSH1 0x20 ADD SWAP1 DUP2 MSTORE PUSH1 0x20 ADD PUSH1 0x0 KECCAK256 SLOAD EQ ISZERO SWAP1 POP SWAP3 SWAP2 POP POP JUMP JUMPDEST PUSH1 0x0 PUSH2 0x2919 DUP4 DUP4 PUSH1 0x40 MLOAD DUP1 PUSH1 0x40 ADD PUSH1 0x40 MSTORE DUP1 PUSH1 0x1E DUP2 MSTORE PUSH1 0x20 ADD PUSH32 0x536166654D6174683A207375627472616374696F6E206F766572666C6F770000 DUP2 MSTORE POP PUSH2 0x1F49 JUMP JUMPDEST SWAP1 POP SWAP3 SWAP2 POP POP JUMP INVALID GASLIMIT PUSH15 0x756D657261626C655365743A20696E PUSH5 0x6578206F75 PUSH21 0x206F6620626F756E647345524332303A207472616E PUSH20 0x66657220746F20746865207A65726F2061646472 PUSH6 0x7373784D4D46 GASPRICE KECCAK256 0x5F PUSH5 0x656C4D696E PUSH21 0x657220697320746865207A65726F20616464726573 PUSH20 0x45524332303A206275726E20616D6F756E742065 PUSH25 0x63656564732062616C616E63654F776E61626C653A206E6577 KECCAK256 PUSH16 0x776E657220697320746865207A65726F KECCAK256 PUSH2 0x6464 PUSH19 0x65737345524332303A20617070726F76652074 PUSH16 0x20746865207A65726F20616464726573 PUSH20 0x45524332303A207472616E7366657220616D6F75 PUSH15 0x7420657863656564732062616C616E PUSH4 0x65784D4D CHAINID GASPRICE KECCAK256 0x5F PUSH2 0x6464 0x4D PUSH10 0x6E746572206973207468 PUSH6 0x207A65726F20 PUSH2 0x6464 PUSH19 0x65737345524332303A207472616E7366657220 PUSH2 0x6D6F PUSH22 0x6E74206578636565647320616C6C6F77616E63654552 NUMBER ORIGIN ADDRESS GASPRICE KECCAK256 PUSH3 0x75726E KECCAK256 PUSH2 0x6D6F PUSH22 0x6E74206578636565647320616C6C6F77616E63654552 NUMBER ORIGIN ADDRESS GASPRICE KECCAK256 PUSH3 0x75726E KECCAK256 PUSH7 0x726F6D20746865 KECCAK256 PUSH27 0x65726F206164647265737345524332303A207472616E7366657220 PUSH7 0x726F6D20746865 KECCAK256 PUSH27 0x65726F206164647265737345524332303A20617070726F76652066 PUSH19 0x6F6D20746865207A65726F2061646472657373 GASLIMIT MSTORE NUMBER ORIGIN ADDRESS GASPRICE KECCAK256 PUSH5 0x6563726561 PUSH20 0x656420616C6C6F77616E63652062656C6F77207A PUSH6 0x726FA2646970 PUSH7 0x73582212203F5D SWAP16 0xB7 0xA6 JUMP SIGNEXTEND SWAP16 0xDB LOG0 PUSH24 0xD883F151DB413A68DDCE6A6BC51B3BC457AD130CF764736F PUSH13 0x634300060C0033000000000000 "
				},
				"gasEstimates": {
					"creation": {
						"codeDepositCost": "2217400",
						"executionCost": "infinite",
						"totalCost": "infinite"
					},
					"external": {
						"addMinter(address)": "infinite",
						"allowance(address,address)": "1409",
						"approve(address,uint256)": "infinite",
						"balanceOf(address)": "1263",
						"burnFrom(address,uint256)": "infinite",
						"decimals()": "1101",
						"decreaseAllowance(address,uint256)": "infinite",
						"delMinter(address)": "infinite",
						"getMinter(uint256)": "infinite",
						"getMinterLength()": "1143",
						"getOwner()": "1113",
						"increaseAllowance(address,uint256)": "infinite",
						"isMinter(address)": "1386",
						"lock(uint256)": "infinite",
						"maxSupply()": "302",
						"mint(address,uint256)": "infinite",
						"mint(uint256)": "infinite",
						"name()": "infinite",
						"owner()": "1100",
						"redeem(uint256)": "infinite",
						"renounceOwnership()": "24380",
						"symbol()": "infinite",
						"totalSupply()": "1103",
						"transfer(address,uint256)": "infinite",
						"transferFrom(address,address,uint256)": "infinite",
						"transferOwnership(address)": "infinite"
					}
				},
				"methodIdentifiers": {
					"addMinter(address)": "983b2d56",
					"allowance(address,address)": "dd62ed3e",
					"approve(address,uint256)": "095ea7b3",
					"balanceOf(address)": "70a08231",
					"burnFrom(address,uint256)": "79cc6790",
					"decimals()": "313ce567",
					"decreaseAllowance(address,uint256)": "a457c2d7",
					"delMinter(address)": "23338b88",
					"getMinter(uint256)": "5b7121f8",
					"getMinterLength()": "0323aac7",
					"getOwner()": "893d20e8",
					"increaseAllowance(address,uint256)": "39509351",
					"isMinter(address)": "aa271e1a",
					"lock(uint256)": "dd467064",
					"maxSupply()": "d5abeb01",
					"mint(address,uint256)": "40c10f19",
					"mint(uint256)": "a0712d68",
					"name()": "06fdde03",
					"owner()": "8da5cb5b",
					"redeem(uint256)": "db006a75",
					"renounceOwnership()": "715018a6",
					"symbol()": "95d89b41",
					"totalSupply()": "18160ddd",
					"transfer(address,uint256)": "a9059cbb",
					"transferFrom(address,address,uint256)": "23b872dd",
					"transferOwnership(address)": "f2fde38b"
				}
			},
			"storageLayout": {
				"storage": [
					{
						"astId": 30,
						"contract": "token/xSWORD.sol:xeZKaliburToken",
						"label": "_owner",
						"offset": 0,
						"slot": "0",
						"type": "t_address"
					},
					{
						"astId": 734,
						"contract": "token/xSWORD.sol:xeZKaliburToken",
						"label": "_balances",
						"offset": 0,
						"slot": "1",
						"type": "t_mapping(t_address,t_uint256)"
					},
					{
						"astId": 740,
						"contract": "token/xSWORD.sol:xeZKaliburToken",
						"label": "_allowances",
						"offset": 0,
						"slot": "2",
						"type": "t_mapping(t_address,t_mapping(t_address,t_uint256))"
					},
					{
						"astId": 742,
						"contract": "token/xSWORD.sol:xeZKaliburToken",
						"label": "_totalSupply",
						"offset": 0,
						"slot": "3",
						"type": "t_uint256"
					},
					{
						"astId": 744,
						"contract": "token/xSWORD.sol:xeZKaliburToken",
						"label": "_name",
						"offset": 0,
						"slot": "4",
						"type": "t_string_storage"
					},
					{
						"astId": 746,
						"contract": "token/xSWORD.sol:xeZKaliburToken",
						"label": "_symbol",
						"offset": 0,
						"slot": "5",
						"type": "t_string_storage"
					},
					{
						"astId": 748,
						"contract": "token/xSWORD.sol:xeZKaliburToken",
						"label": "_decimals",
						"offset": 0,
						"slot": "6",
						"type": "t_uint8"
					},
					{
						"astId": 1659,
						"contract": "token/xSWORD.sol:xeZKaliburToken",
						"label": "_minters",
						"offset": 0,
						"slot": "7",
						"type": "t_struct(AddressSet)1446_storage"
					},
					{
						"astId": 1661,
						"contract": "token/xSWORD.sol:xeZKaliburToken",
						"label": "MMF",
						"offset": 0,
						"slot": "9",
						"type": "t_contract(xeZKaliburToken)1880"
					}
				],
				"types": {
					"t_address": {
						"encoding": "inplace",
						"label": "address",
						"numberOfBytes": "20"
					},
					"t_array(t_bytes32)dyn_storage": {
						"base": "t_bytes32",
						"encoding": "dynamic_array",
						"label": "bytes32[]",
						"numberOfBytes": "32"
					},
					"t_bytes32": {
						"encoding": "inplace",
						"label": "bytes32",
						"numberOfBytes": "32"
					},
					"t_contract(xeZKaliburToken)1880": {
						"encoding": "inplace",
						"label": "contract xeZKaliburToken",
						"numberOfBytes": "20"
					},
					"t_mapping(t_address,t_mapping(t_address,t_uint256))": {
						"encoding": "mapping",
						"key": "t_address",
						"label": "mapping(address => mapping(address => uint256))",
						"numberOfBytes": "32",
						"value": "t_mapping(t_address,t_uint256)"
					},
					"t_mapping(t_address,t_uint256)": {
						"encoding": "mapping",
						"key": "t_address",
						"label": "mapping(address => uint256)",
						"numberOfBytes": "32",
						"value": "t_uint256"
					},
					"t_mapping(t_bytes32,t_uint256)": {
						"encoding": "mapping",
						"key": "t_bytes32",
						"label": "mapping(bytes32 => uint256)",
						"numberOfBytes": "32",
						"value": "t_uint256"
					},
					"t_string_storage": {
						"encoding": "bytes",
						"label": "string",
						"numberOfBytes": "32"
					},
					"t_struct(AddressSet)1446_storage": {
						"encoding": "inplace",
						"label": "struct EnumerableSet.AddressSet",
						"members": [
							{
								"astId": 1445,
								"contract": "token/xSWORD.sol:xeZKaliburToken",
								"label": "_inner",
								"offset": 0,
								"slot": "0",
								"type": "t_struct(Set)1266_storage"
							}
						],
						"numberOfBytes": "64"
					},
					"t_struct(Set)1266_storage": {
						"encoding": "inplace",
						"label": "struct EnumerableSet.Set",
						"members": [
							{
								"astId": 1261,
								"contract": "token/xSWORD.sol:xeZKaliburToken",
								"label": "_values",
								"offset": 0,
								"slot": "0",
								"type": "t_array(t_bytes32)dyn_storage"
							},
							{
								"astId": 1265,
								"contract": "token/xSWORD.sol:xeZKaliburToken",
								"label": "_indexes",
								"offset": 0,
								"slot": "1",
								"type": "t_mapping(t_bytes32,t_uint256)"
							}
						],
						"numberOfBytes": "64"
					},
					"t_uint256": {
						"encoding": "inplace",
						"label": "uint256",
						"numberOfBytes": "32"
					},
					"t_uint8": {
						"encoding": "inplace",
						"label": "uint8",
						"numberOfBytes": "1"
					}
				}
			},
			"userdoc": {
				"kind": "user",
				"methods": {
					"mint(address,uint256)": {
						"notice": "Creates `_amount` token to `_to`."
					}
				},
				"version": 1
			}
		}
	}
}